:100000000C9490000C94B1000C94B1000C94B100CD
:100010000C94B1000C94B1000C94B1000C94B1009C
:100020000C94B1000C94B1000C94B1000C947B21A1
:100030000C94B1000C94B1000C94B1000C94B1007C
:100040000C94B1000C94B1000C94B1000C94B1006C
:100050000C94B1000C94B1000C94B1000C94B1005C
:100060000C94B1000C94B1000C94B1000C94B1004C
:100070000C94B1000C9487250C94B1000C94B10041
:100080000C94441A0C94B1000C94B1000C94B1007F
:100090000C94D01A0C94B1000C94B1000C94B100E3
:1000A0000C94B1000C94B1000C94B1000C94B1000C
:1000B0000C94B1000C94B1000C94B1000C94B100FC
:1000C0000C94B1000C94B1000C941B020C94B10080
:1000D0000C94B1000C94B1000C94B1000C94B100DC
:1000E0000C94B100D01FE71F1720F71F172017200F
:1000F000072017200C94D6020C94D01F0C941720C4
:100100000C94E71F0C94E9250C94F2090C942C1B19
:100110000C94A5020C948C1C0C9407200C94F71FD3
:1001200011241FBECFEFD1E2DEBFCDBF00E00CBF78
:1001300012E0A0E0B2E0EEE0FDE400E00BBF02C0A0
:1001400007900D92A832B107D9F71AE1A8E2B2E000
:1001500001C01D92A93EB107E1F70E94CB000C94AB
:1001600085260C940000CF93DF93CDB7DEB7809146
:1001700028029091290201969093290280932802E7
:10018000DF91CF910895CF93DF93CDB7DEB7000015
:10019000DF91CF910895AF92BF92CF92DF92EF920D
:1001A000FF920F93CF93DF9300D000D0CDB7DEB78F
:1001B0008FE38D838EEF8E83CE0105969A8389839C
:1001C000CE01059601969C838B8381E290E027EF18
:1001D000FC01208382E290E0FC0110828AE290E040
:1001E0002FEFFC0120838DE290E02FEFFC012083B4
:1001F00084E290E02FEFFC01208387E091E0FC0196
:1002000010828BE290E0FC0110828EE290E0FC0113
:10021000108288E091E022E0FC0120830E942E03FE
:100220008B819C81A12CB12CC12CD12CE12CF12CE7
:1002300001E09C014DE354E062E072E085EA92E067
:100240000E943E038B819C81A12CB12CC12CD12C0E
:10025000E12CF12C01E09C014DE354E062E072E0FE
:1002600086ED92E00E943E038B819C81A12CB12CF3
:10027000C12CD12CE12CF12C01E09C014DE354E088
:1002800065E072E08CE29BE10E943E038B819C81E1
:10029000A12CB12CC12CD12CE12CF12C01E09C0122
:1002A0004DE354E068E072E08CE89CE10E943E037C
:1002B0008B819C81A12CB12CC12CD12CE12CF12C57
:1002C00001E09C014DE354E068E072E089EE95E2C4
:1002D0000E943E030E943D0680E090E026960FB605
:1002E000F894DEBF0FBECDBFDF91CF910F91FF908D
:1002F000EF90DF90CF90BF90AF900895CF93DF93B2
:10030000CDB7DEB762970FB6F894DEBF0FBECDBF94
:100310009A8B898B20E1EBE0F2E0CE010196DC01C3
:1003200001900D922A95E1F789899A89892F992759
:1003300082958F709E012F5F3F4F820F931FFC01AC
:1003400080810E948A1A89899A8988279F70892FBB
:10035000990F990B9E012F5F3F4F820F931FFC0156
:1003600080810E948A1A89899A89807F9927959528
:1003700087959595879595958795959587959E01F0
:100380002F5F3F4F820F931FFC0180810E948A1ACA
:1003900089899A898F7099279E012F5F3F4F820F1D
:1003A000931FFC0180810E948A1A62960FB6F8940E
:1003B000DEBF0FBECDBFDF91CF910895CF93DF9306
:1003C000CDB7DEB72D970FB6F894DEBF0FBECDBF09
:1003D0008D87CE0103964AE050E060E070E00E9415
:1003E0002A268D85882F90E09E012D5F3F4F4AE0A1
:1003F00050E0B9010E944026CE0103969A8389837A
:100400000BC089819A81FC0180810E94F71A898141
:100410009A8101969A83898389819A81FC018081DE
:10042000882379F72D960FB6F894DEBF0FBECDBFA7
:10043000DF91CF9108951F920F9200905F000F926D
:10044000112400905B000F922F933F938F939F9303
:10045000EF93FF93CF93DF93CDB7DEB785E290E0C4
:1004600025E230E0F90120812095FC01208384E918
:1004700090E0FC01108285E990E0FC011082DF91A0
:10048000CF91FF91EF919F918F913F912F910F907D
:1004900000925B000F9000925F000F901F901895E4
:1004A000CF93DF93CDB7DEB786E490E0FC01808187
:1004B000882F90E0DF91CF9108950F931F93CF93F2
:1004C000DF93CDB7DEB72C970FB6F894DEBF0FBE23
:1004D000CDBF9C838B837E836D8358874F833A8700
:1004E00029871C870B872B853C858D819E8128174A
:1004F00039071CF480E090E01DC02B853C858B8182
:100500009C81821793071CF48FE790E013C08B85C2
:100510009C8599230CF403969595879595958795D9
:100520009A8389832F81388589819A812817390791
:100530000CF4C9012C960FB6F894DEBF0FBECDBFE8
:10054000DF91CF911F910F910895CF93DF93CDB796
:10055000DEB760970FB6F894DEBF0FBECDBF988BA5
:100560008F8781E090E09A8389838CE193E09C837C
:100570008B8380EE90E09E838D8388E190E0988766
:100580008F838FE790E09A87898781EE90E09C8740
:100590008B8780E691E09E878D8740E054E264EF90
:1005A00070E080E895E20E94471AFFCFCF93DF9377
:1005B0001F921F92CDB7DEB79A8389838AE091E0BC
:1005C00020ECFC0120838BE091E02BE031E0F9018D
:1005D000308120EC2327FC0120838CE291E00E94F3
:1005E000AB04F1CFCF93DF931F921F92CDB7DEB74D
:1005F0009A8389830F900F90DF91CF910895CF93C5
:10060000DF9300D01F92CDB7DEB79C838B830E940F
:10061000D6231A8219820E942C2381E090E00E9446
:10062000372384EF91E00E94AB0480E490E00E94C5
:10063000372384EF91E00E94AB048FE790E00E94A3
:10064000372384EF91E00E94AB0480E490E00E94A5
:10065000372384EF91E00E94AB04DFCFCF93DF9389
:10066000CDB7DEB784E290E02FEFFC01208385E276
:1006700090E0FC011082DF91CF910895AF92BF927C
:10068000CF92DF92EF92FF920F931F93CF93DF935E
:10069000CDB7DEB764970FB6F894DEBF0FBECDBFFF
:1006A0009F838E83798768875B874A873D872C87FE
:1006B0000E87F88AEF86DA8AC98ABC8AAB8A2989CA
:1006C0003A898A859B85B9010E94F40A9B838A83B3
:1006D0008A819B81009709F49FC08A819B81FC01DC
:1006E0002789308D8A859B850197820F931F9D8373
:1006F0008C834A855B852B893C89688579858A81CD
:100700009B818A014E850E94040A4C855D852E815D
:100710003F818C819D81B9010E941C179C018A81B7
:100720009B81FC01318320838F859889009739F064
:100730008F8598892A813B81FC01318320830FB604
:10074000F8940F92809178028F5F80937802809165
:100750002A0290912B02009769F48A819B819093E1
:100760002B0280932A02809178028130B1F40E949A
:10077000650A13C080917D02882379F480912A0252
:1007800090912B02FC0196898E85891730F08A8121
:100790009B8190932B0280932A028A819B81FC018A
:1007A000968980917B02891730F48A819B81FC01B4
:1007B000868980937B02809182028F5F8093820280
:1007C0008A819B81FC01968980917C02891730F493
:1007D0008A819B81FC01868980937C028A819B812E
:1007E000AC014E5F5F4F8A819B81FC018689282F77
:1007F00030E0C901880F991F880F991F880F991F32
:10080000820F931F845D9D4FBA010E948E1281E07A
:1008100089830F900FBE02C08FEF89838981813059
:1008200079F480917D02882359F080912A02909179
:100830002B02FC0196898E85981710F40E942019CE
:10084000898164960FB6F894DEBF0FBECDBFDF91ED
:10085000CF911F910F91FF90EF90DF90CF90BF90BD
:10086000AF900895CF93DF93CDB7DEB728970FB63B
:10087000F894DEBF0FBECDBF9E838D8378876F83D4
:1008800019820E947F068D819E81FC012081318129
:100890008F819885820F931F9B838A838D819E8190
:1008A000FC01208131818091790290917A02821736
:1008B0009307B0F48D819E81FC01208131818A8172
:1008C0009B818217930708F58091790290917A02B3
:1008D0002A813B8182179307C0F481E0898315C088
:1008E0008D819E81FC01208131818A819B818217CB
:1008F000930748F08091790290917A022A813B8196
:100900008217930710F481E089838D819E812A816B
:100910003B81FC01318320838981882359F08091B8
:100920002A0290912B0202960E945E138A819B817B
:100930000E94A90A0E948B068C838C81882311F463
:100940000E94201928960FB6F894DEBF0FBECDBFC7
:10095000DF91CF910895CF93DF9300D01F921F9224
:10096000CDB7DEB79D838C8319828C819D810097E2
:10097000D1F00E947F062091790230917A028C8119
:100980009D81820F931F9B838A8380912A0290917D
:100990002B0202960E945E138A819B810E94A90A03
:1009A0000E948B0689838981882311F40E94201973
:1009B0000F900F900F900F900F90DF91CF910895AF
:1009C000CF93DF9300D01F92CDB7DEB79C838B838C
:1009D0000FB6F8940F9280912A0290912B022B81EE
:1009E0003C812817390711F41C821B828B819C8162
:1009F000009729F480912A0290912B0202C08B81EA
:100A00009C819A83898389819A8102960E945E13D0
:100A100089819A81FC0184899589009729F08981CF
:100A20009A810C960E945E1389819A810296BC017C
:100A30008FE692E00E948E120F900FBE8B819C81F8
:100A40000097A1F480917D02882319F00E9420195B
:100A50000DC090916F0280917802981729F410923E
:100A60002B0210922A0202C00E9421080F900F90C0
:100A70000F900F90DF91CF910895CF93DF9300D027
:100A80001F921F92CDB7DEB79D838C8319828C8114
:100A90009D819B838A838A819B81FC0182859385CA
:100AA000F2E08F369F0791F48A819B81FC01848953
:100AB0009589F2E086369F0749F08A819B81FC0187
:100AC00084899589009711F481E0898389810F9049
:100AD0000F900F900F900F90DF91CF910895CF93CB
:100AE000DF9300D01F92CDB7DEB79C838B838B81C1
:100AF0009C819A83898389819A81009709F44FC0E8
:100B000080912A0290912B0229813A812817390776
:100B100009F445C00FB6F8940F9289819A810E941A
:100B20003D058130D1F589819A8102960E945E133C
:100B300089819A81FC01968980917C02891730F421
:100B400089819A81FC01868980937C0289819A81BE
:100B5000AC014E5F5F4F89819A81FC018689282F05
:100B600030E0C901880F991F880F991F880F991FBE
:100B7000820F931F845D9D4FBA010E948E1289815E
:100B80009A81FC01268980912A0290912B02FC0116
:100B90008689281710F00E9420190F900FBE0F9021
:100BA0000F900F900F90DF91CF910895CF93DF9327
:100BB00000D000D0CDB7DEB79E838D8319828D81A2
:100BC0009E819B838A831C828A819B810E943D0532
:100BD000813009F048C080917E028823E1F58A8146
:100BE0009B81FC01268980912A0290912B02FC01B5
:100BF000968981E0291708F480E089838A819B81A6
:100C000002960E945E138A819B81FC0196898091E5
:100C10007C02891730F48A819B81FC01868980934C
:100C20007C028A819B81AC014E5F5F4F8A819B81F0
:100C3000FC018689282F30E0C901880F991F880F91
:100C4000991F880F991F820F931F845D9D4FBA01D2
:100C50000E948E1208C08A819B810C96BC0186E698
:100C600092E00E948E12898126960FB6F894DEBF1C
:100C70000FBECDBFDF91CF910895AF92BF92CF92BB
:100C8000DF92EF92FF920F93CF93DF931F92CDB736
:100C9000DEB7A12CB12CC12CD12CE12CF12C00E021
:100CA00020E030E045E550E06BE172E082EF99E052
:100CB0000E943E0389838981813051F4F89481E058
:100CC00080937D0210927A02109279020E94E018BD
:100CD0000F90DF91CF910F91FF90EF90DF90CF9029
:100CE000BF90AF900895CF93DF93CDB7DEB7F89460
:100CF00010927D020E941919DF91CF910895CF9330
:100D0000DF93CDB7DEB780917E028F5F80937E0246
:100D1000DF91CF9108950F931F93CF93DF931F928D
:100D20001F92CDB7DEB719820FB6F8940F9280915B
:100D30007E02815080937E0280917E02882309F09A
:100D400064C080917802882309F45FC01A823AC097
:100D500080916B0290916C02FC0106811781C801A1
:100D60000C960E945E13C80102960E945E13F80161
:100D7000968980917C02891720F4F80186898093F6
:100D80007C02A8014E5F5F4FF8018689282F30E072
:100D9000C901880F991F880F991F880F991F820F0B
:100DA000931F845D9D4FBA010E948E12F80126891F
:100DB00080912A0290912B02FC018689281710F05D
:100DC00081E08A8380916602882311F680917F02F8
:100DD000882371F007C00E94440780917F028150F0
:100DE00080937F0280917F028823A9F781E08A8324
:100DF0008A81813021F080918002813031F481E05C
:100E00008983109280020E9420190F900FBE898161
:100E10000F900F90DF91CF911F910F910895CF9375
:100E2000DF931F921F92CDB7DEB70FB6F8940F92E3
:100E30008091790290917A029A8389830F900FBEF4
:100E400089819A810F900F90DF91CF910895CF9370
:100E5000DF9300D0CDB7DEB71982809179029091EF
:100E60007A029B838A838A819B810F900F900F90D7
:100E7000DF91CF910895CF93DF93CDB7DEB7809107
:100E80007802DF91CF910895CF93DF9300D000D007
:100E9000CDB7DEB780917E02882309F0C4C080916F
:100EA000790290917A02019690937A028093790266
:100EB0008091790290917A020097E9F5809162021F
:100EC000909163029A838983809164029091650274
:100ED000909363028093620289819A819093650264
:100EE00080936402809181028F5F80938102809160
:100EF000620290916302FC018081882339F48FEFB4
:100F00009FEF909301028093000215C080916202CE
:100F100090916302FC0185819681FC018681978115
:100F20009C838B838B819C81FC0182819381909334
:100F30000102809300022091790230917A0280911F
:100F40000002909101022817390708F46BC08091C4
:100F5000620290916302FC018081882339F48FEF53
:100F60009FEF90930102809300025CC08091620227
:100F700090916302FC0185819681FC0186819781B5
:100F80009C838B838B819C81FC01828193819E83D6
:100F90008D832091790230917A028D819E8128176C
:100FA000390738F48D819E8190930102809300026D
:100FB00039C08B819C8102960E945E138B819C813B
:100FC000FC0184899589009729F08B819C810C967E
:100FD0000E945E138B819C81FC01968980917C022A
:100FE000891730F48B819C81FC01868980937C0277
:100FF0008B819C81AC014E5F5F4F8B819C81FC019A
:101000008689282F30E0C901880F991F880F991F02
:10101000880F991F820F931F845D9D4FBA010E9414
:101020008E1295CF05C080917F028F5F80937F02E3
:1010300026960FB6F894DEBF0FBECDBFDF91CF91DD
:101040000895CF93DF931F921F92CDB7DEB78091A3
:101050007E02882321F081E0809380027AC0809113
:101060002A0290912B02FC012081318180912A0279
:1010700090912B02FC018789908D8217930770F065
:1010800080912A0290912B029C01275E3F4F809114
:101090002A0290912B02B9010E94C30005C08091E1
:1010A0007C02815080937C0280917C02282F30E06A
:1010B000C901880F991F880F991F880F991F820FE8
:1010C000931F845D9D4FFC018081882341F38091B3
:1010D0007C02282F30E0C901880F991F880F991FC3
:1010E000880F991F820F931F845D9D4F9A83898378
:1010F00089819A81FC0181819281FC012281338165
:1011000089819A81FC013283218389819A81FC0142
:101110002181328189819A8103962817390769F4E0
:1011200089819A81FC0181819281FC012281338134
:1011300089819A81FC013283218389819A81FC0112
:1011400081819281FC018681978190932B0280930B
:101150002A020F900F90DF91CF910895CF93DF93E4
:1011600000D000D0CDB7DEB79C838B837E836D83A8
:1011700080912A0290912B029C01245F3F4F8B812A
:101180009C81B9010E94E51280912A0290912B0264
:1011900002960E945E138D819E818F3F2FEF9207F2
:1011A00059F480912A0290912B020296BC018FE69D
:1011B00092E00E948E120EC02091790230917A0244
:1011C0008D819E81820F931F9A83898389819A8161
:1011D0000E94A90A26960FB6F894DEBF0FBECDBFB7
:1011E000DF91CF910895CF93DF9300D01F921F928C
:1011F000CDB7DEB79D838C838C819D81FC01858179
:101200009681FC01868197819B838A838A819B8159
:101210000C960E945E1380917E02882369F58A8174
:101220009B8102960E945E138A819B81FC019689B4
:1012300080917C02891730F48A819B81FC01868928
:1012400080937C028A819B81AC014E5F5F4F8A81D3
:101250009B81FC018689282F30E0C901880F991FE6
:10126000880F991F880F991F820F931F845D9D4FD0
:10127000BA010E948E1208C08A819B810C96BC0123
:1012800086E692E00E948E128A819B81FC0126896B
:1012900080912A0290912B02FC018689281718F070
:1012A00081E0898301C0198289810F900F900F908E
:1012B0000F900F90DF91CF910895CF93DF931F92FE
:1012C0001F92CDB7DEB79A838983209181028981ED
:1012D0009A81FC0120832091790230917A028981E0
:1012E0009A81FC01328321830F900F90DF91CF917F
:1012F0000895CF93DF9300D01F921F92CDB7DEB732
:101300009B838A837D836C830FB6F8940F928C81C4
:101310009D81FC01808191818F3FFFEF9F0711F438
:1013200019824BC08A819B81FC019081809181024E
:10133000981779F08A819B81FC012181328180910B
:10134000790290917A028217930718F081E08983DD
:1013500034C02091790230917A028A819B81FC010C
:1013600081819281281B390B8C819D81FC018081B8
:10137000918128173907F8F48C819D81FC01208127
:1013800031818A819B81FC01418152818091790266
:1013900090917A02BA01681B790BCB01280F391F93
:1013A0008C819D81FC01318320838A819B810E94F5
:1013B0005D09198202C081E089830F900FBE898187
:1013C0000F900F900F900F900F90DF91CF91089595
:1013D000CF93DF93CDB7DEB781E080938002DF91BA
:1013E000CF910895CF93DF931F921F92CDB7DEB7B1
:1013F0009A8389830E94A20A80912C02823018F07D
:101400000E942019F7CFF6CF0F931F93CF93DF934E
:10141000CDB7DEB729970FB6F894DEBF0FBECDBFAC
:101420009A8389837C836B834D833F832E831987C3
:10143000088789819A8149962B813C8140E150E05F
:10144000B9010E94312689819A81FC0110A68D8103
:10145000843010F083E08D8389819A812D81FC0195
:10146000268B89819A812D81FC0121A789819A810E
:1014700002960E947C1289819A810C960E947C12AD
:1014800089819A8129813A81FC01318720878D8168
:10149000882F90E024E030E0281B390B89819A8165
:1014A000FC013587248789819A8129813A81FC0151
:1014B000338B228B29960FB6F894DEBF0FBECDBFBB
:1014C000DF91CF911F910F910895CF93DF931F92DA
:1014D000CDB7DEB7198213C08981282F30E0C9014A
:1014E000880F991F880F991F880F991F820F931FCC
:1014F000845D9D4F0E94461289818F5F8983898117
:10150000843050F380E592E00E94461289E592E033
:101510000E94461286E692E00E9446128FE692E012
:101520000E94461280E592E09093630280936202EB
:1015300089E592E090936502809364020F90DF91B9
:10154000CF910895CF93DF93CDB7DEB7DF91CF91E1
:101550000895CF93DF931F921F92CDB7DEB79A8382
:10156000898380912A0290912B0229813A81FC0182
:10157000338322838091790290917A0229813A8182
:101580002817390778F480912A0290912B029C0148
:101590002E5F3F4F8091640290916502B9010E94D5
:1015A000E5121DC080912A0290912B029C012E5FB2
:1015B0003F4F8091620290916302B9010E94E5124F
:1015C000809100029091010229813A812817390700
:1015D00030F489819A8190930102809300020F90E8
:1015E0000F90DF91CF910895CF93DF9300D000D07B
:1015F000CDB7DEB79C838B837E836D838AE290E0D8
:101600000E94AD169A83898389819A81009751F14E
:101610008D819E81009729F48B819C810E94AD165B
:1016200002C08D819E8129813A81F901908F878B3B
:1016300089819A81FC018789908D009739F489818D
:101640009A810E94F3161A8219820CC089819A81AC
:10165000FC018789908D2B813C81A90165EA70E0AE
:101660000E942A2689819A8126960FB6F894DEBFB9
:101670000FBECDBFDF91CF9108950F931F93CF93EE
:10168000DF931F921F92CDB7DEB79A83898300E064
:1016900010E009C089819A8101969A838983C801E3
:1016A0008C010F5F1F4F89819A81FC018081853AEF
:1016B00089F3C8010F900F90DF91CF911F910F9187
:1016C0000895CF93DF93CDB7DEB727970FB6F89481
:1016D000DEBF0FBECDBF9F838E838E819F8100971B
:1016E00029F480912A0290912B0202C08E819F8161
:1016F0009A83898389819A81FC018789908D9C8353
:101700008B838B819C810E943D0B8D838D812796DD
:101710000FB6F894DEBF0FBECDBFDF91CF91089515
:10172000CF93DF931F921F92CDB7DEB780912A022D
:1017300090912B029A83898389819A810F900F90CF
:10174000DF91CF910895CF93DF9300D01F92CDB753
:10175000DEB79C838B838B819C819A8389838B8169
:101760009C81009709F478C089819A81FC012689BF
:1017700080912A0290912B02FC018689281708F09B
:101780006BC080912A0290912B02FC018689882FE0
:1017900090E024E030E0281B390B89819A81FC011C
:1017A0003587248789819A81FC0142855385898107
:1017B0009A81FC018689282F30E0C901880F991F82
:1017C000880F991F880F991F820F931F845D9D4F6B
:1017D00048175907B9F589819A8102960E945E13CC
:1017E00080912A0290912B02FC01268989819A819D
:1017F000FC01268B89819A81FC01968980917C026B
:10180000891730F489819A81FC01868980937C0252
:1018100089819A81AC014E5F5F4F89819A81FC0179
:101820008689282F30E0C901880F991F880F991FDA
:10183000880F991F820F931F845D9D4FBA010E94EC
:101840008E120AC080912A0290912B02FC012689F7
:1018500089819A81FC01268B0F900F900F900F9039
:10186000DF91CF910895CF93DF9300D01F92CDB732
:10187000DEB79C838B838B819C819A8389838B8148
:101880009C81009709F44EC089819A81FC012689C8
:1018900089819A81FC0181A5281709F443C08981B7
:1018A0009A8102960E945E1389819A81FC0121A58A
:1018B00089819A81FC01268B89819A81FC01868924
:1018C000882F90E024E030E0281B390B89819A8131
:1018D000FC013587248789819A81FC019689809152
:1018E0007C02891730F489819A81FC018689809372
:1018F0007C0289819A81AC014E5F5F4F89819A8118
:10190000FC018689282F30E0C901880F991F880FB4
:10191000991F880F991F820F931F845D9D4FBA01F5
:101920000E948E120F900F900F900F90DF91CF9129
:101930000895CF93DF9300D0CDB7DEB79A83898324
:101940006B830FB6F8940F9289819A81FC012081F4
:10195000318189819A81FC01838D682F70E08981B2
:101960009A81FC01848D482F50E0649FC001659FDF
:10197000900D749F900D1124280F391F89819A8131
:10198000FC013383228389819A81FC01128E898133
:101990009A81FC012081318189819A81FC01358302
:1019A000248389819A81FC012081318189819A81F6
:1019B000FC01838D882F90E0BC0161507109898101
:1019C0009A81FC01848D482F50E0649FC001659F7F
:1019D000900D749F900D1124280F391F89819A81D1
:1019E000FC013783268389819A812FEFFC01258FA3
:1019F00089819A812FEFFC01268F8B81882381F4C6
:101A000089819A81FC0180858823A1F089819A814E
:101A100008960E94F308813069F40E9420190AC0D8
:101A200089819A8108960E94461289819A814196FD
:101A30000E9446120F900FBE81E00F900F900F9002
:101A4000DF91CF910895CF93DF93CDB7DEB729977C
:101A50000FB6F894DEBF0FBECDBF8F83688749876E
:101A60001A8219828F81882309F443C08FE190E0A4
:101A70000E94AD169C838B838B819C810097C9F15A
:101A80008F81482F50E08885282F30E0429FC00189
:101A9000439F900D529F900D112401969E838D833C
:101AA0008D819E810E94AD169C018B819C81FC01E1
:101AB000318320838B819C81FC01808191810097FF
:101AC000A1F08B819C812F81FC01238F8B819C81D4
:101AD0002885FC01248F8B819C8161E00E94990CF8
:101AE0008B819C819A83898304C08B819C810E9415
:101AF000F31689819A8129960FB6F894DEBF0FBE3E
:101B0000CDBFDF91CF910895CF93DF9300D0CDB7B4
:101B1000DEB78B838FE190E00E94AD169A838983B4
:101B200089819A810097F1F189819A81FC01138260
:101B3000128289819A81FC011182108289819A81A5
:101B4000FC011582148289819A81FC011782168218
:101B500089819A81FC01128E89819A8121E0FC01A0
:101B6000238F89819A81FC01148E89819A812FEFBC
:101B7000FC01258F89819A812FEFFC01268F8981B5
:101B80009A8108960E94461289819A8141960E9404
:101B9000461289819A8120E040E050E060E070E0E8
:101BA0000E94DA0D89819A810F900F900F90DF913A
:101BB000CF910895CF93DF93CDB7DEB72B970FB6B4
:101BC000F894DEBF0FBECDBF9E838D8378876F8371
:101BD0005A8749872B8719820FB6F8940F928D8107
:101BE0009E81FC01228D8D819E81FC01838D2817B1
:101BF000D8F42F8138858D819E814B85B9010E9453
:101C000064108D819E81FC018189882349F08D813A
:101C10009E8141960E94F308813011F40E942019A0
:101C20000F900FBE81E061C089859A85009721F4ED
:101C30000F900FBE80E059C08981882331F4CE0116
:101C400002960E945D0981E089830F900FBE0E9479
:101C50007F060FB6F8940F928D819E81FC01858DD1
:101C60008F3F21F48D819E81FC01158E8D819E8197
:101C7000FC01868D8F3F21F48D819E81FC01168EA3
:101C80000F900FBE9E01275F3F4FCE010296B90114
:101C90000E947909882301F58D819E810E940B1293
:101CA000882399F029853A858D819E810896B9010E
:101CB0000E94AE088D819E810E9473110E948B0646
:101CC000882391F40E9420190FC08D819E810E946B
:101CD00073110E948B0680CF8D819E810E947311AB
:101CE0000E948B0680E001C077CF2B960FB6F89448
:101CF000DEBF0FBECDBFDF91CF910895CF93DF93AD
:101D0000CDB7DEB729970FB6F894DEBF0FBECDBFB3
:101D10009C838B837E836D8358874F8329871A82A8
:101D20008B819C81FC01228D8B819C81FC01838DA8
:101D3000281790F52D813E818B819C814985B901C1
:101D40000E9464108B819C81FC01868D8F3FB9F4C9
:101D50008B819C81FC0181898823D9F08B819C81B6
:101D600041960E94F3088823A1F08F8198850097FF
:101D700081F08F81988521E0FC0120830AC08B814E
:101D80009C81FC01868D21E0280F8B819C81FC01C8
:101D9000268F81E0898301C01982898129960FB637
:101DA000F894DEBF0FBECDBFDF91CF910895CF93E2
:101DB000DF93CDB7DEB72D970FB6F894DEBF0FBE19
:101DC000CDBF98878F837A8769875C874B872D87FC
:101DD00019820FB6F8940F928F819885FC01828D3D
:101DE000882309F454C08F819885FC0186819781EE
:101DF0009B838A8329853A858F819885B9010E94C2
:101E000022118D85882349F58F819885FC01828D6B
:101E10002FEF280F8F819885FC01228F8F81988565
:101E2000FC0180819181009741F40E94900B9C01FC
:101E30008F819885FC01338322838F819885FC01F3
:101E40008085882301F18F81988508960E94F30888
:101E50008130C9F40E94201916C08F8198852A818B
:101E60003B81FC01378326838F819885FC01818922
:101E7000882349F08F81988541960E94F308882332
:101E800011F00E9420190F900FBE81E074C08B8565
:101E90009C85009721F40F900FBE80E06CC0898173
:101EA000882331F4CE0104960E945D0981E0898384
:101EB0000F900FBE0E947F060FB6F8940F928F818D
:101EC0009885FC01858D8F3F21F48F819885FC01D9
:101ED000158E8F819885FC01868D8F3F21F48F812F
:101EE0009885FC01168E0F900FBE9E01255F3F4F17
:101EF000CE010496B9010E947909882399F58F8152
:101F000098850E94D811882331F18F819885FC0132
:101F100080819181009761F40FB6F8940F928F81C0
:101F20009885FC01828193810E94A30B0F900FBEC4
:101F30002B853C858F8198854196B9010E94AE081A
:101F40008F8198850E9473110E948B06882391F4DB
:101F50000E9420190FC08F8198850E9473110E94E2
:101F60008B0637CF8F8198850E9473110E948B0654
:101F700080E001C02ECF2D960FB6F894DEBF0FBEC5
:101F8000CDBFDF91CF910895CF93DF93CDB7DEB76B
:101F900028970FB6F894DEBF0FBECDBF9C838B830E
:101FA0007E836D8358874F831A828B819C81FC01CD
:101FB000828D8823D9F12D813E818B819C81B9014D
:101FC0000E9422118B819C81FC01828D2FEF280FB2
:101FD0008B819C81FC01228F8B819C81FC01858DF2
:101FE0008F3FB9F48B819C81FC0180858823D9F0D7
:101FF0008B819C8108960E94F3088823A1F08F8131
:102000009885009781F08F81988521E0FC012083DD
:102010000AC08B819C81FC01858D21E0280F8B817A
:102020009C81FC01258F81E0898301C0198289810F
:1020300028960FB6F894DEBF0FBECDBFDF91CF91CB
:102040000895CF93DF9300D0CDB7DEB79B838A830B
:102050000FB6F8940F928A819B81FC01828D89834F
:102060000F900FBE89810F900F900F90DF91CF914D
:102070000895CF93DF9300D0CDB7DEB79B838A83DB
:102080008A819B81FC01828D898389810F900F90C9
:102090000F90DF91CF910895CF93DF931F921F92FE
:1020A000CDB7DEB79A83898389819A81FC018081CB
:1020B00091810E94F31689819A810E94F3160F90F4
:1020C0000F90DF91CF910895CF93DF9300D01F92AF
:1020D0001F92CDB7DEB79A8389837C836B834D8350
:1020E00089819A81FC01848D8823A9F489819A8150
:1020F000FC0180819181009709F092C089819A81C9
:10210000FC01828193810E94330C89819A81FC01B8
:102110001382128285C08D818823D9F589819A81A5
:10212000FC01848D482F50E089819A81FC018481D3
:1021300095812B813C81B9010E94212689819A8158
:10214000FC012481358189819A81FC01848D882F4D
:1021500090E0280F391F89819A81FC0135832483FF
:1021600089819A81FC012481358189819A81FC01D0
:10217000828193812817390708F452C089819A8196
:10218000FC012081318189819A81FC01358324837E
:1021900047C089819A81FC01848D482F50E0898154
:1021A0009A81FC01868197812B813C81B9010E9433
:1021B000212689819A81FC012681378189819A8132
:1021C000FC01848D882F90E0919581959109280FCD
:1021D000391F89819A81FC013783268389819A81FD
:1021E000FC012681378189819A81FC01808191815E
:1021F00028173907A8F489819A81FC01228133814B
:1022000089819A81FC01848D882F90E09195819538
:102210009109280F391F89819A81FC013783268310
:1022200089819A81FC01828D21E0280F89819A8120
:10223000FC01228F0F900F900F900F900F90DF9165
:10224000CF910895CF93DF9300D01F92CDB7DEB723
:102250009A8389837C836B8389819A81FC01808145
:1022600091810097C9F189819A81FC01268137818A
:1022700089819A81FC01848D882F90E0280F391F75
:1022800089819A81FC013783268389819A81FC01A7
:102290002681378189819A81FC0182819381281767
:1022A000390750F089819A81FC012081318189812F
:1022B0009A81FC013783268389819A81FC01848D70
:1022C000482F50E089819A81FC01268137818B81DA
:1022D0009C81B9010E9421260F900F900F900F90C2
:1022E000DF91CF910895CF93DF931F921F92CDB7C7
:1022F000DEB79A8389830FB6F8940F921BC0898149
:102300009A81FC0181898823A1F089819A81419673
:102310000E94F308882311F00E94E80989819A81BC
:10232000FC01868D2FEF280F89819A81FC01268F71
:1023300001C006C089819A81FC01868D1816FCF2C5
:1023400089819A812FEFFC01268F0F900FBE0FB667
:10235000F8940F921BC089819A81FC0180858823A3
:10236000A1F089819A8108960E94F308882311F0D0
:102370000E94E80989819A81FC01858D2FEF280F41
:1023800089819A81FC01258F01C006C089819A81CB
:10239000FC01858D1816FCF289819A812FEFFC01D2
:1023A000258F0F900FBE0F900F90DF91CF91089562
:1023B000CF93DF9300D0CDB7DEB79B838A830FB670
:1023C000F8940F928A819B81FC01928D81E0992380
:1023D00009F080E089830F900FBE89810F900F90E4
:1023E0000F90DF91CF910895CF93DF9300D0CDB7B9
:1023F000DEB79B838A838A819B81FC01928D81E079
:10240000992309F080E0898389810F900F900F90C4
:10241000DF91CF910895CF93DF9300D0CDB7DEB792
:102420009B838A830FB6F8940F928A819B81FC016B
:10243000228D8A819B81FC01938D81E0291709F00F
:1024400080E089830F900FBE89810F900F900F90CD
:10245000DF91CF910895CF93DF9300D0CDB7DEB752
:102460009B838A838A819B81FC01228D8A819B8147
:10247000FC01938D81E0291709F080E0898389812F
:102480000F900F900F90DF91CF910895CF93DF932E
:102490001F921F92CDB7DEB79A83898389819A8173
:1024A0009C012D5F3F4F89819A81FC0132832183FA
:1024B00089819A812FEF3FEFFC0134832383898147
:1024C0009A819C012D5F3F4F89819A81FC0136835F
:1024D000258389819A819C012D5F3F4F89819A8153
:1024E000FC013087278389819A81FC0110820F903B
:1024F0000F90DF91CF910895CF93DF931F921F929A
:10250000CDB7DEB79A83898389819A81FC011186D0
:1025100010860F900F90DF91CF910895CF93DF93A6
:1025200000D000D0CDB7DEB79C838B837E836D83D4
:102530008B819C81FC01818192819A83898389812D
:102540009A81FC01228133818D819E81FC0133833C
:1025500022838B819C81FC01218132818D819E812E
:10256000FC013583248389819A81FC0182819381D6
:102570002D813E81FC013583248389819A812D81BF
:102580003E81FC01338322838B819C812D813E819E
:10259000FC01328321838D819E812B813C81FC0152
:1025A000318720878B819C81FC01808121E0280F6D
:1025B0008B819C81FC01208326960FB6F894DEBFA8
:1025C0000FBECDBFDF91CF910895CF93DF93CDB7ED
:1025D000DEB728970FB6F894DEBF0FBECDBF9E833F
:1025E0008D8378876F838F819885FC0180819181AD
:1025F0009C838B838B819C818F3FFFEF9F0741F4EE
:102600008D819E81FC01878190859A8389831AC080
:102610008D819E8103969A83898307C089819A81DF
:10262000FC01828193819A83898389819A81FC014B
:1026300082819381FC01208131818B819C81821771
:10264000930760F789819A81FC01228133818F8110
:102650009885FC01338322838F819885FC018281D8
:1026600093812F813885FC01358324838F81988560
:1026700029813A81FC013583248389819A812F81C4
:102680003885FC01338322838F8198852D813E819B
:10269000FC01318720878D819E81FC01808121E0B2
:1026A000280F8D819E81FC01208328960FB6F89417
:1026B000DEBF0FBECDBFDF91CF910895CF93DF93E3
:1026C00000D01F92CDB7DEB79C838B838B819C811A
:1026D000FC01828193812B813C81F9012481358128
:1026E000FC01358324838B819C81FC01848195814D
:1026F0002B813C81F90122813381FC0133832283C8
:102700008B819C81FC01808591859A838983898155
:102710009A81FC01218132818B819C8128173907A4
:1027200051F48B819C81FC012481358189819A81BE
:10273000FC01328321838B819C81FC0111861086F0
:1027400089819A81FC0180812FEF280F89819A81EC
:10275000FC01208389819A81FC0180810F900F9078
:102760000F900F90DF91CF910895CF93DF93CDB766
:10277000DEB727970FB6F894DEBF0FBECDBF9D839F
:102780008C836E834F838AE190E00E94AD169B8319
:102790008A838A819B81009709F477C080918302A4
:1027A00090918402009741F48A819B8190938402E6
:1027B000809383020E943B168E81823010F081E06C
:1027C0008E838A819B81FC01118E108E8A819B8170
:1027D0002E81FC01268B8A819B812F81FC01278B16
:1027E0008A819B812C813D81FC01318320838A81F8
:1027F0009B8102960E947C128A819B810C960E948A
:102800007C128A819B812A813B81FC013187208750
:102810008A819B812A813B81FC01338B228B8E81B3
:10282000882F90E024E030E0281B390B8A819B81BF
:10283000FC01358724878A819B81FC0196898091E0
:10284000B602891730F48A819B81FC0186898093C6
:10285000B6028A819B81AC014E5F5F4F8A819B816A
:10286000FC018689282F30E0C901880F991F880F45
:10287000991F880F991F820F931F8B579D4FBA0185
:102880000E948E1281E0898302C08FEF8983898143
:1028900027960FB6F894DEBF0FBECDBFDF91CF9164
:1028A0000895CF93DF9300D000D0CDB7DEB79C83DF
:1028B0008B837E836D832091B7023091B8028B8128
:1028C0009C81820F931F9A838983809183029091C8
:1028D000840202960E945E1380918302909184028A
:1028E00029813A81FC01338322838091B702909140
:1028F000B80229813A812817390778F48091830238
:10290000909184029C012E5F3F4F8091AB02909189
:10291000AC02B9010E94E5120EC080918302909131
:1029200084029C012E5F3F4F8091A9029091AA02E0
:10293000B9010E94E5128D819E81009761F080911E
:102940008302909184029C01245F3F4F8D819E8180
:10295000B9010E94E51226960FB6F894DEBF0FBEAD
:10296000CDBFDF91CF910895CF93DF931F921F9238
:10297000CDB7DEB73CC0F8948091B2029091B3021B
:10298000FC01868197819A83898389819A810C963B
:102990000E945E13789489819A8102960E945E1348
:1029A00089819A81FC0196898091B602891730F459
:1029B00089819A81FC0186898093B60289819A81F6
:1029C000AC014E5F5F4F89819A81FC018689282F77
:1029D00030E0C901880F991F880F991F880F991F30
:1029E000820F931F8B579D4FBA010E948E128091C8
:1029F000AD02882309F0BFCF0F900F90DF91CF91E8
:102A00000895CF93DF9300D01F92CDB7DEB70E9419
:102A10000F079C018091B9029091BA02A901481B4D
:102A2000590BCA019093BC028093BB028AC080916B
:102A3000B7029091B80201969093B8028093B702C2
:102A40008091BB029091BC0201979093BC0280934D
:102A5000BB028091B7029091B8020097A9F48091CF
:102A6000A9029091AA029A8389838091AB029091E6
:102A7000AC029093AA028093A90289819A819093D3
:102A8000AC028093AB0254C053C08091A9029091D4
:102A9000AA02FC0185819681FC01868197819C8335
:102AA0008B838B819C81FC01228133818091B702D1
:102AB0009091B8028217930708F443C0F8948B8171
:102AC0009C8102960E945E138B819C81FC0184890B
:102AD0009589009729F08B819C810C960E945E134A
:102AE00078948B819C81FC0196898091B60289172C
:102AF00030F48B819C81FC0186898093B6028B81A6
:102B00009C81AC014E5F5F4F8B819C81FC0186896B
:102B1000282F30E0C901880F991F880F991F880F4F
:102B2000991F820F931F8B579D4FBA010E948E12DF
:102B30008091A9029091AA02FC018081882309F06A
:102B4000A4CF8091BB029091BC02009709F06FCF97
:102B50008091B7029091B8029093BA028093B90223
:102B60000F900F900F900F90DF91CF910895CF931A
:102B7000DF931F921F92CDB7DEB70E94B4140E945C
:102B800001150AC08091B602882309F46FC08091B4
:102B9000B60281508093B6028091B602282F30E0B1
:102BA000C901880F991F880F991F880F991F820FDD
:102BB000931F8B579D4FFC018081882319F38091CF
:102BC000B602282F30E0C901880F991F880F991F7E
:102BD000880F991F820F931F8B579D4F9A8389836C
:102BE00089819A81FC0181819281FC01228133815A
:102BF00089819A81FC013283218389819A81FC0138
:102C00002181328189819A8103962817390769F4D5
:102C100089819A81FC0181819281FC012281338129
:102C200089819A81FC013283218389819A81FC0107
:102C300081819281FC0186819781909384028093A7
:102C400083028091830290918402FC012081318172
:102C50008091830290918402FC01478980918302D4
:102C600090918402642FF901199500000F900F9044
:102C7000DF91CF910895CF93DF931F92CDB7DEB749
:102C8000198213C08981282F30E0C901880F991F4C
:102C9000880F991F880F991F820F931F8B579D4F85
:102CA0000E94461289818F5F89838981823050F327
:102CB00087E992E00E94461280EA92E00E94461262
:102CC0008DEA92E00E94461287E992E09093AA0270
:102CD0008093A90280EA92E09093AC028093AB02C9
:102CE0000F90DF91CF910895CF93DF9300D01F9283
:102CF0001F92CDB7DEB79D838C838C819D81FC01B3
:102D000085819681FC01868197819B838A838A8154
:102D10009B810C960E945E138A819B810C96BC015C
:102D20008DEA92E00E948E128A819B81FC012689A5
:102D30008091830290918402FC018689281718F003
:102D400081E0898301C0198289810F900F900F90D3
:102D50000F900F90DF91CF910895CF93DF9300D024
:102D60001F92CDB7DEB79C838B831A8219820E9493
:102D70007F062091BD1A3091BE1A8B819C81820FF3
:102D8000931F811528E1920718F52091BD1A309103
:102D9000BE1A8B819C81280F391F8091BD1A90919A
:102DA000BE1A82179307A0F48091BD1A9091BE1AA3
:102DB00083549D4F9A8389832091BD1A3091BE1A06
:102DC0008B819C81820F931F9093BE1A8093BD1AB2
:102DD0000E948B0689819A810F900F900F900F901F
:102DE000DF91CF910895CF93DF931F921F92CDB7BC
:102DF000DEB79A8389830F900F90DF91CF9108956A
:102E0000CF93DF93CDB7DEB71092BE1A1092BD1AE2
:102E1000DF91CF910895CF93DF93CDB7DEB7809147
:102E2000BD1A9091BE1A20E038E1A901481B590B48
:102E3000CA01DF91CF910895CF93DF93CDB7DEB76D
:102E400028970FB6F894DEBF0FBECDBF9C838B834F
:102E50007E836D8358874F838B819C8121E1FC01A8
:102E600020838B819C8101979C838B838B819C81A8
:102E700022E2FC0120838B819C8101979C838B83C0
:102E80008B819C8123E3FC0120838B819C810197B2
:102E90009C838B838D819E819A83898329818B81F9
:102EA0009C81FC0120838B819C8101979C838B8377
:102EB00089819A81892F99279A83898329818B8196
:102EC0009C81FC0120838B819C8101979C838B8357
:102ED0008B819C81FC0110828B819C8101979C835A
:102EE0008B838B819C81FC0110828B819C8101975B
:102EF0009C838B838B819C8120E8FC0120838B81C8
:102F00009C8101979C838B838B819C81FC01108227
:102F10008B819C8101979C838B838B819C81FC019D
:102F200010828B819C8101979C838B838B819C81F8
:102F3000FC0110828B819C8101979C838B838B8108
:102F40009C8122E0FC0120838B819C8101979C83E2
:102F50008B838B819C8123E0FC0120838B819C816E
:102F600001979C838B838B819C8124E0FC012083CF
:102F70008B819C8101979C838B838B819C8125E035
:102F8000FC0120838B819C8101979C838B838B81A7
:102F90009C8126E0FC0120838B819C8101979C838E
:102FA0008B838B819C8127E0FC0120838B819C811A
:102FB00001979C838B838B819C8128E0FC0120837B
:102FC0008B819C8101979C838B838B819C8129E0E1
:102FD000FC0120838B819C8101979C838B838B8157
:102FE0009C8120E1FC0120838B819C8101979C8343
:102FF0008B838B819C8121E1FC0120838B819C81CF
:1030000001979C838B838B819C8122E1FC0120832F
:103010008B819C8101979C838B838B819C8123E195
:10302000FC0120838B819C8101979C838B838B8106
:103030009C8124E1FC0120838B819C8101979C83EE
:103040008B838B819C8125E1FC0120838B819C817A
:1030500001979C838B838B819C8126E1FC012083DB
:103060008B819C8101979C838B838B819C8127E141
:10307000FC0120838B819C8101979C838B838B81B6
:103080009C8128E1FC0120838B819C8101979C839A
:103090008B838B819C8129E1FC0120838B819C8126
:1030A00001979C838B838B819C8120E2FC01208390
:1030B0008B819C8101979C838B838B819C8121E2F6
:1030C000FC0120838B819C8101979C838B838B8166
:1030D0009C8122E2FC0120838B819C8101979C834F
:1030E0008B838B819C8123E2FC0120838B819C81DB
:1030F00001979C838B838F8198859A83898329810B
:103100008B819C81FC0120838B819C8101979C8316
:103110008B8389819A81892F99279A838983298131
:103120008B819C81FC0120838B819C8101979C83F6
:103130008B838B819C8126E2FC0120838B819C8187
:1031400001979C838B838B819C8127E2FC012083E8
:103150008B819C8101979C838B838B819C8128E24E
:10316000FC0120838B819C8101979C838B838B81C5
:103170009C8129E2FC0120838B819C8101979C83A7
:103180008B838B819C8120E3FC0120838B819C813C
:1031900001979C838B838B819C8121E3FC0120839D
:1031A0008B819C8101979C838B838B819C8128964A
:1031B0000FB6F894DEBF0FBECDBFDF91CF9108955B
:1031C000CF93DF93CDB7DEB70E94E419A0912A0216
:1031D000B0912B02CD91CDBFDD91DEBFFF91EF917C
:1031E000DF91CF91BF91AF919F918F917F916F911F
:1031F0005F914F913F912F911F910F91FF90EF9011
:10320000DF90CF90BF90AF909F908F907F906F9006
:103210005F904F903F902F901F900F900CBE0F909B
:103220000BBE0F900FBE0F90089581E0DF91CF91FC
:103230000895CF93DF93CDB7DEB7DF91CF91089597
:103240000F920FB6F8940F920BB60F920CB60F9226
:103250001F9211242F923F924F925F926F927F9212
:103260008F929F92AF92BF92CF92DF92EF92FF9296
:103270000F931F932F933F934F935F936F937F937E
:103280008F939F93AF93BF93CF93DF93EF93FF936E
:10329000A0912A02B0912B020DB60D920EB60D929E
:1032A0000E942108A0912A02B0912B02CD91CDBF9E
:1032B000DD91DEBFFF91EF91DF91CF91BF91AF9193
:1032C0009F918F917F916F915F914F913F912F913E
:1032D0001F910F91FF90EF90DF90CF90BF90AF9034
:1032E0009F908F907F906F905F904F903F902F9026
:1032F0001F900F900CBE0F900BBE0F900FBE0F9043
:1033000008950F920FB6F8940F920BB60F920CB669
:103310000F921F9211242F923F924F925F926F92C1
:103320007F928F929F92AF92BF92CF92DF92EF9255
:10333000FF920F931F932F933F934F935F936F933E
:103340007F938F939F93AF93BF93CF93DF93EF932D
:10335000FF93A0912A02B0912B020DB60D920EB6EA
:103360000D920E9444070E942108A0912A02B09168
:103370002B02CD91CDBFDD91DEBFFF91EF91DF91AB
:10338000CF91BF91AF919F918F917F916F915F91FD
:103390004F913F912F911F910F91FF90EF90DF90F0
:1033A000CF90BF90AF909F908F907F906F905F90E5
:1033B0004F903F902F901F900F900CBE0F900BBE20
:1033C0000F900FBE0F900895CF93DF9300D000D0E1
:1033D000CDB7DEB780E09DE7A0E0B0E089839A83B7
:1033E000AB83BC8389819A81AB81BC81689415F8D9
:1033F000B695A795979587951694D1F789839A8363
:10340000AB83BC8389819A81AB81BC810197A1097F
:10341000B10989839A83AB83BC8389818D83898138
:103420009A81AB81BC81892F9A2FAB2FBB278983CF
:103430009A83AB83BC8389818E8389E990E02E8156
:10344000FC01208388E990E02D81FC0120838BE042
:103450008D8381E990E02D81FC01208381E790E05C
:10346000FC0180818D838D8182608D8381E790E076
:103470002D81FC01208326960FB6F894DEBF0FBE87
:10348000CDBFDF91CF9108950E9481191895CF93F8
:10349000DF9300D000D0CDB7DEB79A8389834B830A
:1034A0005C836D837E8340E061E080E40E94230DB5
:1034B0009093D11A8093D01A40E061E088E00E9496
:1034C000230D9093CD1A8093CC1A85EC90E0FC01EB
:1034D000108284EC90E028E0FC01208381EC90E0F5
:1034E00028E1FC01208382EC90E026E0FC012083AF
:1034F00080EC90E020EC30E0F90120812D7FFC0190
:10350000208326960FB6F894DEBF0FBECDBFDF91A5
:10351000CF910895CF93DF931F92CDB7DEB7898304
:10352000000080EC90E0FC018081882F90E08072A8
:1035300099270097B1F386EC90E02981FC01208364
:103540000F90DF91CF910895CF93DF931F92CDB766
:10355000DEB78983000080EC90E0FC018081882F39
:1035600090E0807299270097B1F386EC90E0298172
:10357000FC0120830F90DF91CF910895CF93DF93CB
:10358000CDB7DEB7000080ED90E0FC01808188239C
:10359000D4F786ED90E0FC018081DF91CF91089512
:1035A0001F920F9200905F000F92112400905B0019
:1035B0000F928F939F93EF93FF93CF93DF931F927D
:1035C000CDB7DEB78EEC90E0FC01808189830F904F
:1035D000DF91CF91FF91EF919F918F910F9000928A
:1035E0005B000F9000925F000F901F901895CF9393
:1035F000DF931F92CDB7DEB789838091D01A909167
:10360000D11A20E04FEF5FEFBE016F5F7F4F0E9446
:10361000DA0D0F90DF91CF910895CF93DF931F9232
:103620001F92CDB7DEB79A8389830BC089819A81B7
:10363000FC0180810E94F71A89819A8101969A8300
:10364000898389819A81FC018081882379F70F9091
:103650000F90DF91CF910895CF93DF9300D0CDB736
:10366000DEB79B838A838091D01A9091D11A20E093
:103670004FEF5FEFBE016F5F7F4F0E94D70E0000DC
:1036800088EC90E0FC018081882F90E0807299277F
:103690000097B1F38EEC90E02981FC012083E3CF09
:1036A000CF93DF931F92CDB7DEB789838091CE1A77
:1036B0009091CF1A20E04FEF5FEFBE016F5F7F4F19
:1036C0000E94DA0D0F90DF91CF910895CF93DF9391
:1036D0001F921F92CDB7DEB79A8389830BC0898171
:1036E0009A81FC0180810E94501B89819A810196F8
:1036F0009A83898389819A81FC018081882379F763
:103700000F900F90DF91CF910895CF93DF9300D06A
:10371000CDB7DEB79B838A838091CE1A9091CF1A62
:1037200020E04FEF5FEFBE016F5F7F4F0E94D70E2B
:10373000000080EC90E0FC018081882F90E0807296
:1037400099270097B1F386EC90E02981FC01208352
:10375000E3CFCF93DF931F92CDB7DEB78091CC1A22
:103760009091CD1A20E041E050E0BE016F5F7F4FA5
:103770000E94D70E813011F4898101C08FEF0F9024
:10378000DF91CF910895CF93DF9300D01F92CDB7F3
:10379000DEB79C838B831A82198205C089819A8146
:1037A00001969A83898329813A818B819C8128178C
:1037B0003907A4F30F900F900F900F90DF91CF91E6
:1037C0000895CF93DF93CDB7DEB780E80E948A1AC1
:1037D000DF91CF910895CF93DF93CDB7DEB780E02F
:1037E0000E948A1ADF91CF910895CF93DF93CDB7CE
:1037F000DEB72D970FB6F894DEBF0FBECDBF9B8707
:103800008A877D876C871A8219821C821B8283E0DB
:1038100090E098878F836DC02EC082E390E09E83F6
:103820008D8310C08D819E8101979E838D838D81B4
:103830009E81009719F48FEF9FEF65C081E090E0C3
:103840000E94AB0480EC90E0FC018081882354F757
:1038500086EC90E0FC018081898789819A812C85A2
:103860003D85820F931F2985FC01208389819A81E0
:1038700001969A83898329813A818A859B852817B5
:1038800039075CF282E390E09E838D8310C08D81C6
:103890009E8101979E838D838D819E81009719F46F
:1038A0008FEF9FEF30C081E090E00E94AB0480EC8E
:1038B00090E0FC018081882354F786EC90E0FC01C5
:1038C000808189872A858C859D85622F0E94CC1DE9
:1038D000982F8985981741F00E94EB1B8B819C8162
:1038E00001969C838B8305C00E94E11B80E090E0E1
:1038F0000AC02B813C818F819885281739070CF4E9
:103900008BCF8FEF9FEF2D960FB6F894DEBF0FBED3
:10391000CDBFDF91CF910895CF93DF93CDB7DEB7C1
:10392000CC55D1090FB6F894DEBF0FBECDBF9E01B6
:10393000255A3F4FF9019183808384E290E02FEF75
:10394000FC01208319828EE190E09B838A832DC045
:1039500012C08A819B8101979B838A838A819B8184
:10396000009729F419828EE190E09B838A8381E09D
:1039700090E00E94AB0480EC90E0FC018081882301
:1039800044F786EC90E0FC0180818C838981992743
:1039900087FD90959E012A5F3F4F820F931F2C81D8
:1039A000FC01208389818F5F89838981843084F23F
:1039B000CE01069663E00E94CC1D982F898598174A
:1039C00021F00E94EB1B198229C00E94E11B198281
:1039D0008E818E8B8F818F8B88858D838D818823BF
:1039E00081F08D81882F90E09E012A5E3F4F2D5FF0
:1039F0003F4FB9010E94F51B8F3FFFEF9F0709F46E
:103A00000DC09E01275C3F4FCE014696B9010E9432
:103A1000A31FCE01C9960E940F1D94CF93CFCF93C1
:103A2000DF93CDB7DEB728970FB6F894DEBF0FBE91
:103A3000CDBF98878F8382E390E09C838B838F81B7
:103A40009885FC0180810E948A1A81E090E00E94A2
:103A5000AB048F819885FC0181810E948A1A81E0E4
:103A600090E00E94AB048F819885FC0180818D835A
:103A70008F819885FC0181818E83CE01059662E05D
:103A80000E94CC1D0E948A1A0E94A21D992787FDC0
:103A90009095009759F081309105A9F08F3FFFEF85
:103AA0009F0709F0CCCF8FEF9FEF43C08B819C81A4
:103AB00001979C838B838B819C81009719F48FEFF6
:103AC0009FEF37C0BCCF00001A82198214C02F812B
:103AD000388589819A81820F931F0296FC0180812B
:103AE0000E948A1A81E090E00E94AB0489819A8149
:103AF00001969A8389838F819885FC018181282F83
:103B0000332727FD309589819A8182179307FCF22C
:103B10008F819885FC018181282F8F81988502965D
:103B2000622F0E94CC1D0E948A1A0E94A21D80E072
:103B300090E028960FB6F894DEBF0FBECDBFDF91A0
:103B4000CF910895CF93DF931F921F92CDB7DEB729
:103B500088E893E19A8389830BC089819A810197D0
:103B60009A83898389819A81009711F48FEF0FC01E
:103B700080ED90E0FC01808188237CF786ED90E069
:103B8000FC018081803811F481E001C080E00F9059
:103B90000F90DF91CF910895CF93DF9300D000D0A5
:103BA000CDB7DEB79D838C836E8319821B821A8208
:103BB00011C08C819D819C012F5F3F4F3D832C83E1
:103BC000FC0180819981890F89838A819B8101967B
:103BD0009B838A838E81282F30E08A819B81821784
:103BE00093073CF3898126960FB6F894DEBF0FBE8B
:103BF000CDBFDF91CF910895CF93DF931F921F9296
:103C0000CDB7DEB79A83898381E00F900F90DF9163
:103C1000CF910895CF93DF93CDB7DEB727970FB637
:103C2000F894DEBF0FBECDBF89837B836A835D833B
:103C30004C833F832E838981992787FD909582301D
:103C4000910581F083309105C1F08130910501F536
:103C50008E819F810E9469228C819D812CE0FC01D4
:103C6000208316C08A819B81FC0120818E819F81E7
:103C7000BC01822F0E9494220BC08A819B81FC018F
:103C800020818E819F81BC01822F0E94BF22000073
:103C900081E027960FB6F894DEBF0FBECDBFDF914F
:103CA000CF910895CF93DF9300D01F921F92CDB78D
:103CB000DEB789837B836A835D834C8389819927FF
:103CC00087FD9095009721F08130910531F013C068
:103CD0008C819D810E9467230EC08C819D81FC0197
:103CE00011828A819B81FC018081992787FD9095B3
:103CF0000E947923000081E00F900F900F900F90A9
:103D00000F90DF91CF910895CF93DF9300D01F9252
:103D10001F92CDB7DEB789837B836A835D834C8333
:103D20008981992787FD909582309105F9F083303C
:103D3000910534F4009759F08130910591F04CC011
:103D400083309105C1F08430910591F145C08A819D
:103D50009B81FC018081992787FD90950E948A2391
:103D60003BC08C819D810E94952336C08C819D81B2
:103D70000E94A72331C08A819B810296FC01808129
:103D8000482F552747FD50958A819B810196FC015C
:103D90008081282F332727FD30958A819B81FC0164
:103DA0008081992787FD9095B9010E94B92314C09D
:103DB0008A819B810196FC018081282F332727FD72
:103DC00030958A819B81FC018081992787FD9095A0
:103DD000B9010E94C823000081E00F900F900F905E
:103DE0000F900F90DF91CF910895CF93DF9300D084
:103DF0001F921F92CDB7DEB789837B836A835D8371
:103E00004C838C819D81FC0111828981992787FDDA
:103E10009095009721F08130910559F00FC08A816B
:103E20009B81FC018081992787FD90950E94FD2050
:103E300005C08C819D810E94192100000F900F9078
:103E40000F900F900F90DF91CF910895CF93DF9354
:103E500000D01F921F92CDB7DEB789837B836A8320
:103E60005D834C838981992787FD9095009721F088
:103E70008130910559F00FC08A819B81FC018081BE
:103E8000992787FD90950E94442005C08C819D81D3
:103E90000E944F2000000F900F900F900F900F90F6
:103EA000DF91CF910895CF93DF9300D01F921F929F
:103EB000CDB7DEB789837B836A835D834C83898139
:103EC000992787FD9095009721F08130910531F079
:103ED0000AC08C819D810E94202005C08C819D811B
:103EE0000E94322000000F900F900F900F900F90C3
:103EF000DF91CF910895CF93DF9300D01F921F924F
:103F0000CDB7DEB789837B836A835D834C838C81E5
:103F10009D81FC0111828981992787FD90950097E9
:103F200051F48A819B81FC018081992787FD9095BE
:103F30000E942B2100000F900F900F900F900F9078
:103F4000DF91CF910895CF93DF9300D01F92CDB72B
:103F5000DEB79A8389837C836B8389819A81DC01B4
:103F600011962C918B819C81FC01208389819A81FF
:103F7000DC018C91992787FD9095AA2797FDA09544
:103F8000BA2F41E050E027E030E0841B950B281762
:103F9000390708F44DC08E589F4FFC010C941B2626
:103FA0008B819C819C012E5F3F4F8B819C81AC015A
:103FB0004F5F5F4F89819A81039669817A81DB0126
:103FC0001196EC91BC018E2F0E940A1E31C089818E
:103FD0009A81039629813A81D9011196EC912B811E
:103FE0003C81A901BC018E2F0E94521E21C08981F3
:103FF0009A81039629813A81D9011196EC912B81FE
:104000003C81A901BC018E2F0E94F51E11C089813F
:104010009A81039629813A81D9011196EC912B81DD
:104020003C81A901BC018E2F0E947B1F01C00000B2
:1040300081E00F900F900F900F90DF91CF91089536
:10404000CF93DF931F921F92CDB7DEB79A838983F8
:1040500089819A81FC01108281E00F900F90DF919D
:10406000CF910895CF93DF931F921F92CDB7DEB704
:104070009A83898389819A81FC01108281E00F9063
:104080000F90DF91CF910895CF93DF931F92CDB71B
:10409000DEB7898381E00F90DF91CF910895CF93B0
:1040A000DF931F921F92CDB7DEB79A8389838981F0
:1040B0009A81FC01108281E00F900F90DF91CF91E7
:1040C0000895CF93DF93CDB7DEB782E290E022E28E
:1040D00030E0F90120812D7FFC0120830DC082E2B8
:1040E00090E022E230E0F90120812D7FFC01208365
:1040F00081E090E00E94AB0482E290E0FC018081CC
:10410000882F90E082709927009749F782E290E02B
:1041100022E230E0F90120812160FC012083DF915F
:10412000CF910895CF93DF93CDB7DEB782E290E0D1
:1041300022E230E0F90120812E7FFC0120830DC0B6
:1041400082E290E022E230E0F90120812E7FFC0142
:10415000208381E090E00E94AB0482E290E0FC01C9
:104160008081882F90E081709927009749F782E23B
:1041700090E022E230E0F90120812260FC012083FE
:10418000DF91CF910895CF93DF93CDB7DEB782E271
:1041900090E022E230E0F90120812E7FFC012083B3
:1041A00082E290E022E230E0F90120812D7FFC01E3
:1041B000208316C082E290E022E230E0F901208103
:1041C0002E7FFC01208382E290E022E230E0F901C0
:1041D00020812D7FFC01208381E090E00E94AB04D0
:1041E00082E290E0FC018081882F90E08370992723
:1041F000009701F7DF91CF910895CF93DF931F923E
:10420000CDB7DEB789838981882319F40E94C32042
:104210000BC08981813019F40E94612005C0898119
:104220008F3F11F40E94922081E00F90DF91CF9197
:104230000895CF93DF931F921F92CDB7DEB79A8375
:10424000898389819A81FC01108281E00F900F900F
:10425000DF91CF910895CF93DF931F92CDB7DEB753
:1042600089838981813051F485E290E025E230E054
:10427000F90120812068FC01208309C085E290E0DB
:1042800025E230E0F90120812F77FC01208381E0D5
:104290000F90DF91CF910895CF93DF9300D0CDB7EA
:1042A000DEB79A8389836B8389819A818E52954E7A
:1042B0002B81FC0120830F900F900F90DF91CF9105
:1042C0000895CF93DF931F921F92CDB7DEB79A83E5
:1042D000898389818E5F0F900F90DF91CF91089530
:1042E000CF93DF93CDB7DEB786E490E0FC01808109
:1042F000DF91CF9108951F920F9200905F000F926F
:10430000112400905B000F922F933F934F935F9384
:104310006F937F938F939F93AF93BF93EF93FF938D
:10432000CF93DF9300D0CDB7DEB7198286E091E05E
:10433000FC018081882F90E02091E61A222F30E046
:10434000022E02C0959587950A94E2F7817099270D
:10435000009749F00E9470218A838EE290E02FEF4F
:10436000FC0120831DC00E9470218B839B818A8168
:10437000891738F49B818A81F92FF81B8F2F80933E
:10438000BF1A8EE290E0FC0110828091D81A9091C1
:10439000D91A20E040E050E060E070E00E947E0E1C
:1043A0000F900F900F90DF91CF91FF91EF91BF9100
:1043B000AF919F918F917F916F915F914F913F91BD
:1043C0002F910F9000925B000F9000925F000F9072
:1043D0001F901895CF93DF93CDB7DEB78DE790E0B0
:1043E000FC01108287E091E0FC01108287E290E0FE
:1043F000FC01108288E290E0FC0110828DE690E0E2
:104400002FEFFC01208388E690E027E0FC01208369
:1044100084E490E0FC01108285E490E025E0FC015A
:104420002083DF91CF910895CF93DF9300D01F9227
:10443000CDB7DEB79C838B830E94EA2143E060E026
:1044400081E00E94230D9093D91A8093D81A80910D
:10445000D81A9091D91A009759F08091D81A909152
:10446000D91A20E040E050E060E070E00E94DA0DF0
:104470001092E61A1A82198226C089818093E61A60
:1044800088E290E021E030E0098002C0220F331F73
:104490000A94E2F7FC0120838091D81A9091D91AEE
:1044A00020E04FEF5FEF60E070E00E94D70E2091B8
:1044B000BF1A89819A81622F0E944C2189819A8139
:1044C00001969A83898389819A8182309105ACF221
:1044D000D1CFCF93DF9300D01F92CDB7DEB79C83AF
:1044E0008B831A82198214C089819A81880F991F3F
:1044F0002B813C81820F931F29813A812F5F3F4F8F
:10450000FC013183208389819A8101969A83898372
:1045100089819A818630910538F30F900F900F9022
:104520000F90DF91CF9108950F931F93CF93DF9357
:1045300000D0CDB7DEB789837B836A8389818630DB
:10454000B4F48981992787FD9095880F991F2A8156
:104550003B818901080F191F8981992787FD909553
:104560000E946121882F90E0F801918380830F9051
:104570000F900F90DF91CF911F910F9108950F939E
:104580001F93CF93DF9300D0CDB7DEB789837B83B2
:104590006A838981992787FD90958130910501F182
:1045A00082309105B9F1009709F04EC080E090E0AB
:1045B0000E946121282F30E08A819B81FC01318398
:1045C00020838A819B818C010E5F1F4F81E090E0E8
:1045D0000E946121882F90E0F8019183808334C08C
:1045E00082E090E00E946121282F30E08A819B8147
:1045F000FC01318320838A819B818C010E5F1F4FD8
:1046000083E090E00E946121882F90E0F80191837F
:1046100080831AC084E090E00E946121282F30E05E
:104620008A819B81FC01318320838A819B818C015B
:104630000E5F1F4F85E090E00E946121882F90E07F
:10464000F8019183808300000F900F900F90DF910D
:10465000CF911F910F910895CF93DF93CDB7DEB720
:104660008FE090E40E948C24DF91CF910895CF9346
:10467000DF9300D01F92CDB7DEB79C838B831A8265
:1046800019828B819C8199279A83898389819A8158
:104690000E948C240F900F900F900F90DF91CF917C
:1046A0000895CF93DF93CDB7DEB786E090E00E9408
:1046B0004624DF91CF910895CF93DF93CDB7DEB736
:1046C0008AE090E00E944624DF91CF910895CF9335
:1046D000DF931F921F92CDB7DEB79A8389838981BA
:1046E0009A81FC01108281E00F900F90DF91CF91B1
:1046F0000895CF93DF931F92CDB7DEB78983898169
:10470000992787FD90950E94372381E00F90DF91D4
:10471000CF910895CF93DF931F92CDB7DEB78983F2
:1047200081E00F90DF91CF910895CF93DF931F9297
:104730001F92CDB7DEB79A83898389819A81FC0164
:10474000108281E00F900F90DF91CF910895CF9369
:10475000DF931F921F92CDB7DEB79A838983898139
:104760009A81FC01108281E00F900F90DF91CF9130
:104770000895CF93DF9300D0CDB7DEB789836A83E6
:104780004B8381E00F900F900F90DF91CF910895B0
:10479000CF93DF931F921F92CDB7DEB789836A83D1
:1047A00081E00F900F90DF91CF910895CF93DF9329
:1047B000CDB7DEB78CE490E023E5FC01208384E2F2
:1047C00090E024E230E0F9012081622F40E050E0E7
:1047D00021E030E002C0220F331F4A95E2F7722F2A
:1047E00041E050E021E030E002C0220F331F4A9543
:1047F000E2F7722B42E050E021E030E002C0220FED
:10480000331F4A95E2F7272B262BFC01208384E2F5
:1048100090E024E230E0F9012081622F43E050E093
:1048200021E030E002C0220F331F4A95E2F72095C5
:104830002623FC01208385E290E025E230E0F901A7
:104840002081622F40E050E021E030E002C0220FE2
:10485000331F4A95E2F7262BFC01208385E290E086
:1048600025E230E0F9012081622F41E050E021E0B3
:1048700030E0042E02C0220F331F0A94E2F7209585
:104880002623FC012083DF91CF910895CF93DF93FE
:104890001F92CDB7DEB7898385E290E025E230E054
:1048A000F9012081622F40E050E021E030E002C0B9
:1048B000220F331F4A95E2F720952623FC0120831F
:1048C00081E090E00E94AB048EE490E02981FC013D
:1048D000208300008DE490E0FC0180818823D4F7E0
:1048E00081E090E00E94AB0485E290E025E230E0B8
:1048F000F9012081622F40E050E021E030E0042EF9
:1049000002C0220F331F0A94E2F7262BFC012083FA
:104910000F90DF91CF910895CF93DF931F921F9255
:10492000CDB7DEB79A83898385E290E025E230E057
:10493000F9012081622F40E050E021E030E002C028
:10494000220F331F4A95E2F720952623FC0120838E
:1049500082E090E00E94AB048EE490E029813A81ED
:10496000232F3327FC01208300008DE490E0FC011D
:1049700080818823D4F78EE490E02981FC01208394
:1049800000008DE490E0FC0180818823D4F782E070
:1049900090E00E94AB0485E290E025E230E0F9016E
:1049A0002081622F40E050E021E030E0042E02C080
:1049B000220F331F0A94E2F7262BFC0120830F906D
:1049C0000F90DF91CF910895CF93DF93CDB7DEB7EE
:1049D0008091C01A9091C11ADF91CF910895CF9321
:1049E000DF9300D01F92CDB7DEB79C838B831A82F2
:1049F000198218C089819A810196880F991F8E5358
:104A0000954EFC012081318189819A81880F991FFF
:104A10008E53954EFC013183208389819A810196C2
:104A20009A83898389819A81833091051CF38B81D4
:104A30009C819093C91A8093C81A8B819C81909312
:104A4000C11A8093C01A8B819C819093C11A809364
:104A5000C01A2091C21A3091C31A8091C41A909141
:104A6000C51A280F391F8091C61A9091C71A280FAE
:104A7000391F8091C81A9091C91A820F931F95957A
:104A80008795959587959093C11A8093C01A0F903A
:104A90000F900F900F90DF91CF910895CF93DF93F8
:104AA000CDB7DEB78AE790E020E8FC0120838CE7F1
:104AB00090E021E4FC0120838BE790E028E0FC01FA
:104AC0002083DF91CF910895CF93DF93CDB7DEB7E9
:104AD0008AE790E0FC018081882F90E0807499271C
:104AE000009791F48AE790E02AE730E0F90120810D
:104AF0002860FC0120838AE790E02AE730E0F90192
:104B000020812064FC012083DF91CF9108951F92C2
:104B10000F9200905F000F92112400905B000F92A3
:104B20002F933F934F935F936F937F938F939F93B5
:104B3000AF93BF93EF93FF93CF93DF931F921F9297
:104B4000CDB7DEB788E790E0FC018081882F90E048
:104B50009A83898389E790E0FC018081882F90E027
:104B6000982F882729813A81822B932B9A838983D6
:104B700089819A810E94EF248AE790E02AE730E059
:104B8000F9012081277FFC0120838091E71A909111
:104B9000E81A20E040E050E060E070E00E947E0E05
:104BA0000F900F90DF91CF91FF91EF91BF91AF9157
:104BB0009F918F917F916F915F914F913F912F9135
:104BC0000F9000925B000F9000925F000F901F907B
:104BD0001895CF93DF931F921F92CDB7DEB79A83BC
:104BE00089830E944E2543E060E081E00E94230D0E
:104BF0009093E81A8093E71A8091E71A9091E81A47
:104C0000009759F08091E71A9091E81A20E040E06F
:104C100050E060E070E00E94DA0D0E94642580910F
:104C2000E71A9091E81A20E04FEF5FEF60E070E044
:104C30000E94D70EF2CFEE0FFF1F0590F491E02DEA
:104C40001994FB01DC0102C001900D9241505040CB
:104C5000D8F70895DC0101C06D9341505040E0F752
:104C60000895FB01DC014150504048F001900D9245
:104C70000020C9F701C01D9241505040E0F708954F
:104C8000FB019F01E8944230C4F04532B4F44A304D
:104C900029F497FB1EF4909581959F4F642F7727F9
:104CA0000E947126805D8A330CF0895D8193CB016F
:104CB0000097A1F716F45DE251931082C9010C949C
:104CC0006126DC01FC01672F71917723E1F73297B0
:104CD00004C07C916D9370836291AE17BF07C8F3D7
:104CE0000895AA1BBB1B51E107C0AA1FBB1FA61733
:104CF000B70710F0A61BB70B881F991F5A95A9F785
:0E4D000080959095BC01CD010895F894FFCFE9
:104D0E00FFFF54300054320054330030313233340C
:104D1E00353637383941424344454649444C4500BF
:084D2E00020003000100000077
:00000001FF
