:100000000C9494000C94B5000C94B5000C94B500BD
:100010000C94B5000C94B5000C94B5000C94B5008C
:100020000C94B5000C94B5000C94B5000C94B5007C
:100030000C94B5000C94B5000C94B5000C94B5006C
:100040000C94B5000C94B5000C94B5000C94B5005C
:100050000C94B5000C94B5000C94B5000C94B5004C
:100060000C94B5000C94B5000C94B5000C94B5003C
:100070000C94B5000C948C260C94B5000C94B5002F
:100080000C94BB170C94B5000C94B5000C94B500FF
:100090000C94B5000C94B5000C94B5000C94B5000C
:1000A0000C94B5000C94B5000C94B5000C94B500FC
:1000B0000C94B5000C94B5000C94B5000C9443233B
:1000C0000C94B5000C94B5000C94E1220C94B5008E
:1000D0000C94B5000C94B5000C94B5000C94B500CC
:1000E0000C94B500501F601F701F801FB01F901F21
:1000F000A01FB01F0C94B01F0C9419270C949A22C7
:100100000C946B070C94601F0C94CE190C94501F28
:100110000C94B91F0C94901F0C9440240C94A01FB5
:100120000C94701F0C94801F11241FBECFEFD1E2DE
:10013000DEBFCDBF00E00CBF12E0A0E0B2E0EAE419
:10014000F1E500E00BBF02C007900D92A832B107A5
:10015000D9F71BE1A8E2B2E001C01D92A336B107B6
:10016000E1F70E94D6170C94A3280C940000AF92DC
:10017000BF92CF92DF92EF92FF920F931F93CF9394
:10018000DF93CDB7DEB764970FB6F894DEBF0FBE2E
:10019000CDBF9F838E83798768875B874A873D873A
:1001A0002C870E87F88AEF86DA8AC98ABC8AAB8ADE
:1001B00029893A898A859B85B9010E946C089B83AD
:1001C0008A838A819B81009709F49FC08A819B81E1
:1001D000FC012789308D8A859B850197820F931FAB
:1001E0009D838C834A855B852B893C8968857985CD
:1001F0008A819B818A014E850E947C074C855D85A2
:100200002E813F818C819D81B9010E9493149C01B4
:100210008A819B81FC01318320838F859889009797
:1002200039F08F8598892A813B81FC0131832083B5
:100230000FB6F8940F92809176028F5F80937602CA
:100240008091280290912902009769F48A819B810C
:100250009093290280932802809176028130B1F434
:100260000E94DD0713C080917B02882379F480917E
:10027000280290912902FC0196898E85891730F019
:100280008A819B8190932902809328028A819B8195
:10029000FC01968980917902891730F48A819B81CB
:1002A000FC01868980937902809180028F5F809320
:1002B00080028A819B81FC01968980917A0289174C
:1002C00030F48A819B81FC01868980937A028A813D
:1002D0009B81AC014E5F5F4F8A819B81FC018689C7
:1002E000282F30E0C901880F991F880F991F880FA8
:1002F000991F820F931F865D9D4FBA010E940610C1
:1003000081E089830F900FBE02C08FEF89838981BE
:10031000813079F480917B02882359F08091280202
:1003200090912902FC0196898E85981710F40E94FD
:100330009716898164960FB6F894DEBF0FBECDBFC5
:10034000DF91CF911F910F91FF90EF90DF90CF90B1
:10035000BF90AF900895CF93DF93CDB7DEB72897C6
:100360000FB6F894DEBF0FBECDBF9E838D83788716
:100370006F8319820E94F8038D819E81FC01208188
:1003800031818F819885820F931F9B838A838D8112
:100390009E81FC01208131818091770290917802C9
:1003A00082179307B0F48D819E81FC0120813181F9
:1003B0008A819B818217930708F58091770290913B
:1003C00078022A813B8182179307C0F481E08983F8
:1003D00015C08D819E81FC01208131818A819B81A4
:1003E0008217930748F080917702909178022A81D2
:1003F0003B818217930710F481E089838D819E8170
:100400002A813B81FC01318320838981882359F033
:10041000809128029091290202960E94D6108A812A
:100420009B810E9421080E9404048C838C81882374
:1004300011F40E94971628960FB6F894DEBF0FBEEF
:10044000CDBFDF91CF910895CF93DF9300D01F925E
:100450001F92CDB7DEB79D838C8319828C819D81DD
:100460000097D1F00E94F803209177023091780232
:100470008C819D81820F931F9B838A8380912802A8
:100480009091290202960E94D6108A819B810E9437
:1004900021080E94040489838981882311F40E9421
:1004A00097160F900F900F900F900F90DF91CF91B4
:1004B0000895CF93DF9300D01F92CDB7DEB79C8312
:1004C0008B830FB6F8940F928091280290912902A5
:1004D0002B813C812817390711F41C821B828B81E8
:1004E0009C81009729F4809128029091290202C0F2
:1004F0008B819C819A83898389819A8102960E944B
:10050000D61089819A81FC0184899589009729F008
:1005100089819A810C960E94D61089819A810296CF
:10052000BC018DE692E00E9406100F900FBE8B81F9
:100530009C810097A1F480917B02882319F00E948E
:1005400097160DC090916D0280917602981729F44C
:10055000109229021092280202C00E949A050F9060
:100560000F900F900F90DF91CF910895CF93DF936D
:1005700000D01F921F92CDB7DEB79D838C83198266
:100580008C819D819B838A838A819B81FC018285EA
:100590009385F2E08D369F0791F48A819B81FC015F
:1005A00084899589F2E084369F0749F08A819B818E
:1005B000FC0184899589009711F481E08983898100
:1005C0000F900F900F900F900F90DF91CF910895A3
:1005D000CF93DF9300D01F92CDB7DEB79C838B8380
:1005E0008B819C819A83898389819A81009709F400
:1005F0004FC0809128029091290229813A812817C1
:10060000390709F445C00FB6F8940F9289819A8191
:100610000E94B6028130D1F589819A8102960E94AA
:10062000D61089819A81FC01968980917A02891776
:1006300030F489819A81FC01868980937A028981CC
:100640009A81AC014E5F5F4F89819A81FC01868956
:10065000282F30E0C901880F991F880F991F880F34
:10066000991F820F931F865D9D4FBA010E9406104D
:1006700089819A81FC012689809128029091290222
:10068000FC018689281710F00E9497160F900FBE64
:100690000F900F900F900F90DF91CF910895CF930F
:1006A000DF9300D000D0CDB7DEB79E838D83198253
:1006B0008D819E819B838A831C828A819B810E947B
:1006C000B602813009F048C080917C028823E1F5B0
:1006D0008A819B81FC0126898091280290912902C0
:1006E000FC01968981E0291708F480E089838A81DA
:1006F0009B8102960E94D6108A819B81FC0196897B
:1007000080917A02891730F48A819B81FC01868965
:1007100080937A028A819B81AC014E5F5F4F8A8110
:100720009B81FC018689282F30E0C901880F991F21
:10073000880F991F880F991F820F931F865D9D4F09
:10074000BA010E94061008C08A819B810C96BC01E8
:1007500084E692E00E940610898126960FB6F894EE
:10076000DEBF0FBECDBFDF91CF910895AF92BF9294
:10077000CF92DF92EF92FF920F93CF93DF931F926E
:10078000CDB7DEB7A12CB12CC12CD12CE12CF12C92
:1007900000E020E030E045E550E062E072E08BE60A
:1007A00097E00E94B70089838981813051F4F894E1
:1007B00081E080937B0210927802109277020E946F
:1007C00057160F90DF91CF910F91FF90EF90DF9030
:1007D000CF90BF90AF900895CF93DF93CDB7DEB7A2
:1007E000F89410927B020E949016DF91CF910895A9
:1007F000CF93DF93CDB7DEB780917C028F5F80937C
:100800007C02DF91CF9108950F931F93CF93DF93D5
:100810001F921F92CDB7DEB719820FB6F8940F92D0
:1008200080917C02815080937C0280917C0288239D
:1008300009F064C080917602882309F45FC01A82AF
:100840003AC08091690290916A02FC010681178189
:10085000C8010C960E94D610C80102960E94D610BC
:10086000F801968980917A02891720F4F801868927
:1008700080937A02A8014E5F5F4FF8018689282F86
:1008800030E0C901880F991F880F991F880F991FA1
:10089000820F931F865D9D4FBA010E940610F801DA
:1008A00026898091280290912902FC0186892817C7
:1008B00010F081E08A8380916402882311F6809190
:1008C0007D02882371F007C00E94BD0480917D02E3
:1008D000815080937D0280917D028823A9F781E079
:1008E0008A838A81813021F080917E02813031F4C7
:1008F00081E0898310927E020E9497160F900FBEAE
:1009000089810F900F90DF91CF911F910F910895E2
:10091000CF93DF931F921F92CDB7DEB70FB6F89437
:100920000F9280917702909178029A8389830F9039
:100930000FBE89819A810F900F90DF91CF9108951A
:10094000CF93DF9300D0CDB7DEB7198280917702C5
:10095000909178029B838A838A819B810F900F906C
:100960000F90DF91CF910895CF93DF93CDB7DEB78E
:1009700080917602DF91CF910895CF93DF9300D0DD
:1009800000D0CDB7DEB780917C02882309F0C4C0C7
:1009900080917702909178020196909378028093EB
:1009A000770280917702909178020097E9F5809123
:1009B0006002909161029A83898380916202909192
:1009C0006302909361028093600289819A8190937F
:1009D00063028093620280917F028F5F80937F0227
:1009E0008091600290916102FC018081882339F43A
:1009F0008FEF9FEF909301028093000215C08091CA
:100A0000600290916102FC0185819681FC018681E2
:100A100097819C838B838B819C81FC018281938154
:100A20009093010280930002209177023091780226
:100A300080910002909101022817390708F46BC0D9
:100A40008091600290916102FC018081882339F4D9
:100A50008FEF9FEF90930102809300025CC0809122
:100A6000600290916102FC0185819681FC01868182
:100A700097819C838B838B819C81FC0182819381F4
:100A80009E838D8320917702309178028D819E81A3
:100A90002817390738F48D819E8190930102809345
:100AA000000239C08B819C8102960E94D6108B81F6
:100AB0009C81FC0184899589009729F08B819C8118
:100AC0000C960E94D6108B819C81FC0196898091A6
:100AD0007A02891730F48B819C81FC01868980938E
:100AE0007A028B819C81AC014E5F5F4F8B819C8130
:100AF000FC018689282F30E0C901880F991F880FD3
:100B0000991F880F991F820F931F865D9D4FBA0111
:100B10000E94061095CF05C080917D028F5F809363
:100B20007D0226960FB6F894DEBF0FBECDBFDF91D3
:100B3000CF910895CF93DF931F921F92CDB7DEB769
:100B400080917C02882321F081E080937E027AC02C
:100B50008091280290912902FC01208131818091AD
:100B6000280290912902FC018789908D82179307B2
:100B700070F080912802909129029C01275E3F4FDE
:100B80008091280290912902B9010E94CE1705C0D8
:100B900080917A02815080937A0280917A02282F84
:100BA00030E0C901880F991F880F991F880F991F7E
:100BB000820F931F865D9D4FFC018081882341F346
:100BC00080917A02282F30E0C901880F991F880F81
:100BD000991F880F991F820F931F865D9D4F9A83DF
:100BE000898389819A81FC0181819281FC01228122
:100BF000338189819A81FC013283218389819A81A1
:100C0000FC012181328189819A8103962817390755
:100C100069F489819A81FC0181819281FC012281A0
:100C2000338189819A81FC013283218389819A8170
:100C3000FC0181819281FC01868197819093290238
:100C4000809328020F900F90DF91CF910895CF935A
:100C5000DF9300D000D0CDB7DEB79C838B837E833B
:100C60006D8380912802909129029C01245F3F4F5F
:100C70008B819C81B9010E945D1080912802909126
:100C8000290202960E94D6108D819E818F3F2FEF00
:100C9000920759F480912802909129020296BC0192
:100CA0008DE692E00E9406100EC0209177023091EE
:100CB00078028D819E81820F931F9A838983898117
:100CC0009A810E94210826960FB6F894DEBF0FBEC7
:100CD000CDBFDF91CF910895CF93DF9300D01F92C6
:100CE0001F92CDB7DEB79D838C838C819D81FC01E3
:100CF00085819681FC01868197819B838A838A8185
:100D00009B810C960E94D61080917C02882369F505
:100D10008A819B8102960E94D6108A819B81FC0168
:100D2000968980917A02891730F48A819B81FC012F
:100D3000868980937A028A819B81AC014E5F5F4FE6
:100D40008A819B81FC018689282F30E0C901880FA8
:100D5000991F880F991F880F991F820F931F865D17
:100D60009D4FBA010E94061008C08A819B810C9693
:100D7000BC0184E692E00E9406108A819B81FC01FE
:100D800026898091280290912902FC0186892817E2
:100D900018F081E0898301C0198289810F900F903A
:100DA0000F900F900F90DF91CF910895CF93DF9325
:100DB0001F921F92CDB7DEB79A83898320917F025D
:100DC00089819A81FC0120832091770230917802F9
:100DD00089819A81FC01328321830F900F90DF91EA
:100DE000CF910895CF93DF9300D01F921F92CDB77C
:100DF000DEB79B838A837D836C830FB6F8940F9252
:100E00008C819D81FC01808191818F3FFFEF9F0745
:100E100011F419824BC08A819B81FC0190818091E1
:100E20007F02981779F08A819B81FC0121813281B0
:100E300080917702909178028217930718F081E0F1
:100E4000898334C020917702309178028A819B8116
:100E5000FC0181819281281B390B8C819D81FC01D1
:100E60008081918128173907F8F420917702309119
:100E700078028A819B81FC0181819281A901481BB2
:100E8000590BCA012C813D81F90120813181281B38
:100E9000390B8C819D81FC01318320838A819B8168
:100EA0000E94D606198202C081E089830F900FBE8E
:100EB00089810F900F900F900F900F90DF91CF913D
:100EC0000895CF93DF93CDB7DEB781E080937E02A4
:100ED000DF91CF910895CF93DF931F921F92CDB7EB
:100EE000DEB79A8389830E941A0880912A02823091
:100EF00010F00E949716F7CF0F931F93CF93DF93B5
:100F0000CDB7DEB729970FB6F894DEBF0FBECDBFC1
:100F10009A8389837C836B834D833F832E831987D8
:100F2000088789819A8149962B813C8140E150E074
:100F3000B9010E94942889819A81FC0110A68D81B3
:100F4000843010F083E08D8389819A812D81FC01AA
:100F5000268B89819A812D81FC0121A789819A8123
:100F600002960E94F40F89819A810C960E94F40FD8
:100F700089819A8129813A81FC01318720878D817D
:100F8000882F90E024E030E0281B390B89819A817A
:100F9000FC013587248789819A8129813A81FC0166
:100FA000338B228B29960FB6F894DEBF0FBECDBFD0
:100FB000DF91CF911F910F910895CF93DF931F92EF
:100FC000CDB7DEB7198213C08981282F30E0C9015F
:100FD000880F991F880F991F880F991F820F931FE1
:100FE000865D9D4F0E94BE0F89818F5F89838981B5
:100FF000843050F38EE492E00E94BE0F87E592E0C9
:101000000E94BE0F84E692E00E94BE0F8DE692E041
:101010000E94BE0F8EE492E0909361028093600282
:1010200087E592E090936302809362020F90DF91D4
:10103000CF910895CF93DF93CDB7DEB7DF91CF91F6
:101040000895CF93DF931F921F92CDB7DEB79A8397
:101050008983809128029091290229813A81FC019B
:1010600033832283809177029091780229813A819B
:101070002817390778F480912802909129029C0161
:101080002E5F3F4F8091620290916302B9010E94EE
:101090005D101DC080912802909129029C012E5F55
:1010A0003F4F8091600290916102B9010E945D10F2
:1010B000809100029091010229813A812817390715
:1010C00030F489819A8190930102809300020F90FD
:1010D0000F90DF91CF910895CF93DF9300D000D090
:1010E000CDB7DEB79C838B837E836D838AE290E0ED
:1010F0000E9424149A83898389819A81009751F1EF
:101100008D819E81009729F48B819C810E942414FB
:1011100002C08D819E8129813A81F901908F878B50
:1011200089819A81FC018789908D009739F48981A2
:101130009A810E946A141A8219820CC089819A814C
:10114000FC018789908D2B813C81A90165EA70E0C3
:101150000E948D2889819A8126960FB6F894DEBF69
:101160000FBECDBFDF91CF9108950F931F93CF9303
:10117000DF931F921F92CDB7DEB79A83898300E079
:1011800010E009C089819A8101969A838983C801F8
:101190008C010F5F1F4F89819A81FC018081853A04
:1011A00089F3C8010F900F90DF91CF911F910F919C
:1011B0000895CF93DF93CDB7DEB727970FB6F89496
:1011C000DEBF0FBECDBF9F838E838E819F81009730
:1011D00029F4809128029091290202C08E819F817A
:1011E0009A83898389819A81FC018789908D9C8368
:1011F0008B838B819C810E94B5088D838D8127967E
:101200000FB6F894DEBF0FBECDBFDF91CF9108952A
:10121000CF93DF931F921F92CDB7DEB78091280244
:10122000909129029A83898389819A810F900F90E6
:10123000DF91CF910895CF93DF9300D01F92CDB768
:10124000DEB79C838B838B819C819A8389838B817E
:101250009C81009709F478C089819A81FC012689D4
:101260008091280290912902FC018689281708F0B4
:101270006BC08091280290912902FC018689882FF9
:1012800090E024E030E0281B390B89819A81FC0131
:101290003587248789819A81FC014285538589811C
:1012A0009A81FC018689282F30E0C901880F991F97
:1012B000880F991F880F991F820F931F865D9D4F7E
:1012C00048175907B9F589819A8102960E94D6106C
:1012D0008091280290912902FC01268989819A81B6
:1012E000FC01268B89819A81FC01968980917A0282
:1012F000891730F489819A81FC01868980937A026A
:1013000089819A81AC014E5F5F4F89819A81FC018E
:101310008689282F30E0C901880F991F880F991FEF
:10132000880F991F820F931F865D9D4FBA010E94FF
:1013300006100AC08091280290912902FC0126899A
:1013400089819A81FC01268B0F900F900F900F904E
:10135000DF91CF910895CF93DF9300D01F92CDB747
:10136000DEB79C838B838B819C819A8389838B815D
:101370009C81009709F44EC089819A81FC012689DD
:1013800089819A81FC0181A5281709F443C08981CC
:101390009A8102960E94D61089819A81FC0121A52A
:1013A00089819A81FC01268B89819A81FC01868939
:1013B000882F90E024E030E0281B390B89819A8146
:1013C000FC013587248789819A81FC019689809167
:1013D0007A02891730F489819A81FC018689809389
:1013E0007A0289819A81AC014E5F5F4F89819A812F
:1013F000FC018689282F30E0C901880F991F880FCA
:10140000991F880F991F820F931F865D9D4FBA0108
:101410000E9406100F900F900F900F90DF91CF91C8
:101420000895CF93DF9300D0CDB7DEB79A83898339
:101430006B830FB6F8940F9289819A81FC01208109
:10144000318189819A81FC01838D682F70E08981C7
:101450009A81FC01848D482F50E0649FC001659FF4
:10146000900D749F900D1124280F391F89819A8146
:10147000FC013383228389819A81FC01128E898148
:101480009A81FC012081318189819A81FC01358317
:10149000248389819A81FC012081318189819A810B
:1014A000FC01838D882F90E0BC0161507109898116
:1014B0009A81FC01848D482F50E0649FC001659F94
:1014C000900D749F900D1124280F391F89819A81E6
:1014D000FC013783268389819A812FEFFC01258FB8
:1014E00089819A812FEFFC01268F8B81882381F4DB
:1014F00089819A81FC0180858823A1F089819A8164
:1015000008960E946C06813069F40E9497160AC002
:1015100089819A8108960E94BE0F89819A8141969D
:101520000E94BE0F0F900FBE81E00F900F900F90A2
:10153000DF91CF910895CF93DF93CDB7DEB7299791
:101540000FB6F894DEBF0FBECDBF8F836887498783
:101550001A8219828F81882309F443C08FE190E0B9
:101560000E9424149C838B838B819C810097C9F1FA
:101570008F81482F50E08885282F30E0429FC0019E
:10158000439F900D529F900D112401969E838D8351
:101590008D819E810E9424149C018B819C81FC0181
:1015A000318320838B819C81FC0180819181009714
:1015B000A1F08B819C812F81FC01238F8B819C81E9
:1015C0002885FC01248F8B819C8161E00E94110A97
:1015D0008B819C819A83898304C08B819C810E942A
:1015E0006A1489819A8129960FB6F894DEBF0FBEDE
:1015F000CDBFDF91CF910895CF93DF9300D0CDB7CA
:10160000DEB78B838FE190E00E9424149A83898354
:1016100089819A810097F1F189819A81FC01138275
:10162000128289819A81FC011182108289819A81BA
:10163000FC011582148289819A81FC01178216822D
:1016400089819A81FC01128E89819A8121E0FC01B5
:10165000238F89819A81FC01148E89819A812FEFD1
:10166000FC01258F89819A812FEFFC01268F8981CA
:101670009A8108960E94BE0F89819A8141960E94A4
:10168000BE0F89819A8120E040E050E060E070E088
:101690000E94520B89819A810F900F900F90DF91D9
:1016A000CF910895CF93DF93CDB7DEB72B970FB6C9
:1016B000F894DEBF0FBECDBF9E838D8378876F8386
:1016C0005A8749872B8719820FB6F8940F928D811C
:1016D0009E81FC01228D8D819E81FC01838D2817C6
:1016E000D8F42F8138858D819E814B85B9010E9468
:1016F000DC0D8D819E81FC018189882349F08D81DB
:101700009E8141960E946C06813011F40E949716CA
:101710000F900FBE81E061C089859A85009721F402
:101720000F900FBE80E059C08981882331F4CE012B
:1017300002960E94D60681E089830F900FBE0E9418
:10174000F8030FB6F8940F928D819E81FC01858D70
:101750008F3F21F48D819E81FC01158E8D819E81AC
:10176000FC01868D8F3F21F48D819E81FC01168EB8
:101770000F900FBE9E01275F3F4FCE010296B90129
:101780000E94F206882301F58D819E810E94830FBD
:10179000882399F029853A858D819E810896B90123
:1017A0000E9427068D819E810E94EB0E0E940404F8
:1017B000882391F40E9497160FC08D819E810E940C
:1017C000EB0E0E94040480CF8D819E810E94EB0E5F
:1017D0000E94040480E001C077CF2B960FB6F894E6
:1017E000DEBF0FBECDBFDF91CF910895CF93DF93C2
:1017F000CDB7DEB729970FB6F894DEBF0FBECDBFC9
:101800009C838B837E836D8358874F8329871A82BD
:101810008B819C81FC01228D8B819C81FC01838DBD
:10182000281790F52D813E818B819C814985B901D6
:101830000E94DC0D8B819C81FC01868D8F3FB9F469
:101840008B819C81FC0181898823D9F08B819C81CB
:1018500041960E946C068823A1F08F81988500979D
:1018600081F08F81988521E0FC0120830AC08B8163
:101870009C81FC01868D21E0280F8B819C81FC01DD
:10188000268F81E0898301C01982898129960FB64C
:10189000F894DEBF0FBECDBFDF91CF910895CF93F7
:1018A000DF93CDB7DEB72D970FB6F894DEBF0FBE2E
:1018B000CDBF98878F837A8769875C874B872D8711
:1018C00019820FB6F8940F928F819885FC01828D52
:1018D000882309F454C08F819885FC018681978103
:1018E0009B838A8329853A858F819885B9010E94D7
:1018F0009A0E8D85882349F58F819885FC01828D0C
:101900002FEF280F8F819885FC01228F8F8198857A
:10191000FC0180819181009741F40E9408099C019B
:101920008F819885FC01338322838F819885FC0108
:101930008085882301F18F81988508960E946C0626
:101940008130C9F40E94971616C08F8198852A812C
:101950003B81FC01378326838F819885FC01818937
:10196000882349F08F81988541960E946C068823D0
:1019700011F00E9497160F900FBE81E074C08B8506
:101980009C85009721F40F900FBE80E06CC0898188
:10199000882331F4CE0104960E94D60681E0898323
:1019A0000F900FBE0E94F8030FB6F8940F928F812C
:1019B0009885FC01858D8F3F21F48F819885FC01EE
:1019C000158E8F819885FC01868D8F3F21F48F8144
:1019D0009885FC01168E0F900FBE9E01255F3F4F2C
:1019E000CE010496B9010E94F206882399F58F81F1
:1019F00098850E94500F882331F18F819885FC01D2
:101A000080819181009761F40FB6F8940F928F81D5
:101A10009885FC01828193810E941B090F900FBE63
:101A20002B853C858F8198854196B9010E942706B8
:101A30008F8198850E94EB0E0E940404882391F404
:101A40000E9497160FC08F8198850E94EB0E0E940E
:101A5000040437CF8F8198850E94EB0E0E94040406
:101A600080E001C02ECF2D960FB6F894DEBF0FBEDA
:101A7000CDBFDF91CF910895CF93DF93CDB7DEB780
:101A800028970FB6F894DEBF0FBECDBF9C838B8323
:101A90007E836D8358874F831A828B819C81FC01E2
:101AA000828D8823D9F12D813E818B819C81B90162
:101AB0000E949A0E8B819C81FC01828D2FEF280F52
:101AC0008B819C81FC01228F8B819C81FC01858D07
:101AD0008F3FB9F48B819C81FC0180858823D9F0EC
:101AE0008B819C8108960E946C068823A1F08F81CF
:101AF0009885009781F08F81988521E0FC012083F3
:101B00000AC08B819C81FC01858D21E0280F8B818F
:101B10009C81FC01258F81E0898301C01982898124
:101B200028960FB6F894DEBF0FBECDBFDF91CF91E0
:101B30000895CF93DF9300D0CDB7DEB79B838A8320
:101B40000FB6F8940F928A819B81FC01828D898364
:101B50000F900FBE89810F900F900F90DF91CF9162
:101B60000895CF93DF9300D0CDB7DEB79B838A83F0
:101B70008A819B81FC01828D898389810F900F90DE
:101B80000F90DF91CF910895CF93DF931F921F9213
:101B9000CDB7DEB79A83898389819A81FC018081E0
:101BA00091810E946A1489819A810E946A140F901F
:101BB0000F90DF91CF910895CF93DF9300D01F92C4
:101BC0001F92CDB7DEB79A8389837C836B834D8365
:101BD00089819A81FC01848D8823A9F489819A8165
:101BE000FC0180819181009709F092C089819A81DE
:101BF000FC01828193810E94AB0989819A81FC0159
:101C00001382128285C08D818823D9F589819A81BA
:101C1000FC01848D482F50E089819A81FC018481E8
:101C200095812B813C81B9010E94842889819A8108
:101C3000FC012481358189819A81FC01848D882F62
:101C400090E0280F391F89819A81FC013583248314
:101C500089819A81FC012481358189819A81FC01E5
:101C6000828193812817390708F452C089819A81AB
:101C7000FC012081318189819A81FC013583248393
:101C800047C089819A81FC01848D482F50E0898169
:101C90009A81FC01868197812B813C81B9010E9448
:101CA000842889819A81FC012681378189819A81E2
:101CB000FC01848D882F90E0919581959109280FE2
:101CC000391F89819A81FC013783268389819A8112
:101CD000FC012681378189819A81FC018081918173
:101CE00028173907A8F489819A81FC012281338160
:101CF00089819A81FC01848D882F90E0919581954E
:101D00009109280F391F89819A81FC013783268325
:101D100089819A81FC01828D21E0280F89819A8135
:101D2000FC01228F0F900F900F900F900F90DF917A
:101D3000CF910895CF93DF9300D01F92CDB7DEB738
:101D40009A8389837C836B8389819A81FC0180815A
:101D500091810097C9F189819A81FC01268137819F
:101D600089819A81FC01848D882F90E0280F391F8A
:101D700089819A81FC013783268389819A81FC01BC
:101D80002681378189819A81FC018281938128177C
:101D9000390750F089819A81FC0120813181898144
:101DA0009A81FC013783268389819A81FC01848D85
:101DB000482F50E089819A81FC01268137818B81EF
:101DC0009C81B9010E9484280F900F900F900F9072
:101DD000DF91CF910895CF93DF931F921F92CDB7DC
:101DE000DEB79A8389830FB6F8940F921BC089815E
:101DF0009A81FC0181898823A1F089819A81419689
:101E00000E946C06882311F00E94610789819A81E3
:101E1000FC01868D2FEF280F89819A81FC01268F86
:101E200001C006C089819A81FC01868D1816FCF2DA
:101E300089819A812FEFFC01268F0F900FBE0FB67C
:101E4000F8940F921BC089819A81FC0180858823B8
:101E5000A1F089819A8108960E946C06882311F06E
:101E60000E94610789819A81FC01858D2FEF280FDF
:101E700089819A81FC01258F01C006C089819A81E0
:101E8000FC01858D1816FCF289819A812FEFFC01E7
:101E9000258F0F900FBE0F900F90DF91CF91089577
:101EA000CF93DF9300D0CDB7DEB79B838A830FB685
:101EB000F8940F928A819B81FC01928D81E0992395
:101EC00009F080E089830F900FBE89810F900F90F9
:101ED0000F90DF91CF910895CF93DF9300D0CDB7CE
:101EE000DEB79B838A838A819B81FC01928D81E08E
:101EF000992309F080E0898389810F900F900F90DA
:101F0000DF91CF910895CF93DF9300D0CDB7DEB7A7
:101F10009B838A830FB6F8940F928A819B81FC0180
:101F2000228D8A819B81FC01938D81E0291709F024
:101F300080E089830F900FBE89810F900F900F90E2
:101F4000DF91CF910895CF93DF9300D0CDB7DEB767
:101F50009B838A838A819B81FC01228D8A819B815C
:101F6000FC01938D81E0291709F080E08983898144
:101F70000F900F900F90DF91CF910895CF93DF9343
:101F80001F921F92CDB7DEB79A83898389819A8188
:101F90009C012D5F3F4F89819A81FC01328321830F
:101FA00089819A812FEF3FEFFC013483238389815C
:101FB0009A819C012D5F3F4F89819A81FC01368374
:101FC000258389819A819C012D5F3F4F89819A8168
:101FD000FC013087278389819A81FC0110820F9050
:101FE0000F90DF91CF910895CF93DF931F921F92AF
:101FF000CDB7DEB79A83898389819A81FC011186E6
:1020000010860F900F90DF91CF910895CF93DF93BB
:1020100000D000D0CDB7DEB79C838B837E836D83E9
:102020008B819C81FC01818192819A838983898142
:102030009A81FC01228133818D819E81FC01338351
:1020400022838B819C81FC01218132818D819E8143
:10205000FC013583248389819A81FC0182819381EB
:102060002D813E81FC013583248389819A812D81D4
:102070003E81FC01338322838B819C812D813E81B3
:10208000FC01328321838D819E812B813C81FC0167
:10209000318720878B819C81FC01808121E0280F82
:1020A0008B819C81FC01208326960FB6F894DEBFBD
:1020B0000FBECDBFDF91CF910895CF93DF93CDB702
:1020C000DEB728970FB6F894DEBF0FBECDBF9E8354
:1020D0008D8378876F838F819885FC0180819181C2
:1020E0009C838B838B819C818F3FFFEF9F0741F403
:1020F0008D819E81FC01878190859A8389831AC096
:102100008D819E8103969A83898307C089819A81F4
:10211000FC01828193819A83898389819A81FC0160
:1021200082819381FC01208131818B819C81821786
:10213000930760F789819A81FC01228133818F8125
:102140009885FC01338322838F819885FC018281ED
:1021500093812F813885FC01358324838F81988575
:1021600029813A81FC013583248389819A812F81D9
:102170003885FC01338322838F8198852D813E81B0
:10218000FC01318720878D819E81FC01808121E0C7
:10219000280F8D819E81FC01208328960FB6F8942C
:1021A000DEBF0FBECDBFDF91CF910895CF93DF93F8
:1021B00000D01F92CDB7DEB79C838B838B819C812F
:1021C000FC01828193812B813C81F901248135813D
:1021D000FC01358324838B819C81FC018481958162
:1021E0002B813C81F90122813381FC0133832283DD
:1021F0008B819C81FC01808591859A83898389816B
:102200009A81FC01218132818B819C8128173907B9
:1022100051F48B819C81FC012481358189819A81D3
:10222000FC01328321838B819C81FC011186108605
:1022300089819A81FC0180812FEF280F89819A8101
:10224000FC01208389819A81FC0180810F900F908D
:102250000F900F90DF91CF910895CF93DF93CDB77B
:10226000DEB727970FB6F894DEBF0FBECDBF9D83B4
:102270008C836E834F838AE190E00E9424149B83B9
:102280008A838A819B81009709F477C080918102BB
:1022900090918202009741F48A819B8190938202FF
:1022A000809381020E94B2138E81823010F081E00F
:1022B0008E838A819B81FC01118E108E8A819B8185
:1022C0002E81FC01268B8A819B812F81FC01278B2B
:1022D0008A819B812C813D81FC01318320838A810D
:1022E0009B8102960E94F40F8A819B810C960E942A
:1022F000F40F8A819B812A813B81FC0131872087F1
:102300008A819B812A813B81FC01338B228B8E81C8
:10231000882F90E024E030E0281B390B8A819B81D4
:10232000FC01358724878A819B81FC0196898091F5
:10233000B402891730F48A819B81FC0186898093DD
:10234000B4028A819B81AC014E5F5F4F8A819B8181
:10235000FC018689282F30E0C901880F991F880F5A
:10236000991F880F991F820F931F8D579D4FBA0198
:102370000E94061081E0898302C08FEF89838981E2
:1023800027960FB6F894DEBF0FBECDBFDF91CF9179
:102390000895CF93DF9300D000D0CDB7DEB79C83F4
:1023A0008B837E836D832091B5023091B6028B8141
:1023B0009C81820F931F9A838983809181029091DF
:1023C000820202960E94D610809181029091820230
:1023D00029813A81FC01338322838091B502909157
:1023E000B60229813A812817390778F48091810251
:1023F000909182029C012E5F3F4F8091A9029091A3
:10240000AA02B9010E945D100EC0809181029091D4
:1024100082029C012E5F3F4F8091A7029091A802FB
:10242000B9010E945D108D819E81009761F08091BD
:102430008102909182029C01245F3F4F8D819E8199
:10244000B9010E945D1026960FB6F894DEBF0FBE4C
:10245000CDBFDF91CF910895CF93DF931F921F924D
:10246000CDB7DEB73CC0F8948091B0029091B10234
:10247000FC01868197819A83898389819A810C9650
:102480000E94D610789489819A8102960E94D61073
:1024900089819A81FC0196898091B402891730F470
:1024A00089819A81FC0186898093B40289819A810D
:1024B000AC014E5F5F4F89819A81FC018689282F8C
:1024C00030E0C901880F991F880F991F880F991F45
:1024D000820F931F8D579D4FBA010E940610809165
:1024E000AB02882309F0BFCF0F900F90DF91CF91FF
:1024F0000895CF93DF9300D01F92CDB7DEB70E942F
:1025000088049C018091B7029091B802A901481BF0
:10251000590BCA019093BA028093B90289C0809185
:10252000B5029091B60201969093B6028093B502DF
:102530008091B9029091BA0201979093BA02809368
:10254000B9028091B5029091B6020097A1F48091F2
:10255000A7029091A8029A8389838091A902909101
:10256000AA029093A8028093A70289819A819093EE
:10257000AA028093A90253C08091A7029091A80259
:10258000FC0185819681FC01868197819C838B83E8
:102590008B819C81FC01228133818091B5029091D5
:1025A000B6028217930708F443C0F8948B819C818C
:1025B00002960E94D6108B819C81FC0184899589AA
:1025C000009729F08B819C810C960E94D6107894FC
:1025D0008B819C81FC0196898091B402891730F42B
:1025E0008B819C81FC0186898093B4028B819C81C4
:1025F000AC014E5F5F4F8B819C81FC018689282F47
:1026000030E0C901880F991F880F991F880F991F03
:10261000820F931F8D579D4FBA010E940610809123
:10262000A7029091A802FC018081882309F0A4CF21
:102630008091B9029091BA02009709F070CF809111
:10264000B5029091B6029093B8028093B7020F90B2
:102650000F900F900F90DF91CF910895CF93DF935C
:102660001F921F92CDB7DEB70E942C120E947912E2
:102670000AC08091B402882309F46FC08091B4022B
:1026800081508093B4028091B402282F30E0C901B8
:10269000880F991F880F991F880F991F820F931F0A
:1026A0008D579D4FFC018081882319F38091B402DE
:1026B000282F30E0C901880F991F880F991F880FB4
:1026C000991F820F931F8D579D4F9A83898389810C
:1026D0009A81FC0181819281FC012281338189816F
:1026E0009A81FC013283218389819A81FC012181B5
:1026F000328189819A8103962817390769F4898183
:102700009A81FC0181819281FC012281338189813E
:102710009A81FC013283218389819A81FC01818124
:102720009281FC018681978190938202809381023D
:102730008091810290918202FC01208131818091FF
:10274000810290918202FC014789809181029091DF
:102750008202642FF901199500000F900F90DF910C
:10276000CF910895CF93DF931F92CDB7DEB7198233
:1027700013C08981282F30E0C901880F991F880F65
:10278000991F880F991F820F931F8D579D4F0E948D
:10279000BE0F89818F5F89838981823050F385E9FB
:1027A00092E00E94BE0F8EE992E00E94BE0F8BEA7B
:1027B00092E00E94BE0F85E992E09093A802809378
:1027C000A7028EE992E09093AA028093A9020F904B
:1027D000DF91CF910895CF93DF9300D01F921F9286
:1027E000CDB7DEB79D838C838C819D81FC01858173
:1027F0009681FC01868197819B838A838A819B8154
:102800000C960E94D6108A819B810C96BC018BEAA3
:1028100092E00E9406108A819B81FC0126898091AA
:10282000810290918202FC018689281718F081E0CC
:10283000898301C0198289810F900F900F900F90AA
:102840000F90DF91CF910895CF93DF9300D01F9227
:10285000CDB7DEB79C838B831A8219820E94F8035E
:102860002091BB1A3091BC1A8B819C81820F931FDF
:10287000811528E1920718F52091BB1A3091BC1AF6
:102880008B819C81280F391F8091BB1A9091BC1AB3
:1028900082179307A0F48091BB1A9091BC1A8554BB
:1028A0009D4F9A8389832091BB1A3091BC1A8B81EA
:1028B0009C81820F931F9093BC1A8093BB1A0E9435
:1028C000040489819A810F900F900F900F90DF91EF
:1028D000CF910895CF93DF931F921F92CDB7DEB7AC
:1028E0009A8389830F900F90DF91CF910895CF93B2
:1028F000DF93CDB7DEB71092BC1A1092BB1ADF91EE
:10290000CF910895CF93DF93CDB7DEB78091BB1AF7
:102910009091BC1A20E038E1A901481B590BCA016B
:10292000DF91CF910895CF93DF93CDB7DEB728978E
:102930000FB6F894DEBF0FBECDBF9C838B837E8322
:102940006D8358874F838B819C8121E1FC0120831B
:102950008B819C8101979C838B838B819C8122E25C
:10296000FC0120838B819C8101979C838B838B81CD
:102970009C8123E3FC0120838B819C8101979C83B4
:102980008B838D819E819A83898329818B819C8110
:10299000FC0120838B819C8101979C838B8389819F
:1029A0009A81892F99279A83898329818B819C8198
:1029B000FC0120838B819C8101979C838B838B817D
:1029C0009C81FC0110828B819C8101979C838B836D
:1029D0008B819C81FC0110828B819C8101979C835F
:1029E0008B838B819C8120E8FC0120838B819C81DF
:1029F00001979C838B838B819C81FC0110828B814E
:102A00009C8101979C838B838B819C81FC0110822C
:102A10008B819C8101979C838B838B819C81FC01A2
:102A200010828B819C8101979C838B838B819C81FD
:102A300022E0FC0120838B819C8101979C838B8306
:102A40008B819C8123E0FC0120838B819C810197F9
:102A50009C838B838B819C8124E0FC0120838B8170
:102A60009C8101979C838B838B819C8125E0FC0159
:102A700020838B819C8101979C838B838B819C819C
:102A800026E0FC0120838B819C8101979C838B83B2
:102A90008B819C8127E0FC0120838B819C810197A5
:102AA0009C838B838B819C8128E0FC0120838B811C
:102AB0009C8101979C838B838B819C8129E0FC0105
:102AC00020838B819C8101979C838B838B819C814C
:102AD00020E1FC0120838B819C8101979C838B8367
:102AE0008B819C8121E1FC0120838B819C8101975A
:102AF0009C838B838B819C8122E1FC0120838B81D1
:102B00009C8101979C838B838B819C8123E1FC01B9
:102B100020838B819C8101979C838B838B819C81FB
:102B200024E1FC0120838B819C8101979C838B8312
:102B30008B819C8125E1FC0120838B819C81019705
:102B40009C838B838B819C8126E1FC0120838B817C
:102B50009C8101979C838B838B819C8127E1FC0165
:102B600020838B819C8101979C838B838B819C81AB
:102B700028E1FC0120838B819C8101979C838B83BE
:102B80008B819C8129E1FC0120838B819C810197B1
:102B90009C838B838B819C8120E2FC0120838B8131
:102BA0009C8101979C838B838B819C8121E2FC011A
:102BB00020838B819C8101979C838B838B819C815B
:102BC00022E2FC0120838B819C8101979C838B8373
:102BD0008B819C8123E2FC0120838B819C81019766
:102BE0009C838B838F8198859A83898329818B81AC
:102BF0009C81FC0120838B819C8101979C838B832A
:102C000089819A81892F99279A83898329818B8148
:102C10009C81FC0120838B819C8101979C838B8309
:102C20008B819C8126E2FC0120838B819C81019712
:102C30009C838B838B819C8127E2FC0120838B8189
:102C40009C8101979C838B838B819C8128E2FC0172
:102C500020838B819C8101979C838B838B819C81BA
:102C600029E2FC0120838B819C8101979C838B83CB
:102C70008B819C8120E3FC0120838B819C810197C7
:102C80009C838B838B819C8121E3FC0120838B813E
:102C90009C8101979C838B838B819C8128960FB6A6
:102CA000F894DEBF0FBECDBFDF91CF910895CF93D3
:102CB000DF93CDB7DEB70E945B17A0912802B091D9
:102CC0002902CD91CDBFDD91DEBFFF91EF91DF9164
:102CD000CF91BF91AF919F918F917F916F915F91B4
:102CE0004F913F912F911F910F91FF90EF90DF90A7
:102CF000CF90BF90AF909F908F907F906F905F909C
:102D00004F903F902F901F900F900CBE0F900BBED6
:102D10000F900FBE0F90089581E0DF91CF9108953D
:102D2000CF93DF93CDB7DEB7DF91CF9108950F92A8
:102D30000FB6F8940F920BB60F920CB60F921F922B
:102D400011242F923F924F925F926F927F928F92B7
:102D50009F92AF92BF92CF92DF92EF92FF920F932A
:102D60001F932F933F934F935F936F937F938F9313
:102D70009F93AF93BF93CF93DF93EF93FF93A09174
:102D80002802B09129020DB60D920EB60D920E9446
:102D90009A05A0912802B0912902CD91CDBFDD9175
:102DA000DEBFFF91EF91DF91CF91BF91AF919F91E6
:102DB0008F917F916F915F914F913F912F911F91D3
:102DC0000F91FF90EF90DF90CF90BF90AF909F90CA
:102DD0008F907F906F905F904F903F902F901F90BB
:102DE0000F900CBE0F900BBE0F900FBE0F9008956A
:102DF0000F920FB6F8940F920BB60F920CB60F927B
:102E00001F9211242F923F924F925F926F927F9266
:102E10008F929F92AF92BF92CF92DF92EF92FF92EA
:102E20000F931F932F933F934F935F936F937F93D2
:102E30008F939F93AF93BF93CF93DF93EF93FF93C2
:102E4000A0912802B09129020DB60D920EB60D92F6
:102E50000E94BD040E949A05A0912802B091290207
:102E6000CD91CDBFDD91DEBFFF91EF91DF91CF918D
:102E7000BF91AF919F918F917F916F915F914F9192
:102E80003F912F911F910F91FF90EF90DF90CF9086
:102E9000BF90AF909F908F907F906F905F904F907A
:102EA0003F902F901F900F900CBE0F900BBE0F9075
:102EB0000FBE0F900895CF93DF9300D000D0CDB711
:102EC000DEB780E09DE7A0E0B0E089839A83AB8322
:102ED000BC8389819A81AB81BC81689415F8B695D1
:102EE000A795979587951694D1F789839A83AB8395
:102EF000BC8389819A81AB81BC810197A109B10909
:102F000089839A83AB83BC8389818D8389819A81EC
:102F1000AB81BC81892F9A2FAB2FBB2789839A83E2
:102F2000AB83BC8389818E8389E990E02E81FC018B
:102F3000208388E990E02D81FC0120838BE08D8344
:102F400081E990E02D81FC01208381E790E0FC0184
:102F500080818D838D8182608D8381E790E02D81DA
:102F6000FC01208326960FB6F894DEBF0FBECDBFBE
:102F7000DF91CF9108950E94F8161895CF93DF93B3
:102F8000CDB7DEB78091BD1A9091BE1A019690938D
:102F9000BE1A8093BD1ADF91CF910895CF93DF932E
:102FA000CDB7DEB70000DF91CF910895AF92BF9209
:102FB000CF92DF92EF92FF920F93CF93DF93CDB733
:102FC000DEB781E290E027EFFC0120838AE290E007
:102FD0002FEFFC0120838DE290E02FEFFC01208396
:102FE00084E290E02FEFFC01208380E390E0FC017D
:102FF000108287E091E0FC01108284E091E0FC0106
:1030000010828BE290E0FC0110828EE290E0FC01E5
:10301000108288E091E022E0FC0120830E94551A92
:10302000A12CB12CC12CD12CE12CF12C01E020E001
:1030300030E04DE354E067E072E08EEC99E10E94ED
:10304000B700A12CB12CC12CD12CE12CF12C01E02A
:1030500020E030E04DE354E06AE072E080E494E286
:103060000E94B700A12CB12CC12CD12CE12CF12C49
:1030700001E020E030E04DE354E06DE072E089E1F2
:1030800097E20E94B7000E94B60380E090E0DF91D3
:10309000CF910F91FF90EF90DF90CF90BF90AF90C6
:1030A0000895CF93DF93CDB7DEB762970FB6F8944C
:1030B000DEBF0FBECDBF9A8B898B20E1E0E1F2E04D
:1030C000CE010196DC0101900D922A95E1F78989E4
:1030D0009A89892F992782958F709E012F5F3F4F84
:1030E000820F931FFC0180810E949A1A89899A8914
:1030F00088279F70892F990F990B9E012F5F3F4F53
:10310000820F931FFC0180810E949A1A89899A89F3
:10311000807F99279595879595958795959587951E
:10312000959587959E012F5F3F4F820F931FFC015E
:1031300080810E949A1A89899A898F7099279E01A5
:103140002F5F3F4F820F931FFC0180810E949A1ACC
:1031500062960FB6F894DEBF0FBECDBFDF91CF9160
:103160000895CF93DF931F921F92CDB7DEB79A8356
:10317000898389819A81929582958F7089279F7022
:1031800089279C01A7E4B3E00E946F289695879554
:103190009695879596958795805D0E949A1A4981A4
:1031A0005A81CA01929582958F7089279F708927CD
:1031B0009C01A7E4B3E00E946F28969587959695A9
:1031C00087959695879560E177E2869F9001879F26
:1031D000300D969F300D1124CA01821B930B9695DA
:1031E000879596958795969587959C01A5ECB0E275
:1031F0000E946F28929582958F7089279F708927EA
:10320000805D0E949A1A49815A81CA0196958795D4
:1032100096958795969587959C01A5ECB0E20E94BE
:103220006F28929582958F7089279F70892768EE05
:1032300073E0869F9001879F300D969F300D11247B
:10324000CA01821B930B96958795969587959C014D
:10325000ABE7B4E10E946F2896958795805D0E9448
:103260009A1A49815A81CA019695879596958795AC
:103270009C01ABE7B4E10E946F289695879564E6C0
:10328000689F9001699F300D1124CA01821B930B26
:103290009C01ADECBCEC0E946F28969587959695A5
:1032A000879596958795805D0E949A1A49815A81E3
:1032B0009A01ADECBCEC0E946F2896958795969587
:1032C000879596958795880F991F9C01220F331F2C
:1032D000220F331F820F931F9A01281B390BC9013C
:1032E000805D0E949A1A0F900F90DF91CF91089500
:1032F0000F931F93CF93DF93CDB7DEB72C970FB605
:10330000F894DEBF0FBECDBF9C838B837E836D831D
:1033100058874F833A8729871C870B872B853C85E5
:103320008D819E81281739071CF489859A852BC0C9
:103330002B853C858B819C81821793071CF48F81A0
:10334000988521C08B859C8599230CF403969595CF
:103350008795959587958C5891099A8389832981BA
:103360003A818F819885821793074CF029853A8599
:1033700089819A81821793072CF4C90103C08F8138
:10338000988500C000002C960FB6F894DEBF0FBEE3
:10339000CDBFDF91CF911F910F910895CF93DF9310
:1033A000CDB7DEB762970FB6F894DEBF0FBECDBFC4
:1033B00081E090E09A8389838CE193E09C838B8306
:1033C00080EE90E09E838D8388E190E098878F83E4
:1033D00080E490E09A87898780E091E09C878B87E2
:1033E00080E491E09E878D8780E691E0988B8F87BF
:1033F00082EC91E09A8B898B82E290E0FC01108252
:103400000E94651A0E94BD220E94C0240E942922A7
:103410000E94DA1F0E94692182E290E022E230E0FD
:10342000F901308120E82327FC0120838CE291E020
:103430000E942402F1CFCF93DF93CDB7DEB78AE0AD
:1034400091E020EFFC0120838BE091E020ECFC0177
:1034500020838CE291E00E942402FBCFCF93DF9384
:10346000CDB7DEB70E94292281E090E00E9434228D
:1034700084EF91E00E94240280E490E00E943422D4
:1034800084EF91E00E9424028FE790E00E943422B2
:1034900084EF91E00E94240280E490E00E943422B4
:1034A00084EF91E00E942402DFCFCF93DF93CDB76A
:1034B000DEB784E290E02FEFFC01208385E290E00C
:1034C000FC011082DF91CF910895CF93DF93CDB7A8
:1034D000DEB740E061E080E40E949B0A9093621BAB
:1034E0008093611B40E061E088E00E949B0A90931A
:1034F0005E1B80935D1B85EC90E0FC01108284ECE8
:1035000090E028E0FC01208381EC90E028E1FC01C0
:10351000208382EC90E026E0FC01208380EC90E0A8
:1035200020EC30E0F90120812D7FFC012083DF9128
:10353000CF910895CF93DF931F92CDB7DEB78983E4
:10354000000080EC90E0FC018081882F90E0807288
:1035500099270097B1F386EC90E02981FC01208344
:103560000F90DF91CF910895CF93DF93CDB7DEB762
:10357000000080ED90E0FC0180818823D4F786ED87
:1035800090E0FC018081DF91CF910895CF93DF938C
:103590001F92CDB7DEB789838091611B9091621B2A
:1035A00020E04FEF5FEFBE016F5F7F4F0E94520B35
:1035B0000F90DF91CF910895CF93DF931F921F92C9
:1035C000CDB7DEB79A8389830BC089819A81FC01CC
:1035D00080810E94C61A89819A8101969A83898383
:1035E00089819A81FC018081882379F70F900F905F
:1035F000DF91CF910895CF93DF931F92CDB7DEB7C0
:103600008091611B9091621B20E04FEF5FEFBE0144
:103610006F5F7F4F0E944F0C000088EC90E0FC0130
:103620008081882F90E0807299270097B1F38EEC0B
:1036300090E02981FC012083E3CFCF93DF931F9299
:10364000CDB7DEB7898380915F1B9091601B20E02E
:103650004FEF5FEFBE016F5F7F4F0E94520B0F90E5
:10366000DF91CF910895CF93DF931F921F92CDB733
:10367000DEB79A8389830BC089819A81FC0180819E
:103680000E941D1B89819A8101969A838983898171
:103690009A81FC018081882379F70F900F90DF9148
:1036A000CF910895CF93DF931F92CDB7DEB780916E
:1036B0005F1B9091601B20E04FEF5FEFBE016F5FDB
:1036C0007F4F0E944F0C000080EC90E0FC01808155
:1036D000882F90E0807299270097B1F386EC90E0F4
:1036E0002981FC012083E3CFCF93DF931F92CDB7D5
:1036F000DEB780915D1B90915E1B20E041E050E0C1
:10370000BE016F5F7F4F0E944F0C813011F48981A1
:1037100001C08FEF0F90DF91CF910895CF93DF938A
:10372000CDB7DEB780E80E949A1ADF91CF91089555
:10373000CF93DF93CDB7DEB780E00E949A1ADF9176
:10374000CF910895CF93DF93CDB7DEB72D970FB606
:10375000F894DEBF0FBECDBF9B878A877D876C87BD
:103760001A8219821C821B8283E090E098878F83E3
:103770006DC02EC082E390E09E838D8310C08D814A
:103780009E8101979E838D838D819E81009719F480
:103790008FEF9FEF65C081E090E00E94240280ECF3
:1037A00090E0FC018081882354F786EC90E0FC01D6
:1037B0008081898789819A812C853D85820F931F1D
:1037C0002985FC01208389819A8101969A838983C6
:1037D00029813A818A859B85281739075CF282E323
:1037E00090E09E838D8310C08D819E8101979E8382
:1037F0008D838D819E81009719F48FEF9FEF30C0EC
:1038000081E090E00E94240280EC90E0FC01808145
:10381000882354F786EC90E0FC01808189872A8513
:103820008C859D85622F0E94701D982F8985981721
:1038300041F00E94981B8B819C8101969C838B8315
:1038400005C00E948E1B80E090E00AC02B813C8165
:103850008F819885281739070CF48BCF8FEF9FEF56
:103860002D960FB6F894DEBF0FBECDBFDF91CF917E
:103870000895CF93DF93CDB7DEB7CA55D1090FB600
:10388000F894DEBF0FBECDBF84E290E02FEFFC01C5
:10389000208319828EE190E09B838A832CC012C022
:1038A0008A819B8101979B838A838A819B81009770
:1038B00029F419828EE190E09B838A8381E090E075
:1038C0000E94240280EC90E0FC018081882344F770
:1038D00086EC90E0FC0180818D838981882F90E0C7
:1038E0009E012A5F3F4F820F931F2D81FC01208391
:1038F00089818F5F89838981843088F2CE01069621
:1039000063E00E94701D982F8985981721F00E940E
:10391000981B198228C00E948E1B19828E818E8B63
:103920008F818F8B88858C838C81882381F08C811B
:10393000882F90E09E012A5E3F4F2D5F3F4FB901D7
:103940000E94A21B8F3FFFEF9F0709F40CC09E014E
:10395000275C3F4FCE014696B9010E94231FCE013E
:10396000C9960E94B41C95CFCF93DF93CDB7DEB735
:1039700028970FB6F894DEBF0FBECDBF98878F8310
:1039800082E390E09C838B838F819885FC0180810A
:103990000E949A1A81E090E00E9424028F8198850B
:1039A000FC0181810E949A1A81E090E00E94240229
:1039B0008F819885FC0180818D838F819885FC01A2
:1039C00081818E83CE01059662E00E94701D0E9467
:1039D0009A1A0E94461D992787FD9095009751F0ED
:1039E00081309105A1F08F3FFFEF9F0779F48FEFB2
:1039F0009FEF43C08B819C8101979C838B838B813C
:103A00009C81009719F48FEF9FEF37C0BDCF000066
:103A10001A82198214C02F81388589819A81820F78
:103A2000931F0296FC0180810E949A1A81E090E027
:103A30000E94240289819A8101969A8389838F81C9
:103A40009885FC018181282F332727FD30958981B6
:103A50009A8182179307FCF28F819885FC018181FE
:103A6000282F8F8198850296622F0E94701D0E94D8
:103A70009A1A0E94461D80E090E028960FB6F894AE
:103A8000DEBF0FBECDBFDF91CF910895CF93DF93FF
:103A90001F921F92CDB7DEB788E893E19A8389839E
:103AA0000BC089819A8101979A83898389819A8140
:103AB000009711F48FEF0FC080ED90E0FC01808142
:103AC00088237CF786ED90E0FC018081803811F43A
:103AD00081E001C080E00F900F90DF91CF910895B9
:103AE000CF93DF9300D000D0CDB7DEB79D838C831A
:103AF0006E8319821B821A8211C08C819D819C0168
:103B00002F5F3F4F3D832C83FC0180819981890F7A
:103B100089838A819B8101969B838A838E81282F4A
:103B200030E08A819B81821793073CF38981269636
:103B30000FB6F894DEBF0FBECDBFDF91CF910895D1
:103B4000CF93DF931F921F92CDB7DEB79A838983FD
:103B500081E00F900F90DF91CF910895CF93DF9385
:103B600000D01F921F92CDB7DEB789837B836A8313
:103B70005D834C838981992787FD909582309105DB
:103B800061F083309105A9F081309105F1F48C81C9
:103B90009D8102960E94702118C08C819D810296A1
:103BA0002A813B81F9012081BC01822F0E949C2146
:103BB0000CC08C819D8102962A813B81F901208174
:103BC000BC01822F0E94C421000081E00F900F9061
:103BD0000F900F900F90DF91CF910895CF93DF93C7
:103BE00000D01F921F92CDB7DEB789837B836A8393
:103BF0005D834C838981992787FD9095009721F0FB
:103C00008130910531F010C08C819D810E9462222B
:103C10000BC08C819D81FC0111828A819B81FC01FA
:103C200080810E947422000081E00F900F900F901D
:103C30000F900F90DF91CF910895CF93DF9300D035
:103C40001F921F92CDB7DEB789837B836A835D8322
:103C50004C838981992787FD909582309105E1F009
:103C60008330910534F4009759F08130910579F053
:103C700038C083309105A9F08430910529F131C015
:103C80008A819B81FC0180810E94B9232AC08C819A
:103C90009D810E94CC2325C08C819D810E94E323BD
:103CA00020C08A819B810296FC0130818A819B81A0
:103CB0000196FC0120818A819B81FC018081432F38
:103CC000622F0E94FA230DC08A819B810196FC011C
:103CD00020818A819B81FC018081622F0E940924BE
:103CE000000081E00F900F900F900F900F90DF91E8
:103CF000CF910895CF93DF9300D01F921F92CDB73D
:103D0000DEB789837B836A835D834C838C819D814D
:103D1000FC0111828981992787FD9095009721F0F8
:103D20008130910541F00CC08A819B81FC0180812A
:103D30000E94CD2005C08C819D810E94E920000059
:103D400081E00F900F900F900F900F90DF91CF9127
:103D50000895CF93DF9300D01F921F92CDB7DEB7A7
:103D600089837B836A835D834C838981992787FD5F
:103D70009095009721F08130910541F00CC08A8127
:103D80009B81FC0180810E94142005C08C819D8153
:103D90000E941F20000081E00F900F900F900F9065
:103DA0000F90DF91CF910895CF93DF9300D01F92B2
:103DB0001F92CDB7DEB789837B836A835D834C8393
:103DC0008981992787FD9095009721F08130910591
:103DD00031F00AC08C819D810E94EB1F05C08C814F
:103DE0009D810E94FD1F000081E00F900F900F90B9
:103DF0000F900F90DF91CF910895CF93DF9300D074
:103E00001F921F92CDB7DEB789837B836A835D8360
:103E10004C838C819D81FC0111828981992787FDCA
:103E20009095009739F48A819B81FC0180810E94E2
:103E3000FB20000081E00F900F900F900F900F90EB
:103E4000DF91CF910895CF93DF9300D01F92CDB72C
:103E5000DEB79A8389837C836B8389819A81DC01B5
:103E600011962C918B819C81FC01208389819A8100
:103E7000DC018C91992787FD9095AA2797FDA09545
:103E8000BA2F41E050E027E030E0841B950B281763
:103E9000390708F466C08E589F4FFC010C947E28A9
:103EA00089819A81039629813A81D9011196EC91F1
:103EB0002B813C81A901BC018E2F0E94AE1D51C0F7
:103EC00089819A81039629813A81D9011196EC91D1
:103ED0002B813C81A901BC018E2F0E94EE1D41C0A7
:103EE00089819A81039629813A81D9011196EC91B1
:103EF0002B813C81A901BC018E2F0E941D1E31C067
:103F000089819A81039629813A81D9011196EC9190
:103F10002B813C81A901BC018E2F0E947A1E21C0F9
:103F200089819A81039629813A81D9011196EC9170
:103F30002B813C81A901BC018E2F0E94D41E11C08F
:103F400089819A81039629813A81D9011196EC9150
:103F50002B813C81A901BC018E2F0E94FD1E01C056
:103F6000000081E00F900F900F900F90DF91CF91A4
:103F70000895CF93DF9300D01F92CDB7DEB79A8319
:103F800089837C836B8389819A818A5D91099923D6
:103F90000CF403969595879595958795039790933F
:103FA000C01A8093BF1A0F900F900F900F90DF915F
:103FB000CF910895CF93DF93CDB7DEB720E030E007
:103FC00049EB5FE160E070E083E090E00E94AD27A4
:103FD000DF91CF910895CF93DF931F921F92CDB7BA
:103FE000DEB79A83898389819A81FC01108281E0FE
:103FF0000F900F90DF91CF910895CF93DF931F9291
:104000001F92CDB7DEB79A8389838091BF1A9091B2
:10401000C01A282F89819A81FC01208381E00F90AA
:104020000F90DF91CF910895CF93DF931F92CDB77B
:10403000DEB7898381E00F90DF91CF910895CF9310
:10404000DF931F921F92CDB7DEB79A838983898150
:104050009A81FC01108281E00F900F90DF91CF9147
:104060000895CF93DF93CDB7DEB782E290E022E2EE
:1040700030E0F90120812D7FFC0120830DC082E218
:1040800090E022E230E0F90120812D7FFC012083C5
:1040900081E090E00E94240282E290E0FC018081B5
:1040A000882F90E082709927009749F782E290E08C
:1040B00022E230E0F90120812160FC012083DF91C0
:1040C000CF910895CF93DF93CDB7DEB782E290E032
:1040D00022E230E0F90120812E7FFC0120830DC017
:1040E00082E290E022E230E0F90120812E7FFC01A3
:1040F000208381E090E00E94240282E290E0FC01B3
:104100008081882F90E081709927009749F782E29B
:1041100090E022E230E0F90120812260FC0120835E
:10412000DF91CF910895CF93DF93CDB7DEB782E2D1
:1041300090E022E230E0F90120812E7FFC01208313
:1041400082E290E022E230E0F90120812D7FFC0143
:10415000208316C082E290E022E230E0F901208163
:104160002E7FFC01208382E290E022E230E0F90120
:1041700020812D7FFC01208381E090E00E942402B9
:1041800082E290E0FC018081882F90E08370992783
:10419000009701F7DF91CF910895CF93DF931F929E
:1041A000CDB7DEB789838981882319F40E949320D3
:1041B0000BC08981813019F40E94312005C08981AA
:1041C0008F3F11F40E94622081E00F90DF91CF9128
:1041D0000895CF93DF931F921F92CDB7DEB79A83D6
:1041E000898389819A81FC01108281E00F900F9070
:1041F000DF91CF910895CF93DF931F92CDB7DEB7B4
:1042000089838981813051F485E290E025E230E0B4
:10421000F90120812068FC01208309C085E290E03B
:1042200025E230E0F90120812F77FC01208381E035
:104230000F90DF91CF910895CF93DF9300D01F921D
:10424000CDB7DEB79A8389837C836B8389819A811A
:10425000880F991F8F53954E2B813C81FC01318330
:1042600020830F900F900F900F90DF91CF910895C2
:10427000CF93DF931F921F92CDB7DEB79A838983C6
:1042800089819A81880F991F8F53954EFC018081F7
:1042900091810F900F90DF91CF910895CF93DF938D
:1042A00000D01F92CDB7DEB79A8389837C836B835E
:1042B0008B819C81FC018081918129813A81B901A6
:1042C0000E941C210F900F900F900F90DF91CF91C3
:1042D0000895CF93DF93CDB7DEB7DF91CF910895E7
:1042E000CF93DF9300D01F92CDB7DEB79C838B8333
:1042F0001A82198214C089819A81880F991F2B8193
:104300003C81820F931F29813A812F5F3F4FFC012F
:104310003183208389819A8101969A838983898157
:104320009A818630910538F381E00F900F900F90BD
:104330000F90DF91CF9108950F931F93CF93DF9349
:1043400000D0CDB7DEB789837B836A8389818630CD
:1043500090F48981882F90E0880F991F2A813B81F2
:104360008901080F191F8981882F90E00E94382148
:10437000F8019183808381E00F900F900F90DF917F
:10438000CF911F910F9108950F931F93CF93DF93B8
:1043900000D0CDB7DEB789837B836A838981992773
:1043A00087FD909581309105E9F08230910589F182
:1043B000009709F045C080E090E00E9438219C0100
:1043C0008A819B81FC01318320838A819B818C01BE
:1043D0000E5F1F4F81E090E00E943821F801918329
:1043E00080832EC082E090E00E9438219C018A8167
:1043F0009B81FC01318320838A819B818C010E5F2C
:104400001F4F83E090E00E943821F8019183808360
:1044100017C084E090E00E9438219C018A819B8132
:10442000FC01318320838A819B818C010E5F1F4FA9
:1044300085E090E00E943821F8019183808300009C
:1044400081E00F900F900F90DF91CF911F910F910E
:104450000895CF93DF93CDB7DEB78FE090E40E944D
:104460007625DF91CF910895CF93DF9300D01F92EF
:10447000CDB7DEB79C838B831A8219828B819C8196
:1044800099279A83898389819A810E9476250F9042
:104490000F900F900F90DF91CF910895CF93DF93FE
:1044A000CDB7DEB786E00E943025DF91CF91089529
:1044B000CF93DF93CDB7DEB78AE00E943025DF913E
:1044C000CF910895CF93DF931F921F92CDB7DEB7A0
:1044D0009A83898389819A81FC01108281E00F90FF
:1044E0000F90DF91CF910895CF93DF931F92CDB7B7
:1044F000DEB789838981882351F482E290E022E249
:1045000030E0F90120812B7FFC01208309C082E289
:1045100090E022E230E0F90120812460FC01208358
:104520008981882F90E00E94342281E00F90DF91F2
:10453000CF910895CF93DF9300D01F92CDB7DEB710
:104540009A8389837C836B8389819A8199230CF474
:104550000396959587959595879591958195910960
:10456000865B9F4F9093D01A8093CF1A0F900F9035
:104570000F900F90DF91CF910895CF93DF93CDB738
:10458000DEB780E291E022E0FC01208381E291E04D
:1045900029E0FC01208382E291E0FC01108289E2A3
:1045A00091E02FEFFC01208388E291E02FEFFC01E6
:1045B000208383E790E023E0FC012083DF91CF910B
:1045C00008951F920F9200905F000F9211240090A7
:1045D0005B000F922F933F938F939F93EF93FF93E3
:1045E000CF93DF93CDB7DEB78091D11A9091D21AD5
:1045F0008F3F2FEF920799F485E290E025E230E0BB
:10460000F90120812F7DFC01208385E290E025E2E5
:1046100030E0F90120812061FC01208323C08091DA
:10462000D11A9091D21A8130910599F485E290E0E7
:1046300025E230E0F90120812F7EFC01208385E214
:1046400090E025E230E0F90120812062FC01208326
:1046500009C085E290E025E230E0F90120812F7C5D
:10466000FC012083DF91CF91FF91EF919F918F917A
:104670003F912F910F9000925B000F9000925F008E
:104680000F901F9018951F920F9200905F000F924D
:10469000112400905B000F922F933F938F939F9371
:1046A000EF93FF93CF93DF93CDB7DEB785E290E032
:1046B00025E230E0F90120812F7CFC012083DF918D
:1046C000CF91FF91EF919F918F913F912F910F90FB
:1046D00000925B000F9000925F000F901F90189562
:1046E000CF93DF931F921F92CDB7DEB79A83898352
:1046F0004091D11A5091D21A29813A81429FC0012A
:10470000439F900D529F900D11249093D41A809343
:10471000D31A89819A81813B21E0920724F080EBB2
:1047200091E09A83898389E291E029813A81232F5C
:10473000330F330BFC01208388E291E02981FC01D7
:1047400020830F900F90DF91CF910895CF93DF9347
:104750001F921F92CDB7DEB79A83898389819A8190
:104760009093D21A8093D11A0F900F90DF91CF912E
:104770000895CF93DF931F92CDB7DEB789838981E8
:10478000992787FD90959093CE1A8093CD1A81E05A
:104790000F90DF91CF910895CF93DF931F921F92D7
:1047A000CDB7DEB79A8389838091CF1A9091D01AC2
:1047B000282F89819A81FC01208381E00F900F903E
:1047C000DF91CF910895CF93DF931F921F92CDB7C2
:1047D000DEB79A8389838091CD1A9091CE1A282FC3
:1047E00089819A81FC01208381E00F900F90DF91F5
:1047F000CF910895CF93DF9300D0CDB7DEB78983F3
:104800006A834B8381E00F900F900F90DF91CF91DF
:104810000895CF93DF931F921F92CDB7DEB78983A0
:104820006A8381E00F900F90DF91CF910895CF932D
:10483000DF93CDB7DEB78091CF1A9091D01A882739
:104840009071009771F08DE20E949A1A8091CF1AB0
:104850009091D01A9195819591099093D01A809357
:10486000CF1A8091CF1A9091D01A0E94B1188DE082
:104870000E949A1A8AE00E949A1ADF91CF910895B5
:10488000CF93DF9300D000D0CDB7DEB79E838D836A
:1048900020E030E04AE952E260E070E080E090E041
:1048A0000E94AD2783E290E09C838B831092CE1A06
:1048B0001092CD1A2091CD1A3091CE1A8091CF1A34
:1048C0009091D01AA901481B590B2B813C81429F22
:1048D000C001439F900D529F900D11249A838983AC
:1048E0002B813C81C901880F991F820F931F9195DD
:1048F000819591092091CD1A3091CE1A280F391F38
:1049000089819A818217930764F48FEF9FEF0E9449
:10491000A62389819A819195819591099A838983AA
:104920001BC02B813C81C901880F991F280F391F9B
:104930008091CD1A9091CE1A280F391F89819A81C2
:10494000281739072CF481E090E00E94A62304C0C8
:1049500080E090E00E94A62389819A81C2960E94FD
:10496000702389819A81C2960E94B11880E20E94C8
:104970009A1A0E9417248AE090E00E9424029ACF9B
:10498000CF93DF93CDB7DEB78CE490E023E5FC0155
:10499000208384E290E024E230E0F9012081622F5C
:1049A00040E050E021E030E002C0220F331F4A9582
:1049B000E2F7722F41E050E021E030E002C0220F28
:1049C000331F4A95E2F7722B42E050E021E030E0DD
:1049D00002C0220F331F4A95E2F7272B262BFC013A
:1049E000208384E290E024E230E0F9012081622F0C
:1049F00043E050E021E030E002C0220F331F4A952F
:104A0000E2F720952623FC01208385E290E025E251
:104A100030E0F9012081622F40E050E021E030E0F9
:104A200002C0220F331F4A95E2F7262BFC01208398
:104A300085E290E025E230E0F9012081622F41E03B
:104A400050E021E030E0042E02C0220F331F0A9410
:104A5000E2F720952623FC012083DF91CF91089572
:104A6000CF93DF931F92CDB7DEB7898385E290E0C5
:104A700025E230E0F9012081622F40E050E021E0A2
:104A800030E002C0220F331F4A95E2F7209526231B
:104A9000FC01208381E090E00E9424028EE490E0FB
:104AA0002981FC01208300008DE490E0FC018081DD
:104AB0008823D4F781E090E00E94240285E290E010
:104AC00025E230E0F9012081622F40E050E021E052
:104AD00030E0042E02C0220F331F0A94E2F7262B87
:104AE000FC0120830F90DF91CF910895CF93DF9346
:104AF0001F921F92CDB7DEB79A83898385E290E03B
:104B000025E230E0F9012081622F40E050E021E011
:104B100030E002C0220F331F4A95E2F7209526238A
:104B2000FC01208382E090E00E9424028EE490E069
:104B300029813A81232F3327FC01208300008DE453
:104B400090E0FC0180818823D4F78EE490E02981F5
:104B5000FC01208300008DE490E0FC01808188232B
:104B6000D4F782E090E00E94240285E290E025E202
:104B700030E0F9012081622F40E050E021E030E098
:104B8000042E02C0220F331F0A94E2F7262BFC01E9
:104B900020830F900F90DF91CF910895CF93DF93F3
:104BA000CDB7DEB78AE790E020E8FC0120838CE7F0
:104BB00090E021E4FC0120838BE790E028E0FC01F9
:104BC0002083DF91CF910895CF93DF931F921F929F
:104BD000CDB7DEB79A8389838AE790E0FC018081B4
:104BE000882F90E080749927009709F090C08AE799
:104BF00090E02AE730E0F9012081287FFC01208342
:104C000089819A81FC018281938183709927813007
:104C10009105A1F0823091051CF4009729F022C083
:104C200082309105A9F01EC08AE790E02AE730E0C3
:104C3000F90120812760FC01208314C08AE790E0FD
:104C40002AE730E0F90120812560FC0120830AC0B9
:104C50008AE790E02AE730E0F90120812360FC0137
:104C6000208300008CE790E02CE730E0F901208100
:104C7000207FFC01208389819A81FC0180819181C0
:104C800088309105CCF48BE790E02BE730E0F90118
:104C90002081277FFC0120838CE790E02CE730E027
:104CA000F9012081422F29813A81F9012081318146
:104CB000242BFC01208319C08BE790E02BE730E028
:104CC000F90120812860FC0120838CE790E02CE72B
:104CD00030E0F9012081422F29813A81F9012081B8
:104CE00031812850242BFC0120838AE790E02AE7B9
:104CF00030E0F90120812860FC0120838AE790E000
:104D00002AE730E0F90120812064FC0120830F9024
:104D10000F90DF91CF9108951F920F9200905F0046
:104D20000F92112400905B000F922F933F934F93AB
:104D30005F936F937F938F939F93AF93BF93EF9303
:104D4000FF93CF93DF9300D000D0CDB7DEB788E7D5
:104D500090E0FC018081882F90E09A83898389E725
:104D600090E0FC018081882F90E0982F882729818E
:104D70003A81822B932B9A8389838091571B909140
:104D8000581B880F991F880F991F880F991F8352EE
:104D9000954EFC01808191819C838B838091571B70
:104DA0009091581B880F991F880F991F880F991F82
:104DB0008552954EFC01808191819E838D834D812A
:104DC0005E8189819A812B813C81BA01F901199513
:104DD0008AE790E02AE730E0F9012081277FFC0193
:104DE00020838091D51A9091D61A20E040E050E0BF
:104DF00060E070E00E94F60B26960FB6F894DEBFD6
:104E00000FBECDBFDF91CF91FF91EF91BF91AF91D9
:104E10009F918F917F916F915F914F913F912F91D2
:104E20000F9000925B000F9000925F000F901F9018
:104E30001895CF93DF9300D01F92CDB7DEB79C8338
:104E40008B831A82198214C089819A81880F991FD5
:104E5000880F991F880F991F8952954E2FEF3FEFAA
:104E6000FC013183208389819A8101969A83898309
:104E700089819A81803191053CF30E94CE2543E0DF
:104E800060E081E00E949B0A9093D61A8093D51A25
:104E90008091D51A9091D61A009759F08091D51A21
:104EA0009091D61A20E040E050E060E070E00E946F
:104EB000520B81E090E090935A1B8093591B04C0E1
:104EC0008AE090E00E9424028091D71A9091D81A2B
:104ED0008F3FFFEF9F07A1F38091571B9091581BC5
:104EE000880F991F880F991F880F991F8952954E17
:104EF0000E94E4258091571B9091581B0196909336
:104F0000581B8093571B8091571B9091581B8031E1
:104F100091059CF48091571B9091581B880F991F05
:104F2000880F991F880F991F8952954EFC01808127
:104F300091818F3FFFEF9F0721F41092581B109231
:104F4000571B8091D51A9091D61A20E04FEF5FEF52
:104F500060E070E00E944F0CBFCFCF93DF93CDB7DE
:104F6000DEB72A970FB6F894DEBF0FBECDBF9C8385
:104F70008B837E836D8358874F833A87298704C04C
:104F800083E090E00E9424028091591B90915A1B6B
:104F90000097B1F31A82198205C089819A8101961E
:104FA0009A83898389819A81803191058CF48981E2
:104FB0009A81880F991F880F991F880F991F89520E
:104FC000954EFC01808191818F3FFFEF9F0729F76C
:104FD0008B819C8188309105A4F48EE790E02EE7C8
:104FE00030E0F9012081422F21E030E00B8002C047
:104FF000220F331F0A94E2F720952423FC0120831B
:1050000018C08DE790E02DE730E0F9012081622F94
:105010002B813C81A9014850510921E030E0042E48
:1050200002C0220F331F0A94E2F720952623FC01C9
:10503000208389819A81880F991F880F991F880F73
:10504000991F8952954EFC01808191818F3FFFEF1E
:105050009F07E1F589819A81880F991F880F991F11
:10506000880F991F8952954E2B813C81FC01318319
:10507000208389819A81880F991F880F991F880F33
:10508000991F8752954E2D813E81FC0131832083EB
:1050900089819A81880F991F880F991F880F991FFE
:1050A0008352954E2F813885FC013183208389817D
:1050B0009A81880F991F880F991F880F991F855211
:1050C000954E29853A85FC01318320832A960FB6B7
:1050D000F894DEBF0FBECDBFDF91CF910895A29FA0
:1050E000B001B39FC001A39F700D811D1124911DBC
:1050F000B29F700D811D1124911D0895EE0FFF1FA9
:105100000590F491E02D1994FB01DC0102C001909F
:105110000D9241505040D8F70895DC0101C06D93C5
:1051200041505040E0F70895FB01DC0141505040F0
:1051300048F001900D920020C9F701C01D92415026
:0A5140005040E0F70895F894FFCF07
:10514A00FFFF49444C4500543000543400543500A4
:10515A0030313233343536373839414243444546A3
:08516A00020003000100000037
:00000001FF
