:100000000C948E000C94AF000C94AF000C94AF00D5
:100010000C94AF000C94AF000C94AF000C94AF00A4
:100020000C94AF000C94AF000C94AF000C94FB2127
:100030000C94AF000C94AF000C94AF000C94AF0084
:100040000C94AF000C94AF000C94AF000C94AF0074
:100050000C94AF000C94AF000C94AF000C94AF0064
:100060000C94AF000C94AF000C94AF000C94AF0054
:100070000C94AF000C94AE270C94AF000C94AF001E
:100080000C94B61A0C94AF000C94AF000C94AF0013
:100090000C94421B0C94AF000C94AF000C94AF0076
:1000A0000C94AF000C94AF000C94AF000C94AF0014
:1000B0000C94AF000C94AF000C94AF000C946F2420
:1000C0000C94AF000C94AF000C940D240C94AF0072
:1000D0000C94AF000C94AF000C94AF000C94AF00E4
:1000E0000C94AF0042205920892069208920892062
:1000F000792089200C9462250C9479200C9442205C
:100100000C9469200C94640A0C94C6230C94050387
:100110000C9489200C943B280C94592011241FBE68
:10012000CFEFD1E2DEBFCDBF00E00CBF12E0A0E018
:10013000B2E0EEE8F3E500E00BBF02C007900D92DD
:10014000AC32B107D9F71BE1ACE2B2E001C01D92BD
:10015000A937B107E1F70E94C9000C94C5290C9496
:100160000000CF93DF93CDB7DEB780912C02909142
:100170002D02019690932D0280932C02DF91CF9156
:100180000895CF93DF93CDB7DEB70000DF91CF9115
:100190000895AF92BF92CF92DF92EF92FF920F93AA
:1001A000CF93DF9300D000D0CDB7DEB78FE38D8340
:1001B0008EEF8E83CE0105969A838983CE010596B4
:1001C00001969C838B8381E290E027EFFC012083E2
:1001D0008AE290E02FEFFC0120838DE290E02FEF88
:1001E000FC01208384E290E02FEFFC01208380E378
:1001F00090E0FC01108287E091E0FC01108284E035
:1002000091E0FC0110828BE290E0FC0110828EE212
:1002100090E0FC01108288E091E022E0FC01208364
:100220000E94A0038B819C81A12CB12CC12CD12CCC
:10023000E12CF12C01E09C014DE354E066E072E01A
:1002400085E093E00E94B0038B819C81A12CB12CAE
:10025000C12CD12CE12CF12C01E09C014DE354E0A8
:1002600069E072E082E695E20E94B0038B819C8196
:10027000A12CB12CC12CD12CE12CF12C01E09C0142
:100280004DE354E06CE072E08BE398E20E94B0032F
:100290000E94AF0680E090E026960FB6F894DEBF8D
:1002A0000FBECDBFDF91CF910F91FF90EF90DF9008
:1002B000CF90BF90AF900895CF93DF93CDB7DEB7C7
:1002C00062970FB6F894DEBF0FBECDBF9A8B898BB5
:1002D00020E1EFE0F2E0CE010196DC0101900D9209
:1002E0002A95E1F789899A89892F992782958F70B4
:1002F0009E012F5F3F4F820F931FFC0180810E9460
:10030000FC1A89899A8988279F70892F990F990BE0
:100310009E012F5F3F4F820F931FFC0180810E943F
:10032000FC1A89899A89807F992795958795959553
:10033000879595958795959587959E012F5F3F4F5A
:10034000820F931FFC0180810E94FC1A89899A897F
:100350008F7099279E012F5F3F4F820F931FFC01E3
:1003600080810E94FC1A62960FB6F894DEBF0FBE21
:10037000CDBFDF91CF910895CF93DF9300D01F922F
:10038000CDB7DEB79C838B831A8219828B819C81C7
:10039000929582958F7089279F7089279C01A7E489
:1003A000B3E00E94912996958795969587959695A5
:1003B0008795805D0E94FC1A4B815C81CA019295F1
:1003C00082958F7089279F7089279C01A7E4B3E0ED
:1003D0000E949129969587959695879596958795EC
:1003E00060E177E2869F9001879F300D969F300DE8
:1003F0001124CA01821B930B969587959695879534
:10040000969587959C01A5ECB0E20E949129929562
:1004100082958F7089279F708927805D0E94FC1AC2
:100420004B815C81CA01969587959695879596959F
:1004300087959C01A5ECB0E20E9491299295829546
:100440008F7089279F70892768EE73E0869F9001DF
:10045000879F300D969F300D1124CA01821B930B8C
:1004600096958795969587959C01ABE7B4E10E9498
:10047000912996958795805D0E94FC1A4B815C813D
:10048000CA0196958795969587959C01ABE7B4E14F
:100490000E9491299695879564E6689F9001699FCF
:1004A000300D1124CA01821B930B9C01ADECBCECF6
:1004B0000E9491299695879596958795969587950B
:1004C000805D0E94FC1A4B815C819A01ADECBCEC12
:1004D0000E949129969587959695879596958795EB
:1004E000880F991F9C01220F331F220F331F820F89
:1004F000931F9A01281B390BC901805D0E94FC1AC9
:100500000F900F900F900F90DF91CF910895CF93A0
:10051000DF9300D01F92CDB7DEB79A8389837C83A7
:100520006B8389819A810E945C018DE00E94FC1A94
:100530008AE00E94FC1A0F900F900F900F90DF91AD
:10054000CF910895CF93DF93CDB7DEB786E490E0E7
:10055000FC018081882F90E0DF91CF9108950F9367
:100560001F93CF93DF93CDB7DEB72C970FB6F894D8
:10057000DEBF0FBECDBF9C838B837E836D83588788
:100580004F833A8729871C870B872B853C858D8174
:100590009E81281739071CF489859A852BC02B85E5
:1005A0003C858B819C81821793071CF48F819885F1
:1005B00021C08B859C8599230CF40396959587958E
:1005C000959587958C5891099A83898329813A81D9
:1005D0008F819885821793074CF029853A85898108
:1005E0009A81821793072CF4C90103C08F819885E3
:1005F00000C000002C960FB6F894DEBF0FBECDBF32
:10060000DF91CF911F910F910895CF93DF93CDB7D5
:10061000DEB765970FB6F894DEBF0FBECDBF9D8BDA
:100620008C8B81E090E09A8389838CE193E09C83BA
:100630008B8380EE90E09E838D8388E190E09887A5
:100640008F8380E490E09A87898780E091E09C879F
:100650008B8780E491E09E878D8780E691E0988B80
:100660008F8782EC91E09A8B898B81E68B8B82E27B
:1006700090E0FC01108240E054E264EF70E080E81A
:1006800095E20E94B91A0E94E9230E94E2250E9485
:1006900053230E94E92382E290E022E230E0F90154
:1006A000308120E82327FC0120838CE291E00E9426
:1006B0001D05F1CFCF93DF931F921F92CDB7DEB709
:1006C0009A8389838AE091E020EFFC0120838BE00C
:1006D00091E020ECFC0120838CE291E00E941D055A
:1006E000FBCFCF93DF9300D01F92CDB7DEB79C83B3
:1006F0008B830E94E2251A8219820E94532381E093
:1007000090E00E945E2384EF91E00E941D0580E44A
:1007100090E00E945E2384EF91E00E941D058FE728
:1007200090E00E945E2384EF91E00E941D0580E42A
:1007300090E00E945E2384EF91E00E941D05DFCFD0
:10074000CF93DF93CDB7DEB784E290E02FEFFC01CB
:10075000208385E290E0FC011082DF91CF91089523
:10076000AF92BF92CF92DF92EF92FF920F931F93BF
:10077000CF93DF93CDB7DEB764970FB6F894DEBFA3
:100780000FBECDBF9F838E83798768875B874A873B
:100790003D872C870E87F88AEF86DA8AC98ABC8A59
:1007A000AB8A29893A898A859B85B9010E94660BA3
:1007B0009B838A838A819B81009709F49FC08A81E9
:1007C0009B81FC012789308D8A859B850197820F4B
:1007D000931F9D838C834A855B852B893C89688523
:1007E00079858A819B818A014E850E94760A4C8593
:1007F0005D852E813F818C819D81B9010E948E177C
:100800009C018A819B81FC01318320838F8598899B
:10081000009739F08F8598892A813B81FC013183CB
:1008200020830FB6F8940F9280917E028F5F8093A1
:100830007E028091300290913102009769F48A81A2
:100840009B81909331028093300280917E028130AF
:10085000B1F40E94D70A13C080918302882379F4EF
:100860008091300290913102FC0196898E85891722
:1008700030F08A819B8190933102809330028A818B
:100880009B81FC01968980918102891730F48A81CD
:100890009B81FC01868980938102809188028F5F11
:1008A000809388028A819B81FC01968980918202D3
:1008B000891730F48A819B81FC01868980938202AA
:1008C0008A819B81AC014E5F5F4F8A819B81FC01D5
:1008D0008689282F30E0C901880F991F880F991F3A
:1008E000880F991F820F931F8E5C9D4FBA010E9443
:1008F000001381E089830F900FBE02C08FEF8983C0
:100900008981813079F480918302882359F0809124
:10091000300290913102FC0196898E85981710F46F
:100920000E949219898164960FB6F894DEBF0FBEBB
:10093000CDBFDF91CF911F910F91FF90EF90DF908E
:10094000CF90BF90AF900895CF93DF93CDB7DEB730
:1009500028970FB6F894DEBF0FBECDBF9E838D8360
:1009600078876F8319820E94F1068D819E81FC0138
:10097000208131818F819885820F931F9B838A8389
:100980008D819E81FC012081318180917F02909137
:10099000800282179307B0F48D819E81FC01208133
:1009A00031818A819B818217930708F580917F02AC
:1009B000909180022A813B8182179307C0F481E0E5
:1009C000898315C08D819E81FC01208131818A81BE
:1009D0009B818217930748F080917F02909180025B
:1009E0002A813B818217930710F481E089838D81EE
:1009F0009E812A813B81FC01318320838981882368
:100A000059F0809130029091310202960E94D013E9
:100A10008A819B810E941B0B0E94FD068C838C8126
:100A2000882311F40E94921928960FB6F894DEBF1D
:100A30000FBECDBFDF91CF910895CF93DF9300D04C
:100A40001F921F92CDB7DEB79D838C8319828C8154
:100A50009D810097D1F00E94F10620917F02309194
:100A600080028C819D81820F931F9B838A8380915A
:100A700030029091310202960E94D0138A819B81AC
:100A80000E941B0B0E94FD0689838981882311F433
:100A90000E9492190F900F900F900F900F90DF917E
:100AA000CF910895CF93DF9300D01F92CDB7DEB7DB
:100AB0009C838B830FB6F8940F92809130029091B3
:100AC00031022B813C812817390711F41C821B82CB
:100AD0008B819C81009729F48091300290913102A2
:100AE00002C08B819C819A83898389819A81029635
:100AF0000E94D01389819A81FC018489958900978D
:100B000029F089819A810C960E94D01389819A815B
:100B10000296BC0185E792E00E9400130F900FBE81
:100B20008B819C810097A1F480918302882319F026
:100B30000E9492190DC09091750280917E029817C3
:100B400029F4109231021092300202C00E949308E0
:100B50000F900F900F900F90DF91CF910895CF934A
:100B6000DF9300D01F921F92CDB7DEB79D838C8399
:100B700019828C819D819B838A838A819B81FC0160
:100B800082859385F2E085379F0791F48A819B8166
:100B9000FC0184899589F2E08C369F0749F08A81AF
:100BA0009B81FC0184899589009711F481E08983F8
:100BB00089810F900F900F900F900F90DF91CF9140
:100BC0000895CF93DF9300D01F92CDB7DEB79C83FB
:100BD0008B838B819C819A83898389819A810097F9
:100BE00009F44FC0809130029091310229813A81FD
:100BF0002817390709F445C00FB6F8940F92898178
:100C00009A810E94AF058130D1F589819A8102963F
:100C10000E94D01389819A81FC0196898091820279
:100C2000891730F489819A81FC0186898093820238
:100C300089819A81AC014E5F5F4F89819A81FC0165
:100C40008689282F30E0C901880F991F880F991FC6
:100C5000880F991F820F931F8E5C9D4FBA010E94CF
:100C6000001389819A81FC0126898091300290913C
:100C70003102FC018689281710F00E9492190F900A
:100C80000FBE0F900F900F900F90DF91CF910895AE
:100C9000CF93DF9300D000D0CDB7DEB79E838D8396
:100CA00019828D819E819B838A831C828A819B818C
:100CB0000E94AF05813009F048C0809184028823EA
:100CC000E1F58A819B81FC01268980913002909117
:100CD0003102FC01968981E0291708F480E08983BC
:100CE0008A819B8102960E94D0138A819B81FC019C
:100CF000968980918202891730F48A819B81FC0158
:100D00008689809382028A819B81AC014E5F5F4F0E
:100D10008A819B81FC018689282F30E0C901880FD8
:100D2000991F880F991F880F991F820F931F8E5C40
:100D30009D4FBA010E94001308C08A819B810C96C6
:100D4000BC018CE692E00E940013898126960FB6C2
:100D5000F894DEBF0FBECDBFDF91CF910895AF9263
:100D6000BF92CF92DF92EF92FF920F93CF93DF93D8
:100D70001F92CDB7DEB7A12CB12CC12CD12CE12C08
:100D8000F12C00E020E030E045E550E06FE172E05A
:100D900084E69AE00E94B00389838981813051F40E
:100DA000F89481E0809383021092800210927F0277
:100DB0000E9452190F90DF91CF910F91FF90EF9009
:100DC000DF90CF90BF90AF900895CF93DF93CDB7D2
:100DD000DEB7F894109283020E948B19DF91CF91B5
:100DE0000895CF93DF93CDB7DEB7809184028F5FF4
:100DF00080938402DF91CF9108950F931F93CF9337
:100E0000DF931F921F92CDB7DEB719820FB6F89409
:100E10000F92809184028150809384028091840299
:100E2000882309F064C080917E02882309F45FC0A2
:100E30001A823AC08091710290917202FC0106817F
:100E40001781C8010C960E94D013C80102960E9417
:100E5000D013F801968980918202891720F4F80155
:100E6000868980938202A8014E5F5F4FF8018689D0
:100E7000282F30E0C901880F991F880F991F880F0C
:100E8000991F820F931F8E5C9D4FBA010E94001321
:100E9000F80126898091300290913102FC01868907
:100EA000281710F081E08A8380916C02882311F664
:100EB00080918502882371F007C00E94B607809157
:100EC0008502815080938502809185028823A9F74D
:100ED00081E08A838A81813021F08091860281308D
:100EE00031F481E08983109286020E9492190F905A
:100EF0000FBE89810F900F90DF91CF911F910F91BD
:100F00000895CF93DF931F921F92CDB7DEB70FB630
:100F1000F8940F9280917F02909180029A83898346
:100F20000F900FBE89819A810F900F90DF91CF9122
:100F30000895CF93DF9300D0CDB7DEB719828091AB
:100F40007F02909180029B838A838A819B810F908C
:100F50000F900F90DF91CF910895CF93DF93CDB78E
:100F6000DEB780917E02DF91CF910895CF93DF931A
:100F700000D000D0CDB7DEB780918402882309F07D
:100F8000C4C080917F02909180020196909380026C
:100F900080937F0280917F02909180020097E9F513
:100FA00080916802909169029A83898380916A0294
:100FB00090916B02909369028093680289819A8173
:100FC00090936B0280936A02809187028F5F809377
:100FD00087028091680290916902FC0180818823D8
:100FE00039F48FEF9FEF909301028093000215C0B8
:100FF0008091680290916902FC0185819681FC01D3
:10100000868197819C838B838B819C81FC0182816B
:101010009381909301028093000220917F0230918E
:10102000800280910002909101022817390708F48C
:101030006BC08091680290916902FC0180818823D5
:1010400039F48FEF9FEF90930102809300025CC010
:101050008091680290916902FC0185819681FC0172
:10106000868197819C838B838B819C81FC0182810B
:1010700093819E838D8320917F02309180028D81A8
:101080009E812817390738F48D819E819093010243
:101090008093000239C08B819C8102960E94D013FC
:1010A0008B819C81FC0184899589009729F08B8133
:1010B0009C810C960E94D0138B819C81FC019689A7
:1010C00080918202891730F48B819C81FC01868992
:1010D000809382028B819C81AC014E5F5F4F8B813C
:1010E0009C81FC018689282F30E0C901880F991F57
:1010F000880F991F880F991F820F931F8E5C9D4F39
:10110000BA010E94001395CF05C0809185028F5FC0
:101110008093850226960FB6F894DEBF0FBECDBF32
:10112000DF91CF910895CF93DF931F921F92CDB798
:10113000DEB780918402882321F081E080938602CB
:101140007AC08091300290913102FC01208131817E
:101150008091300290913102FC018789908D821735
:10116000930770F080913002909131029C01275ECC
:101170003F4F8091300290913102B9010E94C1002D
:1011800005C0809182028150809382028091820208
:10119000282F30E0C901880F991F880F991F880FE9
:1011A000991F820F931F8E5C9D4FFC0180818823C5
:1011B00041F380918202282F30E0C901880F991FE6
:1011C000880F991F880F991F820F931F8E5C9D4F68
:1011D0009A83898389819A81FC0181819281FC01B2
:1011E0002281338189819A81FC0132832183898123
:1011F0009A81FC012181328189819A810396281785
:10120000390769F489819A81FC0181819281FC010D
:101210002281338189819A81FC01328321838981F2
:101220009A81FC0181819281FC0186819781909352
:101230003102809330020F900F90DF91CF9108958B
:10124000CF93DF9300D000D0CDB7DEB79C838B83E4
:101250007E836D8380913002909131029C01245FE6
:101260003F4F8B819C81B9010E94571380913002BE
:101270009091310202960E94D0138D819E818F3F02
:101280002FEF920759F4809130029091310202962B
:10129000BC0185E792E00E9400130EC020917F02FE
:1012A000309180028D819E81820F931F9A83898362
:1012B00089819A810E941B0B26960FB6F894DEBF97
:1012C0000FBECDBFDF91CF910895CF93DF9300D0B4
:1012D0001F921F92CDB7DEB79D838C838C819D8139
:1012E000FC0185819681FC01868197819B838A839D
:1012F0008A819B810C960E94D0138091840288235E
:1013000069F58A819B8102960E94D0138A819B8114
:10131000FC01968980918202891730F48A819B8131
:10132000FC018689809382028A819B81AC014E5F99
:101330005F4F8A819B81FC018689282F30E0C9019B
:10134000880F991F880F991F880F991F820F931F6D
:101350008E5C9D4FBA010E94001308C08A819B8158
:101360000C96BC018CE692E00E9400138A819B815E
:10137000FC0126898091300290913102FC0186891E
:10138000281718F081E0898301C0198289810F90A4
:101390000F900F900F900F90DF91CF910895CF9302
:1013A000DF931F921F92CDB7DEB79A838983209176
:1013B000870289819A81FC01208320917F023091EC
:1013C000800289819A81FC01328321830F900F90E2
:1013D000DF91CF910895CF93DF9300D01F921F929A
:1013E000CDB7DEB79B838A837D836C830FB6F89479
:1013F0000F928C819D81FC01808191818F3FFFEF55
:101400009F0711F419824BC08A819B81FC01908156
:1014100080918702981779F08A819B81FC01218154
:10142000328180917F02909180028217930718F099
:1014300081E0898334C020917F02309180028A81CB
:101440009B81FC0181819281281B390B8C819D81BC
:10145000FC018081918128173907F8F48C819D81E6
:10146000FC01208131818A819B81FC014181528173
:1014700080917F0290918002BA01681B790BCB01A9
:10148000280F391F8C819D81FC01318320838A8143
:101490009B810E94CF09198202C081E089830F904D
:1014A0000FBE89810F900F900F900F900F90DF91DA
:1014B000CF910895CF93DF93CDB7DEB781E08093CE
:1014C0008602DF91CF910895CF93DF931F921F92F1
:1014D000CDB7DEB79A8389830E94140B80913202C4
:1014E000823018F00E949219F7CFF6CF0F931F9316
:1014F000CF93DF93CDB7DEB729970FB6F894DEBF51
:101500000FBECDBF9A8389837C836B834D833F83DA
:101510002E831987088789819A8149962B813C817E
:1015200040E150E0B9010E94B62989819A81FC010D
:1015300010A68D81843010F083E08D8389819A819B
:101540002D81FC01268B89819A812D81FC0121A7A7
:1015500089819A8102960E94EE1289819A810C9665
:101560000E94EE1289819A8129813A81FC0131879A
:1015700020878D81882F90E024E030E0281B390BF4
:1015800089819A81FC013587248789819A81298103
:101590003A81FC01338B228B29960FB6F894DEBF7B
:1015A0000FBECDBFDF91CF911F910F910895CF93C3
:1015B000DF931F92CDB7DEB7198213C08981282F20
:1015C00030E0C901880F991F880F991F880F991F54
:1015D000820F931F8E5C9D4F0E94B81289818F5F8E
:1015E00089838981843050F386E592E00E94B812A5
:1015F0008FE592E00E94B8128CE692E00E94B81249
:1016000085E792E00E94B81286E592E09093690225
:10161000809368028FE592E090936B0280936A0258
:101620000F90DF91CF910895CF93DF93CDB7DEB7C1
:10163000DF91CF910895CF93DF931F921F92CDB783
:10164000DEB79A838983809130029091310229819B
:101650003A81FC013383228380917F029091800242
:1016600029813A812817390778F4809130029091C6
:1016700031029C012E5F3F4F80916A0290916B0274
:10168000B9010E9457131DC0809130029091310220
:101690009C012E5F3F4F8091680290916902B901D1
:1016A0000E945713809100029091010229813A8192
:1016B0002817390730F489819A8190930102809329
:1016C00000020F900F90DF91CF910895CF93DF9399
:1016D00000D000D0CDB7DEB79C838B837E836D8333
:1016E0008AE290E00E941F179A83898389819A81F8
:1016F000009751F18D819E81009729F48B819C8107
:101700000E941F1702C08D819E8129813A81F901B3
:10171000908F878B89819A81FC018789908D0097B2
:1017200039F489819A810E9465171A8219820CC046
:1017300089819A81FC018789908D2B813C81A90147
:1017400065EA70E00E94AF2989819A8126960FB6DA
:10175000F894DEBF0FBECDBFDF91CF9108950F93F8
:101760001F93CF93DF931F921F92CDB7DEB79A835B
:10177000898300E010E009C089819A8101969A83EB
:101780008983C8018C010F5F1F4F89819A81FC01F9
:101790008081853A89F3C8010F900F90DF91CF9136
:1017A0001F910F910895CF93DF93CDB7DEB72797A1
:1017B0000FB6F894DEBF0FBECDBF9F838E838E81A0
:1017C0009F81009729F4809130029091310202C0EC
:1017D0008E819F819A83898389819A81FC0187897F
:1017E000908D9C838B838B819C810E94AF0B8D831A
:1017F0008D8127960FB6F894DEBF0FBECDBFDF9167
:10180000CF910895CF93DF931F921F92CDB7DEB78C
:1018100080913002909131029A83898389819A81E3
:101820000F900F90DF91CF910895CF93DF9300D069
:101830001F92CDB7DEB79C838B838B819C819A836B
:1018400089838B819C81009709F478C089819A8172
:10185000FC0126898091300290913102FC01868939
:10186000281708F06BC08091300290913102FC0182
:101870008689882F90E024E030E0281B390B89818D
:101880009A81FC013587248789819A81FC014285F0
:10189000538589819A81FC018689282F30E0C9010E
:1018A000880F991F880F991F880F991F820F931F08
:1018B0008E5C9D4F48175907B9F589819A81029628
:1018C0000E94D0138091300290913102FC01268950
:1018D00089819A81FC01268B89819A81FC019689F4
:1018E00080918202891730F489819A81FC0186896E
:1018F0008093820289819A81AC014E5F5F4F89811A
:101900009A81FC018689282F30E0C901880F991F30
:10191000880F991F880F991F820F931F8E5C9D4F10
:10192000BA010E9400130AC08091300290913102E6
:10193000FC01268989819A81FC01268B0F900F90EA
:101940000F900F90DF91CF910895CF93DF9300D048
:101950001F92CDB7DEB79C838B838B819C819A834A
:1019600089838B819C81009709F44EC089819A817B
:10197000FC01268989819A81FC0181A5281709F437
:1019800043C089819A8102960E94D01389819A81ED
:10199000FC0121A589819A81FC01268B89819A818C
:1019A000FC018689882F90E024E030E0281B390B69
:1019B00089819A81FC013587248789819A81FC017C
:1019C000968980918202891730F489819A81FC017D
:1019D00086898093820289819A81AC014E5F5F4F34
:1019E00089819A81FC018689282F30E0C901880FFE
:1019F000991F880F991F880F991F820F931F8E5C64
:101A00009D4FBA010E9400130F900F900F900F90FE
:101A1000DF91CF910895CF93DF9300D0CDB7DEB79C
:101A20009A8389836B830FB6F8940F9289819A8188
:101A3000FC012081318189819A81FC01838D682F8D
:101A400070E089819A81FC01848D482F50E0649F69
:101A5000C001659F900D749F900D1124280F391FB0
:101A600089819A81FC013383228389819A81FC01D7
:101A7000128E89819A81FC012081318189819A812C
:101A8000FC013583248389819A81FC012081318185
:101A900089819A81FC01838D882F90E0BC0161507F
:101AA000710989819A81FC01848D482F50E0649FDF
:101AB000C001659F900D749F900D1124280F391F50
:101AC00089819A81FC013783268389819A812FEF4E
:101AD000FC01258F89819A812FEFFC01268F8B8154
:101AE000882381F489819A81FC0180858823A1F073
:101AF00089819A8108960E946509813069F40E9463
:101B000092190AC089819A8108960E94B812898127
:101B10009A8141960E94B8120F900FBE81E00F90FB
:101B20000F900F90DF91CF910895CF93DF93CDB7B2
:101B3000DEB729970FB6F894DEBF0FBECDBF8F83F7
:101B4000688749871A8219828F81882309F443C0E4
:101B50008FE190E00E941F179C838B838B819C8177
:101B60000097C9F18F81482F50E08885282F30E0F9
:101B7000429FC001439F900D529F900D11240196EA
:101B80009E838D838D819E810E941F179C018B8176
:101B90009C81FC01318320838B819C81FC018081AD
:101BA00091810097A1F08B819C812F81FC01238F73
:101BB0008B819C812885FC01248F8B819C8161E035
:101BC0000E940B0D8B819C819A83898304C08B8139
:101BD0009C810E94651789819A8129960FB6F89495
:101BE000DEBF0FBECDBFDF91CF910895CF93DF93BE
:101BF00000D0CDB7DEB78B838FE190E00E941F1736
:101C00009A83898389819A810097F1F189819A81E8
:101C1000FC011382128289819A81FC011182108257
:101C200089819A81FC011582148289819A81FC0143
:101C30001782168289819A81FC01128E89819A818C
:101C400021E0FC01238F89819A81FC01148E898116
:101C50009A812FEFFC01258F89819A812FEFFC015A
:101C6000268F89819A8108960E94B81289819A816B
:101C700041960E94B81289819A8120E040E050E0AC
:101C800060E070E00E944C0E89819A810F900F9065
:101C90000F90DF91CF910895CF93DF93CDB7DEB74B
:101CA0002B970FB6F894DEBF0FBECDBF9E838D83FA
:101CB00078876F835A8749872B8719820FB6F894E4
:101CC0000F928D819E81FC01228D8D819E81FC0170
:101CD000838D2817D8F42F8138858D819E814B857F
:101CE000B9010E94D6108D819E81FC0181898823D3
:101CF00049F08D819E8141960E946509813011F4E1
:101D00000E9492190F900FBE81E061C089859A856B
:101D1000009721F40F900FBE80E059C0898188237D
:101D200031F4CE0102960E94CF0981E089830F90A1
:101D30000FBE0E94F1060FB6F8940F928D819E811E
:101D4000FC01858D8F3F21F48D819E81FC01158ED4
:101D50008D819E81FC01868D8F3F21F48D819E8136
:101D6000FC01168E0F900FBE9E01275F3F4FCE01E4
:101D70000296B9010E94EB09882301F58D819E81AD
:101D80000E947D12882399F029853A858D819E8154
:101D90000896B9010E9420098D819E810E94E5115B
:101DA0000E94FD06882391F40E9492190FC08D8134
:101DB0009E810E94E5110E94FD0680CF8D819E814B
:101DC0000E94E5110E94FD0680E001C077CF2B96AE
:101DD0000FB6F894DEBF0FBECDBFDF91CF9108954F
:101DE000CF93DF93CDB7DEB729970FB6F894DEBF58
:101DF0000FBECDBF9C838B837E836D8358874F83BB
:101E000029871A828B819C81FC01228D8B819C8188
:101E1000FC01838D281790F52D813E818B819C815B
:101E20004985B9010E94D6108B819C81FC01868D69
:101E30008F3FB9F48B819C81FC0181898823D9F083
:101E40008B819C8141960E9465098823A1F08F8136
:101E50009885009781F08F81988521E0FC0120838F
:101E60000AC08B819C81FC01868D21E0280F8B812B
:101E70009C81FC01268F81E0898301C019828981C0
:101E800029960FB6F894DEBF0FBECDBFDF91CF917C
:101E90000895CF93DF93CDB7DEB72D970FB6F894A3
:101EA000DEBF0FBECDBF98878F837A8769875C8737
:101EB0004B872D8719820FB6F8940F928F819885E2
:101EC000FC01828D882309F454C08F819885FC0120
:101ED000868197819B838A8329853A858F8198851E
:101EE000B9010E9494118D85882349F58F819885C9
:101EF000FC01828D2FEF280F8F819885FC01228FA6
:101F00008F819885FC0180819181009741F40E9426
:101F1000020C9C018F819885FC01338322838F8181
:101F20009885FC018085882301F18F81988508962A
:101F30000E9465098130C9F40E94921916C08F81F0
:101F400098852A813B81FC01378326838F81988580
:101F5000FC018189882349F08F81988541960E94F0
:101F60006509882311F00E9492190F900FBE81E03D
:101F700074C08B859C85009721F40F900FBE80E084
:101F80006CC08981882331F4CE0104960E94CF0968
:101F900081E089830F900FBE0E94F1060FB6F8947E
:101FA0000F928F819885FC01858D8F3F21F48F8161
:101FB0009885FC01158E8F819885FC01868D8F3F59
:101FC00021F48F819885FC01168E0F900FBE9E0123
:101FD000255F3F4FCE010496B9010E94EB0988238B
:101FE00099F58F8198850E944A12882331F18F815B
:101FF0009885FC0180819181009761F40FB6F89477
:102000000F928F819885FC01828193810E94150C2B
:102010000F900FBE2B853C858F8198854196B90125
:102020000E9420098F8198850E94E5110E94FD067B
:10203000882391F40E9492190FC08F8198850E9485
:10204000E5110E94FD0637CF8F8198850E94E5112A
:102050000E94FD0680E001C02ECF2D960FB6F894A9
:10206000DEBF0FBECDBFDF91CF910895CF93DF9339
:10207000CDB7DEB728970FB6F894DEBF0FBECDBF41
:102080009C838B837E836D8358874F831A828B81D9
:102090009C81FC01828D8823D9F12D813E818B8129
:1020A0009C81B9010E9494118B819C81FC01828DDD
:1020B0002FEF280F8B819C81FC01228F8B819C81CB
:1020C000FC01858D8F3FB9F48B819C81FC0180855B
:1020D0008823D9F08B819C8108960E94650988230A
:1020E000A1F08F819885009781F08F81988521E0FC
:1020F000FC0120830AC08B819C81FC01858D21E03D
:10210000280F8B819C81FC01258F81E0898301C090
:102110001982898128960FB6F894DEBF0FBECDBF15
:10212000DF91CF910895CF93DF9300D0CDB7DEB785
:102130009B838A830FB6F8940F928A819B81FC015E
:10214000828D89830F900FBE89810F900F900F9021
:10215000DF91CF910895CF93DF9300D0CDB7DEB755
:102160009B838A838A819B81FC01828D89838981FB
:102170000F900F900F90DF91CF910895CF93DF9341
:102180001F921F92CDB7DEB79A83898389819A8186
:10219000FC01808191810E94651789819A810E944A
:1021A00065170F900F90DF91CF910895CF93DF9334
:1021B00000D01F921F92CDB7DEB79A8389837C83AC
:1021C0006B834D8389819A81FC01848D8823A9F4D6
:1021D00089819A81FC0180819181009709F092C0E8
:1021E00089819A81FC01828193810E94A50C898159
:1021F0009A81FC011382128285C08D818823D9F5D2
:1022000089819A81FC01848D482F50E089819A81CF
:10221000FC01848195812B813C81B9010E94A62912
:1022200089819A81FC012481358189819A81FC010F
:10223000848D882F90E0280F391F89819A81FC01B5
:102240003583248389819A81FC01248135818981A8
:102250009A81FC01828193812817390708F452C0C2
:1022600089819A81FC012081318189819A81FC01D7
:102270003583248347C089819A81FC01848D482F4E
:1022800050E089819A81FC01868197812B813C8174
:10229000B9010E94A62989819A81FC012681378192
:1022A00089819A81FC01848D882F90E09195819598
:1022B0009109280F391F89819A81FC013783268370
:1022C00089819A81FC012681378189819A81FC016B
:1022D0008081918128173907A8F489819A81FC01AE
:1022E0002281338189819A81FC01848D882F90E03D
:1022F000919581959109280F391F89819A81FC0157
:102300003783268389819A81FC01828D21E0280F01
:1023100089819A81FC01228F0F900F900F900F906E
:102320000F90DF91CF910895CF93DF9300D01F924C
:10233000CDB7DEB79A8389837C836B8389819A8149
:10234000FC01808191810097C9F189819A81FC010A
:102350002681378189819A81FC01848D882F90E0C4
:10236000280F391F89819A81FC013783268389814F
:102370009A81FC012681378189819A81FC018281C1
:1023800093812817390750F089819A81FC012081B7
:10239000318189819A81FC013783268389819A81E1
:1023A000FC01848D482F50E089819A81FC012681AF
:1023B00037818B819C81B9010E94A6290F900F90D3
:1023C0000F900F90DF91CF910895CF93DF931F92DD
:1023D0001F92CDB7DEB79A8389830FB6F8940F9218
:1023E0001BC089819A81FC0181898823A1F08981A0
:1023F0009A8141960E946509882311F00E945A0A29
:1024000089819A81FC01868D2FEF280F89819A811D
:10241000FC01268F01C006C089819A81FC01868D4E
:102420001816FCF289819A812FEFFC01268F0F90FC
:102430000FBE0FB6F8940F921BC089819A81FC01E0
:1024400080858823A1F089819A8108960E94650978
:10245000882311F00E945A0A89819A81FC01858D96
:102460002FEF280F89819A81FC01258F01C006C0BA
:1024700089819A81FC01858D1816FCF289819A81E7
:102480002FEFFC01258F0F900FBE0F900F90DF9163
:10249000CF910895CF93DF9300D0CDB7DEB79B8364
:1024A0008A830FB6F8940F928A819B81FC01928DEA
:1024B00081E0992309F080E089830F900FBE898124
:1024C0000F900F900F90DF91CF910895CF93DF93EE
:1024D00000D0CDB7DEB79B838A838A819B81FC01C4
:1024E000928D81E0992309F080E0898389810F90A2
:1024F0000F900F90DF91CF910895CF93DF9300D08D
:10250000CDB7DEB79B838A830FB6F8940F928A818A
:102510009B81FC01228D8A819B81FC01938D81E04E
:10252000291709F080E089830F900FBE89810F90F1
:102530000F900F90DF91CF910895CF93DF9300D04C
:10254000CDB7DEB79B838A838A819B81FC01228D74
:102550008A819B81FC01938D81E0291709F080E03D
:10256000898389810F900F900F90DF91CF9108950B
:10257000CF93DF931F921F92CDB7DEB79A838983E3
:1025800089819A819C012D5F3F4F89819A81FC014D
:102590003283218389819A812FEF3FEFFC013483BD
:1025A000238389819A819C012D5F3F4F89819A8184
:1025B000FC013683258389819A819C012D5F3F4FE1
:1025C00089819A81FC013087278389819A81FC0166
:1025D00010820F900F90DF91CF910895CF93DF93EA
:1025E0001F921F92CDB7DEB79A83898389819A8122
:1025F000FC01118610860F900F90DF91CF91089506
:10260000CF93DF9300D000D0CDB7DEB79C838B8310
:102610007E836D838B819C81FC01818192819A8371
:10262000898389819A81FC01228133818D819E81F8
:10263000FC01338322838B819C81FC0121813281C7
:102640008D819E81FC013583248389819A81FC01DF
:10265000828193812D813E81FC0135832483898190
:102660009A812D813E81FC01338322838B819C8161
:102670002D813E81FC01328321838D819E812B81BE
:102680003C81FC01318720878B819C81FC0180810A
:1026900021E0280F8B819C81FC01208326960FB6B8
:1026A000F894DEBF0FBECDBFDF91CF910895CF93D9
:1026B000DF93CDB7DEB728970FB6F894DEBF0FBE15
:1026C000CDBF9E838D8378876F838F819885FC0132
:1026D000808191819C838B838B819C818F3FFFEFD5
:1026E0009F0741F48D819E81FC01878190859A83AB
:1026F00089831AC08D819E8103969A83898307C03E
:1027000089819A81FC01828193819A83898389815D
:102710009A81FC0182819381FC01208131818B812E
:102720009C818217930760F789819A81FC0122813D
:1027300033818F819885FC01338322838F81988533
:10274000FC01828193812F813885FC0135832483AC
:102750008F81988529813A81FC0135832483898181
:102760009A812F813885FC01338322838F8198855C
:102770002D813E81FC01318720878D819E81FC0166
:10278000808121E0280F8D819E81FC012083289685
:102790000FB6F894DEBF0FBECDBFDF91CF91089585
:1027A000CF93DF9300D01F92CDB7DEB79C838B838E
:1027B0008B819C81FC01828193812B813C81F90179
:1027C00024813581FC01358324838B819C81FC012C
:1027D000848195812B813C81F90122813381FC0127
:1027E000338322838B819C81FC01808591859A8330
:1027F000898389819A81FC01218132818B819C812D
:102800002817390751F48B819C81FC012481358183
:1028100089819A81FC01328321838B819C81FC0117
:102820001186108689819A81FC0180812FEF280F03
:1028300089819A81FC01208389819A81FC018081B0
:102840000F900F900F900F90DF91CF910895CF933D
:10285000DF93CDB7DEB727970FB6F894DEBF0FBE74
:10286000CDBF9D838C836E834F838AE190E00E946D
:102870001F179B838A838A819B81009709F477C005
:102880008091890290918A02009741F48A819B810C
:1028900090938A02809389020E94AD168E818230C5
:1028A00010F081E08E838A819B81FC01118E108E55
:1028B0008A819B812E81FC01268B8A819B812F81BD
:1028C000FC01278B8A819B812C813D81FC01318316
:1028D00020838A819B8102960E94EE128A819B81CD
:1028E0000C960E94EE128A819B812A813B81FC0119
:1028F000318720878A819B812A813B81FC01338B30
:10290000228B8E81882F90E024E030E0281B390B49
:102910008A819B81FC01358724878A819B81FC0108
:1029200096898091BC02891730F48A819B81FC01D1
:1029300086898093BC028A819B81AC014E5F5F4F88
:102940008A819B81FC018689282F30E0C901880F8C
:10295000991F880F991F880F991F820F931F855702
:102960009D4FBA010E94001381E0898302C08FEF5E
:102970008983898127960FB6F894DEBF0FBECDBF3D
:10298000DF91CF910895CF93DF9300D000D0CDB7E2
:10299000DEB79C838B837E836D832091BD02309153
:1029A000BE028B819C81820F931F9A8389838091C1
:1029B000890290918A0202960E94D0138091890226
:1029C00090918A0229813A81FC013383228380918C
:1029D000BD029091BE0229813A812817390778F407
:1029E0008091890290918A029C012E5F3F4F8091D5
:1029F000B1029091B202B9010E9457130EC08091AA
:102A0000890290918A029C012E5F3F4F8091AF0214
:102A10009091B002B9010E9457138D819E81009759
:102A200061F08091890290918A029C01245F3F4F5E
:102A30008D819E81B9010E94571326960FB6F89496
:102A4000DEBF0FBECDBFDF91CF910895CF93DF934F
:102A50001F921F92CDB7DEB73CC0F8948091B802A8
:102A60009091B902FC01868197819A83898389813B
:102A70009A810C960E94D013789489819A8102964B
:102A80000E94D01389819A81FC0196898091BC02B1
:102A9000891730F489819A81FC0186898093BC0270
:102AA00089819A81AC014E5F5F4F89819A81FC01D7
:102AB0008689282F30E0C901880F991F880F991F38
:102AC000880F991F820F931F85579D4FBA010E944F
:102AD00000138091B302882309F0BFCF0F900F90AD
:102AE000DF91CF910895CF93DF9300D01F92CDB7A0
:102AF000DEB70E9481079C018091BF029091C002C5
:102B0000A901481B590BCA019093C2028093C102CC
:102B10008AC08091BD029091BE0201969093BE0240
:102B20008093BD028091C1029091C202019790935F
:102B3000C2028093C1028091BD029091BE020097B3
:102B4000A9F48091AF029091B0029A838983809119
:102B5000B1029091B2029093B0028093AF0289814A
:102B60009A819093B2028093B10254C053C0809175
:102B7000AF029091B002FC0185819681FC018681B3
:102B800097819C838B838B819C81FC012281338183
:102B90008091BD029091BE028217930708F443C052
:102BA000F8948B819C8102960E94D0138B819C812A
:102BB000FC0184899589009729F08B819C810C9672
:102BC0000E94D01378948B819C81FC01968980911E
:102BD000BC02891730F48B819C81FC01868980932B
:102BE000BC028B819C81AC014E5F5F4F8B819C81CD
:102BF000FC018689282F30E0C901880F991F880FB2
:102C0000991F880F991F820F931F85579D4FBA01F7
:102C10000E9400138091AF029091B002FC0180816C
:102C2000882309F0A4CF8091C1029091C20200973D
:102C300009F06FCF8091BD029091BE029093C002C7
:102C40008093BF020F900F900F900F90DF91CF9164
:102C50000895CF93DF931F921F92CDB7DEB70E94E6
:102C600026150E9473150AC08091BC02882309F4BE
:102C70006FC08091BC0281508093BC028091BC02E5
:102C8000282F30E0C901880F991F880F991F880FDE
:102C9000991F820F931F85579D4FFC0180818823C8
:102CA00019F38091BC02282F30E0C901880F991FC9
:102CB000880F991F880F991F820F931F85579D4F6B
:102CC0009A83898389819A81FC0181819281FC01A7
:102CD0002281338189819A81FC0132832183898118
:102CE0009A81FC012181328189819A81039628177A
:102CF000390769F489819A81FC0181819281FC0103
:102D00002281338189819A81FC01328321838981E7
:102D10009A81FC0181819281FC0186819781909347
:102D20008A02809389028091890290918A02FC0133
:102D3000208131818091890290918A02FC0147892A
:102D40008091890290918A02642FF90119950000FF
:102D50000F900F90DF91CF910895CF93DF931F9243
:102D6000CDB7DEB7198213C08981282F30E0C901A1
:102D7000880F991F880F991F880F991F820F931F23
:102D800085579D4F0E94B81289818F5F8983898101
:102D9000823050F38DE992E00E94B81286EA92E008
:102DA0000E94B81283EB92E00E94B8128DE992E083
:102DB0009093B0028093AF0286EA92E09093B202C1
:102DC0008093B1020F90DF91CF910895CF93DF935D
:102DD00000D01F921F92CDB7DEB79D838C838C816C
:102DE0009D81FC0185819681FC01868197819B8371
:102DF0008A838A819B810C960E94D0138A819B8151
:102E00000C96BC0183EB92E00E9400138A819B81A7
:102E1000FC0126898091890290918A02FC018689B1
:102E2000281718F081E0898301C0198289810F90E9
:102E30000F900F900F900F90DF91CF910895CF9347
:102E4000DF9300D01F92CDB7DEB79C838B831A82AD
:102E500019820E94F1062091C31A3091C41A8B8105
:102E60009C81820F931F811528E1920718F520910C
:102E7000C31A3091C41A8B819C81280F391F80910D
:102E8000C31A9091C41A82179307A0F48091C31AB1
:102E90009091C41A8D539D4F9A8389832091C31AB0
:102EA0003091C41A8B819C81820F931F9093C41A16
:102EB0008093C31A0E94FD0689819A810F900F901A
:102EC0000F900F90DF91CF910895CF93DF931F92D2
:102ED0001F92CDB7DEB79A8389830F900F90DF9151
:102EE000CF910895CF93DF93CDB7DEB71092C41A78
:102EF0001092C31ADF91CF910895CF93DF93CDB78E
:102F0000DEB78091C31A9091C41A20E038E1A9017C
:102F1000481B590BCA01DF91CF910895CF93DF93DE
:102F2000CDB7DEB728970FB6F894DEBF0FBECDBF82
:102F30009C838B837E836D8358874F838B819C8199
:102F400021E1FC0120838B819C8101979C838B83F1
:102F50008B819C8122E2FC0120838B819C810197E3
:102F60009C838B838B819C8123E3FC0120838B8159
:102F70009C8101979C838B838D819E819A83898319
:102F800029818B819C81FC0120838B819C8101970D
:102F90009C838B8389819A81892F99279A8389833E
:102FA00029818B819C81FC0120838B819C810197ED
:102FB0009C838B838B819C81FC0110828B819C8103
:102FC00001979C838B838B819C81FC0110828B8178
:102FD0009C8101979C838B838B819C8120E8FC01E1
:102FE00020838B819C8101979C838B838B819C8127
:102FF000FC0110828B819C8101979C838B838B8148
:103000009C81FC0110828B819C8101979C838B8326
:103010008B819C81FC0110828B819C8101979C8318
:103020008B838B819C8122E0FC0120838B819C819E
:1030300001979C838B838B819C8123E0FC012083FF
:103040008B819C8101979C838B838B819C8124E065
:10305000FC0120838B819C8101979C838B838B81D6
:103060009C8125E0FC0120838B819C8101979C83BE
:103070008B838B819C8126E0FC0120838B819C814A
:1030800001979C838B838B819C8127E0FC012083AB
:103090008B819C8101979C838B838B819C8128E011
:1030A000FC0120838B819C8101979C838B838B8186
:1030B0009C8129E0FC0120838B819C8101979C836A
:1030C0008B838B819C8120E1FC0120838B819C81FF
:1030D00001979C838B838B819C8121E1FC01208360
:1030E0008B819C8101979C838B838B819C8122E1C6
:1030F000FC0120838B819C8101979C838B838B8136
:103100009C8123E1FC0120838B819C8101979C831E
:103110008B838B819C8124E1FC0120838B819C81AA
:1031200001979C838B838B819C8125E1FC0120830B
:103130008B819C8101979C838B838B819C8126E171
:10314000FC0120838B819C8101979C838B838B81E5
:103150009C8127E1FC0120838B819C8101979C83CA
:103160008B838B819C8128E1FC0120838B819C8156
:1031700001979C838B838B819C8129E1FC012083B7
:103180008B819C8101979C838B838B819C8120E226
:10319000FC0120838B819C8101979C838B838B8195
:1031A0009C8121E2FC0120838B819C8101979C837F
:1031B0008B838B819C8122E2FC0120838B819C810B
:1031C00001979C838B838B819C8123E2FC0120836C
:1031D0008B819C8101979C838B838F8198859A83B7
:1031E000898329818B819C81FC0120838B819C8137
:1031F00001979C838B8389819A81892F99279A8350
:10320000898329818B819C81FC0120838B819C8116
:1032100001979C838B838B819C8126E2FC01208318
:103220008B819C8101979C838B838B819C8127E27E
:10323000FC0120838B819C8101979C838B838B81F4
:103240009C8128E2FC0120838B819C8101979C83D7
:103250008B838B819C8129E2FC0120838B819C8163
:1032600001979C838B838B819C8120E3FC012083CD
:103270008B819C8101979C838B838B819C8121E333
:10328000FC0120838B819C8101979C838B838B81A4
:103290009C8128960FB6F894DEBF0FBECDBFDF919C
:1032A000CF910895CF93DF93CDB7DEB70E94561A22
:1032B000A0913002B0913102CD91CDBFDD91DEBF42
:1032C000FF91EF91DF91CF91BF91AF919F918F913E
:1032D0007F916F915F914F913F912F911F910F912E
:1032E000FF90EF90DF90CF90BF90AF909F908F9026
:1032F0007F906F905F904F903F902F901F900F9016
:103300000CBE0F900BBE0F900FBE0F90089581E082
:10331000DF91CF910895CF93DF93CDB7DEB7DF91E3
:10332000CF9108950F920FB6F8940F920BB60F92AB
:103330000CB60F921F9211242F923F924F925F92E0
:103340006F927F928F929F92AF92BF92CF92DF92B5
:10335000EF92FF920F931F932F933F934F935F939F
:103360006F937F938F939F93AF93BF93CF93DF938D
:10337000EF93FF93A0913002B09131020DB60D9200
:103380000EB60D920E949308A0913002B0913102C6
:10339000CD91CDBFDD91DEBFFF91EF91DF91CF9158
:1033A000BF91AF919F918F917F916F915F914F915D
:1033B0003F912F911F910F91FF90EF90DF90CF9051
:1033C000BF90AF909F908F907F906F905F904F9045
:1033D0003F902F901F900F900CBE0F900BBE0F9040
:1033E0000FBE0F9008950F920FB6F8940F920BB680
:1033F0000F920CB60F921F9211242F923F924F9270
:103400005F926F927F928F929F92AF92BF92CF9274
:10341000DF92EF92FF920F931F932F933F934F935F
:103420005F936F937F938F939F93AF93BF93CF934C
:10343000DF93EF93FF93A0913002B09131020DB66C
:103440000D920EB60D920E94B6070E949308A091AD
:103450003002B0913102CD91CDBFDD91DEBFFF9141
:10346000EF91DF91CF91BF91AF919F918F917F911C
:103470006F915F914F913F912F911F910F91FF900D
:10348000EF90DF90CF90BF90AF909F908F907F9004
:103490006F905F904F903F902F901F900F900CBEB9
:1034A0000F900BBE0F900FBE0F900895CF93DF9338
:1034B00000D000D0CDB7DEB780E09DE7A0E0B0E05F
:1034C00089839A83AB83BC8389819A81AB81BC81D8
:1034D000689415F8B695A795979587951694D1F7A2
:1034E00089839A83AB83BC8389819A81AB81BC81B8
:1034F0000197A109B10989839A83AB83BC83898130
:103500008D8389819A81AB81BC81892F9A2FAB2FC2
:10351000BB2789839A83AB83BC8389818E8389E9A6
:1035200090E02E81FC01208388E990E02D81FC0150
:1035300020838BE08D8381E990E02D81FC01208345
:1035400081E790E0FC0180818D838D8182608D8395
:1035500081E790E02D81FC01208326960FB6F89438
:10356000DEBF0FBECDBFDF91CF9108950E94F3194A
:103570001895CF93DF9300D000D0CDB7DEB79A83F4
:1035800089834B835C836D837E8340E061E080E4CC
:103590000E94950D90936A1B8093691B40E061E047
:1035A00088E00E94950D9093661B8093651B85ECC7
:1035B00090E0FC01108284EC90E028E0FC01208384
:1035C00081EC90E028E1FC01208382EC90E026E091
:1035D000FC01208380EC90E020EC30E0F9012081B8
:1035E0002D7FFC01208326960FB6F894DEBF0FBE18
:1035F000CDBFDF91CF910895CF93DF931F92CDB7C9
:10360000DEB78983000080EC90E0FC018081882F88
:1036100090E0807299270097B1F386EC90E02981C1
:10362000FC0120830F90DF91CF910895CF93DF931A
:103630001F92CDB7DEB78983000080EC90E0FC01DB
:103640008081882F90E0807299270097B1F386ECF3
:1036500090E02981FC0120830F90DF91CF910895A4
:10366000CF93DF93CDB7DEB7000080ED90E0FC0193
:1036700080818823D4F786ED90E0FC018081DF9182
:10368000CF9108951F920F9200905F000F92112426
:1036900000905B000F928F939F93EF93FF93CF93D4
:1036A000DF931F92CDB7DEB78EEC90E0FC018081F6
:1036B00089830F90DF91CF91FF91EF919F918F912F
:1036C0000F9000925B000F9000925F000F901F9090
:1036D0001895CF93DF931F92CDB7DEB78983809182
:1036E000691B90916A1B20E04FEF5FEFBE016F5F97
:1036F0007F4F0E944C0E0F90DF91CF910895CF9392
:10370000DF931F921F92CDB7DEB79A8389830BC0D8
:1037100089819A81FC0180810E94691B89819A813B
:1037200001969A83898389819A81FC01808188230B
:1037300079F70F900F90DF91CF910895CF93DF939A
:1037400000D0CDB7DEB79B838A838091691B9091AF
:103750006A1B20E04FEF5FEFBE016F5F7F4F0E945B
:10376000490F000088EC90E0FC018081882F90E0F8
:10377000807299270097B1F38EEC90E02981FC01CB
:103780002083E3CFCF93DF931F92CDB7DEB789833A
:103790008091671B9091681B20E04FEF5FEFBE01A7
:1037A0006F5F7F4F0E944C0E0F90DF91CF91089575
:1037B000CF93DF931F921F92CDB7DEB79A83898391
:1037C0000BC089819A81FC0180810E94C21B898182
:1037D0009A8101969A83898389819A81FC018081EB
:1037E000882379F70F900F90DF91CF910895CF93B1
:1037F000DF9300D0CDB7DEB79B838A838091671BB0
:103800009091681B20E04FEF5FEFBE016F5F7F4F2D
:103810000E94490F000080EC90E0FC018081882F1D
:1038200090E0807299270097B1F386EC90E02981AF
:10383000FC012083E3CFCF93DF931F92CDB7DEB798
:103840008091651B9091661B20E041E050E0BE0135
:103850006F5F7F4F0E94490F813011F4898101C051
:103860008FEF0F90DF91CF910895CF93DF9300D02A
:103870001F92CDB7DEB79C838B831A82198205C055
:1038800089819A8101969A83898329813A818B81E2
:103890009C8128173907A4F30F900F900F900F9079
:1038A000DF91CF910895CF93DF93CDB7DEB780E856
:1038B0000E94FC1ADF91CF910895CF93DF93CDB78B
:1038C000DEB780E00E94FC1ADF91CF910895CF937C
:1038D000DF93CDB7DEB72D970FB6F894DEBF0FBEDE
:1038E000CDBF9B878A877D876C871A8219821C824D
:1038F0001B8283E090E098878F836DC02EC082E3A7
:1039000090E09E838D8310C08D819E8101979E8360
:103910008D838D819E81009719F48FEF9FEF65C095
:1039200081E090E00E941D0580EC90E0FC01808128
:10393000882354F786EC90E0FC0180818987898197
:103940009A812C853D85820F931F2985FC01208358
:1039500089819A8101969A83898329813A818A850E
:103960009B85281739075CF282E390E09E838D8364
:1039700010C08D819E8101979E838D838D819E8154
:10398000009719F48FEF9FEF30C081E090E00E9424
:103990001D0580EC90E0FC018081882354F786ECC3
:1039A00090E0FC01808189872A858C859D85622F26
:1039B0000E943E1E982F8985981741F00E945D1C39
:1039C0008B819C8101969C838B8305C00E94531C34
:1039D00080E090E00AC02B813C818F819885281778
:1039E00039070CF48BCF8FEF9FEF2D960FB6F8941D
:1039F000DEBF0FBECDBFDF91CF910895CF93DF9390
:103A0000CDB7DEB7CC55D1090FB6F894DEBF0FBEE7
:103A1000CDBF9E01255A3F4FF9019183808384E2F7
:103A200090E02FEFFC01208319828EE190E09B83D0
:103A30008A832DC012C08A819B8101979B838A83D0
:103A40008A819B81009729F419828EE190E09B8303
:103A50008A8381E090E00E941D0580EC90E0FC01EB
:103A60008081882344F786EC90E0FC0180818C8380
:103A70008981992787FD90959E012A5F3F4F820F8C
:103A8000931F2C81FC01208389818F5F8983898129
:103A9000843084F2CE01069663E00E943E1E982F89
:103AA0008985981721F00E945D1C198229C00E9407
:103AB000531C19828E818E8B8F818F8B88858D838D
:103AC0008D81882381F08D81882F90E09E012A5E70
:103AD0003F4F2D5F3F4FB9010E94671C8F3FFFEFA3
:103AE0009F0709F40DC09E01275C3F4FCE0146960B
:103AF000B9010E941520CE01C9960E94811D94CF64
:103B000093CFCF93DF93CDB7DEB728970FB6F89456
:103B1000DEBF0FBECDBF98878F8382E390E09C838A
:103B20008B838F819885FC0180810E94FC1A81E043
:103B300090E00E941D058F819885FC0181810E9483
:103B4000FC1A81E090E00E941D058F819885FC01A0
:103B500080818D838F819885FC0181818E83CE0148
:103B6000059662E00E943E1E0E94FC1A0E94141EEE
:103B7000992787FD9095009759F081309105A9F01C
:103B80008F3FFFEF9F0709F0CCCF8FEF9FEF43C030
:103B90008B819C8101979C838B838B819C81009777
:103BA00019F48FEF9FEF37C0BCCF00001A82198243
:103BB00014C02F81388589819A81820F931F0296C4
:103BC000FC0180810E94FC1A81E090E00E941D05AA
:103BD00089819A8101969A8389838F819885FC01D6
:103BE0008181282F332727FD309589819A8182177B
:103BF0009307FCF28F819885FC018181282F8F81AA
:103C000098850296622F0E943E1E0E94FC1A0E9416
:103C1000141E80E090E028960FB6F894DEBF0FBE29
:103C2000CDBFDF91CF910895CF93DF931F921F9265
:103C3000CDB7DEB788E893E19A8389830BC0898189
:103C40009A8101979A83898389819A81009711F4D7
:103C50008FEF0FC080ED90E0FC01808188237CF71E
:103C600086ED90E0FC018081803811F481E001C094
:103C700080E00F900F90DF91CF910895CF93DF9365
:103C800000D000D0CDB7DEB79D838C836E831982C0
:103C90001B821A8211C08C819D819C012F5F3F4F36
:103CA0003D832C83FC0180819981890F89838A81DE
:103CB0009B8101969B838A838E81282F30E08A81A5
:103CC0009B81821793073CF3898126960FB6F8945F
:103CD000DEBF0FBECDBFDF91CF910895CF93DF93AD
:103CE0001F921F92CDB7DEB79A83898381E00F9030
:103CF0000F90DF91CF910895CF93DF93CDB7DEB7CB
:103D000027970FB6F894DEBF0FBECDBF89837B83A4
:103D10006A835D834C833F832E838981992787FD46
:103D200090958230910581F083309105C1F081300A
:103D3000910501F58E819F810E949B228C819D813E
:103D40002CE0FC01208316C08A819B81FC0120812C
:103D50008E819F81BC01822F0E94C6220BC08A8166
:103D60009B81FC0120818E819F81BC01822F0E945A
:103D7000EF22000081E027960FB6F894DEBF0FBE59
:103D8000CDBFDF91CF910895CF93DF9300D01F92E5
:103D90001F92CDB7DEB789837B836A835D834C83B3
:103DA0008981992787FD9095009721F081309105B1
:103DB00031F013C08C819D810E948E230EC08C81B6
:103DC0009D81FC0111828A819B81FC018081992760
:103DD00087FD90950E94A023000081E00F900F9036
:103DE0000F900F900F90DF91CF910895CF93DF93B5
:103DF00000D01F921F92CDB7DEB789837B836A8381
:103E00005D834C838981992787FD90958230910548
:103E1000F9F08330910534F4009759F08130910521
:103E200091F04CC083309105C1F08430910591F13F
:103E300045C08A819B81FC018081992787FD9095EF
:103E40000E94E5243BC08C819D810E94F82436C0ED
:103E50008C819D810E940A2531C08A819B810296B6
:103E6000FC018081482F552747FD50958A819B8111
:103E70000196FC018081282F332727FD30958A8108
:103E80009B81FC018081992787FD9095B9010E9453
:103E90001C2514C08A819B810196FC018081282FFA
:103EA000332727FD30958A819B81FC0180819927EA
:103EB00087FD9095B9010E942B25000081E00F90AD
:103EC0000F900F900F900F90DF91CF910895CF93A7
:103ED000DF9300D01F921F92CDB7DEB789837B831B
:103EE0006A835D834C838C819D81FC011182898171
:103EF000992787FD9095009721F08130910559F021
:103F00000FC08A819B81FC018081992787FD909554
:103F10000E946F2105C08C819D810E948B21000031
:103F20000F900F900F900F900F90DF91CF91089509
:103F3000CF93DF9300D01F921F92CDB7DEB7898356
:103F40007B836A835D834C838981992787FD909564
:103F5000009721F08130910559F00FC08A819B8133
:103F6000FC018081992787FD90950E94B62005C0AD
:103F70008C819D810E94C12000000F900F900F90B6
:103F80000F900F90DF91CF910895CF93DF9300D0E2
:103F90001F921F92CDB7DEB789837B836A835D83CF
:103FA0004C838981992787FD9095009721F0813076
:103FB000910531F00AC08C819D810E94922005C03C
:103FC0008C819D810E94A42000000F900F900F9083
:103FD0000F900F90DF91CF910895CF93DF9300D092
:103FE0001F921F92CDB7DEB789837B836A835D837F
:103FF0004C838C819D81FC0111828981992787FDE9
:104000009095009751F48A819B81FC0180819927CA
:1040100087FD90950E949D2100000F900F900F90BA
:104020000F900F90DF91CF910895CF93DF9300D041
:104030001F92CDB7DEB79A8389837C836B83898196
:104040009A81DC0111962C918B819C81FC0120834B
:1040500089819A81DC018C91992787FD9095AA2707
:1040600097FDA095BA2F41E050E027E030E0841B97
:10407000950B2817390708F44DC08E589F4FFC0147
:104080000C94A0298B819C819C012E5F3F4F8B81DA
:104090009C81AC014F5F5F4F89819A810396698152
:1040A0007A81DB011196EC91BC018E2F0E947C1E5F
:1040B00031C089819A81039629813A81D90111966B
:1040C000EC912B813C81A901BC018E2F0E94C41E62
:1040D00021C089819A81039629813A81D90111965B
:1040E000EC912B813C81A901BC018E2F0E94671F9E
:1040F00011C089819A81039629813A81D90111964B
:10410000EC912B813C81A901BC018E2F0E94ED1FF7
:1041100001C0000081E00F900F900F900F90DF9191
:10412000CF910895CF93DF931F921F92CDB7DEB743
:104130009A83898389819A81FC01108281E00F90A2
:104140000F90DF91CF910895CF93DF931F921F922D
:10415000CDB7DEB79A83898389819A81FC01108269
:1041600081E00F900F90DF91CF910895CF93DF936F
:104170001F92CDB7DEB7898381E00F90DF91CF9199
:104180000895CF93DF931F921F92CDB7DEB79A8326
:10419000898389819A81FC01108281E00F900F90C0
:1041A000DF91CF910895CF93DF93CDB7DEB782E251
:1041B00090E022E230E0F90120812D7FFC01208394
:1041C0000DC082E290E022E230E0F90120812D7FF3
:1041D000FC01208381E090E00E941D0582E290E0D6
:1041E000FC018081882F90E082709927009749F721
:1041F00082E290E022E230E0F90120812160FC01BE
:104200002083DF91CF910895CF93DF93CDB7DEB7B1
:1042100082E290E022E230E0F90120812E7FFC0171
:1042200020830DC082E290E022E230E0F90120819B
:104230002E7FFC01208381E090E00E941D0582E238
:1042400090E0FC018081882F90E081709927009791
:1042500049F782E290E022E230E0F9012081226019
:10426000FC012083DF91CF910895CF93DF93CDB7E9
:10427000DEB782E290E022E230E0F90120812E7F79
:10428000FC01208382E290E022E230E0F90120810B
:104290002D7FFC01208316C082E290E022E230E014
:1042A000F90120812E7FFC01208382E290E022E24E
:1042B00030E0F90120812D7FFC01208381E090E036
:1042C0000E941D0582E290E0FC018081882F90E031
:1042D00083709927009701F7DF91CF910895CF93CD
:1042E000DF931F92CDB7DEB789838981882319F4C4
:1042F0000E9435210BC08981813019F40E94D3209E
:1043000005C089818F3F11F40E94042181E00F9044
:10431000DF91CF910895CF93DF931F921F92CDB776
:10432000DEB79A83898389819A81FC01108281E0BA
:104330000F900F90DF91CF910895CF93DF931F924D
:10434000CDB7DEB789838981813051F485E290E071
:1043500025E230E0F90120812068FC01208309C0BA
:1043600085E290E025E230E0F90120812F77FC0121
:10437000208381E00F90DF91CF910895CF93DF9359
:1043800000D01F92CDB7DEB79A8389837C836B837D
:1043900089819A81880F991F8B53954E2B813C817F
:1043A000FC01318320830F900F900F900F90DF91CD
:1043B000CF910895CF93DF931F921F92CDB7DEB7B1
:1043C0009A83898389819A81880F991F8B53954E8F
:1043D000FC01808191810F900F90DF91CF91089522
:1043E000CF93DF93CDB7DEB786E490E0FC01808108
:1043F000DF91CF9108951F920F9200905F000F926E
:10440000112400905B000F922F933F934F935F9383
:104410006F937F938F939F93AF93BF93EF93FF938C
:10442000CF93DF9300D0CDB7DEB7198286E091E05D
:10443000FC018081882F90E02091D31A222F30E058
:10444000022E02C0959587950A94E2F7817099270C
:10445000009749F00E94F0218A838EE290E02FEFCE
:10446000FC0120831DC00E94F0218B839B818A81E7
:10447000891738F49B818A81F92FF81B8F2F80933D
:10448000D41A8EE290E0FC01108280916B1B909117
:104490006C1B20E040E050E060E070E00E94F00E15
:1044A0000F900F900F90DF91CF91FF91EF91BF91FF
:1044B000AF919F918F917F916F915F914F913F91BC
:1044C0002F910F9000925B000F9000925F000F9071
:1044D0001F901895CF93DF9300D01F92CDB7DEB712
:1044E0009A8389837C836B838B819C81FC0180818F
:1044F000918129813A81B9010E94BE210F900F90CC
:104500000F900F90DF91CF910895CF93DF93CDB7A8
:10451000DEB7DF91CF910895CF93DF931F921F9263
:10452000CDB7DEB79A8389830E9485228CE291E021
:104530000E941D05FBCFCF93DF9300D01F92CDB714
:10454000DEB79C838B831A82198214C089819A8179
:10455000880F991F2B813C81820F931F29813A81FB
:104560002F5F3F4FFC013183208389819A8101961F
:104570009A83898389819A818630910538F30F90D7
:104580000F900F900F90DF91CF9108950F931F938D
:10459000CF93DF9300D0CDB7DEB789837B836A8367
:1045A00089818630A4F48981992787FD9095880FA9
:1045B000991F2A813B818901080F191F8981992739
:1045C00087FD90950E94DA21F801918380830F90F6
:1045D0000F900F90DF91CF911F910F9108950F933E
:1045E0001F93CF93DF9300D0CDB7DEB789837B8352
:1045F0006A838981992787FD909581309105E9F03B
:104600008230910589F1009709F045C080E090E083
:104610000E94DA219C018A819B81FC0131832083E5
:104620008A819B818C010E5F1F4F81E090E00E9488
:10463000DA21F801918380832EC082E090E00E940D
:10464000DA219C018A819B81FC01318320838A814C
:104650009B818C010E5F1F4F83E090E00E94DA2166
:10466000F8019183808317C084E090E00E94DA21F2
:104670009C018A819B81FC01318320838A819B81FB
:104680008C010E5F1F4F85E090E00E94DA21F80157
:104690009183808300000F900F900F90DF91CF9156
:1046A0001F910F910895CF93DF93CDB7DEB78FE0C1
:1046B00090E40E949826DF91CF910895CF93DF93E5
:1046C00000D01F92CDB7DEB79C838B831A821982EC
:1046D0008B819C8199279A83898389819A810E9401
:1046E00098260F900F900F900F90DF91CF91089523
:1046F000CF93DF93CDB7DEB786E090E00E945226DD
:10470000DF91CF910895CF93DF93CDB7DEB78AE0E5
:1047100090E00E945226DF91CF910895CF93DF93CE
:104720001F921F92CDB7DEB79A83898389819A81C0
:10473000FC01108281E00F900F90DF91CF910895DE
:10474000CF93DF931F92CDB7DEB78983898188230A
:1047500051F482E290E022E230E0F90120812B7FE7
:10476000FC01208309C082E290E022E230E0F901FE
:1047700020812460FC0120838981882F90E00E94A1
:104780005E2381E00F90DF91CF910895CF93DF9367
:1047900000D01F92CDB7DEB79A8389837C836B8369
:1047A00089819A8199230CF403969595879595951F
:1047B0008795919581959109865B9F4F9093D81A23
:1047C0008093D71A0F900F900F900F90DF91CF9199
:1047D0000895CF93DF93CDB7DEB780E291E022E07A
:1047E000FC01208381E291E029E0FC01208382E248
:1047F00091E0FC01108289E291E02FEFFC0120831F
:1048000088E291E02FEFFC01208383E790E023E032
:10481000FC012083DF91CF9108951F920F920090A9
:104820005F000F92112400905B000F922F933F9333
:104830008F939F93EF93FF93CF93DF93CDB7DEB723
:104840008091D91A9091DA1A8F3F2FEF920799F43D
:1048500085E290E025E230E0F90120812F7DFC0126
:10486000208385E290E025E230E0F901208120619B
:10487000FC01208323C08091D91A9091DA1A8130EB
:10488000910599F485E290E025E230E0F90120817C
:104890002F7EFC01208385E290E025E230E0F901E3
:1048A00020812062FC01208309C085E290E025E29E
:1048B00030E0F90120812F7CFC012083DF91CF9132
:1048C000FF91EF919F918F913F912F910F900092C7
:1048D0005B000F9000925F000F901F9018951F9241
:1048E0000F9200905F000F92112400905B000F92D6
:1048F0002F933F938F939F93EF93FF93CF93DF93E8
:10490000CDB7DEB785E290E025E230E0F901208105
:104910002F7CFC012083DF91CF91FF91EF919F913C
:104920008F913F912F910F9000925B000F9000921A
:104930005F000F901F901895CF93DF931F921F92E7
:10494000CDB7DEB79A8389834091D91A5091DA1A8C
:1049500029813A81429FC001439F900D529F900D43
:1049600011249093DC1A8093DB1A89819A81813B10
:1049700021E0920724F080EB91E09A83898389E219
:1049800091E029813A81232F330F330BFC012083DF
:1049900088E291E02981FC0120830F900F90DF9144
:1049A000CF910895CF93DF931F921F92CDB7DEB7BB
:1049B0009A83898389819A819093DA1A8093D91A8C
:1049C0000F900F90DF91CF910895CF93DF931F92B7
:1049D000CDB7DEB789838981992787FD909590931C
:1049E000D61A8093D51A81E00F90DF91CF91089568
:1049F000CF93DF931F921F92CDB7DEB79A8389833F
:104A000089819A81FC01108281E00F900F90DF91E3
:104A1000CF910895CF93DF931F921F92CDB7DEB74A
:104A20009A83898389819A81FC01108281E00F90A9
:104A30000F90DF91CF910895CF93DF9300D0CDB742
:104A4000DEB789836A834B8381E00F900F900F90CC
:104A5000DF91CF910895CF93DF931F921F92CDB72F
:104A6000DEB789836A8381E00F900F90DF91CF9149
:104A70000895CF93DF93CDB7DEB78091D71A909189
:104A8000D81A88279071009771F08DE20E94FC1A65
:104A90008091D71A9091D81A919581959109909308
:104AA000D81A8093D71A8091D71A9091D81A0E9459
:104AB000BC018DE00E94FC1A8AE00E94FC1ADF9182
:104AC000CF910895CF93DF9300D000D0CDB7DEB75C
:104AD0009E838D8320E030E046EC53E260E070E09E
:104AE00080E090E00E94CF2883E290E09C838B835B
:104AF0001092D61A1092D51A2091D51A3091D61A42
:104B00008091D71A9091D81AA901481B590B2B8173
:104B10003C81429FC001439F900D529F900D1124F4
:104B20009A8389832B813C81C901880F991F820F49
:104B3000931F9195819591092091D51A3091D61A9C
:104B4000280F391F89819A818217930764F48FEFA8
:104B50009FEF0E94D22489819A8191958195910934
:104B60009A8389831BC02B813C81C901880F991FBF
:104B7000280F391F8091D51A9091D61A280F391F06
:104B800089819A81281739072CF481E090E00E94EE
:104B9000D22404C080E090E00E94D22489819A81CE
:104BA000C2960E949C2489819A81C2960E94BC016F
:104BB00080E20E94FC1A0E9439258AE090E00E945F
:104BC0001D059ACFCF93DF93CDB7DEB78CE490E08D
:104BD00023E5FC01208384E290E024E230E0F90147
:104BE0002081622F40E050E021E030E002C0220F3F
:104BF000331F4A95E2F7722F41E050E021E030E0A8
:104C000002C0220F331F4A95E2F7722B42E050E0B8
:104C100021E030E002C0220F331F4A95E2F7272B34
:104C2000262BFC01208384E290E024E230E0F901AD
:104C30002081622F43E050E021E030E002C0220FEB
:104C4000331F4A95E2F720952623FC01208385E255
:104C500090E025E230E0F9012081622F40E050E051
:104C600021E030E002C0220F331F4A95E2F7262BE5
:104C7000FC01208385E290E025E230E0F90120810B
:104C8000622F41E050E021E030E0042E02C0220F0C
:104C9000331F0A94E2F720952623FC012083DF913D
:104CA000CF910895CF93DF931F92CDB7DEB789835D
:104CB00085E290E025E230E0F9012081622F40E0BA
:104CC00050E021E030E002C0220F331F4A95E2F7A6
:104CD00020952623FC01208381E090E00E941D05A1
:104CE0008EE490E02981FC01208300008DE490E0B7
:104CF000FC0180818823D4F781E090E00E941D05AB
:104D000085E290E025E230E0F9012081622F40E069
:104D100050E021E030E0042E02C0220F331F0A943D
:104D2000E2F7262BFC0120830F90DF91CF910895AD
:104D3000CF93DF931F921F92CDB7DEB79A838983FB
:104D400085E290E025E230E0F9012081622F40E029
:104D500050E021E030E002C0220F331F4A95E2F715
:104D600020952623FC01208382E090E00E941D050F
:104D70008EE490E029813A81232F3327FC012083A0
:104D800000008DE490E0FC0180818823D4F78EE45C
:104D900090E02981FC01208300008DE490E0FC017B
:104DA00080818823D4F782E090E00E941D0585E28F
:104DB00090E025E230E0F9012081622F40E050E0F0
:104DC00021E030E0042E02C0220F331F0A94E2F7E4
:104DD000262BFC0120830F900F90DF91CF91089537
:104DE000CF93DF93CDB7DEB78AE790E020E8FC01F0
:104DF00020838CE790E021E4FC0120838BE790E0A6
:104E000028E0FC012083DF91CF910895CF93DF93B9
:104E10001F921F92CDB7DEB79A8389838AE790E00D
:104E2000FC018081882F90E080749927009709F019
:104E300090C08AE790E02AE730E0F9012081287FDE
:104E4000FC01208389819A81FC0182819381837096
:104E5000992781309105A1F0823091051CF40097CB
:104E600029F022C082309105A9F01EC08AE790E0A7
:104E70002AE730E0F90120812760FC01208314C07B
:104E80008AE790E02AE730E0F90120812560FC0103
:104E900020830AC08AE790E02AE730E0F901208108
:104EA0002360FC01208300008CE790E02CE730E0D9
:104EB000F9012081207FFC01208389819A81FC01F6
:104EC0008081918188309105CCF48BE790E02BE7CD
:104ED00030E0F9012081277FFC0120838CE790E0FE
:104EE0002CE730E0F9012081422F29813A81F90134
:104EF00020813181242BFC01208319C08BE790E0B5
:104F00002BE730E0F90120812860FC0120838CE749
:104F100090E02CE730E0F9012081422F29813A818D
:104F2000F901208131812850242BFC0120838AE75C
:104F300090E02AE730E0F90120812860FC0120831D
:104F40008AE790E02AE730E0F90120812064FC0143
:104F500020830F900F90DF91CF9108951F920F92B1
:104F600000905F000F92112400905B000F922F932E
:104F70003F934F935F936F937F938F939F93AF93E1
:104F8000BF93EF93FF93CF93DF9300D000D0CDB7C3
:104F9000DEB788E790E0FC018081882F90E09A835B
:104FA000898389E790E0FC018081882F90E0982F29
:104FB000882729813A81822B932B9A838983809138
:104FC0005F1B9091601B880F991F880F991F880F96
:104FD000991F8B51954EFC01808191819C838B831D
:104FE00080915F1B9091601B880F991F880F991FFC
:104FF000880F991F8D51954EFC01808191819E8370
:105000008D834D815E8189819A812B813C81BA019A
:10501000F90119958AE790E02AE730E0F90120814B
:10502000277FFC0120838091DD1A9091DE1A20E019
:1050300040E050E060E070E00E94F00E26960FB66F
:10504000F894DEBF0FBECDBFDF91CF91FF91EF91FE
:10505000BF91AF919F918F917F916F915F914F9190
:105060003F912F910F9000925B000F9000925F0094
:105070000F901F901895CF93DF9300D01F92CDB75C
:10508000DEB79C838B831A82198214C089819A812E
:10509000880F991F880F991F880F991F8152954E6D
:1050A0002FEF3FEFFC013183208389819A810196A4
:1050B0009A83898389819A81803191053CF30E948A
:1050C000F02643E060E081E00E94950D9093DE1AA7
:1050D0008093DD1A8091DD1A9091DE1A009759F0C5
:1050E0008091DD1A9091DE1A20E040E050E060E00F
:1050F00070E00E944C0E81E090E09093621B8093E0
:10510000611B04C08AE090E00E941D058091DF1AB7
:105110009091E01A8F3FFFEF9F07A1F380915F1BF3
:105120009091601B880F991F880F991F880F991FF6
:105130008152954E0E94062780915F1B9091601BC3
:1051400001969093601B80935F1B80915F1B9091F1
:10515000601B803191059CF480915F1B9091601BD6
:10516000880F991F880F991F880F991F8152954E9C
:10517000FC01808191818F3FFFEF9F0721F4109206
:10518000601B10925F1B8091DD1A9091DE1A20E067
:105190004FEF5FEF60E070E00E94490FBFCFCF9309
:1051A000DF93CDB7DEB72A970FB6F894DEBF0FBEF8
:1051B000CDBF9C838B837E836D8358874F833A87D3
:1051C000298704C083E090E00E941D058091611B47
:1051D0009091621B0097B1F31A82198205C08981F0
:1051E0009A8101969A83898389819A818031910578
:1051F0008CF489819A81880F991F880F991F880FD5
:10520000991F8152954EFC01808191818F3FFFEF64
:105210009F0729F78B819C8188309105A4F48EE744
:1052200090E02EE730E0F9012081422F21E030E0CC
:105230000B8002C0220F331F0A94E2F7209524232B
:10524000FC01208318C08DE790E02DE730E0F901E4
:105250002081622F2B813C81A9014850510921E016
:1052600030E0042E02C0220F331F0A94E2F720958B
:105270002623FC01208389819A81880F991F880F3A
:10528000991F880F991F8152954EFC018081918151
:105290008F3FFFEF9F07E1F589819A81880F991F62
:1052A000880F991F880F991F8152954E2B813C8141
:1052B000FC013183208389819A81880F991F880F8F
:1052C000991F880F991F8F51954E2D813E81FC01AA
:1052D0003183208389819A81880F991F880F991FB4
:1052E000880F991F8B51954E2F813885FC01318392
:1052F000208389819A81880F991F880F991F880FB1
:10530000991F8D51954E29853A85FC013183208363
:105310002A960FB6F894DEBF0FBECDBFDF91CF91B6
:105320000895A29FB001B39FC001A39F700D811D7E
:105330001124911DB29F700D811D1124911D08959E
:10534000EE0FFF1F0590F491E02D1994FB01DC0195
:1053500002C001900D9241505040D8F70895DC01F1
:1053600001C06D9341505040E0F70895FB01DC010E
:105370004150504048F001900D920020C9F701C003
:0E5380001D9241505040E0F70895F894FFCF81
:10538E00FFFF010002005430005434005435003049
:10539E003132333435363738394142434445464944
:0C53AE00444C4500020003000100000018
:00000001FF
