:100000000C948A000C94AB000C94AB000C94AB00E5
:100010000C94AB000C94AB000C94AB000C94AB00B4
:100020000C94AB000C94AB000C94AB000C946920C6
:100030000C94AB000C94AB000C94AB000C94AB0094
:100040000C94AB000C94AB000C94AB000C94AB0084
:100050000C94AB000C94AB000C94AB000C94AB0074
:100060000C94AB000C94AB000C94AB000C94AB0064
:100070000C94AB000C94AB000C94AB000C94AB0054
:100080000C94081A0C94AB000C94AB000C94AB00CD
:100090000C94941A0C94AB000C94AB000C94AB0031
:1000A0000C94AB000C94AB000C94AB000C94AB0024
:1000B0000C94AB000C94AB000C94AB000C94AB0014
:1000C0000C94AB000C94AB000C94FA010C94AB00B4
:1000D0000C94AB000C94AB000C94AB000C94AB00F4
:1000E0000C94AB008B1FB21FB21FB21FB21FB21F06
:1000F000A21FB21F0C9402210C943C020C94B6096E
:100100000C94F01A0C94A21F0C948B1F0C94501C8E
:100110000C94B21F11241FBECFEFD1E2DEBFCDBFC2
:1001200000E00CBF12E0A0E0B2E0E0E7F8E400E09D
:100130000BBF02C007900D92AC32B107D9F71AE19C
:10014000ACE2B2E001C01D92A13EB107E1F70E940E
:10015000C5000C9436240C940000CF93DF93CDB7E8
:10016000DEB780912C0290912D02019690932D0282
:1001700080932C02DF91CF910895CF93DF93CDB779
:10018000DEB70000DF91CF910895AF92BF92CF927A
:10019000DF92EF92FF920F93CF93DF9300D000D0C6
:1001A000CDB7DEB78FE38D838EEF8E83CE010596BC
:1001B0009A838983CE01059601969C838B838AE27C
:1001C00090E02FEFFC0120838DE290E02FEFFC0107
:1001D000208384E290E02FEFFC01208387E091E010
:1001E000FC0110828BE290E0FC0110828EE290E034
:1001F000FC01108288E091E022E0FC0120830E9453
:10020000F2028B819C81A12CB12CC12CD12CE12C30
:10021000F12C01E09C014DE354E062E072E08CE3DC
:1002200092E00E9402038B819C81A12CB12CC12CF5
:10023000D12CE12CF12C01E09C014DE354E065E070
:1002400072E082E091E20E9402038B819C81A12CEA
:10025000B12CC12CD12CE12CF12C01E09C014DE3FF
:1002600054E068E072E080EF9AE10E9402038B8123
:100270009C81A12CB12CC12CD12CE12CF12C01E0C2
:100280009C014DE354E06BE072E080E59CE10E944C
:1002900002030E94010680E090E026960FB6F894D3
:1002A000DEBF0FBECDBFDF91CF910F91FF90EF90DA
:1002B000DF90CF90BF90AF900895CF93DF93CDB7ED
:1002C000DEB762970FB6F894DEBF0FBECDBF9A8B34
:1002D000898B20E1EEE0F2E0CE010196DC01019095
:1002E0000D922A95E1F789899A89892F9927829514
:1002F0008F709E012F5F3F4F820F931FFC01808103
:100300000E944E1A89899A8988279F70892F990F90
:10031000990B9E012F5F3F4F820F931FFC0180813D
:100320000E944E1A89899A89807F99279595879589
:100330009595879595958795959587959E012F5FBE
:100340003F4F820F931FFC0180810E944E1A8989C2
:100350009A898F7099279E012F5F3F4F820F931FBD
:10036000FC0180810E944E1A62960FB6F894DEBF9F
:100370000FBECDBFDF91CF910895CF93DF93CDB75F
:10038000DEB72D970FB6F894DEBF0FBECDBF8D87B9
:10039000CE0103964AE050E060E070E00E94DB236B
:1003A0008D85882F90E09E012D5F3F4F4AE050E001
:1003B000B9010E94F123CE0103969A8389830BC071
:1003C00089819A81FC0180810E94BB1A89819A816E
:1003D00001969A83898389819A81FC01808188238F
:1003E00079F72D960FB6F894DEBF0FBECDBFDF9123
:1003F000CF9108951F920F9200905F000F921124E9
:1004000000905B000F922F933F938F939F93EF93F6
:10041000FF93CF93DF93CDB7DEB785E290E025E27F
:1004200030E0F90120812095FC01208384E990E0EF
:10043000FC01108285E990E0FC011082DF91CF91F0
:10044000FF91EF919F918F913F912F910F9000928B
:100450005B000F9000925F000F901F901895CF9354
:10046000DF93CDB7DEB786E490E0FC018081882F72
:1004700090E0DF91CF910895CF93DF931F921F9269
:10048000CDB7DEB79A83898340E054E264EF70E031
:1004900080E895E20E940B1AFFCFCF93DF931F9263
:1004A0001F92CDB7DEB79A83898381E290E027EF70
:1004B000FC01208382E290E022E230E0F901208119
:1004C0002360FC01208382E290E022E230E0F90127
:1004D00020812C7FFC01208388EC90E00E946F0437
:1004E00082E290E022E230E0F90120812C7FFC01E1
:1004F000208382E290E022E230E0F9012081216055
:10050000FC01208388EC90E00E946F0482E290E07E
:1005100022E230E0F90120812C7FFC01208382E27D
:1005200090E022E230E0F90120812260FC0120838A
:1005300088EC90E00E946F04C6CFCF93DF931F92A8
:100540001F92CDB7DEB79A83898380E290E0FC01E9
:100550008081882F90E088709927009751F082E27F
:1005600090E022E230E0F90120812068FC01208344
:10057000ECCF82E290E022E230E0F90120812F7797
:10058000FC012083E2CFCF93DF9300D01F92CDB741
:10059000DEB79C838B830E94BE221A8219820E943E
:1005A0001A2281E090E00E94252284EF91E00E94CF
:1005B0006F0480E490E00E94252284EF91E00E9485
:1005C0006F048FE790E00E94252284EF91E00E9463
:1005D0006F0480E490E00E94252284EF91E00E9465
:1005E0006F04DFCFCF93DF93CDB7DEB784E290E027
:1005F0002FEFFC01208385E290E0FC011082DF9167
:10060000CF910895AF92BF92CF92DF92EF92FF9277
:100610000F931F93CF93DF93CDB7DEB764970FB6D9
:10062000F894DEBF0FBECDBF9F838E837987688726
:100630005B874A873D872C870E87F88AEF86DA8AA0
:10064000C98ABC8AAB8A29893A898A859B85B9017E
:100650000E94B80A9B838A838A819B81009709F450
:100660009FC08A819B81FC012789308D8A859B856B
:100670000197820F931F9D838C834A855B852B890D
:100680003C89688579858A819B818A014E850E9493
:10069000C8094C855D852E813F818C819D81B90182
:1006A0000E94E0169C018A819B81FC01318320839A
:1006B0008F859889009739F08F8598892A813B81A9
:1006C000FC01318320830FB6F8940F9280917C0255
:1006D0008F5F80937C0280912E0290912F02009771
:1006E00069F48A819B8190932F0280932E028091DE
:1006F0007C028130B1F40E94290A13C080918102EA
:10070000882379F480912E0290912F02FC01968922
:100710008E85891730F08A819B8190932F02809378
:100720002E028A819B81FC01968980917F02891724
:1007300030F48A819B81FC01868980937F028091BD
:1007400086028F5F809386028A819B81FC01968955
:1007500080918002891730F48A819B81FC0186890F
:10076000809380028A819B81AC014E5F5F4F8A81BA
:100770009B81FC018689282F30E0C901880F991FD1
:10078000880F991F880F991F820F931F805D9D4FBF
:10079000BA010E94521281E089830F900FBE02C0FD
:1007A0008FEF89838981813079F480918102882358
:1007B00059F080912E0290912F02FC0196898E852E
:1007C000981710F40E94E418898164960FB6F89483
:1007D000DEBF0FBECDBFDF91CF911F910F91FF9074
:1007E000EF90DF90CF90BF90AF900895CF93DF93BD
:1007F000CDB7DEB728970FB6F894DEBF0FBECDBFDA
:100800009E838D8378876F8319820E9443068D8132
:100810009E81FC01208131818F819885820F931FF9
:100820009B838A838D819E81FC012081318180910F
:100830007D0290917E0282179307B0F48D819E8194
:10084000FC01208131818A819B818217930708F501
:1008500080917D0290917E022A813B8182179307CD
:10086000C0F481E0898315C08D819E81FC012081C7
:1008700031818A819B818217930748F080917D02A4
:1008800090917E022A813B818217930710F481E0C8
:1008900089838D819E812A813B81FC013183208364
:1008A0008981882359F080912E0290912F0202961F
:1008B0000E9422138A819B810E946D0A0E944F062A
:1008C0008C838C81882311F40E94E41828960FB63B
:1008D000F894DEBF0FBECDBFDF91CF910895CF93C7
:1008E000DF9300D01F921F92CDB7DEB79D838C831C
:1008F00019828C819D810097D1F00E94430620913E
:100900007D0230917E028C819D81820F931F9B839B
:100910008A8380912E0290912F0202960E942213C8
:100920008A819B810E946D0A0E944F06898389817A
:10093000882311F40E94E4180F900F900F900F90ED
:100940000F90DF91CF910895CF93DF9300D01F9246
:10095000CDB7DEB79C838B830FB6F8940F9280914E
:100960002E0290912F022B813C812817390711F418
:100970001C821B828B819C81009729F480912E021E
:1009800090912F0202C08B819C819A8389838981F7
:100990009A8102960E94221389819A81FC0184899E
:1009A0009589009729F089819A810C960E942213DB
:1009B00089819A810296BC0183E792E00E945212DB
:1009C0000F900FBE8B819C810097A1F480918102D2
:1009D000882319F00E94E4180DC090917302809151
:1009E0007C02981729F410922F0210922E0202C056
:1009F0000E94E5070F900F900F900F90DF91CF911D
:100A00000895CF93DF9300D01F921F92CDB7DEB72A
:100A10009D838C8319828C819D819B838A838A81AB
:100A20009B81FC0182859385F2E083379F0791F4D7
:100A30008A819B81FC0184899589F2E08A369F072F
:100A400049F08A819B81FC0184899589009711F482
:100A500081E0898389810F900F900F900F900F9004
:100A6000DF91CF910895CF93DF9300D01F92CDB740
:100A7000DEB79C838B838B819C819A838983898158
:100A80009A81009709F44FC080912E0290912F0215
:100A900029813A812817390709F445C00FB6F8941F
:100AA0000F9289819A810E9401058130D1F5898157
:100AB0009A8102960E94221389819A81FC0196896B
:100AC00080918002891730F489819A81FC0186899E
:100AD0008093800289819A81AC014E5F5F4F89814A
:100AE0009A81FC018689282F30E0C901880F991F5F
:100AF000880F991F880F991F820F931F805D9D4F4C
:100B0000BA010E94521289819A81FC012689809142
:100B10002E0290912F02FC018689281710F00E9466
:100B2000E4180F900FBE0F900F900F900F90DF9171
:100B3000CF910895CF93DF9300D000D0CDB7DEB72B
:100B40009E838D8319828D819E819B838A831C82E3
:100B50008A819B810E940105813009F048C0809103
:100B600082028823E1F58A819B81FC01268980919C
:100B70002E0290912F02FC01968981E0291708F43A
:100B800080E089838A819B8102960E9422138A8158
:100B90009B81FC01968980918002891730F48A81BB
:100BA0009B81FC018689809380028A819B81AC01B4
:100BB0004E5F5F4F8A819B81FC018689282F30E040
:100BC000C901880F991F880F991F880F991F820FDD
:100BD000931F805D9D4FBA010E94521208C08A8106
:100BE0009B810C96BC018AE692E00E945212898198
:100BF00026960FB6F894DEBF0FBECDBFDF91CF9122
:100C00000895AF92BF92CF92DF92EF92FF920F932F
:100C1000CF93DF931F92CDB7DEB7A12CB12CC12C9F
:100C2000D12CE12CF12C00E020E030E045E550E053
:100C30006EE172E086EB99E00E940203898389816C
:100C4000813051F4F89481E08093810210927E0209
:100C500010927D020E94A4180F90DF91CF910F9106
:100C6000FF90EF90DF90CF90BF90AF900895CF931B
:100C7000DF93CDB7DEB7F894109281020E94DD18A1
:100C8000DF91CF910895CF93DF93CDB7DEB78091F9
:100C900082028F5F80938202DF91CF9108950F933C
:100CA0001F93CF93DF931F921F92CDB7DEB71982A8
:100CB0000FB6F8940F928091820281508093820245
:100CC00080918202882309F064C080917C0288238D
:100CD00009F45FC01A823AC080916F02909170024D
:100CE000FC0106811781C8010C960E942213C801DD
:100CF00002960E942213F80196898091800289173A
:100D000020F4F801868980938002A8014E5F5F4F2E
:100D1000F8018689282F30E0C901880F991F880FB4
:100D2000991F880F991F820F931F805D9D4FBA01F5
:100D30000E945212F801268980912E0290912F0272
:100D4000FC018689281710F081E08A8380916A026D
:100D5000882311F680918302882371F007C00E94D6
:100D600008078091830281508093830280918302DF
:100D70008823A9F781E08A838A81813021F08091DC
:100D80008402813031F481E08983109284020E94D0
:100D9000E4180F900FBE89810F900F90DF91CF91D3
:100DA0001F910F910895CF93DF931F921F92CDB79C
:100DB000DEB70FB6F8940F9280917D0290917E027B
:100DC0009A8389830F900FBE89819A810F900F902B
:100DD000DF91CF910895CF93DF9300D0CDB7DEB7E9
:100DE000198280917D0290917E029B838A838A8101
:100DF0009B810F900F900F90DF91CF910895CF932B
:100E0000DF93CDB7DEB780917C02DF91CF9108955B
:100E1000CF93DF9300D000D0CDB7DEB780918202B0
:100E2000882309F0C4C080917D0290917E020196D2
:100E300090937E0280937D0280917D0290917E024C
:100E40000097E9F580916602909167029A83898301
:100E50008091680290916902909367028093660284
:100E600089819A81909369028093680280918502BA
:100E70008F5F809385028091660290916702FC01EA
:100E80008081882339F48FEF9FEF90930102809344
:100E9000000215C08091660290916702FC01858175
:100EA0009681FC01868197819C838B838B819C81B9
:100EB000FC01828193819093010280930002209132
:100EC0007D0230917E0280910002909101022817EC
:100ED000390708F46BC08091660290916702FC01AB
:100EE0008081882339F48FEF9FEF909301028093E4
:100EF00000025CC08091660290916702FC018581CE
:100F00009681FC01868197819C838B838B819C8158
:100F1000FC01828193819E838D8320917D0230919B
:100F20007E028D819E812817390738F48D819E813C
:100F3000909301028093000239C08B819C810296BC
:100F40000E9422138B819C81FC01848995890097E2
:100F500029F08B819C810C960E9422138B819C81AD
:100F6000FC01968980918002891730F48B819C81E5
:100F7000FC018689809380028B819C81AC014E5F4D
:100F80005F4F8B819C81FC018689282F30E0C9014D
:100F9000880F991F880F991F880F991F820F931F21
:100FA000805D9D4FBA010E94521295CF05C080917D
:100FB00083028F5F8093830226960FB6F894DEBF7C
:100FC0000FBECDBFDF91CF910895CF93DF931F92D6
:100FD0001F92CDB7DEB780918202882321F081E095
:100FE000809384027AC080912E0290912F02FC019E
:100FF0002081318180912E0290912F02FC018789FE
:10100000908D8217930770F080912E0290912F029D
:101010009C01275E3F4F80912E0290912F02B901D3
:101020000E94BD0005C080918002815080938002A3
:1010300080918002282F30E0C901880F991F880F06
:10104000991F880F991F820F931F805D9D4FFC0190
:101050008081882341F380918002282F30E0C901EC
:10106000880F991F880F991F880F991F820F931F50
:10107000805D9D4F9A83898389819A81FC0181815A
:101080009281FC012281338189819A81FC01328322
:10109000218389819A81FC012181328189819A8110
:1010A00003962817390769F489819A81FC018181A7
:1010B0009281FC012281338189819A81FC013283F2
:1010C000218389819A81FC0181819281FC01868141
:1010D000978190932F0280932E020F900F90DF91B3
:1010E000CF910895CF93DF9300D000D0CDB7DEB776
:1010F0009C838B837E836D8380912E0290912F023F
:101100009C01245F3F4F8B819C81B9010E94A912F1
:1011100080912E0290912F0202960E9422138D81BF
:101120009E818F3F2FEF920759F480912E0290916C
:101130002F020296BC0183E792E00E9452120EC079
:1011400020917D0230917E028D819E81820F931FBE
:101150009A83898389819A810E946D0A26960FB6A7
:10116000F894DEBF0FBECDBFDF91CF910895CF932E
:10117000DF9300D01F921F92CDB7DEB79D838C8383
:101180008C819D81FC0185819681FC0186819781FE
:101190009B838A838A819B810C960E942213809173
:1011A0008202882369F58A819B8102960E9422131C
:1011B0008A819B81FC01968980918002891730F495
:1011C0008A819B81FC018689809380028A819B8130
:1011D000AC014E5F5F4F8A819B81FC018689282F7D
:1011E00030E0C901880F991F880F991F880F991F38
:1011F000820F931F805D9D4FBA010E94521208C05A
:101200008A819B810C96BC018AE692E00E94521270
:101210008A819B81FC01268980912E0290912F0268
:10122000FC018689281718F081E0898301C01982A2
:1012300089810F900F900F900F900F90DF91CF91B9
:101240000895CF93DF931F921F92CDB7DEB79A8395
:1012500089832091850289819A81FC0120832091D4
:101260007D0230917E0289819A81FC013283218343
:101270000F900F90DF91CF910895CF93DF9300D01F
:101280001F921F92CDB7DEB79B838A837D836C83C9
:101290000FB6F8940F928C819D81FC018081918121
:1012A0008F3FFFEF9F0711F419824BC08A819B810A
:1012B000FC01908180918502981779F08A819B8149
:1012C000FC012181328180917D0290917E02821702
:1012D000930718F081E0898334C020917D0230911A
:1012E0007E028A819B81FC0181819281281B390BBE
:1012F0008C819D81FC018081918128173907F8F448
:101300008C819D81FC01208131818A819B81FC013E
:101310004181528180917D0290917E02BA01681BC9
:10132000790BCB01280F391F8C819D81FC01318302
:1013300020838A819B810E942109198202C081E059
:1013400089830F900FBE89810F900F900F900F909F
:101350000F90DF91CF910895CF93DF93CDB7DEB794
:1013600081E080938402DF91CF910895CF93DF9342
:101370001F921F92CDB7DEB79A8389830E94660AB7
:1013800080913002823018F00E94E418F7CFF6CF37
:101390000F931F93CF93DF93CDB7DEB729970FB687
:1013A000F894DEBF0FBECDBF9A8389837C836B83A5
:1013B0004D833F832E831987088789819A814996B7
:1013C0002B813C8140E150E0B9010E94E2238981F8
:1013D0009A81FC0110A68D81843010F083E08D830A
:1013E00089819A812D81FC01268B89819A812D81A9
:1013F000FC0121A789819A8102960E94401289816D
:101400009A810C960E94401289819A8129813A81A1
:10141000FC01318720878D81882F90E024E030E027
:10142000281B390B89819A81FC01358724878981A2
:101430009A8129813A81FC01338B228B29960FB640
:10144000F894DEBF0FBECDBFDF91CF911F910F91FA
:101450000895CF93DF931F92CDB7DEB7198213C0E3
:101460008981282F30E0C901880F991F880F991FA3
:10147000880F991F820F931F805D9D4F0E940A1253
:1014800089818F5F89838981843050F384E592E07C
:101490000E940A128DE592E00E940A128AE692E00A
:1014A0000E940A1283E792E00E940A1284E592E009
:1014B00090936702809366028DE592E090936902B3
:1014C000809368020F90DF91CF910895CF93DF93BF
:1014D000CDB7DEB7DF91CF910895CF93DF931F9201
:1014E0001F92CDB7DEB79A83898380912E029091A7
:1014F0002F0229813A81FC013383228380917D026E
:1015000090917E0229813A812817390778F48091D9
:101510002E0290912F029C012E5F3F4F8091680216
:1015200090916902B9010E94A9121DC080912E02FA
:1015300090912F029C012E5F3F4F80916602909107
:101540006702B9010E94A9128091000290910102E4
:1015500029813A812817390730F489819A8190933B
:101560000102809300020F900F90DF91CF910895B8
:10157000CF93DF9300D000D0CDB7DEB79C838B83B1
:101580007E836D838AE290E00E9471169A8389833C
:1015900089819A81009751F18D819E81009729F46C
:1015A0008B819C810E94711602C08D819E81298150
:1015B0003A81F901908F878B89819A81FC01878913
:1015C000908D009739F489819A810E94B7161A820A
:1015D00019820CC089819A81FC018789908D2B81A9
:1015E0003C81A90165EA70E00E94DB2389819A8130
:1015F00026960FB6F894DEBF0FBECDBFDF91CF9118
:1016000008950F931F93CF93DF931F921F92CDB72F
:10161000DEB79A83898300E010E009C089819A814E
:1016200001969A838983C8018C010F5F1F4F8981BE
:101630009A81FC018081853A89F3C8010F900F904F
:10164000DF91CF911F910F910895CF93DF93CDB785
:10165000DEB727970FB6F894DEBF0FBECDBF9F83CE
:101660008E838E819F81009729F480912E02909124
:101670002F0202C08E819F819A83898389819A81FA
:10168000FC018789908D9C838B838B819C810E9438
:10169000010B8D838D8127960FB6F894DEBF0FBEA8
:1016A000CDBFDF91CF910895CF93DF931F921F920B
:1016B000CDB7DEB780912E0290912F029A83898355
:1016C00089819A810F900F90DF91CF910895CF93E8
:1016D000DF9300D01F92CDB7DEB79C838B838B81C5
:1016E0009C819A8389838B819C81009709F478C0BF
:1016F00089819A81FC01268980912E0290912F0286
:10170000FC018689281708F06BC080912E02909109
:101710002F02FC018689882F90E024E030E0281B0E
:10172000390B89819A81FC013587248789819A81C7
:10173000FC014285538589819A81FC018689282F85
:1017400030E0C901880F991F880F991F880F991FD2
:10175000820F931F805D9D4F48175907B9F5898106
:101760009A8102960E94221380912E0290912F025C
:10177000FC01268989819A81FC01268B89819A81C5
:10178000FC01968980918002891730F489819A81C1
:10179000FC0186898093800289819A81AC014E5F29
:1017A0005F4F89819A81FC018689282F30E0C90129
:1017B000880F991F880F991F880F991F820F931FF9
:1017C000805D9D4FBA010E9452120AC080912E0284
:1017D00090912F02FC01268989819A81FC01268B38
:1017E0000F900F900F900F90DF91CF910895CF93AE
:1017F000DF9300D01F92CDB7DEB79C838B838B81A4
:101800009C819A8389838B819C81009709F44EC0C7
:1018100089819A81FC01268989819A81FC0181A5AF
:10182000281709F443C089819A8102960E942213E5
:1018300089819A81FC0121A589819A81FC01268BED
:1018400089819A81FC018689882F90E024E030E02C
:10185000281B390B89819A81FC013587248789816E
:101860009A81FC01968980918002891730F48981E0
:101870009A81FC0186898093800289819A81AC01DA
:101880004E5F5F4F89819A81FC018689282F30E065
:10189000C901880F991F880F991F880F991F820F00
:1018A000931F805D9D4FBA010E9452120F900F90BE
:1018B0000F900F90DF91CF910895CF93DF9300D0D9
:1018C000CDB7DEB79A8389836B830FB6F8940F92F6
:1018D00089819A81FC012081318189819A81FC0171
:1018E000838D682F70E089819A81FC01848D482F57
:1018F00050E0649FC001659F900D749F900D11246E
:10190000280F391F89819A81FC01338322838981C1
:101910009A81FC01128E89819A81FC01208131819A
:1019200089819A81FC013583248389819A81FC0114
:101930002081318189819A81FC01838D882F90E0FB
:10194000BC016150710989819A81FC01848D482F05
:1019500050E0649FC001659F900D749F900D11240D
:10196000280F391F89819A81FC0137832683898159
:101970009A812FEFFC01258F89819A812FEFFC013D
:10198000268F8B81882381F489819A81FC0180854F
:101990008823A1F089819A8108960E94B708813036
:1019A00069F40E94E4180AC089819A8108960E940D
:1019B0000A1289819A8141960E940A120F900FBEE5
:1019C00081E00F900F900F90DF91CF910895CF930A
:1019D000DF93CDB7DEB729970FB6F894DEBF0FBE01
:1019E000CDBF8F83688749871A8219828F818823A8
:1019F00009F443C08FE190E00E9471169C838B83B1
:101A00008B819C810097C9F18F81482F50E0888598
:101A1000282F30E0429FC001439F900D529F900DB0
:101A2000112401969E838D838D819E810E94711663
:101A30009C018B819C81FC01318320838B819C8163
:101A4000FC01808191810097A1F08B819C812F8185
:101A5000FC01238F8B819C812885FC01248F8B8145
:101A60009C8161E00E945D0C8B819C819A838983BB
:101A700004C08B819C810E94B71689819A81299626
:101A80000FB6F894DEBF0FBECDBFDF91CF910895A2
:101A9000CF93DF9300D0CDB7DEB78B838FE190E09B
:101AA0000E9471169A83898389819A810097F1F146
:101AB00089819A81FC011382128289819A81FC01B9
:101AC0001182108289819A81FC0115821482898198
:101AD0009A81FC011782168289819A81FC01128EFB
:101AE00089819A8121E0FC01238F89819A81FC01FF
:101AF000148E89819A812FEFFC01258F89819A812B
:101B00002FEFFC01268F89819A8108960E940A1284
:101B100089819A8141960E940A1289819A8120E0E6
:101B200040E050E060E070E00E949E0D89819A8163
:101B30000F900F900F90DF91CF910895CF93DF9387
:101B4000CDB7DEB72B970FB6F894DEBF0FBECDBF73
:101B50009E838D8378876F835A8749872B87198265
:101B60000FB6F8940F928D819E81FC01228D8D819C
:101B70009E81FC01838D2817D8F42F8138858D81B3
:101B80009E814B85B9010E9428108D819E81FC01A8
:101B90008189882349F08D819E8141960E94B708F2
:101BA000813011F40E94E4180F900FBE81E061C0F3
:101BB00089859A85009721F40F900FBE80E059C067
:101BC0008981882331F4CE0102960E94210981E0A7
:101BD00089830F900FBE0E9443060FB6F8940F92B0
:101BE0008D819E81FC01858D8F3F21F48D819E81A9
:101BF000FC01158E8D819E81FC01868D8F3F21F425
:101C00008D819E81FC01168E0F900FBE9E01275F75
:101C10003F4FCE010296B9010E943D09882301F58C
:101C20008D819E810E94CF11882399F029853A8564
:101C30008D819E810896B9010E9472088D819E81D6
:101C40000E9437110E944F06882391F40E94E418E5
:101C50000FC08D819E810E9437110E944F0680CF58
:101C60008D819E810E9437110E944F0680E001C045
:101C700077CF2B960FB6F894DEBF0FBECDBFDF91A6
:101C8000CF910895CF93DF93CDB7DEB729970FB6E5
:101C9000F894DEBF0FBECDBF9C838B837E836D83A4
:101CA00058874F8329871A828B819C81FC01228D62
:101CB0008B819C81FC01838D281790F52D813E81BD
:101CC0008B819C814985B9010E9428108B819C8160
:101CD000FC01868D8F3FB9F48B819C81FC01818949
:101CE0008823D9F08B819C8141960E94B708882374
:101CF000A1F08F819885009781F08F81988521E0F0
:101D0000FC0120830AC08B819C81FC01868D21E02F
:101D1000280F8B819C81FC01268F81E0898301C083
:101D20001982898129960FB6F894DEBF0FBECDBF08
:101D3000DF91CF910895CF93DF93CDB7DEB72D9785
:101D40000FB6F894DEBF0FBECDBF98878F837A871A
:101D500069875C874B872D8719820FB6F8940F929D
:101D60008F819885FC01828D882309F454C08F816E
:101D70009885FC01868197819B838A8329853A8592
:101D80008F819885B9010E94E6108D85882349F5D9
:101D90008F819885FC01828D2FEF280F8F81988588
:101DA000FC01228F8F819885FC01808191810097B1
:101DB00041F40E94540B9C018F819885FC01338370
:101DC00022838F819885FC018085882301F18F8192
:101DD000988508960E94B7088130C9F40E94E418DB
:101DE00016C08F8198852A813B81FC013783268329
:101DF0008F819885FC018189882349F08F8198859E
:101E000041960E94B708882311F00E94E4180F90B1
:101E10000FBE81E074C08B859C85009721F40F90E4
:101E20000FBE80E06CC08981882331F4CE01049616
:101E30000E94210981E089830F900FBE0E94430612
:101E40000FB6F8940F928F819885FC01858D8F3F96
:101E500021F48F819885FC01158E8F819885FC0176
:101E6000868D8F3F21F48F819885FC01168E0F900F
:101E70000FBE9E01255F3F4FCE010496B9010E941F
:101E80003D09882399F58F8198850E949C118823AC
:101E900031F18F819885FC0180819181009761F4F7
:101EA0000FB6F8940F928F819885FC0182819381FF
:101EB0000E94670B0F900FBE2B853C858F81988504
:101EC0004196B9010E9472088F8198850E9437114E
:101ED0000E944F06882391F40E94E4180FC08F815E
:101EE00098850E9437110E944F0637CF8F819885C1
:101EF0000E9437110E944F0680E001C02ECF2D9620
:101F00000FB6F894DEBF0FBECDBFDF91CF9108951D
:101F1000CF93DF93CDB7DEB728970FB6F894DEBF27
:101F20000FBECDBF9C838B837E836D8358874F8389
:101F30001A828B819C81FC01828D8823D9F12D81AD
:101F40003E818B819C81B9010E94E6108B819C812E
:101F5000FC01828D2FEF280F8B819C81FC01228F49
:101F60008B819C81FC01858D8F3FB9F48B819C8195
:101F7000FC0180858823D9F08B819C8108960E9482
:101F8000B7088823A1F08F819885009781F08F8111
:101F9000988521E0FC0120830AC08B819C81FC0193
:101FA000858D21E0280F8B819C81FC01258F81E0AC
:101FB000898301C01982898128960FB6F894DEBF03
:101FC0000FBECDBFDF91CF910895CF93DF9300D0A7
:101FD000CDB7DEB79B838A830FB6F8940F928A81C0
:101FE0009B81FC01828D89830F900FBE89810F90A8
:101FF0000F900F90DF91CF910895CF93DF9300D092
:10200000CDB7DEB79B838A838A819B81FC01828D59
:10201000898389810F900F900F90DF91CF91089560
:10202000CF93DF931F921F92CDB7DEB79A83898338
:1020300089819A81FC01808191810E94B7168981F2
:102040009A810E94B7160F900F90DF91CF9108955B
:10205000CF93DF9300D01F921F92CDB7DEB79A8344
:1020600089837C836B834D8389819A81FC01848D74
:102070008823A9F489819A81FC018081918100974C
:1020800009F092C089819A81FC01828193810E942A
:10209000F70B89819A81FC011382128285C08D81A0
:1020A0008823D9F589819A81FC01848D482F50E0DD
:1020B00089819A81FC01848195812B813C81B901C0
:1020C0000E94D22389819A81FC01248135818981F2
:1020D0009A81FC01848D882F90E0280F391F898117
:1020E0009A81FC013583248389819A81FC012481B2
:1020F000358189819A81FC01828193812817390772
:1021000008F452C089819A81FC0120813181898142
:102110009A81FC013583248347C089819A81FC011F
:10212000848D482F50E089819A81FC0186819781B6
:102130002B813C81B9010E94D22389819A81FC01C3
:102140002681378189819A81FC01848D882F90E0D6
:10215000919581959109280F391F89819A81FC01F8
:102160003783268389819A81FC0126813781898181
:102170009A81FC018081918128173907A8F489810F
:102180009A81FC012281338189819A81FC01848DAD
:10219000882F90E0919581959109280F391F8981A9
:1021A0009A81FC013783268389819A81FC01828D83
:1021B00021E0280F89819A81FC01228F0F900F90D6
:1021C0000F900F900F90DF91CF910895CF93DF93F1
:1021D00000D01F92CDB7DEB79A8389837C836B834F
:1021E00089819A81FC01808191810097C9F189815F
:1021F0009A81FC012681378189819A81FC01848D35
:10220000882F90E0280F391F89819A81FC0137833C
:10221000268389819A81FC012681378189819A816F
:10222000FC01828193812817390750F089819A81B6
:10223000FC012081318189819A81FC0137832683C9
:1022400089819A81FC01848D482F50E089819A818F
:10225000FC01268137818B819C81B9010E94D223A8
:102260000F900F900F900F90DF91CF910895CF9323
:10227000DF931F921F92CDB7DEB79A8389830FB683
:10228000F8940F921BC089819A81FC01818988236F
:10229000A1F089819A8141960E94B708882311F0A4
:1022A0000E94AC0989819A81FC01868D2FEF280F4D
:1022B00089819A81FC01268F01C006C089819A819B
:1022C000FC01868D1816FCF289819A812FEFFC01A2
:1022D000268F0F900FBE0FB6F8940F921BC0898106
:1022E0009A81FC0180858823A1F089819A810896D2
:1022F0000E94B708882311F00E94AC0989819A8155
:10230000FC01858D2FEF280F89819A81FC01258F93
:1023100001C006C089819A81FC01858D1816FCF2E6
:1023200089819A812FEFFC01258F0F900FBE0F90AE
:102330000F90DF91CF910895CF93DF9300D0CDB769
:10234000DEB79B838A830FB6F8940F928A819B81B4
:10235000FC01928D81E0992309F080E089830F9040
:102360000FBE89810F900F900F90DF91CF9108954C
:10237000CF93DF9300D0CDB7DEB79B838A838A816A
:102380009B81FC01928D81E0992309F080E0898393
:1023900089810F900F900F90DF91CF910895CF9387
:1023A000DF9300D0CDB7DEB79B838A830FB6F89456
:1023B0000F928A819B81FC01228D8A819B81FC0185
:1023C000938D81E0291709F080E089830F900FBE7B
:1023D00089810F900F900F90DF91CF910895CF9347
:1023E000DF9300D0CDB7DEB79B838A838A819B8140
:1023F000FC01228D8A819B81FC01938D81E029174C
:1024000009F080E0898389810F900F900F90DF9110
:10241000CF910895CF93DF931F921F92CDB7DEB770
:102420009A83898389819A819C012D5F3F4F89819D
:102430009A81FC013283218389819A812FEF3FEFBA
:10244000FC013483238389819A819C012D5F3F4F56
:1024500089819A81FC013683258389819A819C0137
:102460002D5F3F4F89819A81FC01308727838981C5
:102470009A81FC0110820F900F90DF91CF91089507
:10248000CF93DF931F921F92CDB7DEB79A838983D4
:1024900089819A81FC01118610860F900F90DF913F
:1024A000CF910895CF93DF9300D000D0CDB7DEB7A2
:1024B0009C838B837E836D838B819C81FC018181D6
:1024C00092819A83898389819A81FC012281338157
:1024D0008D819E81FC01338322838B819C81FC0151
:1024E000218132818D819E81FC0135832483898104
:1024F0009A81FC01828193812D813E81FC0135838B
:10250000248389819A812D813E81FC01338322833A
:102510008B819C812D813E81FC01328321838D81C1
:102520009E812B813C81FC01318720878B819C819E
:10253000FC01808121E0280F8B819C81FC0120839C
:1025400026960FB6F894DEBF0FBECDBFDF91CF91B8
:102550000895CF93DF93CDB7DEB728970FB6F894E1
:10256000DEBF0FBECDBF9E838D8378876F838F8143
:102570009885FC01808191819C838B838B819C81D8
:102580008F3FFFEF9F0741F48D819E81FC01878182
:1025900090859A8389831AC08D819E8103969A8340
:1025A000898307C089819A81FC01828193819A8302
:1025B000898389819A81FC0182819381FC01208138
:1025C00031818B819C818217930760F789819A8181
:1025D000FC01228133818F819885FC013383228322
:1025E0008F819885FC01828193812F813885FC0140
:1025F000358324838F81988529813A81FC01358335
:10260000248389819A812F813885FC013383228339
:102610008F8198852D813E81FC01318720878D81B6
:102620009E81FC01808121E0280F8D819E81FC012B
:10263000208328960FB6F894DEBF0FBECDBFDF9182
:10264000CF910895CF93DF9300D01F92CDB7DEB71F
:102650009C838B838B819C81FC01828193812B8164
:102660003C81F90124813581FC01358324838B81F0
:102670009C81FC01848195812B813C81F90122811F
:102680003381FC01338322838B819C81FC01808513
:1026900091859A83898389819A81FC012181328184
:1026A0008B819C812817390751F48B819C81FC0117
:1026B0002481358189819A81FC01328321838B8138
:1026C0009C81FC011186108689819A81FC018081A0
:1026D0002FEF280F89819A81FC01208389819A81BB
:1026E000FC0180810F900F900F900F90DF91CF91A0
:1026F0000895CF93DF93CDB7DEB727970FB6F89441
:10270000DEBF0FBECDBF9D838C836E834F838AE176
:1027100090E00E9471169B838A838A819B81009737
:1027200009F477C08091870290918802009741F464
:102730008A819B8190938802809387020E94FF1573
:102740008E81823010F081E08E838A819B81FC0132
:10275000118E108E8A819B812E81FC01268B8A81AD
:102760009B812F81FC01278B8A819B812C813D815C
:10277000FC01318320838A819B8102960E94401252
:102780008A819B810C960E9440128A819B812A81BA
:102790003B81FC01318720878A819B812A813B8193
:1027A000FC01338B228B8E81882F90E024E030E077
:1027B000281B390B8A819B81FC01358724878A81FC
:1027C0009B81FC0196898091BA02891730F48A8135
:1027D0009B81FC0186898093BA028A819B81AC012E
:1027E0004E5F5F4F8A819B81FC018689282F30E0F4
:1027F000C901880F991F880F991F880F991F820F91
:10280000931F87579D4FBA010E94521281E089831E
:1028100002C08FEF8983898127960FB6F894DEBFB7
:102820000FBECDBFDF91CF910895CF93DF9300D03E
:1028300000D0CDB7DEB79C838B837E836D832091E0
:10284000BB023091BC028B819C81820F931F9A83C3
:102850008983809187029091880202960E942213B8
:10286000809187029091880229813A81FC0133830B
:1028700022838091BB029091BC0229813A81281762
:10288000390778F480918702909188029C012E5F2D
:102890003F4F8091AF029091B002B9010E94A912FE
:1028A0000EC080918702909188029C012E5F3F4F5D
:1028B0008091AD029091AE02B9010E94A9128D8162
:1028C0009E81009761F080918702909188029C011F
:1028D000245F3F4F8D819E81B9010E94A9122696E7
:1028E0000FB6F894DEBF0FBECDBFDF91CF91089534
:1028F000CF93DF931F921F92CDB7DEB73CC0F89401
:102900008091B6029091B702FC01868197819A83EB
:10291000898389819A810C960E94221378948981F7
:102920009A8102960E94221389819A81FC019689DC
:102930008091BA02891730F489819A81FC018689D5
:102940008093BA0289819A81AC014E5F5F4F898181
:102950009A81FC018689282F30E0C901880F991FD0
:10296000880F991F880F991F820F931F87579D4FBC
:10297000BA010E9452128091B102882309F0BFCFA0
:102980000F900F90DF91CF910895CF93DF9300D0F8
:102990001F92CDB7DEB70E94D3069C018091BD0285
:1029A0009091BE02A901481B590BCA019093C00225
:1029B0008093BF028AC08091BB029091BC020196B5
:1029C0009093BC028093BB028091BF029091C002A1
:1029D00001979093C0028093BF028091BB029091B7
:1029E000BC020097A9F48091AD029091AE029A8347
:1029F00089838091AF029091B0029093AE02809350
:102A0000AD0289819A819093B0028093AF0254C045
:102A100053C08091AD029091AE02FC0185819681F8
:102A2000FC01868197819C838B838B819C81FC0137
:102A3000228133818091BB029091BC02821793075F
:102A400008F443C0F8948B819C8102960E94221363
:102A50008B819C81FC0184899589009729F08B8169
:102A60009C810C960E94221378948B819C81FC019E
:102A700096898091BA02891730F48B819C81FC0180
:102A800086898093BA028B819C81AC014E5F5F4F37
:102A90008B819C81FC018689282F30E0C901880F39
:102AA000991F880F991F880F991F820F931F8757AF
:102AB0009D4FBA010E9452128091AD029091AE02D8
:102AC000FC018081882309F0A4CF8091BF029091FE
:102AD000C002009709F06FCF8091BB029091BC02B9
:102AE0009093BE028093BD020F900F900F900F90B5
:102AF000DF91CF910895CF93DF931F921F92CDB7AF
:102B0000DEB70E9478140E94C5140AC08091BA02F0
:102B1000882309F46FC08091BA0281508093BA0271
:102B20008091BA02282F30E0C901880F991F880FC1
:102B3000991F880F991F820F931F87579D4FFC0184
:102B40008081882319F38091BA02282F30E0C901CF
:102B5000880F991F880F991F880F991F820F931F45
:102B600087579D4F9A83898389819A81FC0181814E
:102B70009281FC012281338189819A81FC01328317
:102B8000218389819A81FC012181328189819A8105
:102B900003962817390769F489819A81FC0181819C
:102BA0009281FC012281338189819A81FC013283E7
:102BB000218389819A81FC0181819281FC01868136
:102BC00097819093880280938702809187029091E9
:102BD0008802FC01208131818091870290918802D6
:102BE000FC0147898091870290918802642FF90146
:102BF000199500000F900F90DF91CF910895CF931A
:102C0000DF931F92CDB7DEB7198213C08981282FB9
:102C100030E0C901880F991F880F991F880F991FED
:102C2000820F931F87579D4F0E940A1289818F5FE1
:102C300089838981823050F38BE992E00E940A12E5
:102C400084EA92E00E940A1281EB92E00E940A124A
:102C50008BE992E09093AE028093AD0284EA92E019
:102C60009093B0028093AF020F90DF91CF910895BF
:102C7000CF93DF9300D01F921F92CDB7DEB79D8315
:102C80008C838C819D81FC0185819681FC018681EC
:102C900097819B838A838A819B810C960E94221351
:102CA0008A819B810C96BC0181EB92E00E945212BA
:102CB0008A819B81FC0126898091870290918802FC
:102CC000FC018689281718F081E0898301C01982E8
:102CD00089810F900F900F900F900F90DF91CF91FF
:102CE0000895CF93DF9300D01F92CDB7DEB79C83BA
:102CF0008B831A8219820E9443062091C11A309157
:102D0000C21A8B819C81820F931F811528E1920743
:102D100018F52091C11A3091C21A8B819C81280F1D
:102D2000391F8091C11A9091C21A82179307A0F49B
:102D30008091C11A9091C21A8F539D4F9A838983B3
:102D40002091C11A3091C21A8B819C81820F931FEE
:102D50009093C21A8093C11A0E944F0689819A816A
:102D60000F900F900F900F90DF91CF910895CF9318
:102D7000DF931F921F92CDB7DEB79A8389830F909E
:102D80000F90DF91CF910895CF93DF93CDB7DEB74A
:102D90001092C21A1092C11ADF91CF910895CF9369
:102DA000DF93CDB7DEB78091C11A9091C21A20E0AF
:102DB00038E1A901481B590BCA01DF91CF91089551
:102DC000CF93DF93CDB7DEB728970FB6F894DEBF69
:102DD0000FBECDBF9C838B837E836D8358874F83CB
:102DE0008B819C8121E1FC0120838B819C81019757
:102DF0009C838B838B819C8122E2FC0120838B81CD
:102E00009C8101979C838B838B819C8123E3FC01B4
:102E100020838B819C8101979C838B838D819E81F4
:102E20009A83898329818B819C81FC0120838B81FA
:102E30009C8101979C838B8389819A81892F992713
:102E40009A83898329818B819C81FC0120838B81DA
:102E50009C8101979C838B838B819C81FC011082D8
:102E60008B819C8101979C838B838B819C81FC014E
:102E700010828B819C8101979C838B838B819C81A9
:102E800020E8FC0120838B819C8101979C838B83AC
:102E90008B819C81FC0110828B819C8101979C839A
:102EA0008B838B819C81FC0110828B819C8101979B
:102EB0009C838B838B819C81FC0110828B819C8104
:102EC00001979C838B838B819C8122E0FC01208372
:102ED0008B819C8101979C838B838B819C8123E0D8
:102EE000FC0120838B819C8101979C838B838B8148
:102EF0009C8124E0FC0120838B819C8101979C8331
:102F00008B838B819C8125E0FC0120838B819C81BC
:102F100001979C838B838B819C8126E0FC0120831D
:102F20008B819C8101979C838B838B819C8127E083
:102F3000FC0120838B819C8101979C838B838B81F7
:102F40009C8128E0FC0120838B819C8101979C83DC
:102F50008B838B819C8129E0FC0120838B819C8168
:102F600001979C838B838B819C8120E1FC012083D2
:102F70008B819C8101979C838B838B819C8121E138
:102F8000FC0120838B819C8101979C838B838B81A7
:102F90009C8122E1FC0120838B819C8101979C8391
:102FA0008B838B819C8123E1FC0120838B819C811D
:102FB00001979C838B838B819C8124E1FC0120837E
:102FC0008B819C8101979C838B838B819C8125E1E4
:102FD000FC0120838B819C8101979C838B838B8157
:102FE0009C8126E1FC0120838B819C8101979C833D
:102FF0008B838B819C8127E1FC0120838B819C81C9
:1030000001979C838B838B819C8128E1FC01208329
:103010008B819C8101979C838B838B819C8129E18F
:10302000FC0120838B819C8101979C838B838B8106
:103030009C8120E2FC0120838B819C8101979C83F1
:103040008B838B819C8121E2FC0120838B819C817D
:1030500001979C838B838B819C8122E2FC012083DE
:103060008B819C8101979C838B838B819C8123E244
:10307000FC0120838B819C8101979C838B838F81B2
:1030800098859A83898329818B819C81FC01208387
:103090008B819C8101979C838B8389819A81892F65
:1030A00099279A83898329818B819C81FC012083C4
:1030B0008B819C8101979C838B838B819C8126E2F1
:1030C000FC0120838B819C8101979C838B838B8166
:1030D0009C8127E2FC0120838B819C8101979C834A
:1030E0008B838B819C8128E2FC0120838B819C81D6
:1030F00001979C838B838B819C8129E2FC01208337
:103100008B819C8101979C838B838B819C8120E3A5
:10311000FC0120838B819C8101979C838B838B8115
:103120009C8121E3FC0120838B819C8101979C83FE
:103130008B838B819C8128960FB6F894DEBF0FBEDF
:10314000CDBFDF91CF910895CF93DF93CDB7DEB799
:103150000E94A819A0912E02B0912F02CD91CDBF4F
:10316000DD91DEBFFF91EF91DF91CF91BF91AF91E4
:103170009F918F917F916F915F914F913F912F918F
:103180001F910F91FF90EF90DF90CF90BF90AF9085
:103190009F908F907F906F905F904F903F902F9077
:1031A0001F900F900CBE0F900BBE0F900FBE0F9094
:1031B000089581E0DF91CF910895CF93DF93CDB74C
:1031C000DEB7DF91CF9108950F920FB6F8940F926A
:1031D0000BB60F920CB60F921F9211242F923F92B2
:1031E0004F925F926F927F928F929F92AF92BF9217
:1031F000CF92DF92EF92FF920F931F932F933F9303
:103200004F935F936F937F938F939F93AF93BF93EE
:10321000CF93DF93EF93FF93A0912E02B0912F02F3
:103220000DB60D920EB60D920E94E507A0912E02EA
:10323000B0912F02CD91CDBFDD91DEBFFF91EF9117
:10324000DF91CF91BF91AF919F918F917F916F91BE
:103250005F914F913F912F911F910F91FF90EF90B0
:10326000DF90CF90BF90AF909F908F907F906F90A6
:103270005F904F903F902F901F900F900CBE0F903B
:103280000BBE0F900FBE0F9008950F920FB6F894DB
:103290000F920BB60F920CB60F921F9211242F9221
:1032A0003F924F925F926F927F928F929F92AF92D6
:1032B000BF92CF92DF92EF92FF920F931F932F93C3
:1032C0003F934F935F936F937F938F939F93AF93AE
:1032D000BF93CF93DF93EF93FF93A0912E02B09112
:1032E0002F020DB60D920EB60D920E9408070E9495
:1032F000E507A0912E02B0912F02CD91CDBFDD91B7
:10330000DEBFFF91EF91DF91CF91BF91AF919F9180
:103310008F917F916F915F914F913F912F911F916D
:103320000F91FF90EF90DF90CF90BF90AF909F9064
:103330008F907F906F905F904F903F902F901F9055
:103340000F900CBE0F900BBE0F900FBE0F90089504
:10335000CF93DF9300D000D0CDB7DEB780E09DE7FC
:10336000A0E0B0E089839A83AB83BC8389819A8192
:10337000AB81BC81689415F8B695A795979587950C
:103380001694D1F789839A83AB83BC8389819A8110
:10339000AB81BC810197A109B10989839A83AB8371
:1033A000BC8389818D8389819A81AB81BC81892F7E
:1033B0009A2FAB2FBB2789839A83AB83BC838981E8
:1033C0008E8389E990E02E81FC01208388E990E0DA
:1033D0002D81FC0120838BE08D8381E990E02D819C
:1033E000FC01208381E790E0FC0180818D838D8149
:1033F00082608D8381E790E02D81FC0120832696F9
:103400000FB6F894DEBF0FBECDBFDF91CF91089508
:103410000E9445191895CF93DF9300D000D0CDB707
:10342000DEB79A8389834B835C836D837E8340E020
:1034300061E080E40E94E70C9093CB1A8093CA1A53
:1034400040E061E088E00E94E70C9093C71A809307
:10345000C61A85ED90E0FC01108284ED90E028E032
:10346000FC01208381ED90E028E1FC01208382EDC6
:1034700090E026E0FC01208380ED90E020ED30E03C
:10348000F90120812D7FFC01208326960FB6F89448
:10349000DEBF0FBECDBFDF91CF910895CF93DF93F5
:1034A0001F92CDB7DEB78983000080ED90E0FC016C
:1034B0008081882F90E0807299270097B1F386ED84
:1034C00090E02981FC0120830F90DF91CF91089536
:1034D000CF93DF931F92CDB7DEB78983000080ECD6
:1034E00090E0FC018081882F90E0807299270097FE
:1034F000B1F386EC90E02981FC0120830F90DF91ED
:10350000CF910895CF93DF93CDB7DEB7000080ED64
:1035100090E0FC0180818823D4F786ED90E0FC01E7
:103520008081DF91CF9108951F920F9200905F00EC
:103530000F92112400905B000F928F939F93EF9353
:10354000FF93CF93DF931F92CDB7DEB78EEC90E061
:10355000FC01808189830F90DF91CF91FF91EF91E2
:103560009F918F910F9000925B000F9000925F00EF
:103570000F901F901895CF93DF931F92CDB7DEB7B2
:1035800089838091CA1A9091CB1A20E04FEF5FEFA8
:10359000BE016F5F7F4F0E949E0D0F90DF91CF9114
:1035A0000895CF93DF931F921F92CDB7DEB79A8312
:1035B00089830BC089819A81FC0180810E94BB1A9A
:1035C00089819A8101969A83898389819A81FC01F4
:1035D0008081882379F70F900F90DF91CF91089524
:1035E000CF93DF9300D0CDB7DEB79B838A838091E2
:1035F000CA1A9091CB1A20E04FEF5FEFBE016F5FC8
:103600007F4F0E949B0E000088EC90E0FC018081BF
:10361000882F90E0807299270097B1F38EEC90E0AC
:103620002981FC012083E3CFCF93DF931F92CDB795
:10363000DEB789838091C81A9091C91A20E04FEFB4
:103640005FEFBE016F5F7F4F0E949E0D0F90DF9175
:10365000CF910895CF93DF931F921F92CDB7DEB71E
:103660009A8389830BC089819A81FC0180810E94A1
:10367000141B89819A8101969A83898389819A8111
:10368000FC018081882379F70F900F90DF91CF9113
:103690000895CF93DF9300D0CDB7DEB79B838A83A5
:1036A0008091C81A9091C91A20E04FEF5FEFBE01D8
:1036B0006F5F7F4F0E949B0E000080EC90E0FC014A
:1036C0008081882F90E0807299270097B1F386EC73
:1036D00090E02981FC012083E3CFCF93DF931F92F9
:1036E000CDB7DEB78091C61A9091C71A20E041E0AD
:1036F00050E0BE016F5F7F4F0E949B0E813011F43E
:10370000898101C08FEF0F90DF91CF910895CF9302
:10371000DF9300D01F92CDB7DEB79C838B831A82D4
:10372000198205C089819A8101969A8389832981AA
:103730003A818B819C8128173907A4F30F900F9051
:103740000F900F90DF91CF910895CF93DF93CDB776
:10375000DEB780E80E944E1ADF91CF910895CF9393
:10376000DF93CDB7DEB780E00E944E1ADF91CF9194
:103770000895CF93DF93CDB7DEB72D970FB6F894AA
:10378000DEBF0FBECDBF9B878A877D876C871A827D
:1037900019821C821B8283E090E098878F836DC022
:1037A0002EC082E390E09E838D8310C08D819E8128
:1037B00001979E838D838D819E81009719F48FEFF1
:1037C0009FEF65C081E090E00E946F0480ED90E083
:1037D000FC018081882354F786ED90E0FC01808114
:1037E000898789819A812C853D85820F931F298540
:1037F000FC01208389819A8101969A83898329819A
:103800003A818A859B85281739075CF282E390E02C
:103810009E838D8310C08D819E8101979E838D83B1
:103820008D819E81009719F48FEF9FEF30C081E06A
:1038300090E00E946F0480ED90E0FC01808188237D
:1038400054F786ED90E0FC01808189872A858C857C
:103850009D85622F0E94901D982F8985981741F0B1
:103860000E94AF1B8B819C8101969C838B8305C03A
:103870000E94A51B80E090E00AC02B813C818F81D3
:103880009885281739070CF48BCF8FEF9FEF2D9673
:103890000FB6F894DEBF0FBECDBFDF91CF91089574
:1038A000CF93DF93CDB7DEB7CC55D1090FB6F894DF
:1038B000DEBF0FBECDBF9E01255A3F4FF901918358
:1038C000808384E290E02FEFFC01208319828EE157
:1038D00090E09B838A832DC012C08A819B810197CF
:1038E0009B838A838A819B81009729F419828EE1C8
:1038F00090E09B838A8381E090E00E946F0480EDDA
:1039000090E0FC018081882344F786ED90E0FC0183
:1039100080818C838981992787FD90959E012A5FFC
:103920003F4F820F931F2C81FC01208389818F5F81
:1039300089838981843084F2CE01069663E00E94F7
:10394000901D982F8985981721F00E94AF1B19822E
:1039500029C00E94A51B19828E818E8B8F818F8B2F
:1039600088858D838D81882381F08D81882F90E0DB
:103970009E012A5E3F4F2D5F3F4FB9010E94B91B48
:103980008F3FFFEF9F0709F40DC09E01275C3F4F5B
:10399000CE014696B9010E945F1FCE01C9960E94D2
:1039A000D31C94CF93CFCF93DF93CDB7DEB72897B7
:1039B0000FB6F894DEBF0FBECDBF98878F8382E32A
:1039C00090E09C838B838F819885FC0180810E948D
:1039D0004E1A81E090E00E946F048F819885FC016F
:1039E00081810E944E1A81E090E00E946F048F81D5
:1039F0009885FC0180818D838F819885FC01818170
:103A00008E83CE01059662E00E94901D0E944E1AA0
:103A10000E94661D992787FD9095009759F0813087
:103A20009105A9F08F3FFFEF9F0709F0CCCF8FEFF3
:103A30009FEF43C08B819C8101979C838B838B81FB
:103A40009C81009719F48FEF9FEF37C0BCCF000027
:103A50001A82198214C02F81388589819A81820F38
:103A6000931F0296FC0180810E944E1A81E090E033
:103A70000E946F0489819A8101969A8389838F813C
:103A80009885FC018181282F332727FD3095898176
:103A90009A8182179307FCF28F819885FC018181BE
:103AA000282F8F8198850296622F0E94901D0E9478
:103AB0004E1A0E94661D80E090E028960FB6F8949A
:103AC000DEBF0FBECDBFDF91CF910895CF93DF93BF
:103AD0001F921F92CDB7DEB788E893E19A8389835E
:103AE0000BC089819A8101979A83898389819A8100
:103AF000009711F48FEF0FC080ED90E0FC01808102
:103B000088237CF786ED90E0FC018081803811F4F9
:103B100081E001C080E00F900F90DF91CF91089578
:103B2000CF93DF9300D000D0CDB7DEB79D838C83D9
:103B30006E8319821B821A8211C08C819D819C0127
:103B40002F5F3F4F3D832C83FC0180819981890F3A
:103B500089838A819B8101969B838A838E81282F0A
:103B600030E08A819B81821793073CF389812696F6
:103B70000FB6F894DEBF0FBECDBFDF91CF91089591
:103B8000CF93DF931F921F92CDB7DEB79A838983BD
:103B900081E00F900F90DF91CF910895CF93DF9345
:103BA000CDB7DEB727970FB6F894DEBF0FBECDBFF7
:103BB00089837B836A835D834C833F832E838981E2
:103BC000992787FD90958230910581F0833091058A
:103BD000C1F08130910501F58E819F810E945721AE
:103BE0008C819D812CE0FC01208316C08A819B8101
:103BF000FC0120818E819F81BC01822F0E94822145
:103C00000BC08A819B81FC0120818E819F81BC0138
:103C1000822F0E94AD21000081E027960FB6F89414
:103C2000DEBF0FBECDBFDF91CF910895CF93DF935D
:103C300000D01F921F92CDB7DEB789837B836A8342
:103C40005D834C838981992787FD9095009721F0AA
:103C50008130910531F00FC08C819D810E945522E9
:103C60000AC08A819B81FC018081992787FD9095FC
:103C70000E946722000081E00F900F900F900F903C
:103C80000F90DF91CF910895CF93DF9300D01F92D3
:103C90001F92CDB7DEB789837B836A835D834C83B4
:103CA0008981992787FD909582309105F9F08330BD
:103CB000910534F4009759F08130910591F04CC092
:103CC00083309105C1F08430910591F145C08A811E
:103CD0009B81FC018081992787FD90950E9472222B
:103CE0003BC08C819D810E947D2236C08C819D814C
:103CF0000E948F2231C08A819B810296FC018081C3
:103D0000482F552747FD50958A819B810196FC01DC
:103D10008081282F332727FD30958A819B81FC01E4
:103D20008081992787FD9095B9010E94A12214C036
:103D30008A819B810196FC018081282F332727FDF2
:103D400030958A819B81FC018081992787FD909520
:103D5000B9010E94B022000081E00F900F900F90F7
:103D60000F900F90DF91CF910895CF93DF9300D004
:103D70001F921F92CDB7DEB789837B836A835D83F1
:103D80004C838981992787FD9095009721F0813098
:103D9000910559F00FC08A819B81FC018081992790
:103DA00087FD90950E94FC1F05C08C819D810E941B
:103DB000072000000F900F900F900F900F90DF9151
:103DC000CF910895CF93DF9300D01F921F92CDB76C
:103DD000DEB789837B836A835D834C8389819927DE
:103DE00087FD9095009721F08130910559F00FC023
:103DF0008A819B81FC018081992787FD90950E9493
:103E0000DF1F05C08C819D810E94EA1F00000F907A
:103E10000F900F900F900F90DF91CF910895CF9357
:103E2000DF9300D01F921F92CDB7DEB789837B83CB
:103E30006A835D834C838981992787FD90950097DC
:103E400021F08130910531F00AC08C819D810E9462
:103E5000BB1F05C08C819D810E94CD1F00000F906B
:103E60000F900F900F900F90DF91CF910895CF9307
:103E7000DF9300D01F921F92CDB7DEB789837B837B
:103E80006A835D834C838C819D81FC0111828981D1
:103E9000992787FD9095009751F48A819B81FC01B9
:103EA0008081992787FD90950E94192000000F902E
:103EB0000F900F900F900F90DF91CF910895CF93B7
:103EC000DF9300D01F92CDB7DEB79A8389837C83BE
:103ED0006B8389819A81DC0111962C918B819C8165
:103EE000FC01208389819A81DC018C91992787FDCF
:103EF0009095AA2797FDA095BA2F41E050E027E0C2
:103F000030E0841B950B2817390768F18E589F4FB6
:103F1000FC010C94CC238B819C819C012E5F3F4F34
:103F20008B819C81AC014F5F5F4F89819A810396A1
:103F300069817A81DB011196EC91BC018E2F0E9480
:103F4000CE1D11C089819A81039629813A81D901B8
:103F50001196EC912B813C81A901BC018E2F0E940E
:103F6000371F01C0000081E00F900F900F900F905D
:103F7000DF91CF910895CF93DF931F921F92CDB71A
:103F8000DEB79A83898389819A81FC01108281E05E
:103F90000F900F90DF91CF910895CF93DF931F92F1
:103FA0001F92CDB7DEB79A83898389819A81FC01FC
:103FB000108281E00F900F90DF91CF910895CF9301
:103FC000DF931F92CDB7DEB7898381E00F90DF9139
:103FD000CF910895CF93DF931F921F92CDB7DEB795
:103FE0009A83898389819A81FC01108281E00F90F4
:103FF0000F90DF91CF910895CF93DF931F92CDB7AC
:10400000DEB7898381E00F90DF91CF910895CF9340
:10401000DF931F921F92CDB7DEB79A838983898180
:104020009A81FC01108281E00F900F90DF91CF9177
:104030000895CF93DF931F92CDB7DEB7898389812F
:10404000813051F485E290E025E230E0F9012081F1
:104050002068FC01208309C085E290E025E230E081
:10406000F90120812F77FC01208381E00F90DF91FF
:10407000CF910895CF93DF9300D0CDB7DEB79A8369
:1040800089836B8389819A818453954E2B81FC01AE
:1040900020830F900F900F90DF91CF910895CF93D1
:1040A000DF931F921F92CDB7DEB79A8389838981F0
:1040B0008E5F0F900F90DF91CF910895CF93DF9394
:1040C000CDB7DEB786E490E0FC018081DF91CF912F
:1040D00008951F920F9200905F000F92112400909C
:1040E0005B000F922F933F934F935F936F937F9358
:1040F0008F939F93AF93BF93EF93FF93CF93DF93F0
:1041000000D0CDB7DEB7198286E091E0FC01808156
:10411000882F90E02091E01A222F30E0022E02C07A
:10412000959587950A94E2F781709927009749F051
:104130000E945E208A838EE290E02FEFFC012083B4
:104140001DC00E945E208B839B818A81891738F471
:104150009B818A81F92FF81B8F2F8093C31A8EE2DF
:1041600090E0FC0110828091D21A9091D31A20E045
:1041700040E050E060E070E00E94420E0F900F902F
:104180000F90DF91CF91FF91EF91BF91AF919F91F0
:104190008F917F916F915F914F913F912F910F90F0
:1041A00000925B000F9000925F000F901F90189597
:1041B000CF93DF93CDB7DEB78DE790E0FC0110829F
:1041C00087E091E0FC01108287E290E0FC01108220
:1041D00088E290E0FC0110828DE690E02FEFFC0178
:1041E000208388E690E027E0FC01208384E490E0CF
:1041F000FC01108285E490E025E0FC012083DF9142
:10420000CF910895CF93DF9300D01F92CDB7DEB743
:104210009C838B830E94D82043E060E081E00E9471
:10422000E70C9093D31A8093D21A8091D21A90916E
:10423000D31A009759F08091D21A9091D31A20E0A6
:1042400040E050E060E070E00E949E0D1092E01AA5
:104250001A82198226C089818093E01A88E290E050
:1042600021E030E0098002C0220F331F0A94E2F7F8
:10427000FC0120838091D21A9091D31A20E04FEF55
:104280005FEF60E070E00E949B0E2091C31A89816D
:104290009A81622F0E943A2089819A8101969A839D
:1042A000898389819A8182309105ACF2D1CFCF93F5
:1042B000DF9300D01F92CDB7DEB79C838B831A8229
:1042C000198214C089819A81880F991F2B813C81A2
:1042D000820F931F29813A812F5F3F4FFC01318369
:1042E000208389819A8101969A83898389819A8121
:1042F0008630910538F30F900F900F900F90DF915B
:10430000CF9108950F931F93CF93DF9300D0CDB734
:10431000DEB789837B836A8389818630B4F489819F
:10432000992787FD9095880F991F2A813B818901E4
:10433000080F191F8981992787FD90950E944F20AA
:10434000882F90E0F801918380830F900F900F9059
:10435000DF91CF911F910F9108950F931F93CF93EA
:10436000DF9300D0CDB7DEB789837B836A838981F1
:10437000992787FD90958130910501F18230910553
:10438000B9F1009709F04EC080E090E00E944F2004
:10439000282F30E08A819B81FC01318320838A8130
:1043A0009B818C010E5F1F4F81E090E00E944F20A7
:1043B000882F90E0F8019183808334C082E090E000
:1043C0000E944F20282F30E08A819B81FC0131839D
:1043D00020838A819B818C010E5F1F4F83E090E0D8
:1043E0000E944F20882F90E0F801918380831AC0AB
:1043F00084E090E00E944F20282F30E08A819B814A
:10440000FC01318320838A819B818C010E5F1F4FC9
:1044100085E090E00E944F20882F90E0F801918382
:10442000808300000F900F900F90DF91CF911F912C
:104430000F910895CF93DF93CDB7DEB78FE090E46F
:104440000E947423DF91CF910895CF93DF9300D022
:104450001F92CDB7DEB79C838B831A8219828B8122
:104460009C8199279A83898389819A810E947423E8
:104470000F900F900F900F90DF91CF910895CF93F1
:10448000DF93CDB7DEB786E090E00E942E23DF9168
:10449000CF910895CF93DF93CDB7DEB78AE090E058
:1044A0000E942E23DF91CF910895CF93DF931F9227
:1044B0001F92CDB7DEB79A83898389819A81FC01E7
:1044C000108281E00F900F90DF91CF910895CF93EC
:1044D000DF931F92CDB7DEB7898381E00F90DF9124
:1044E000CF910895CF93DF931F92CDB7DEB7898325
:1044F00081E00F90DF91CF910895CF93DF931F92CA
:104500001F92CDB7DEB79A83898389819A81FC0196
:10451000108281E00F900F90DF91CF910895CF939B
:10452000DF931F921F92CDB7DEB79A83898389816B
:104530009A81FC01108281E00F900F90DF91CF9162
:104540000895CF93DF9300D0CDB7DEB789836A8318
:104550004B8381E00F900F900F90DF91CF910895E2
:10456000CF93DF931F921F92CDB7DEB789836A8303
:1045700081E00F900F90DF91CF910895CF93DF935B
:10458000CDB7DEB78CE490E023E5FC01208384E224
:1045900090E024E230E0F9012081622F40E050E019
:1045A00021E030E002C0220F331F4A95E2F7722F5C
:1045B00041E050E021E030E002C0220F331F4A9575
:1045C000E2F7722B42E050E021E030E002C0220F1F
:1045D000331F4A95E2F7272B262BFC01208384E228
:1045E00090E024E230E0F9012081622F43E050E0C6
:1045F00021E030E002C0220F331F4A95E2F72095F8
:104600002623FC01208385E290E025E230E0F901D9
:104610002081622F40E050E021E030E002C0220F14
:10462000331F4A95E2F7262BFC01208385E290E0B8
:1046300025E230E0F9012081622F41E050E021E0E5
:1046400030E0042E02C0220F331F0A94E2F72095B7
:104650002623FC012083DF91CF910895CF93DF9330
:104660001F92CDB7DEB7898385E290E025E230E086
:10467000F9012081622F40E050E021E030E002C0EB
:10468000220F331F4A95E2F720952623FC01208351
:1046900081E090E00E946F048EE490E02981FC01AB
:1046A000208300008DE490E0FC0180818823D4F712
:1046B00081E090E00E946F0485E290E025E230E026
:1046C000F9012081622F40E050E021E030E0042E2B
:1046D00002C0220F331F0A94E2F7262BFC0120832D
:1046E0000F90DF91CF910895CF93DF931F921F9288
:1046F000CDB7DEB79A83898385E290E025E230E08A
:10470000F9012081622F40E050E021E030E002C05A
:10471000220F331F4A95E2F720952623FC012083C0
:1047200082E090E00E946F048EE490E029813A815B
:10473000232F3327FC01208300008DE490E0FC014F
:1047400080818823D4F78EE490E02981FC012083C6
:1047500000008DE490E0FC0180818823D4F782E0A2
:1047600090E00E946F0485E290E025E230E0F901DC
:104770002081622F40E050E021E030E0042E02C0B2
:10478000220F331F0A94E2F7262BFC0120830F909F
:104790000F90DF91CF910895EE0FFF1F0590F491D8
:1047A000E02D1994FB01DC0102C001900D924150F3
:1047B0005040D8F70895DC0101C06D93415050403E
:1047C000E0F70895FB01DC014150504048F00190B2
:1047D0000D920020C9F701C01D9241505040E0F7F2
:1047E0000895FB019F01E8944230C4F04532B4F4CF
:1047F0004A3029F497FB1EF4909581959F4F642FC2
:1048000077270E942224805D8A330CF0895D819392
:10481000CB010097A1F716F45DE251931082C90114
:104820000C941224DC01FC01672F71917723E1F7CE
:10483000329704C07C916D9370836291AE17BF076D
:10484000C8F30895AA1BBB1B51E107C0AA1FBB1FD9
:10485000A617B70710F0A61BB70B881F991F5A950C
:10486000A9F780959095BC01CD010895F894FFCFEC
:10487000FFFF5430005431005432005433003031C3
:10488000323334353637383941424344454649445A
:0C4890004C450002000300010000000085
:00000001FF
