:100000000C9472000C9493000C9493000C94930045
:100010000C9493000C9493000C9493000C94930014
:100020000C9493000C9493000C9493000C94A01DDA
:100030000C9493000C9493000C9493000C949300F4
:100040000C9493000C9493000C9493000C949300E4
:100050000C9493000C9493000C9493000C949300D4
:100060000C9493000C9493000C9493000C949300C4
:100070000C9493000C9493000C9493000C949300B4
:100080000C9428180C9493000C9493000C949300F7
:100090000C94A5180C9493000C9493000C9493006A
:1000A0000C9493000C9493000C9493000C94930084
:1000B0000C9493000C9493000C9493000C94930074
:1000C0000C9493000C9493000C94F2010C94930004
:1000D0000C9493000C9493000C9493000C94930054
:1000E0000C94930011241FBECFEFD1E2DEBFCDBF31
:1000F00000E00CBF12E0A0E0B2E0EAE3F0E400E0D0
:100100000BBF02C007900D92A432B107D9F71AE1D4
:10011000A4E2B2E001C01D92A93DB107E1F70E943F
:10012000AC000C941B200C940000DF93CF93CDB750
:10013000DEB78091240290912502019690932502CA
:1001400080932402CF91DF910895DF93CF93CDB7B1
:10015000DEB7CF91DF910895AF92BF92CF92DF9239
:10016000EF92FF920F93DF93CF9300D000D0CDB7E3
:10017000DEB78FE38D838EEF8E83CE0105969C8351
:100180008B83CE01059601969A838983EAE2F0E09B
:100190008FEF8083EDE2F0E08FEF8083E4E2F0E028
:1001A0008FEF8083E7E0F1E01082EBE2F0E0108275
:1001B000EEE2F0E01082E8E0F1E082E080830E946D
:1001C0003C028BE292E020E032E0E981FA81B90161
:1001D0004DE354E09F0101E0EE24FF24CC24DD2414
:1001E000AA24BB240E944A0289E39EE123E032E074
:1001F000E981FA81B9014DE354E09F0101E0EE2469
:10020000FF24CC24DD24AA24BB240E944A0289E0D6
:1002100099E126E032E0E981FA81B9014DE354E049
:100220009F0101E0EE24FF24CC24DD24AA24BB247A
:100230000E944A0281EA99E129E032E0E981FA81EB
:10024000B9014DE354E09F0101E0EE24FF24CC24EA
:10025000DD24AA24BB240E944A020E943F0580E0BC
:1002600090E026960FB6F894DEBF0FBECDBFCF91BB
:10027000DF910F91FF90EF90DF90CF90BF90AF9004
:100280000895DF93CF93CDB7DEB767970FB6F89495
:10029000DEBF0FBECDBF9A8B898BCE0101969C8BA2
:1002A0008B8BECE0F2E0FE8BED8BF0E1FF8BED89C8
:1002B000FE8900808D899E8901969E8B8D8BEB89AE
:1002C000FC8900828B899C8901969C8B8B8B9F89F2
:1002D00091509F8BEF89EE2351F789899A899C0170
:1002E000232F332722952F70CE010196FC01E20FB8
:1002F000F31F80810E94681889899A8980709F7095
:10030000292F332727FD3A95CE010196FC01E20FF4
:10031000F31F80810E94681889899A89807F907074
:100320009C013595279535952795359527953595D4
:100330002795CE010196FC01E20FF31F80810E94F8
:10034000681889899A899C012F703070CE010196B6
:10035000FC01E20FF31F80810E94681867960FB6B8
:10036000F894DEBF0FBECDBFCF91DF910895DF932C
:10037000CF93CDB7DEB72D970FB6F894DEBF0FBE83
:10038000CDBF8D87CE01039660E070E04AE050E07B
:100390000E94C01F8D85882F90E09E012D5F3F4FEA
:1003A000B9014AE050E00E94D61FCE0103969A831D
:1003B00089830AC0E981FA8180810E94D5188981E8
:1003C0009A8101969A838983E981FA8180818823C1
:1003D00089F72D960FB6F894DEBF0FBECDBFCF9133
:1003E000DF9108951F920F920FB60F9200905B005D
:1003F0000F9211248F93AF93BF93EF93FF93DF93EB
:10040000CF93CDB7DEB7A5E2B0E0E5E2F0E08081C2
:1004100080958C93E4E9F0E01082E5E9F0E0108249
:10042000CF91DF91FF91EF91BF91AF918F910F909D
:1004300000925B000F900FBE0F901F901895DF93F6
:10044000CF93CDB7DEB7E6E4F0E08081882F90E06F
:10045000CF91DF910895DF93CF930F920F92CDB795
:10046000DEB79A83898380E895E240E054E264EF46
:1004700070E00E942B18FFCFDF93CF93CDB7DEB78C
:10048000E4E2F0E08FEF8083E5E2F0E01082CF91CC
:10049000DF910895AF92BF92CF92DF92EF92FF92D9
:1004A0000F931F93DF93CF93CDB7DEB764970FB64B
:1004B000F894DEBF0FBECDBF9F838E837987688798
:1004C0005B874A873D872C870E87F88AEF86DA8A12
:1004D000C98ABC8AAB8A8A859B8529893A89B901F0
:1004E0000E94D9099C838B838B819C81009709F49E
:1004F00099C0EB81FC812789308D8A859B85019786
:10050000820F931F9A8389838B819C8128853985EB
:10051000EB89FC89AA85BB85B9014E859F018D01B8
:100520000E94F00889819A812E813F814C855D85EA
:10053000B9010E942E15EB81FC81918380838F8508
:100540009889009731F0EF85F8898B819C819183A0
:1005500080830FB6F8940F92809128028F5F80936A
:1005600028028091260290912702009769F48B81DE
:100570009C819093270280932602809128028130EB
:10058000A9F40E944B0912C080912D02882371F4B6
:10059000E0912602F091270296898E85891730F026
:1005A0008B819C819093270280932602EB81FC81B2
:1005B000968980912B02891728F4EB81FC8186892A
:1005C00080932B02809132028F5F80933202EB8105
:1005D000FC81968980912C02891728F4EB81FC819B
:1005E000868980932C02EB81FC818689282F30E05C
:1005F000C901880F991F880F991F880F991F820FB3
:10060000931FAC014D5C5D4F8B819C819C012E5FE3
:100610003F4FCA01B9010E94E51081E08D830F9020
:100620000FBE02C08FEF8D838D81813071F4809178
:100630002D02882351F0E0912602F091270296893D
:100640008E85981710F40E9409178D8164960FB655
:10065000F894DEBF0FBECDBFCF91DF911F910F91F8
:10066000FF90EF90DF90CF90BF90AF900895DF9311
:10067000CF93CDB7DEB728970FB6F894DEBF0FBE85
:10068000CDBF9E838D8378876F8319820E948205F8
:10069000ED81FE81208131818F819885820F931FAA
:1006A0009C838B83ED81FE812081318180912902A1
:1006B00090912A0282179307A8F4ED81FE81208190
:1006C00031818B819C818217930700F5209129024B
:1006D00030912A028B819C8128173907B8F481E078
:1006E000898314C0ED81FE81208131818B819C81C1
:1006F0008217930748F02091290230912A028B81BA
:100700009C812817390710F481E08983ED81FE81EF
:100710008B819C81918380838981882359F080918A
:1007200026029091270202960E949C118B819C8147
:100730000E948F090E948E058A838A81882311F482
:100740000E94091728960FB6F894DEBF0FBECDBFE2
:10075000CF91DF910895DF93CF9300D00F920F9246
:10076000CDB7DEB79D838C8319828C819D810097E4
:10077000D1F00E9482052091290230912A028C81B9
:100780009D81820F931F9B838A8380912602909183
:10079000270202960E949C118A819B810E948F09E8
:1007A0000E948E0589838981882311F40E9409178C
:1007B0000F900F900F900F900F90CF91DF910895B1
:1007C000DF93CF9300D000D0CDB7DEB79C838B836F
:1007D0000FB6F8940F9220912602309127028B8158
:1007E0009C818217930711F41C821B828B819C8150
:1007F000009739F480912602909127029E838D8381
:1008000004C08B819C819E838D838D819E819A8380
:10081000898389819A8102960E949C11E981FA81DB
:1008200084899589009729F089819A810C960E9484
:100830009C1189819A819C012E5F3F4F86E792E04F
:10084000B9010E94E5100F900FBE8B819C8100972B
:10085000A1F480912D02882319F00E9409170DC080
:100860009091760280912802981729F4109227021D
:100870001092260202C00E94210726960FB6F89415
:10088000DEBF0FBECDBFCF91DF910895DF93CF9331
:1008900000D00F920F92CDB7DEB79D838C831B8261
:1008A0008C819D819A838983E981FA8182859385F0
:1008B00022E08637920781F4E981FA81848995895B
:1008C00022E08D36920741F0E981FA818489958989
:1008D000009711F481E08B838B810F900F900F9024
:1008E0000F900F90CF91DF910895DF93CF9300D0B9
:1008F0000F92CDB7DEB79C838B838B819C819A83CB
:10090000898389819A81009709F44CC0209126023D
:100910003091270289819A818217930709F442C096
:100920000FB6F8940F9289819A810E944604813013
:10093000B9F589819A8102960E949C11E981FA8118
:10094000968980912C02891728F4E981FA81868999
:1009500080932C02E981FA818689282F30E0C90131
:10096000880F991F880F991F880F991F820F931F57
:10097000AC014D5C5D4F89819A819C012E5F3F4F98
:10098000CA01B9010E94E510E981FA819689E091D6
:100990002602F09127028689981710F00E94091705
:1009A0000F900FBE0F900F900F900F90CF91DF918F
:1009B0000895DF93CF9300D000D0CDB7DEB79E83EC
:1009C0008D831C828D819E819B838A8319828A817B
:1009D0009B810E944604813009F047C080912E021D
:1009E0008823C9F5EA81FB819689E0912602F0917E
:1009F000270286891C82981710F081E08C838A81F7
:100A00009B8102960E949C11EA81FB8196898091CC
:100A10002C02891728F4EA81FB81868980932C02B5
:100A2000EA81FB818689282F30E0C901880F991F50
:100A3000880F991F880F991F820F931FAC014D5C7F
:100A40005D4F8A819B819C012E5F3F4FCA01B90196
:100A50000E94E5100AC08A819B819C01245F3F4F60
:100A60008DE692E0B9010E94E5108C8126960FB6C2
:100A7000F894DEBF0FBECDBFCF91DF910895AF9246
:100A8000BF92CF92DF92EF92FF920F93DF93CF93BB
:100A90000F92CDB7DEB78FED98E02EE132E0B901CD
:100AA00045E550E020E030E000E0EE24FF24CC24D7
:100AB000DD24AA24BB240E944A02898389818130D3
:100AC00051F4F89481E080932D0210922A02109242
:100AD00029020E94C9160F90CF91DF910F91FF90CC
:100AE000EF90DF90CF90BF90AF900895DF93CF93BA
:100AF000CDB7DEB7F89410922D020E940217CF9165
:100B0000DF910895DF93CF93CDB7DEB780912E02AA
:100B10008F5F80932E02CF91DF910895DF93CF9363
:100B200000D00F92CDB7DEB71A820FB6F8940F92AD
:100B300080912E02815080932E0280912E02882374
:100B400009F06CC080912802882309F467C01982DB
:100B500041C0E0917202F0917302868197819C837B
:100B60008B838B819C810C960E949C118B819C8134
:100B700002960E949C11EB81FC81968980912C0247
:100B8000891728F4EB81FC81868980932C02EB8104
:100B9000FC818689282F30E0C901880F991F880FB2
:100BA000991F880F991F820F931F8D5C9D4F2B817A
:100BB0003C812E5F3F4FB9010E94E510EB81FC8123
:100BC0009689E0912602F09127028689981710F005
:100BD00081E0898380916D02882309F0BACF8091EA
:100BE0002F02882371F007C00E944D0680912F02CA
:100BF000815080932F0280912F028823A9F781E0F2
:100C000089838981813021F080913002813031F4F3
:100C100081E08A83109230020E9409170F900FBE64
:100C20008A810F900F900F900F90CF91DF910895D0
:100C3000DF93CF930F920F92CDB7DEB70FB6F89434
:100C40000F928091290290912A029A8389830F90B2
:100C50000FBE89819A810F900F90CF91DF910895F7
:100C6000DF93CF9300D0CDB7DEB7198280912902F0
:100C700090912A029B838A838A819B810F900F9097
:100C80000F90CF91DF910895DF93CF93CDB7DEB76B
:100C900080912802CF91DF910895DF93CF9300D008
:100CA00000D0CDB7DEB780912E02882309F0BBC0FB
:100CB0008091290290912A02019690932A028093B2
:100CC00029028091290290912A020097D1F5809102
:100CD000690290916A029C838B8380916B02909150
:100CE0006C0290936A02809369028B819C8190933D
:100CF0006C0280936B02809131028F5F809331028E
:100D0000E0916902F0916A028081882339F48FEFC3
:100D10009FEF90931D0280931C0213C0E091690223
:100D2000F0916A020580F681E02D868197819E838D
:100D30008D83ED81FE818281938190931D0280934A
:100D40001C022091290230912A0280911C0290916C
:100D50001D022817390708F46BC0E0916902F09171
:100D60006A028081882339F48FEF9FEF90931D02F0
:100D700080931C025DC0E0916902F0916A020580D7
:100D8000F681E02D868197819E838D83ED81FE81A2
:100D9000828193819A8389832091290230912A024A
:100DA00089819A812817390738F489819A8190932B
:100DB0001D0280931C023CC08D819E8102960E9480
:100DC0009C11ED81FE8184899589009729F08D81A0
:100DD0009E810C960E949C11ED81FE8196898091E6
:100DE0002C02891728F4ED81FE81868980932C02DC
:100DF000ED81FE818689282F30E0C901880F991F77
:100E0000880F991F880F991F820F931FAC014D5CAB
:100E10005D4F8D819E819C012E5F3F4FCA01B901BC
:100E20000E94E5109ACF80912F028F5F80932F024E
:100E300026960FB6F894DEBF0FBECDBFCF91DF91DF
:100E40000895DF93CF930F920F92CDB7DEB78091C5
:100E50002E02882321F081E08093300270C0E0915F
:100E60002602F091270220813181E0912602F09143
:100E700027028789908D8217930790F08091260230
:100E8000909127022091260230912702275E3F4F42
:100E9000B9010E94A50080912C02815080932C0200
:100EA00080912C02282F30E0C901880F991F880FEC
:100EB000991F880F991F820F931FFC01ED5CFD4F56
:100EC0008081882341F380912C02282F30E0C901D2
:100ED000880F991F880F991F880F991F820F931FE2
:100EE0008D5C9D4F9A838983E981FA810180F2812B
:100EF000E02D82819381E981FA8192838183E98166
:100F0000FA812181328189819A81039628173907D4
:100F100059F4E981FA810180F281E02D8281938187
:100F2000E981FA8192838183E981FA810180F281EA
:100F3000E02D8681978190932702809326020F905F
:100F40000F90CF91DF910895DF93CF9300D000D021
:100F5000CDB7DEB79C838B837E836D834B815C81B1
:100F600080912602909127029C01245F3F4FCA0185
:100F7000B9010E94301180912602909127020296B9
:100F80000E949C118D819E812FEF8F3F920769F403
:100F900080912602909127029C012E5F3F4F86E7A9
:100FA00092E0B9010E94E5100EC020912902309113
:100FB0002A028D819E81820F931F9A838983898162
:100FC0009A810E948F0926960FB6F894DEBF0FBE55
:100FD000CDBFCF91DF910895DF93CF9300D00F92D3
:100FE0000F92CDB7DEB79D838C83EC81FD810580A8
:100FF000F681E02D868197819B838A838A819B81FC
:101000000C960E949C1180912E02882361F58A81A2
:101010009B8102960E949C11EA81FB8196898091B6
:101020002C02891728F4EA81FB81868980932C029F
:10103000EA81FB818689282F30E0C901880F991F3A
:10104000880F991F880F991F820F931FAC014D5C69
:101050005D4F8A819B819C012E5F3F4FCA01B90180
:101060000E94E5100AC08A819B819C01245F3F4F4A
:101070008DE692E0B9010E94E510EA81FB81968934
:10108000E0912602F09127028689981718F081E0F6
:10109000898301C0198289810F900F900F900F9062
:1010A0000F90CF91DF910895DF93CF930F920F921E
:1010B000CDB7DEB79A83898380913102E981FA81C5
:1010C00080838091290290912A02E981FA8192839A
:1010D00081830F900F90CF91DF910895DF93CF938D
:1010E00000D00F920F92CDB7DEB79B838A837D83AA
:1010F0006C830FB6F8940F92EC81FD818081918111
:101100002FEF8F3F920711F4198244C0EA81FB81CF
:10111000908180913102981771F0EA81FB812181E1
:1011200032818091290290912A028217930718F048
:1011300081E089832FC02091290230912A02EA811F
:10114000FB8181819281281B390BEC81FD8180819B
:10115000918128173907E0F4EC81FD8140815181AC
:10116000EA81FB81218132818091290290912A02BA
:10117000B901681B790BCB01840F951FEC81FD81B0
:10118000918380838A819B810E945408198202C0C6
:1011900081E089830F900FBE89810F900F900F908F
:1011A0000F900F90CF91DF910895DF93CF93CDB73C
:1011B000DEB781E080933002CF91DF910895DF9315
:1011C000CF930F920F92CDB7DEB79A8389830E9497
:1011D0008809809133028230D0F30E940917F7CF3B
:1011E0000F931F93DF93CF93CDB7DEB729970FB639
:1011F000F894DEBF0FBECDBF9A8389837C836B8357
:101200004D833F832E831987088789819A81499668
:101210002B813C81B90140E150E00E94C71FE98168
:10122000FA8110A68D81843010F083E08D83E981EE
:10123000FA818D81868BE981FA818D8181A78981EF
:101240009A8102960E94D41089819A810C960E94FC
:10125000D410E981FA8189819A81918780878D8173
:10126000282F30E084E090E0821B930BE981FA8123
:1012700095878487E981FA8189819A81938B828B12
:1012800029960FB6F894DEBF0FBECDBFCF91DF9188
:101290001F910F910895DF93CF930F92CDB7DEB7D3
:1012A000198213C08981282F30E0C901880F991F46
:1012B000880F991F880F991F820F931F8D5C9D4F78
:1012C0000E94A91089818F5F89838981843050F3BE
:1012D00087E592E00E94A91080E692E00E94A910A2
:1012E0008DE692E00E94A91086E792E00E94A91084
:1012F00087E592E090936A028093690280E692E02B
:1013000090936C0280936B020F90CF91DF910895C0
:10131000DF93CF93CDB7DEB7CF91DF910895DF9301
:10132000CF930F920F92CDB7DEB79A838983E09166
:101330002602F091270289819A81938382832091EA
:10134000290230912A0289819A818217930770F4C9
:1013500080916B0290916C022091260230912702BD
:101360002E5F3F4FB9010E9430111EC040916902AB
:1013700050916A0280912602909127029C012E5F73
:101380003F4FCA01B9010E94301120911C023091D7
:101390001D0289819A818217930730F489819A818D
:1013A00090931D0280931C020F900F90CF91DF91BC
:1013B0000895DF93CF93CDB7DEB728970FB6F89493
:1013C000DEBF0FBECDBF9C838B837E836D838AE29D
:1013D00090E00E94C1149A83898389819A81009741
:1013E00069F18D819E81009739F48B819C810E94E7
:1013F000C11498878F8304C08D819E8198878F83C5
:10140000E981FA818F819885908F878BE981FA81B4
:101410008789908D009739F489819A810E940715F8
:101420001A8219820BC0E981FA818789908D2B81FC
:101430003C8165EA70E0A9010E94C01F89819A8100
:1014400028960FB6F894DEBF0FBECDBFCF91DF91C7
:101450000895DF93CF9300D00F92CDB7DEB79A8374
:1014600089831C821B820AC089819A8101969A8392
:1014700089838B819C8101969C838B83E981FA818E
:101480008081853A89F38B819C810F900F900F901A
:101490000F90CF91DF910895DF93CF93CDB7DEB753
:1014A00029970FB6F894DEBF0FBECDBF9F838E8302
:1014B0008E819F81009739F48091260290912702B6
:1014C0009987888704C08E819F81998788878885BE
:1014D00099859D838C83EC81FD818789908D9B8389
:1014E0008A838A819B810E94290A8983898129961E
:1014F0000FB6F894DEBF0FBECDBFCF91DF91089538
:10150000DF93CF930F920F92CDB7DEB78091260273
:10151000909127029A83898389819A810F900F90F5
:10152000CF91DF910895DF93CF9300D00F92CDB785
:10153000DEB79C838B838B819C819A8389838B818B
:101540009C81009709F46DC0E981FA819689E09148
:101550002602F09127028689981708F062C0E09170
:101560002602F09127028689282F30E084E090E05F
:10157000821B930BE981FA8195878487E981FA813F
:1015800042855385E981FA818689282F30E0C90197
:10159000880F991F880F991F880F991F820F931F1B
:1015A0008D5C9D4F48175907A1F589819A81029654
:1015B0000E949C11E0912602F09127028689E98120
:1015C000FA81868BE981FA81968980912C028917AC
:1015D00028F4E981FA81868980932C02E981FA81D5
:1015E0008689282F30E0C901880F991F880F991F1D
:1015F000880F991F820F931FAC014D5C5D4F89814D
:101600009A819C012E5F3F4FCA01B9010E94E510EB
:1016100008C0E0912602F09127028689E981FA81CB
:10162000868B0F900F900F900F90CF91DF910895C0
:10163000DF93CF9300D00F92CDB7DEB79C838B831F
:101640008B819C819A8389838B819C81009709F48B
:1016500047C0E981FA819689E981FA8181A59817C5
:1016600009F43EC089819A8102960E949C11E98109
:10167000FA8181A5E981FA81868BE981FA818689DF
:10168000282F30E084E090E0821B930BE981FA81FF
:1016900095878487E981FA81968980912C02891740
:1016A00028F4E981FA81868980932C02E981FA8104
:1016B0008689282F30E0C901880F991F880F991F4C
:1016C000880F991F820F931FAC014D5C5D4F89817C
:1016D0009A819C012E5F3F4FCA01B9010E94E5101B
:1016E0000F900F900F900F90CF91DF910895DF939F
:1016F000CF9300D0CDB7DEB79A8389836B830FB6C3
:10170000F8940F92E981FA8140815181E981FA814F
:10171000838D282F30E0E981FA81848D882F90E035
:10172000BC01269FC001279F900D369F900D11246C
:10173000840F951FE981FA8193838283E981FA817D
:10174000128EE981FA8180819181E981FA81958304
:101750008483E981FA8140815181E981FA81838D15
:10176000882F90E09C0121503040E981FA81848DDE
:10177000882F90E0BC01269FC001279F900D369FC7
:10178000900D1124840F951FE981FA819783868338
:10179000E981FA818FEF858FE981FA818FEF868F5A
:1017A0008B81882379F4E981FA8180858823A1F0EF
:1017B00089819A8108960E94EC07813069F40E9421
:1017C00009170AC089819A8108960E94A910898107
:1017D0009A8141960E94A9100F900FBE81E00F9050
:1017E0000F900F90CF91DF910895DF93CF93CDB7F6
:1017F000DEB729970FB6F894DEBF0FBECDBF8F833B
:10180000688749871A8219828F81882309F43FC02B
:101810008FE190E00E94C1149E838D838D819E8113
:101820000097A9F18F81282F30E08885882F90E0DC
:10183000AC01249FC001259F900D349F900D112471
:1018400001969C838B838B819C810E94C114ED81C6
:10185000FE8191838083ED81FE818081918100975B
:1018600091F0ED81FE818F81838FED81FE818885EE
:10187000848F8D819E8161E00E94770B8D819E8196
:101880009A83898304C08D819E810E940715898176
:101890009A8129960FB6F894DEBF0FBECDBFCF91C7
:1018A000DF910895DF93CF9300D0CDB7DEB78B8360
:1018B0008FE190E00E94C1149A83898389819A8183
:1018C0000097A9F1E981FA8113821282E981FA81F4
:1018D00011821082E981FA8115821482E981FA81EC
:1018E00017821682E981FA81128EE981FA8181E0FC
:1018F000838FE981FA81148EE981FA818FEF858FD8
:10190000E981FA818FEF868F89819A8108960E94FA
:10191000A91089819A8141960E94A91089819A8192
:1019200060E070E040E050E020E00E949F0C898180
:101930009A810F900F900F90CF91DF910895DF93D0
:10194000CF93CDB7DEB72C970FB6F894DEBF0FBE9E
:10195000CDBF9E838D8378876F835A8749872B8776
:1019600019820FB6F8940F92ED81FE81928DED8170
:10197000FE81838D9817D8F48D819E812F813885C3
:10198000B9014B850E94FE0EED81FE81818988237D
:1019900049F08D819E8141960E94EC07813011F4BF
:1019A0000E9409170F900FBE81E08C875CC089856B
:1019B0009A85009721F40F900FBE1C8654C0898130
:1019C000882331F4CE0102960E94540881E0898375
:1019D0000F900FBE0E9482050FB6F8940F92ED8112
:1019E000FE81858D8F3F19F4ED81FE81158EED818D
:1019F000FE81868D8F3F19F4ED81FE81168E0F904A
:101A00000FBECE0102969E01275F3F4FB9010E9493
:101A10006E08882309F58D819E810E9472108823AB
:101A2000A1F08D819E81089629853A85B9010E9491
:101A3000A4078D819E810E94EC0F0E948E05882351
:101A400009F08FCF0E9409178CCF8D819E810E9453
:101A5000EC0F0E948E0585CF8D819E810E94EC0F38
:101A60000E948E051C868C852C960FB6F894DEBFDE
:101A70000FBECDBFCF91DF910895DF93CF93CDB748
:101A8000DEB729970FB6F894DEBF0FBECDBF9C839B
:101A90008B837E836D8358874F8329871982EB81DF
:101AA000FC81928DEB81FC81838D981760F58B8191
:101AB0009C812D813E81B90149850E94FE0EEB81FA
:101AC000FC81868D8F3FA9F4EB81FC81818988237D
:101AD000B9F08B819C8141960E94EC07882381F0AC
:101AE0008F819885009761F0EF81F88581E0808390
:101AF00007C0EB81FC81868D8F5FEB81FC81868F37
:101B000081E08A8301C01A828A8129960FB6F894EF
:101B1000DEBF0FBECDBFCF91DF910895DF93CF938E
:101B2000CDB7DEB72E970FB6F894DEBF0FBECDBF90
:101B300098878F837A8769875C874B872D871B827D
:101B40000FB6F8940F92EF81F885828D882309F4FF
:101B50004BC0EF81F885868197819A8389838F8135
:101B6000988529853A85B9010E94A40F8D8588231F
:101B700011F5EF81F885828D8150EF81F885828F94
:101B8000EF81F88580819181009731F40E94800A6D
:101B9000EF81F88593838283EF81F88580858823A0
:101BA000F1F08F81988508960E94EC078130B9F496
:101BB0000E94091714C0EF81F88589819A81978363
:101BC0008683EF81F8858189882349F08F81988504
:101BD00041960E94EC07882311F00E9409170F908C
:101BE0000FBE81E08E876DC08B859C85009721F4A8
:101BF0000F900FBE1E8665C08B81882331F4CE0105
:101C000004960E94540881E08B830F900FBE0E94BF
:101C100082050FB6F8940F92EF81F885858D8F3F7E
:101C200019F4EF81F885158EEF81F885868D8F3F49
:101C300019F4EF81F885168E0F900FBECE01049631
:101C40009E01255F3F4FB9010E946E08882391F5E0
:101C50008F8198850E944110882329F1EF81F885B2
:101C600080819181009759F40FB6F8940F92EF811B
:101C7000F885828193810E94930A0F900FBE8F8115
:101C8000988541962B853C85B9010E94A4078F81D8
:101C900098850E94EC0F0E948E05882309F050CF92
:101CA0000E9409174DCF8F8198850E94EC0F0E94EA
:101CB0008E0546CF8F8198850E94EC0F0E948E057D
:101CC0001E868E852E960FB6F894DEBF0FBECDBF52
:101CD000CF91DF910895DF93CF93CDB7DEB72897EB
:101CE0000FB6F894DEBF0FBECDBF9C838B837E837F
:101CF0006D8358874F831982EB81FC81828D882305
:101D000091F18B819C812D813E81B9010E94A40FAC
:101D1000EB81FC81828D8150EB81FC81828FEB8194
:101D2000FC81858D8F3FA9F4EB81FC818085882320
:101D3000B9F08B819C8108960E94EC07882381F082
:101D40008F819885009761F0EF81F88581E080832D
:101D500007C0EB81FC81858D8F5FEB81FC81858FD6
:101D600081E08A8301C01A828A8128960FB6F8948E
:101D7000DEBF0FBECDBFCF91DF910895DF93CF932C
:101D800000D0CDB7DEB79B838A830FB6F8940F924D
:101D9000EA81FB81828D89830F900FBE89810F902C
:101DA0000F900F90CF91DF910895DF93CF9300D0E4
:101DB000CDB7DEB79B838A83EA81FB81828D8983DD
:101DC00089810F900F900F90CF91DF910895DF934D
:101DD000CF930F920F92CDB7DEB79A838983E981B3
:101DE000FA81808191810E94071589819A810E94E0
:101DF00007150F900F90CF91DF910895DF93CF9348
:101E000000D00F920F92CDB7DEB79A8389837C837F
:101E10006B834D83E981FA81848D882391F4E98174
:101E2000FA8180819181009709F07FC0E981FA8170
:101E3000828193810E94180BE981FA8113821282B8
:101E400074C08D81882399F5E981FA816481758157
:101E5000E981FA81848D482F50E02B813C81CB01B0
:101E6000B9010E94B71FE981FA8124813581E98196
:101E7000FA81848D882F90E0820F931FE981FA8187
:101E800095838483E981FA8124813581E981FA810E
:101E9000828193812817390708F447C0E981FA81C4
:101EA00080819181E981FA81958384833EC0E981B3
:101EB000FA8166817781E981FA81848D482F50E02B
:101EC0002B813C81CB01B9010E94B71FE981FA81C6
:101ED00026813781E981FA81848D882F90E0909561
:101EE00081959F4F820F931FE981FA8197838683A3
:101EF000E981FA8126813781E981FA8180819181A6
:101F00002817390790F4E981FA8122813381E98128
:101F1000FA81848D882F90E0909581959F4F820F54
:101F2000931FE981FA8197838683E981FA81828D03
:101F30008F5FE981FA81828F0F900F900F900F9041
:101F40000F90CF91DF910895DF93CF9300D00F9240
:101F5000CDB7DEB79A8389837C836B83E981FA816D
:101F600080819181009789F1E981FA812681378109
:101F7000E981FA81848D882F90E0820F931FE98197
:101F8000FA8197838683E981FA8126813781E98105
:101F9000FA81828193812817390740F0E981FA811B
:101FA00080819181E981FA8197838683E981FA8131
:101FB00046815781E981FA81848D282F30E08B8119
:101FC0009C81BA01A9010E94B71F0F900F900F903A
:101FD0000F90CF91DF910895DF93CF930F920F92DF
:101FE000CDB7DEB79A8389830FB6F8940F9215C0E8
:101FF000E981FA8181898823A9F089819A814196B2
:102000000E94EC07882311F00E94D508E981FA812B
:10201000868D8150E981FA81868FE981FA81868DEA
:10202000181634F3E981FA818FEF868F0F900FBE77
:102030000FB6F8940F9215C0E981FA818085882344
:10204000A9F089819A8108960E94EC07882311F0F3
:102050000E94D508E981FA81858D8150E981FA8154
:10206000858FE981FA81858D181634F3E981FA812B
:102070008FEF858F0F900FBE0F900F90CF91DF9154
:102080000895DF93CF9300D0CDB7DEB79B838A83CB
:102090000FB6F8940F92EA81FB81828D1982882312
:1020A00011F481E089830F900FBE89810F900F900A
:1020B0000F90CF91DF910895DF93CF9300D0CDB7EC
:1020C000DEB79B838A83EA81FB81828D1982882314
:1020D00011F481E0898389810F900F900F90CF9147
:1020E000DF910895DF93CF9300D0CDB7DEB79B8308
:1020F0008A830FB6F8940F92EA81FB81928DEA8170
:10210000FB81838D1982981711F481E089830F90E8
:102110000FBE89810F900F900F90CF91DF9108959E
:10212000DF93CF9300D0CDB7DEB79B838A83EA815C
:10213000FB81928DEA81FB81838D1982981711F4BE
:1021400081E0898389810F900F900F90CF91DF916B
:102150000895DF93CF930F920F92CDB7DEB79A8396
:10216000898389819A810396E981FA8192838183A7
:10217000E981FA818FEF9FEF9483838389819A812C
:102180000396E981FA819683858389819A810396F2
:10219000E981FA8190878783E981FA8110820F9023
:1021A0000F90CF91DF910895DF93CF930F920F920D
:1021B000CDB7DEB79A838983E981FA8111861086CB
:1021C0000F900F90CF91DF910895DF93CF9300D0C0
:1021D00000D0CDB7DEB79C838B837E836D83EB818C
:1021E000FC81818192819A838983E981FA8182814C
:1021F0009381ED81FE8193838283EB81FC818181D8
:102200009281ED81FE8195838483E981FA81028048
:10221000F381E02D8D819E81958384838D819E81C4
:10222000E981FA81938382838D819E81EB81FC8198
:1022300092838183ED81FE818B819C819187808750
:10224000EB81FC8180818F5FEB81FC81808326960E
:102250000FB6F894DEBF0FBECDBFCF91DF910895CA
:10226000DF93CF93CDB7DEB728970FB6F894DEBFD4
:102270000FBECDBF9E838D8378876F83EF81F885F6
:10228000808191819A83898389819A812FEF8F3F01
:10229000920739F4ED81FE81878190859C838B8341
:1022A00018C08D819E8103969C838B8306C0EB8131
:1022B000FC81828193819C838B83EB81FC810280F2
:1022C000F381E02D2081318189819A8182179307E2
:1022D00070F7EB81FC8182819381EF81F885938394
:1022E0008283EF81F8850280F381E02D8F819885CC
:1022F00095838483EF81F8858B819C81958384838A
:102300008F819885EB81FC8193838283EF81F885AF
:102310008D819E8191878087ED81FE8180818F5F95
:10232000ED81FE81808328960FB6F894DEBF0FBE44
:10233000CDBFCF91DF910895DF93CF9300D00F925F
:10234000CDB7DEB79C838B83EB81FC81A281B38107
:10235000EB81FC818481958115969C938E931497D3
:10236000EB81FC81A481B581EB81FC818281938129
:1023700013969C938E931297EB81FC8180859185B7
:102380009A838983E981FA81218132818B819C81C1
:102390002817390741F4EB81FC8184819581E9811B
:1023A000FA8192838183EB81FC8111861086E98119
:1023B000FA8180818150E981FA818083E981FA8103
:1023C00080810F900F900F900F90CF91DF91089523
:1023D000DF93CF93CDB7DEB727970FB6F894DEBF64
:1023E0000FBECDBF9D838C836E834F838AE190E0C7
:1023F0000E94C1149A83898389819A81009709F484
:102400006FC080917F0290918002009741F4898192
:102410009A819093800280937F020E9450148E8153
:10242000823010F081E08E83E981FA81118E108E66
:10243000E981FA818E81868BE981FA818F81878B90
:10244000E981FA818C819D819183808389819A8140
:1024500002960E94D41089819A810C960E94D41011
:10246000E981FA8189819A8191878087E981FA815E
:1024700089819A81938B828B8E81282F30E084E032
:1024800090E0821B930BE981FA8195878487E9812B
:10249000FA81968980918102891728F4E981FA816D
:1024A000868980938102E981FA818689282F30E02C
:1024B000C901880F991F880F991F880F991F820FD4
:1024C000931FAC0148575D4F89819A819C012E5F13
:1024D0003F4FCA01B9010E94E51081E08B8302C021
:1024E0008FEF8B838B8127960FB6F894DEBF0FBEDC
:1024F000CDBFCF91DF910895DF93CF9300D000D06F
:10250000CDB7DEB79C838B837E836D83209182025F
:10251000309183028B819C81820F931F9A838983E0
:1025200080917F029091800202960E949C11E0911E
:102530007F02F091800289819A8193838283209126
:1025400082023091830289819A818217930770F405
:102550008091AE029091AF0220917F023091800273
:102560002E5F3F4FB9010E9430110DC08091AC0227
:102570009091AD0220917F02309180022E5F3F4FFB
:10258000B9010E9430118D819E81009761F0809188
:102590007F02909180029C01245F3F4F8D819E813C
:1025A000B9010E94301126960FB6F894DEBF0FBE17
:1025B000CDBFCF91DF910895DF93CF930F920F920C
:1025C000CDB7DEB73AC0F894E091B502F091B6020B
:1025D000868197819A83898389819A810C960E944A
:1025E0009C11789489819A8102960E949C11E981BC
:1025F000FA81968980918102891728F4E981FA810C
:10260000868980938102E981FA818689282F30E0CA
:10261000C901880F991F880F991F880F991F820F72
:10262000931FAC0148575D4F89819A819C012E5FB1
:102630003F4FCA01B9010E94E5108091B002882382
:1026400009F0C1CF0F900F90CF91DF910895DF93E4
:10265000CF9300D00F92CDB7DEB70E94180620911D
:10266000840230918502821B930B909387028093A2
:10267000860285C080918202909183020196909398
:102680008302809382028091860290918702019753
:1026900090938702809386028091820290918302B8
:1026A000009709F064C08091AC029091AD029A83CA
:1026B00089838091AE029091AF029093AD02809396
:1026C000AC0289819A819093AF028093AE024FC091
:1026D000E091AC02F091AD020580F681E02D86819B
:1026E00097819C838B83EB81FC8122813381809154
:1026F0008202909183028217930708F440C0F894F5
:102700008B819C8102960E949C11EB81FC818489C3
:102710009589009729F08B819C810C960E949C11D1
:102720007894EB81FC81968980918102891728F445
:10273000EB81FC81868980938102EB81FC81868913
:10274000282F30E0C901880F991F880F991F880F23
:10275000991F820F931FAC0148575D4F8B819C815D
:102760009C012E5F3F4FCA01B9010E94E510E09124
:10277000AC02F091AD028081882309F0A9CF80914D
:10278000860290918702009709F074CF80918202AF
:102790009091830290938502809384020F900F9012
:1027A0000F900F90CF91DF910895DF93CF930F9209
:1027B0000F92CDB7DEB70E94DC120E9427130AC029
:1027C00080918102882309F466C080918102815042
:1027D0008093810280918102282F30E0C901880F07
:1027E000991F880F991F880F991F820F931FFC0153
:1027F000E857FD4F8081882319F380918102282FAB
:1028000030E0C901880F991F880F991F880F991F01
:10281000820F931F88579D4F9A838983E981FA819C
:102820000180F281E02D82819381E981FA81928396
:102830008183E981FA812181328189819A8103969C
:102840002817390759F4E981FA810180F281E02DD6
:1028500082819381E981FA8192838183E981FA817E
:102860000180F281E02D8681978190938002809390
:102870007F02E0917F02F09180024081518180913E
:102880007F0290918002E0917F02F091800227897F
:10289000622FFA0119950F900F90CF91DF91089553
:1028A000DF93CF930F92CDB7DEB7198213C0898122
:1028B000282F30E0C901880F991F880F991F880FB2
:1028C000991F820F931F88579D4F0E94A9108981DD
:1028D0008F5F89838981823050F38AE992E00E9478
:1028E000A91083EA92E00E94A91080EB92E00E9476
:1028F000A9108AE992E09093AD028093AC0283EA3A
:1029000092E09093AF028093AE020F90CF91DF914F
:102910000895DF93CF9300D00F920F92CDB7DEB71B
:102920009D838C83EC81FD810580F681E02D86817D
:1029300097819B838A838A819B810C960E949C113C
:102940008A819B819C01245F3F4F80EB92E0B9011B
:102950000E94E510EA81FB819689E0917F02F09167
:1029600080028689981718F081E0898301C0198256
:1029700089810F900F900F900F900F90CF91DF9162
:102980000895DF93CF9300D00F92CDB7DEB79C832D
:102990008B831A8219820E9482058091B9029091DC
:1029A000BA022B813C81820F931F28E1803092076D
:1029B00018F52091B9023091BA028B819C81280FC1
:1029C000391F8091B9029091BA0282179307A0F43F
:1029D0008091B9029091BA0285549D4F9A83898360
:1029E0002091B9023091BA028B819C81820F931F92
:1029F0009093BA028093B9020E948E0589819A81D0
:102A00000F900F900F900F90CF91DF910895DF936B
:102A1000CF930F920F92CDB7DEB79A8389830F9031
:102A20000F90CF91DF910895DF93CF93CDB7DEB7AD
:102A30001092BA021092B902CF91DF910895DF93FC
:102A4000CF93CDB7DEB72091B9023091BA0280E0C2
:102A500098E1821B930BCF91DF910895DF93CF9381
:102A6000CDB7DEB728970FB6F894DEBF0FBECDBF47
:102A70009C838B837E836D8358874F83EB81FC819E
:102A800081E180838B819C8101979C838B83EB8187
:102A9000FC8182E280838B819C8101979C838B8364
:102AA000EB81FC8183E380838B819C8101979C83F4
:102AB0008B838D819E819A8389838981EB81FC81BF
:102AC00080838B819C8101979C838B8389819A81F0
:102AD000892F99279A8389838981EB81FC8180835F
:102AE0008B819C8101979C838B83EB81FC8110827D
:102AF0008B819C8101979C838B83EB81FC8110826D
:102B00008B819C8101979C838B83EB81FC8180E886
:102B100080838B819C8101979C838B83EB81FC81DB
:102B200010828B819C8101979C838B83EB81FC813C
:102B300010828B819C8101979C838B83EB81FC812C
:102B400010828B819C8101979C838B83EB81FC811C
:102B500082E080838B819C8101979C838B83EB81B6
:102B6000FC8183E080838B819C8101979C838B8394
:102B7000EB81FC8184E080838B819C8101979C8325
:102B80008B83EB81FC8185E080838B819C81019725
:102B90009C838B83EB81FC8186E080838B819C818D
:102BA00001979C838B83EB81FC8187E080838B8101
:102BB0009C8101979C838B83EB81FC8188E08083DF
:102BC0008B819C8101979C838B83EB81FC8189E0C5
:102BD00080838B819C8101979C838B83EB81FC811B
:102BE00080E180838B819C8101979C838B83EB8127
:102BF000FC8181E180838B819C8101979C838B8305
:102C0000EB81FC8182E180838B819C8101979C8395
:102C10008B83EB81FC8183E180838B819C81019795
:102C20009C838B83EB81FC8184E180838B819C81FD
:102C300001979C838B83EB81FC8185E180838B8171
:102C40009C8101979C838B83EB81FC8186E180834F
:102C50008B819C8101979C838B83EB81FC8187E135
:102C600080838B819C8101979C838B83EB81FC818A
:102C700088E180838B819C8101979C838B83EB818E
:102C8000FC8189E180838B819C8101979C838B836C
:102C9000EB81FC8180E280838B819C8101979C8306
:102CA0008B83EB81FC8181E280838B819C81019706
:102CB0009C838B83EB81FC8182E280838B819C816E
:102CC00001979C838B83EB81FC8183E280838B81E2
:102CD0009C8101979C838B838F8198859A838983BC
:102CE0008981EB81FC8180838B819C8101979C830E
:102CF0008B8389819A81892F99279A8389838981F6
:102D0000EB81FC8180838B819C8101979C838B83E9
:102D1000EB81FC8186E280838B819C8101979C837F
:102D20008B83EB81FC8187E280838B819C8101977F
:102D30009C838B83EB81FC8188E280838B819C81E7
:102D400001979C838B83EB81FC8189E280838B815B
:102D50009C8101979C838B83EB81FC8180E3808342
:102D60008B819C8101979C838B83EB81FC8181E328
:102D700080838B819C8101979C838B838B819C8139
:102D800028960FB6F894DEBF0FBECDBFCF91DF916E
:102D90000895DF93CF93CDB7DEB70E94CD17A091F2
:102DA0002602B0912702CD91CDBFDD91DEBFFF910C
:102DB000EF91DF91CF91BF91AF919F918F917F91D3
:102DC0006F915F914F913F912F911F910F91FF90C4
:102DD000EF90DF90CF90BF90AF909F908F907F90BB
:102DE0006F905F904F903F902F901F900F900CBE70
:102DF0000F900BBE0F900FBE0F90089581E0CF9102
:102E0000DF910895DF93CF93CDB7DEB7CF91DF91F8
:102E100008950F920FB6F8940F920BB60F920CB65E
:102E20000F921F9211242F923F924F925F926F92B6
:102E30007F928F929F92AF92BF92CF92DF92EF924A
:102E4000FF920F931F932F933F934F935F936F9333
:102E50007F938F939F93AF93BF93CF93DF93EF9322
:102E6000FF93A0912602B09127020DB60D920EB6E7
:102E70000D920E942107A0912602B0912702CD91C8
:102E8000CDBFDD91DEBFFF91EF91DF91CF91BF917B
:102E9000AF919F918F917F916F915F914F913F91F2
:102EA0002F911F910F91FF90EF90DF90CF90BF90E7
:102EB000AF909F908F907F906F905F904F903F90DA
:102EC0002F901F900F900CBE0F900BBE0F900FBE57
:102ED0000F9008950F920FB6F8940F920BB60F92C1
:102EE0000CB60F921F9211242F923F924F925F9235
:102EF0006F927F928F929F92AF92BF92CF92DF920A
:102F0000EF92FF920F931F932F933F934F935F93F3
:102F10006F937F938F939F93AF93BF93CF93DF93E1
:102F2000EF93FF93A0912602B09127020DB60D9268
:102F30000EB60D920E944D060E942107A091260216
:102F4000B0912702CD91CDBFDD91DEBFFF91EF9112
:102F5000DF91CF91BF91AF919F918F917F916F91B1
:102F60005F914F913F912F911F910F91FF90EF90A3
:102F7000DF90CF90BF90AF909F908F907F906F9099
:102F80005F904F903F902F901F900F900CBE0F902E
:102F90000BBE0F900FBE0F900895DF93CF9300D01C
:102FA00000D0CDB7DEB780E09DE7A0E0B0E08B8336
:102FB0009C83AD83BE838B819C81AD81BE816894EF
:102FC00015F8B695A795979587951694D1F78B83A5
:102FD0009C83AD83BE838B819C81AD81BE81019733
:102FE000A109B1098B839C83AD83BE838B818983C7
:102FF0008B819C81AD81BE81892F9A2FAB2FBB27FE
:103000008B839C83AD83BE838B818A83E9E9F0E067
:103010008A818083E8E9F0E0898180838BE089837D
:10302000E1E9F0E089818083E1E7F0E08081898354
:10303000898182608983E1E7F0E089818083269637
:103040000FB6F894DEBF0FBECDBFCF91DF910895CC
:103050000E946A171895DF93CF9300D000D0CDB7A8
:10306000DEB79A8389834B835C836D837E8380E4A0
:1030700061E040E00E94F50B9093C31A8093C21A5E
:1030800088E061E040E00E94F50B9093BF1A8093C6
:10309000BE1AE5EDF0E01082E4EDF0E088E0808318
:1030A000E1EDF0E088E18083E2EDF0E086E080830E
:1030B000A0EDB0E0E0EDF0E080818D7F8C9326966E
:1030C0000FB6F894DEBF0FBECDBFCF91DF9108954C
:1030D000DF93CF930F92CDB7DEB78983E0EDF0E0B9
:1030E0008081882F90E0807290700097B9F3E6EDB0
:1030F000F0E0898180830F90CF91DF910895DF9375
:10310000CF930F92CDB7DEB78983E0ECF0E08081FA
:10311000882F90E0807290700097B9F3E6ECF0E0B1
:10312000898180830F90CF91DF910895DF93CF93B2
:10313000CDB7DEB7E0EDF0E080818823DCF7E6ED87
:10314000F0E08081CF91DF9108951F920F920FB62A
:103150000F9200905B000F9211248F939F93AF9377
:10316000BF93EF93FF93DF93CF930F92CDB7DEB76B
:10317000EEECF0E080818983A5E2B0E0E5E2F0E0EA
:10318000908180E189278C930F90CF91DF91FF91FF
:10319000EF91BF91AF919F918F910F9000925B0043
:1031A0000F900FBE0F901F901895DF93CF930F9243
:1031B000CDB7DEB789838091C21A9091C31A9E0160
:1031C0002F5F3F4FB9014FEF5FEF20E00E949F0C50
:1031D0000F90CF91DF910895DF93CF930F920F92CD
:1031E000CDB7DEB79A8389830AC0E981FA818081ED
:1031F0000E94D51889819A8101969A838983E981F1
:10320000FA818081882389F70F900F90CF91DF9109
:103210000895DF93CF9300D0CDB7DEB79B838A8329
:103220008091C21A9091C31A9E012F5F3F4FB9013E
:103230004FEF5FEF20E00E948E0DE8ECF0E0808120
:10324000882F90E0807290700097B9F3EEECF0E078
:1032500089818083E5CFDF93CF930F92CDB7DEB71F
:1032600089838091C01A9091C11A9E012F5F3F4FB0
:10327000B9014FEF5FEF20E00E949F0C0F90CF91BC
:10328000DF910895DF93CF930F920F92CDB7DEB702
:103290009A8389830AC0E981FA8180810E942B196F
:1032A00089819A8101969A838983E981FA81808153
:1032B000882389F70F900F90CF91DF910895DF93C6
:1032C000CF9300D0CDB7DEB79B838A838091C01A9D
:1032D0009091C11A9E012F5F3F4FB9014FEF5FEFF1
:1032E00020E00E948E0DE0ECF0E08081882F90E0DD
:1032F000807290700097B9F3E6ECF0E089818083EA
:10330000E5CFDF93CF930F920F92CDB7DEB78091C9
:10331000BE1A9091BF1A9E012F5F3F4FB90141E045
:1033200050E020E00E948E0D813019F489818A835B
:1033300002C08FEF8A838A810F900F90CF91DF9127
:103340000895DF93CF93CDB7DEB7C955D0400FB600
:10335000F894DEBF0FBECDBFFE01E85AFF4F918348
:103360008083E5E2F0E010821A8688E59BE19A838B
:103370008983E5E2F0E010822AC089819A81019771
:103380009A83898389819A81009729F41A8688E52E
:103390009BE19A83898381E090E00E94AB03E0ED9A
:1033A000F0E0808188234CF7E6EDF0E080818887AB
:1033B0008A85282F332727FD3095CE010B96FC01F7
:1033C000E20FF31F888580838A858F5F8A878A85CD
:1033D00084302CF3A5E2B0E0E5E2F0E0808180618A
:1033E0008C930E949B1A1A8686E08D87CE014396A5
:1033F0009E012A5C3F4FB9010E94DE1CCE01C69699
:103400000E94031AB1CFDF93CF93CDB7DEB72C97CD
:103410000FB6F894DEBF0FBECDBF98878F838CEDBB
:1034200095E09A838983E5E2F0E080E28083EF8192
:10343000F88580810E946818EF81F88581810E945B
:103440006818EF81F88580818D83EF81F88581810F
:103450008E83CE01059662E00E94DA1A0E946818F7
:103460000E94AF1A282F332727FD30953C872B87E2
:103470008B859C85009781F02B853C85213031051B
:10348000D1F08B859C852FEF8F3F920761F68FEFF0
:103490009FEF9A87898744C089819A8101979A838F
:1034A000898389819A81009709F0BDCF2FEF3FEF83
:1034B0003A87298735C0E5E2F0E080E380831C820B
:1034C0001B8210C02B813C818F819885820F931FB6
:1034D000FC01329680810E9468188B819C81019644
:1034E0009C838B83EF81F8858181282F332727FDEB
:1034F00030958B819C818217930724F38F81988567
:1035000002969C01EF81F8858181482FC901642FC3
:103510000E94DA1A0E9468180E94AF1A1A86198649
:1035200089859A852C960FB6F894DEBF0FBECDBF65
:10353000CF91DF910895DF93CF93CDB7DEB780E8C9
:103540000E946818CF91DF910895DF93CF93CDB794
:10355000DEB780E50E946818CF91DF910895DF9370
:10356000CF9300D0CDB7DEB78CED95E09A838983F9
:103570000CC089819A8101979A83898389819A8174
:10358000009719F48FEF8B830EC0E0EDF0E080819F
:1035900088237CF7E6EDF0E08081803819F481E043
:1035A0008B8301C01B828B810F900F900F90CF9166
:1035B000DF910895DF93CF9300D000D0CDB7DEB771
:1035C0009D838C836E831B821A82198210C0EC81CA
:1035D000FD8190818B81890F8B838C819D810196E8
:1035E0009D838C8389819A8101969A8389838E81B8
:1035F000282F30E089819A818217930744F38B81C9
:1036000026960FB6F894DEBF0FBECDBFCF91DF91E7
:103610000895DF93CF930F920F92CDB7DEB79A83C1
:10362000898381E00F900F90CF91DF910895DF9310
:10363000CF93CDB7DEB729970FB6F894DEBF0FBE94
:10364000CDBF89837B836A835D834C833F832E83D5
:103650008981282F332727FD30953987288788854A
:1036600099858230910599F0288539852330310577
:10367000B9F08885998581309105D1F48E819F813B
:103680000E948E1EEC81FD818CE0808311C0EA8156
:10369000FB8180812E813F81B9010E94B91E08C043
:1036A000EA81FB8180812E813F81B9010E94E41E65
:1036B00081E029960FB6F894DEBF0FBECDBFCF9143
:1036C000DF910895DF93CF93CDB7DEB727970FB67D
:1036D000F894DEBF0FBECDBF89837B836A835D8391
:1036E0004C838981282F332727FD30953F832E83F4
:1036F0008E819F81009731F02E813F8121303105ED
:1037000031F00DC08C819D810E94511F08C0EA815B
:10371000FB818081992787FD90950E94621F81E03F
:1037200027960FB6F894DEBF0FBECDBFCF91DF91C5
:103730000895DF93CF93CDB7DEB727970FB6F894F0
:10374000DEBF0FBECDBF89837B836A835D834C83DD
:103750008981282F332727FD30953F832E838E8143
:103760009F818230910541F12E813F8123303105C7
:1037700054F48E819F81009789F02E813F81213002
:103780003105A9F051C08E819F8183309105C9F028
:103790002E813F812430310599F146C0EA81FB81B9
:1037A0008081992787FD90950E946D1F3DC08C8177
:1037B0009D810E94781F38C08C819D810E94891F45
:1037C00033C0EA81FB818081682F772767FD709580
:1037D0008A819B81FC0131968081482F552747FDC6
:1037E00050958A819B81FC0132968081282F332756
:1037F00027FD3095CB01BA01A9010E949A1F14C080
:10380000EA81FB818081482F552747FD50958A81A9
:103810009B81FC0131968081282F332727FD30952D
:10382000CA01B9010E94A91F81E027960FB6F8943A
:10383000DEBF0FBECDBFCF91DF910895DF93CF9351
:10384000CDB7DEB728970FB6F894DEBF0FBECDBF59
:1038500089837B836A835D834C838981282F332707
:1038600027FD30953F832E838E819F81009731F015
:103870002E813F812130310551F00DC0EA81FB815D
:103880008081992787FD90950E944A1D04C08C81F4
:103890009D810E94551D28960FB6F894DEBF0FBE7D
:1038A000CDBFCF91DF910895DF93CF93CDB7DEB732
:1038B00028970FB6F894DEBF0FBECDBF89837B83F8
:1038C0006A835D834C838981282F332727FD3095B8
:1038D0003F832E838E819F81009731F02E813F811F
:1038E0002130310551F00DC0EA81FB81808199279B
:1038F00087FD90950E942E1D04C08C819D810E94A1
:10390000391D28960FB6F894DEBF0FBECDBFCF91FC
:10391000DF910895DF93CF93CDB7DEB728970FB629
:10392000F894DEBF0FBECDBF89837B836A835D833E
:103930004C838981282F332727FD30953F832E83A1
:103940008E819F81009731F02E813F81213031059A
:1039500031F009C08C819D810E940C1D04C08C81B6
:103960009D810E941D1D28960FB6F894DEBF0FBEE4
:10397000CDBFCF91DF910895DF93CF9300D000D0DA
:10398000CDB7DEB789837B836A835D834C8389816E
:10399000992787FD9095009741F4EA81FB8180810A
:1039A000992787FD90950E94661D26960FB6F8947C
:1039B000DEBF0FBECDBFCF91DF910895DF93CF93D0
:1039C00000D00F920F92CDB7DEB79A8389837C83A4
:1039D0006B83EB81FC8186E08183EB81FC81128229
:1039E000EB81FC8182E08383EB81FC8184E0848332
:1039F000EB81FC8186E08583EB81FC8188E0868316
:103A0000EB81FC818AE087830F900F900F900F90DD
:103A10000F90CF91DF910895DF93CF930F920F9284
:103A2000CDB7DEB79A838983E981FA81108281E07C
:103A30000F900F90CF91DF910895DF93CF930F9266
:103A40000F92CDB7DEB79A838983E981FA8110821C
:103A500081E00F900F90CF91DF910895DF93CF9386
:103A60000F92CDB7DEB7898381E00F90CF91DF91C0
:103A70000895DF93CF930F920F92CDB7DEB79A835D
:103A80008983E981FA81108281E00F900F90CF91B4
:103A9000DF910895DF93CF930F92CDB7DEB789837F
:103AA00081E00F90CF91DF910895DF93CF930F9234
:103AB0000F92CDB7DEB79A838983E981FA811082AC
:103AC00081E00F900F90CF91DF910895DF93CF9316
:103AD0000F92CDB7DEB7898381E00F90CF91DF9150
:103AE0000895CF93DF9300D0CDB7DEB79A83898353
:103AF0006B8389819A818C53954E2B81FC012083A5
:103B00000F900F900F90DF91CF910895CF93DF9397
:103B10001F921F92CDB7DEB79A83898389818E5F0A
:103B20000F900F90DF91CF910895CF93DF93CDB792
:103B3000DEB786E490E0FC018081DF91CF910895AB
:103B40001F920F9200905F000F92112400905B0073
:103B50000F922F933F934F935F936F937F938F9326
:103B60009F93AF93BF93EF93FF93CF93DF9300D0D7
:103B7000CDB7DEB7198286E091E0FC018081882F05
:103B800090E02091D81A222F30E0022E02C09595A5
:103B900087950A94E2F781709927009749F00E946F
:103BA000951D8A838EE290E02FEFFC0120831DC0DB
:103BB0000E94951D8B839B818A81891738F49B8194
:103BC0008A81F92FF81B8F2F8093BB1A8EE290E029
:103BD000FC0110828091CA1A9091CB1A20E040E03B
:103BE00050E060E070E00E943D0D0F900F900F904C
:103BF000DF91CF91FF91EF91BF91AF919F918F9105
:103C00007F916F915F914F913F912F910F90009213
:103C10005B000F9000925F000F901F901895CF935C
:103C2000DF93CDB7DEB78DE790E0FC01108287E02F
:103C300091E0FC01108287E290E0FC01108288E2B2
:103C400090E0FC0110828DE690E02FEFFC012083D4
:103C500088E690E027E0FC01208384E490E0FC010A
:103C6000108285E490E025E0FC012083DF91CF9174
:103C70000895CF93DF9300D01F92CDB7DEB79C831A
:103C80008B830E940F1E43E060E081E00E94F50BF1
:103C90009093CB1A8093CA1A8091CA1A9091CB1A2A
:103CA000009759F08091CA1A9091CB1A20E040E019
:103CB00050E060E070E00E949F0C1092D81A1A82C7
:103CC000198226C089818093D81A88E290E021E089
:103CD00030E0098002C0220F331F0A94E2F7FC0192
:103CE00020838091CA1A9091CB1A20E04FEF5FEFAA
:103CF00060E070E00E948E0D2091BB1A89819A814C
:103D0000622F0E94711D89819A8101969A8389830D
:103D100089819A8182309105ACF2D1CFCF93DF9324
:103D200000D01F92CDB7DEB79C838B831A82198295
:103D300014C089819A81880F991F2B813C81820F41
:103D4000931F29813A812F5F3F4FFC0131832083EC
:103D500089819A8101969A83898389819A818630A3
:103D6000910538F30F900F900F900F90DF91CF9146
:103D700008950F931F93CF93DF9300D0CDB7DEB795
:103D800089837B836A8389818630B4F4898199270A
:103D900087FD9095880F991F2A813B818901080F23
:103DA000191F8981992787FD90950E94861D882F6C
:103DB00090E0F801918380830F900F900F90DF9136
:103DC000CF911F910F9108950F931F93CF93DF937E
:103DD00000D0CDB7DEB789837B836A838981992739
:103DE00087FD90958130910501F182309105B9F1FF
:103DF000009709F04EC080E090E00E94861D282FB9
:103E000030E08A819B81FC01318320838A819B8100
:103E10008C010E5F1F4F81E090E00E94861D882F6D
:103E200090E0F8019183808334C082E090E00E94AA
:103E3000861D282F30E08A819B81FC0131832083FD
:103E40008A819B818C010E5F1F4F83E090E00E946E
:103E5000861D882F90E0F801918380831AC084E04A
:103E600090E00E94861D282F30E08A819B81FC0112
:103E7000318320838A819B818C010E5F1F4F85E0F7
:103E800090E00E94861D882F90E0F8019183808346
:103E900000000F900F900F90DF91CF911F910F9125
:103EA0000895DF93CF930F920F92CDB7DEB79A8329
:103EB0008983E981FA81108281E00F900F90CF9180
:103EC000DF910895DF93CF930F92CDB7DEB789834B
:103ED00081E00F90CF91DF910895DF93CF930F9200
:103EE000CDB7DEB7898381E00F90CF91DF91089540
:103EF000DF93CF930F920F92CDB7DEB79A8389836A
:103F0000E981FA81108281E00F900F90CF91DF91CB
:103F10000895DF93CF930F920F92CDB7DEB79A83B8
:103F20008983E981FA81108281E00F900F90CF910F
:103F3000DF910895DF93CF9300D0CDB7DEB78983AB
:103F40006A834B8381E00F900F900F90CF91DF91A8
:103F50000895DF93CF930F920F92CDB7DEB7898389
:103F60006A8381E00F900F90CF91DF910895FB015C
:103F7000DC0102C001900D9241505040D8F70895E5
:103F8000DC0101C06D9341505040E0F70895FB0102
:103F9000DC014150504048F001900D920020C9F7DB
:103FA00001C01D9241505040E0F70895FB019F0170
:103FB000E8944230C4F04532B4F44A3029F497FB17
:103FC0001EF4909581959F4F642F77270E940720BC
:103FD000805D8A330CF0895D8193CB010097A1F756
:103FE00016F45DE251931082C9010C94F71FDC01B5
:103FF000FC01672F71917723E1F7329704C07C9120
:104000006D9370836291AE17BF07C8F30895AA1B22
:10401000BB1B51E107C0AA1FBB1FA617B70710F0B3
:10402000A61BB70B881F991F5A95A9F780959095E5
:0A403000BC01CD010895F894FFCF04
:10403A00543000543100543200543300303132339A
:10404A00343536373839414243444546FFFF4944FF
:04405A004C450000D1
:00000001FF
