:100000000C9490000C94B1000C94B1000C94B100CD
:100010000C94B1000C94B1000C94B1000C94B1009C
:100020000C94B1000C94B1000C94B1000C94D82045
:100030000C94B1000C94B1000C94B1000C94B1007C
:100040000C94B1000C94B1000C94B1000C94B1006C
:100050000C94B1000C94B1000C94B1000C94B1005C
:100060000C94B1000C94B1000C94B1000C94B1004C
:100070000C94B1000C94E4240C94B1000C94B100E5
:100080000C9486190C94B1000C94B1000C94B1003E
:100090000C94121A0C94B1000C94B1000C94B100A1
:1000A0000C94B1000C94B1000C94B1000C94B1000C
:1000B0000C94B1000C94B1000C94B1000C94B100FC
:1000C0000C94B1000C94B1000C9417020C94B10084
:1000D0000C94B1000C94B1000C94B1000C94B100DC
:1000E0000C94B100121F291F591F391F591F591F86
:1000F000491F591F0C943D0A0C94591F0C94491F19
:100100000C94391F0C94AD020C94CE1B0C94462514
:100110000C9449030C946E1A0C94291F0C94121F12
:1001200011241FBECFEFD1E2DEBFCDBF00E00CBF78
:1001300012E0A0E0B2E0E8ECFBE400E00BBF02C09C
:1001400007900D92AC32B107D9F71AE1ACE2B2E0F8
:1001500001C01D92AD3EB107E1F70E94CB000C94A7
:10016000E2250C940000CF93DF93CDB7DEB78091EA
:100170002C0290912D02019690932D0280932C02D7
:10018000DF91CF910895CF93DF93CDB7DEB7000015
:10019000DF91CF910895AF92BF92CF92DF92EF920D
:1001A000FF920F93CF93DF9300D000D0CDB7DEB78F
:1001B0008FE38D838EEF8E83CE0105969A8389839C
:1001C000CE01059601969C838B8381E290E027EF18
:1001D000FC0120838AE290E02FEFFC0120838DE276
:1001E00090E02FEFFC01208384E290E02FEFFC01F0
:1001F000208387E091E0FC0110828BE290E0FC011B
:1002000010828EE290E0FC01108288E091E022E012
:10021000FC0120830E9498038B819C81A12CB12C2E
:10022000C12CD12CE12CF12C01E09C014DE354E0D8
:1002300067E072E08DEA92E00E94A8038B819C81C6
:10024000A12CB12CC12CD12CE12CF12C01E09C0172
:100250004DE354E06AE072E089E493E00E94A80371
:100260008B819C81A12CB12CC12CD12CE12CF12CA7
:1002700001E09C014DE354E06DE072E08EE69AE10E
:100280000E94A8038B819C81A12CB12CC12CD12C64
:10029000E12CF12C01E09C014DE354E060E172E0BF
:1002A0008EEC9BE10E94A8038B819C81A12CB12C38
:1002B000C12CD12CE12CF12C01E09C014DE354E048
:1002C00060E172E086E495E20E94A8030E949D0628
:1002D00080E090E026960FB6F894DEBF0FBECDBF4B
:1002E000DF91CF910F91FF90EF90DF90CF90BF9073
:1002F000AF900895CF93DF93CDB7DEB762970FB677
:10030000F894DEBF0FBECDBF9A8B898B20E1E3E16D
:10031000F2E0CE010196DC0101900D922A95E1F701
:1003200089899A89892F992782958F709E012F5FDD
:100330003F4F820F931FFC0180810E94CC19898955
:100340009A8988279F70892F990F990B9E012F5F9B
:100350003F4F820F931FFC0180810E94CC19898935
:100360009A89807F992795958795959587959595F5
:100370008795959587959E012F5F3F4F820F931F1D
:10038000FC0180810E94CC1989899A898F709927F4
:100390009E012F5F3F4F820F931FFC0180810E94BF
:1003A000CC1962960FB6F894DEBF0FBECDBFDF91B9
:1003B000CF910895CF93DF93CDB7DEB72D970FB6CA
:1003C000F894DEBF0FBECDBF8D87CE0103964AE005
:1003D00050E060E070E00E9487258D85882F90E0D6
:1003E0009E012D5F3F4F4AE050E0B9010E949D25DC
:1003F000CE0103969A8389830BC089819A81FC017F
:1004000080810E94391A89819A8101969A83898311
:1004100089819A81FC018081882379F72D960FB616
:10042000F894DEBF0FBECDBFDF91CF9108951F922C
:100430000F9200905F000F92112400905B000F92CA
:100440002F933F938F939F93EF93FF93CF93DF93DC
:10045000CDB7DEB785E290E025E230E0F9012081FA
:100460002095FC01208384E990E0FC01108285E95D
:1004700090E0FC011082DF91CF91FF91EF919F916D
:100480008F913F912F910F9000925B000F900092FF
:100490005F000F901F901895CF93DF93CDB7DEB715
:1004A00086E490E0FC018081882F90E0DF91CF917D
:1004B00008950F931F93CF93DF93CDB7DEB72C979B
:1004C0000FB6F894DEBF0FBECDBF9C838B837E83B7
:1004D0006D8358874F833A8729871C870B872B8525
:1004E0003C858D819E81281739071CF489859A8562
:1004F00029C02B853C858B819C81821793071CF436
:100500008F8198851FC08B859C8599230CF4039659
:1005100095958795959587958C5891099A838983A8
:1005200029813A818F819885821793074CF029851C
:100530003A8589819A818217930724F4C90102C000
:100540008F8198852C960FB6F894DEBF0FBECDBF75
:10055000DF91CF911F910F9108950F931F93CF9328
:10056000DF93CDB7DEB762970FB6F894DEBF0FBE4C
:10057000CDBF9A8B898B81E090E09A8389838CE14F
:1005800093E09C838B8380EE90E09E838D8388E153
:1005900090E098878F8380E490E09A87898781EE46
:1005A00090E09C878B8780E691E09E878D8782E232
:1005B00090E024E0FC01208340E054E264EF70E02E
:1005C00080E895E20E9489190E9433230E948922C3
:1005D00081E00E945A200E944124988B8F87898154
:1005E0009A8181309105F1F42F8538898B859C851E
:1005F000281739073CF48FEF9FEF9A8389838FEF99
:100600000E945A20EF85F8892F81388549855A85BF
:100610006D817E818B819C818F010E9459020E9495
:1006200094221DC02F8538898D859E85821793075A
:100630003CF481E090E09A83898381E00E945A2013
:10064000EF85F8892F81388549855A856D817E81AE
:100650008B819C818F010E9459020E949422EF8518
:10066000F8892F81388549855A856D817E818B81F6
:100670009C818F010E9459020E947A018AE00E94A7
:10068000CC198DE00E94CC1981E090E00E94090510
:10069000A2CFCF93DF931F921F92CDB7DEB79A837D
:1006A00089838AE091E020EFFC0120838BE091E0D8
:1006B000FC0110828BE091E02BE031E0F901308108
:1006C00020EC2327FC0120838CE291E00E940905A5
:1006D000F1CFCF93DF9300D01F92CDB7DEB79C83CD
:1006E0008B830E9433231A8219820E94892281E01F
:1006F00090E00E94942284EF91E00E94090580E43A
:1007000090E00E94942284EF91E00E9409058FE717
:1007100090E00E94942284EF91E00E94090580E419
:1007200090E00E94942284EF91E00E940905DFCFBF
:10073000CF93DF93CDB7DEB784E290E02FEFFC01DB
:10074000208385E290E0FC011082DF91CF91089533
:10075000AF92BF92CF92DF92EF92FF920F931F93CF
:10076000DF93CF93CDB7DEB764970FB6F894DEBFB3
:100770000FBECDBF9F838E83798768875B874A874B
:100780003D872C870E87F88AEF86DA8AC98ABC8A69
:10079000AB8A8A859B8529893A89B9010E94370BE2
:1007A0009C838B838B819C81009709F499C0EB819A
:1007B000FC812789308D8A859B850197820F931F45
:1007C0009A8389838B819C8128853985EB89FC8973
:1007D000AA85BB85B9014E859F018D010E944E0AF5
:1007E00089819A812E813F814C855D85B9010E9466
:1007F0008C16EB81FC81918380838F85988900978B
:1008000031F0EF85F8898B819C81918380830FB6CD
:10081000F8940F92809130028F5F80933002809124
:100820002E0290912F02009769F48B819C81909306
:100830002F0280932E02809130028130A9F40E9411
:10084000A90A12C080913502882371F4E0912E022A
:10085000F0912F0296898E85891730F08B819C81CB
:1008600090932F0280932E02EB81FC8196898091D8
:100870003302891728F4EB81FC8186898093330247
:1008800080913A028F5F80933A02EB81FC819689D6
:1008900080913402891728F4EB81FC81868980934A
:1008A0003402EB81FC818689282F30E0C901880F52
:1008B000991F880F991F880F991F820F931FAC01F2
:1008C000455C5D4F8B819C819C012E5F3F4FCA012F
:1008D000B9010E94431281E08D830F900FBE02C0C8
:1008E0008FEF8D838D81813071F480913502882363
:1008F00051F0E0912E02F0912F0296898E85981783
:1009000010F40E9467188D8164960FB6F894DEBFCC
:100910000FBECDBFCF91DF911F910F91FF90EF9050
:10092000DF90CF90BF90AF900895DF93CF93CDB776
:10093000DEB728970FB6F894DEBF0FBECDBF9E83FB
:100940008D8378876F8319820E94E006ED81FE8196
:10095000208131818F819885820F931F9C838B83A7
:10096000ED81FE81208131818091310290913202AE
:1009700082179307A8F4ED81FE81208131818B815C
:100980009C818217930700F5209131023091320249
:100990008B819C8128173907B8F481E0898314C0C2
:1009A000ED81FE81208131818B819C8182179307AB
:1009B00048F020913102309132028B819C812817BE
:1009C000390710F481E08983ED81FE818B819C8160
:1009D000918380838981882359F080912E029091A0
:1009E0002F0202960E94FA128B819C810E94ED0ACE
:1009F0000E94EC068A838A81882311F40E9467187A
:100A000028960FB6F894DEBF0FBECDBFCF91DF9111
:100A10000895DF93CF9300D00F920F92CDB7DEB73A
:100A20009D838C8319828C819D810097D1F00E94D7
:100A3000E00620913102309132028C819D81820F3B
:100A4000931F9B838A8380912E0290912F0202969E
:100A50000E94FA128A819B810E94ED0A0E94EC0694
:100A600089838981882311F40E9467180F900F9061
:100A70000F900F900F90CF91DF910895DF93CF9358
:100A800000D000D0CDB7DEB79C838B830FB6F8942F
:100A90000F9220912E0230912F028B819C81821720
:100AA000930711F41C821B828B819C81009739F47F
:100AB00080912E0290912F029E838D8304C08B81A2
:100AC0009C819E838D838D819E819A838983898178
:100AD0009A8102960E94FA12E981FA8184899589A5
:100AE000009729F089819A810C960E94FA128981D7
:100AF0009A819C012E5F3F4F8EE792E0B9010E94E0
:100B000043120F900FBE8B819C810097A1F48091BE
:100B10003502882319F00E9467180DC090917E025B
:100B200080913002981729F410922F0210922E0211
:100B300002C00E947F0826960FB6F894DEBF0FBE53
:100B4000CDBFCF91DF910895DF93CF9300D00F9267
:100B50000F92CDB7DEB79D838C831B828C819D81E4
:100B60009A838983E981FA818285938522E08E3791
:100B7000920781F4E981FA818489958922E0853799
:100B8000920741F0E981FA8184899589009711F4EF
:100B900081E08B838B810F900F900F900F900F90BF
:100BA000CF91DF910895DF93CF9300D00F92CDB70F
:100BB000DEB79C838B838B819C819A838983898117
:100BC0009A81009709F44CC020912E0230912F0297
:100BD00089819A818217930709F442C00FB6F8946D
:100BE0000F9289819A810E94A4058130B9F589818B
:100BF0009A8102960E94FA12E981FA81968980917F
:100C00003402891728F4E981FA81868980933402B5
:100C1000E981FA818689282F30E0C901880F991F60
:100C2000880F991F880F991F820F931FAC01455C95
:100C30005D4F89819A819C012E5F3F4FCA01B901A6
:100C40000E944312E981FA819689E0912E02F09187
:100C50002F028689981710F00E9467180F900FBE18
:100C60000F900F900F900F90CF91DF910895DF9329
:100C7000CF9300D000D0CDB7DEB79E838D831C828A
:100C80008D819E819B838A8319828A819B810E94A8
:100C9000A405813009F047C0809136028823C9F548
:100CA000EA81FB819689E0912E02F0912F028689DC
:100CB0001C82981710F081E08C838A819B810296B8
:100CC0000E94FA12EA81FB81968980913402891789
:100CD00028F4EA81FB81868980933402EA81FB81D2
:100CE0008689282F30E0C901880F991F880F991F26
:100CF000880F991F820F931FAC01455C5D4F8A815D
:100D00009B819C012E5F3F4FCA01B9010E94431293
:100D10000AC08A819B819C01245F3F4F85E792E056
:100D2000B9010E9443128C8126960FB6F894DEBF5B
:100D30000FBECDBFCF91DF910895AF92BF92CF92FA
:100D4000DF92EF92FF920F93DF93CF930F92CDB785
:100D5000DEB78DE39AE022E032E0B90145E550E0EC
:100D600020E030E000E0EE24FF24CC24DD24AA249F
:100D7000BB240E94A80389838981813051F4F894AF
:100D800081E08093350210923202109231020E946B
:100D900027180F90CF91DF910F91FF90EF90DF9088
:100DA000CF90BF90AF900895DF93CF93CDB7DEB7CC
:100DB000F894109235020E946018CF91DF91089547
:100DC000DF93CF93CDB7DEB7809136028F5F8093EC
:100DD0003602CF91DF910895DF93CF9300D00F9229
:100DE000CDB7DEB71A820FB6F8940F928091360213
:100DF00081508093360280913602882309F06CC0BE
:100E000080913002882309F467C0198241C0E091C3
:100E10007A02F0917B02868197819C838B838B8100
:100E20009C810C960E94FA128B819C8102960E94F2
:100E3000FA12EB81FC81968980913402891728F49B
:100E4000EB81FC81868980933402EB81FC81868969
:100E5000282F30E0C901880F991F880F991F880F2C
:100E6000991F820F931F855C9D4F2B813C812E5FC4
:100E70003F4FB9010E944312EB81FC819689E091BA
:100E80002E02F0912F028689981710F081E0898355
:100E900080917502882309F0BACF809137028823A8
:100EA00071F007C00E94AB07809137028150809398
:100EB0003702809137028823A9F781E089838981ED
:100EC000813021F080913802813031F481E08A83D1
:100ED000109238020E9467180F900FBE8A810F90FF
:100EE0000F900F900F90CF91DF910895DF93CF93E4
:100EF0000F920F92CDB7DEB70FB6F8940F92809194
:100F00003102909132029A8389830F900FBE8981BA
:100F10009A810F900F90CF91DF910895DF93CF9337
:100F200000D0CDB7DEB719828091310290913202A4
:100F30009B838A838A819B810F900F900F90CF9122
:100F4000DF910895DF93CF93CDB7DEB78091300264
:100F5000CF91DF910895DF93CF9300D000D0CDB72C
:100F6000DEB780913602882309F0BBC08091310240
:100F700090913202019690933202809331028091D7
:100F80003102909132020097D1F5809171029091D7
:100F900072029C838B838091730290917402909370
:100FA0007202809371028B819C8190937402809372
:100FB0007302809139028F5F80933902E091710250
:100FC000F09172028081882339F48FEF9FEF909324
:100FD00001028093000213C0E0917102F09172024D
:100FE0000580F681E02D868197819E838D83ED813A
:100FF000FE8182819381909301028093000220916F
:101000003102309132028091000290910102281742
:10101000390708F46BC0E0917102F091720280818F
:10102000882339F48FEF9FEF9093010280930002A1
:101030005DC0E0917102F09172020580F681E02DB1
:10104000868197819E838D83ED81FE81828193814C
:101050009A838983209131023091320289819A8169
:101060002817390738F489819A8190930102809377
:1010700000023CC08D819E8102960E94FA12ED8191
:10108000FE8184899589009729F08D819E810C9637
:101090000E94FA12ED81FE819689809134028917AF
:1010A00028F4ED81FE81868980933402ED81FE81F2
:1010B0008689282F30E0C901880F991F880F991F52
:1010C000880F991F820F931FAC01455C5D4F8D8186
:1010D0009E819C012E5F3F4FCA01B9010E944312BD
:1010E0009ACF809137028F5F8093370226960FB692
:1010F000F894DEBF0FBECDBFCF91DF910895DF938F
:10110000CF930F920F92CDB7DEB78091360288232E
:1011100021F081E08093380270C0E0912E02F091BE
:101120002F0220813181E0912E02F0912F028789D8
:10113000908D8217930790F080912E0290912F024C
:1011400020912E0230912F02275E3F4FB9010E945D
:10115000C300809134028150809334028091340224
:10116000282F30E0C901880F991F880F991F880F19
:10117000991F820F931FFC01E55CFD4F808188233E
:1011800041F380913402282F30E0C901880F991F64
:10119000880F991F880F991F820F931F855C9D4FA1
:1011A0009A838983E981FA810180F281E02D82812D
:1011B0009381E981FA8192838183E981FA81218196
:1011C000328189819A8103962817390759F4E98178
:1011D000FA810180F281E02D82819381E981FA8197
:1011E00092838183E981FA810180F281E02D8681F9
:1011F000978190932F0280932E020F900F90CF91A2
:10120000DF910895DF93CF9300D000D0CDB7DEB744
:101210009C838B837E836D834B815C8180912E02C6
:1012200090912F029C01245F3F4FCA01B9010E9497
:101230008E1280912E0290912F0202960E94FA1235
:101240008D819E812FEF8F3F920769F480912E024E
:1012500090912F029C012E5F3F4F8EE792E0B901E3
:101260000E9443120EC020913102309132028D81D2
:101270009E81820F931F9A83898389819A810E941C
:10128000ED0A26960FB6F894DEBF0FBECDBFCF9104
:10129000DF910895DF93CF9300D00F920F92CDB7D7
:1012A000DEB79D838C83EC81FD810580F681E02D86
:1012B000868197819B838A838A819B810C960E9479
:1012C000FA1280913602882361F58A819B81029609
:1012D0000E94FA12EA81FB81968980913402891773
:1012E00028F4EA81FB81868980933402EA81FB81BC
:1012F0008689282F30E0C901880F991F880F991F10
:10130000880F991F820F931FAC01455C5D4F8A8146
:101310009B819C012E5F3F4FCA01B9010E9443127D
:101320000AC08A819B819C01245F3F4F85E792E040
:10133000B9010E944312EA81FB819689E0912E0255
:10134000F0912F028689981718F081E0898301C0F7
:10135000198289810F900F900F900F900F90CF916D
:10136000DF910895DF93CF930F920F92CDB7DEB741
:101370009A83898380913902E981FA8180838091FF
:10138000310290913202E981FA81928381830F9038
:101390000F90CF91DF910895DF93CF9300D00F92FC
:1013A0000F92CDB7DEB79B838A837D836C830FB6A4
:1013B000F8940F92EC81FD81808191812FEF8F3F16
:1013C000920711F4198244C0EA81FB8190818091D7
:1013D0003902981771F0EA81FB8121813281809175
:1013E0003102909132028217930718F081E08983CD
:1013F0002FC02091310230913202EA81FB8181813C
:101400009281281B390BEC81FD8180819181281705
:101410003907E0F4EC81FD8140815181EA81FB8153
:10142000218132818091310290913202B901681B91
:10143000790BCB01840F951FEC81FD819183808313
:101440008A819B810E94B209198202C081E089834E
:101450000F900FBE89810F900F900F900F900F90FB
:10146000CF91DF910895DF93CF93CDB7DEB781E0C1
:1014700080933802CF91DF910895DF93CF930F923D
:101480000F92CDB7DEB79A8389830E94E60A8091D6
:101490003B028230D0F30E946718F7CF0F931F935F
:1014A000DF93CF93CDB7DEB729970FB6F894DEBFA1
:1014B0000FBECDBF9A8389837C836B834D833F832B
:1014C0002E831987088789819A8149962B813C81CF
:1014D000B90140E150E00E948E25E981FA8110A611
:1014E0008D81843010F083E08D83E981FA818D81D4
:1014F000868BE981FA818D8181A789819A81029603
:101500000E94321289819A810C960E943212E981DE
:10151000FA8189819A81918780878D81282F30E097
:1015200084E090E0821B930BE981FA8195878487A0
:10153000E981FA8189819A81938B828B29960FB6F2
:10154000F894DEBF0FBECDBFCF91DF911F910F91F9
:101550000895DF93CF930F92CDB7DEB7198213C0F2
:101560008981282F30E0C901880F991F880F991FA2
:10157000880F991F820F931F855C9D4F0E94071251
:1015800089818F5F89838981843050F38FE592E070
:101590000E94071288E692E00E94071285E792E017
:1015A0000E9407128EE792E00E9407128FE592E0F8
:1015B000909372028093710288E692E09093740295
:1015C000809373020F90CF91DF910895DF93CF93B3
:1015D000CDB7DEB7CF91DF910895DF93CF930F9210
:1015E0000F92CDB7DEB79A838983E0912E02F091F6
:1015F0002F0289819A8193838283209131023091D5
:10160000320289819A818217930770F48091730264
:101610009091740220912E0230912F022E5F3F4F45
:10162000B9010E948E121EC0409171025091720247
:1016300080912E0290912F029C012E5F3F4FCA0194
:10164000B9010E948E12209100023091010289811D
:101650009A818217930730F489819A8190930102CD
:10166000809300020F900F90CF91DF910895DF9348
:10167000CF93CDB7DEB728970FB6F894DEBF0FBE75
:10168000CDBF9C838B837E836D838AE290E00E9432
:101690001F169A83898389819A81009769F18D81C8
:1016A0009E81009739F48B819C810E941F16988738
:1016B0008F8304C08D819E8198878F83E981FA8111
:1016C0008F819885908F878BE981FA818789908DAA
:1016D000009739F489819A810E9465161A821982CD
:1016E0000BC0E981FA818789908D2B813C8165EA65
:1016F00070E0A9010E94872589819A8128960FB6FA
:10170000F894DEBF0FBECDBFCF91DF910895DF9378
:10171000CF9300D00F92CDB7DEB79A8389831C8216
:101720001B820AC089819A8101969A8389838B8161
:101730009C8101969C838B83E981FA818081853A23
:1017400089F38B819C810F900F900F900F90CF9118
:10175000DF910895DF93CF93CDB7DEB729970FB60A
:10176000F894DEBF0FBECDBF9F838E838E819F8195
:10177000009739F480912E0290912F0299878887E3
:1017800004C08E819F8199878887888599859D83EC
:101790008C83EC81FD818789908D9B838A838A81EC
:1017A0009B810E94870B8983898129960FB6F894C3
:1017B000DEBF0FBECDBFCF91DF910895DF93CF93F2
:1017C0000F920F92CDB7DEB780912E0290912F022B
:1017D0009A83898389819A810F900F90CF91DF91AD
:1017E0000895DF93CF9300D00F92CDB7DEB79C83DF
:1017F0008B838B819C819A8389838B819C810097C9
:1018000009F46DC0E981FA819689E0912E02F09188
:101810002F028689981708F062C0E0912E02F0919D
:101820002F028689282F30E084E090E0821B930B02
:10183000E981FA8195878487E981FA814285538518
:10184000E981FA818689282F30E0C901880F991F24
:10185000880F991F880F991F820F931F855C9D4FDA
:1018600048175907A1F589819A8102960E94FA12B8
:10187000E0912E02F0912F028689E981FA81868B10
:10188000E981FA81968980913402891728F4E981E7
:10189000FA81868980933402E981FA818689282F2A
:1018A00030E0C901880F991F880F991F880F991F71
:1018B000820F931FAC01455C5D4F89819A819C0129
:1018C0002E5F3F4FCA01B9010E94431208C0E09148
:1018D0002E02F0912F028689E981FA81868B0F9082
:1018E0000F900F900F90CF91DF910895DF93CF93DA
:1018F00000D00F92CDB7DEB79C838B838B819C8108
:101900009A8389838B819C81009709F447C0E98180
:10191000FA819689E981FA8181A5981709F43EC078
:1019200089819A8102960E94FA12E981FA8181A541
:10193000E981FA81868BE981FA818689282F30E056
:1019400084E090E0821B930BE981FA81958784877C
:10195000E981FA81968980913402891728F4E98116
:10196000FA81868980933402E981FA818689282F59
:1019700030E0C901880F991F880F991F880F991FA0
:10198000820F931FAC01455C5D4F89819A819C0158
:101990002E5F3F4FCA01B9010E9443120F900F9072
:1019A0000F900F90CF91DF910895DF93CF9300D0E8
:1019B000CDB7DEB79A8389836B830FB6F8940F9205
:1019C000E981FA8140815181E981FA81838D282F53
:1019D00030E0E981FA81848D882F90E0BC01269F58
:1019E000C001279F900D369F900D1124840F951FE5
:1019F000E981FA8193838283E981FA81128EE981F8
:101A0000FA8180819181E981FA8195838483E981DA
:101A1000FA8140815181E981FA81838D882F90E09C
:101A20009C0121503040E981FA81848D882F90E01B
:101A3000BC01269FC001279F900D369F900D112459
:101A4000840F951FE981FA8197838683E981FA8162
:101A50008FEF858FE981FA818FEF868F8B818823C5
:101A600079F4E981FA8180858823A1F089819A81BE
:101A700008960E944A09813069F40E9467180AC0DA
:101A800089819A8108960E94071289819A814196DC
:101A90000E9407120F900FBE81E00F900F900F90E1
:101AA000CF91DF910895DF93CF93CDB7DEB729971C
:101AB0000FB6F894DEBF0FBECDBF8F83688749870E
:101AC0001A8219828F81882309F43FC08FE190E048
:101AD0000E941F169E838D838D819E810097A9F1A0
:101AE0008F81282F30E08885882F90E0AC01249FDB
:101AF000C001259F900D349F900D112401969C8369
:101B00008B838B819C810E941F16ED81FE819183C6
:101B10008083ED81FE8180819181009791F0ED813C
:101B2000FE818F81838FED81FE818885848F8D81F9
:101B30009E8161E00E94D50C8D819E819A8389836C
:101B400004C08D819E810E94651689819A812996A3
:101B50000FB6F894DEBF0FBECDBFCF91DF910895D1
:101B6000DF93CF9300D0CDB7DEB78B838FE190E0CA
:101B70000E941F169A83898389819A810097A9F10F
:101B8000E981FA8113821282E981FA81118210823D
:101B9000E981FA8115821482E981FA81178216821D
:101BA000E981FA81128EE981FA8181E0838FE981EE
:101BB000FA81148EE981FA818FEF858FE981FA81AC
:101BC0008FEF868F89819A8108960E9407128981FA
:101BD0009A8141960E94071289819A8160E070E0A3
:101BE00040E050E020E00E94FD0D89819A810F9035
:101BF0000F900F90CF91DF910895DF93CF93CDB7E2
:101C0000DEB72C970FB6F894DEBF0FBECDBF9E8314
:101C10008D8378876F835A8749872B8719820FB600
:101C2000F8940F92ED81FE81928DED81FE81838D7E
:101C30009817D8F48D819E812F813885B9014B8505
:101C40000E945C10ED81FE818189882349F08D819D
:101C50009E8141960E944A09813011F40E946718C2
:101C60000F900FBE81E08C875CC089859A850097B4
:101C700021F40F900FBE1C8654C08981882331F453
:101C8000CE0102960E94B20981E089830F900FBEB7
:101C90000E94E0060FB6F8940F92ED81FE81858DCB
:101CA0008F3F19F4ED81FE81158EED81FE81868DC9
:101CB0008F3F19F4ED81FE81168E0F900FBECE017D
:101CC00002969E01275F3F4FB9010E94CC098823ED
:101CD00009F58D819E810E94D0118823A1F08D810C
:101CE0009E81089629853A85B9010E9402098D8155
:101CF0009E810E944A110E94EC06882309F08FCF32
:101D00000E9467188CCF8D819E810E944A110E948B
:101D1000EC0685CF8D819E810E944A110E94EC06BF
:101D20001C868C852C960FB6F894DEBF0FBECDBFF7
:101D3000CF91DF910895DF93CF93CDB7DEB7299789
:101D40000FB6F894DEBF0FBECDBF9C838B837E831E
:101D50006D8358874F8329871982EB81FC81928D8F
:101D6000EB81FC81838D981760F58B819C812D819F
:101D70003E81B90149850E945C10EB81FC81868D12
:101D80008F3FA9F4EB81FC8181898823B9F08B8195
:101D90009C8141960E944A09882381F08F81988511
:101DA000009761F0EF81F88581E0808307C0EB81C7
:101DB000FC81868D8F5FEB81FC81868F81E08A8339
:101DC00001C01A828A8129960FB6F894DEBF0FBE31
:101DD000CDBFCF91DF910895DF93CF93CDB7DEB71D
:101DE0002E970FB6F894DEBF0FBECDBF98878F83B6
:101DF0007A8769875C874B872D871B820FB6F8949B
:101E00000F92EF81F885828D882309F44BC0EF8112
:101E1000F885868197819A8389838F819885298522
:101E20003A85B9010E9402118D85882311F5EF8151
:101E3000F885828D8150EF81F885828FEF81F8855A
:101E400080819181009731F40E94DE0BEF81F8854B
:101E500093838283EF81F88580858823F1F08F81D9
:101E6000988508960E944A098130B9F40E94671843
:101E700014C0EF81F88589819A8197838683EF81E9
:101E8000F8858189882349F08F81988541960E9441
:101E90004A09882311F00E9467180F900FBE81E055
:101EA0008E876DC08B859C85009721F40F900FBEA7
:101EB0001E8665C08B81882331F4CE0104960E9472
:101EC000B20981E08B830F900FBE0E94E0060FB62F
:101ED000F8940F92EF81F885858D8F3F19F4EF818B
:101EE000F885158EEF81F885868D8F3F19F4EF8187
:101EF000F885168E0F900FBECE0104969E01255FC9
:101F00003F4FB9010E94CC09882391F58F819885B4
:101F10000E949F11882329F1EF81F88580819181AA
:101F2000009759F40FB6F8940F92EF81F8858281EB
:101F300093810E94F10B0F900FBE8F81988541967F
:101F40002B853C85B9010E9402098F8198850E94EA
:101F50004A110E94EC06882309F050CF0E946718AE
:101F60004DCF8F8198850E944A110E94EC0646CF82
:101F70008F8198850E944A110E94EC061E868E85EC
:101F80002E960FB6F894DEBF0FBECDBFCF91DF9176
:101F90000895DF93CF93CDB7DEB728970FB6F894A7
:101FA000DEBF0FBECDBF9C838B837E836D8358873E
:101FB0004F831982EB81FC81828D882391F18B8183
:101FC0009C812D813E81B9010E940211EB81FC812F
:101FD000828D8150EB81FC81828FEB81FC81858D2C
:101FE0008F3FA9F4EB81FC8180858823B9F08B8138
:101FF0009C8108960E944A09882381F08F819885E8
:10200000009761F0EF81F88581E0808307C0EB8164
:10201000FC81858D8F5FEB81FC81858F81E08A83D8
:1020200001C01A828A8128960FB6F894DEBF0FBECF
:10203000CDBFCF91DF910895DF93CF9300D0CDB77F
:10204000DEB79B838A830FB6F8940F92EA81FB81F7
:10205000828D89830F900FBE89810F900F900F9012
:10206000CF91DF910895DF93CF9300D0CDB7DEB746
:102070009B838A83EA81FB81828D898389810F908A
:102080000F900F90CF91DF910895DF93CF930F9230
:102090000F92CDB7DEB79A838983E981FA81808177
:1020A00091810E94651689819A810E9465160F9020
:1020B0000F90CF91DF910895DF93CF9300D00F92CF
:1020C0000F92CDB7DEB79A8389837C836B834D8370
:1020D000E981FA81848D882391F4E981FA818081F4
:1020E0009181009709F07FC0E981FA818281938113
:1020F0000E94760CE981FA811382128274C08D816C
:10210000882399F5E981FA8164817581E981FA81F1
:10211000848D482F50E02B813C81CB01B9010E9476
:102120007E25E981FA8124813581E981FA81848DD6
:10213000882F90E0820F931FE981FA819583848331
:10214000E981FA8124813581E981FA818281938153
:102150002817390708F447C0E981FA818081918105
:10216000E981FA81958384833EC0E981FA816681A1
:102170007781E981FA81848D482F50E02B813C8161
:10218000CB01B9010E947E25E981FA812681378140
:10219000E981FA81848D882F90E0909581959F4FF9
:1021A000820F931FE981FA8197838683E981FA81FF
:1021B00026813781E981FA81808191812817390749
:1021C00090F4E981FA8122813381E981FA81848D59
:1021D000882F90E0909581959F4F820F931FE98102
:1021E000FA8197838683E981FA81828D8F5FE98105
:1021F000FA81828F0F900F900F900F900F90CF91D8
:10220000DF910895DF93CF9300D00F92CDB7DEB763
:102210009A8389837C836B83E981FA8180819181B0
:10222000009789F1E981FA8126813781E981FA8174
:10223000848D882F90E0820F931FE981FA81978324
:102240008683E981FA8126813781E981FA81828159
:1022500093812817390740F0E981FA8180819181C3
:10226000E981FA8197838683E981FA8146815781E2
:10227000E981FA81848D282F30E08B819C81BA011D
:10228000A9010E947E250F900F900F900F90CF9183
:10229000DF910895DF93CF930F920F92CDB7DEB702
:1022A0009A8389830FB6F8940F9215C0E981FA8159
:1022B00081898823A9F089819A8141960E944A09DF
:1022C000882311F00E94330AE981FA81868D8150BA
:1022D000E981FA81868FE981FA81868D181634F3B7
:1022E000E981FA818FEF868F0F900FBE0FB6F894B9
:1022F0000F9215C0E981FA8180858823A9F0898130
:102300009A8108960E944A09882311F00E94330A94
:10231000E981FA81858D8150E981FA81858FE98192
:10232000FA81858D181634F3E981FA818FEF858F54
:102330000F900FBE0F900F90CF91DF910895DF9314
:10234000CF9300D0CDB7DEB79B838A830FB6F894C6
:102350000F92EA81FB81828D1982882311F481E03A
:1023600089830F900FBE89810F900F900F90CF91AE
:10237000DF910895DF93CF9300D0CDB7DEB79B8375
:102380008A83EA81FB81828D1982882311F481E09E
:10239000898389810F900F900F90CF91DF910895DD
:1023A000DF93CF9300D0CDB7DEB79B838A830FB680
:1023B000F8940F92EA81FB81928DEA81FB81838DF3
:1023C0001982981711F481E089830F900FBE8981DB
:1023D0000F900F900F90CF91DF910895DF93CF93DF
:1023E00000D0CDB7DEB79B838A83EA81FB81928DD3
:1023F000EA81FB81838D1982981711F481E089832A
:1024000089810F900F900F90CF91DF910895DF9306
:10241000CF930F920F92CDB7DEB79A8389838981CC
:102420009A810396E981FA8192838183E981FA8115
:102430008FEF9FEF9483838389819A810396E9814B
:10244000FA819683858389819A810396E981FA814D
:1024500090878783E981FA8110820F900F90CF9146
:10246000DF910895DF93CF930F920F92CDB7DEB730
:102470009A838983E981FA81118610860F900F90E3
:10248000CF91DF910895DF93CF9300D000D0CDB7E7
:10249000DEB79C838B837E836D83EB81FC8181819E
:1024A00092819A838983E981FA8182819381ED8186
:1024B000FE8193838283EB81FC8181819281ED8116
:1024C000FE8195838483E981FA810280F381E02D86
:1024D0008D819E81958384838D819E81E981FA819E
:1024E000938382838D819E81EB81FC8192838183A2
:1024F000ED81FE818B819C8191878087EB81FC81BE
:1025000080818F5FEB81FC81808326960FB6F894E3
:10251000DEBF0FBECDBFCF91DF910895DF93CF9384
:10252000CDB7DEB728970FB6F894DEBF0FBECDBF8C
:102530009E838D8378876F83EF81F8858081918179
:102540009A83898389819A812FEF8F3F920739F48B
:10255000ED81FE81878190859C838B8318C08D815E
:102560009E8103969C838B8306C0EB81FC818281D4
:1025700093819C838B83EB81FC810280F381E02D2E
:102580002081318189819A818217930770F7EB81CD
:10259000FC8182819381EF81F88593838283EF812F
:1025A000F8850280F381E02D8F819885958384835F
:1025B000EF81F8858B819C81958384838F819885B9
:1025C000EB81FC8193838283EF81F8858D819E81ED
:1025D00091878087ED81FE8180818F5FED81FE8113
:1025E000808328960FB6F894DEBF0FBECDBFCF9183
:1025F000DF910895DF93CF9300D00F92CDB7DEB770
:102600009C838B83EB81FC81A281B381EB81FC8174
:102610008481958115969C938E931497EB81FC8110
:10262000A481B581EB81FC818281938113969C9377
:102630008E931297EB81FC81808591859A838983A3
:10264000E981FA81218132818B819C8128173907A8
:1026500041F4EB81FC8184819581E981FA81928347
:102660008183EB81FC8111861086E981FA8180816A
:102670008150E981FA818083E981FA8180810F901C
:102680000F900F900F90CF91DF910895DF93CF932C
:10269000CDB7DEB727970FB6F894DEBF0FBECDBF1C
:1026A0009D838C836E834F838AE190E00E941F1686
:1026B0009A83898389819A81009709F46FC08091F8
:1026C000870290918802009741F489819A819093C2
:1026D0008802809387020E94AE158E81823010F0AE
:1026E00081E08E83E981FA81118E108EE981FA8171
:1026F0008E81868BE981FA818F81878BE981FA81CE
:102700008C819D819183808389819A8102960E9428
:10271000321289819A810C960E943212E981FA81E3
:1027200089819A8191878087E981FA8189819A815B
:10273000938B828B8E81282F30E084E090E0821B87
:10274000930BE981FA8195878487E981FA819689DB
:1027500080918902891728F4E981FA81868980931A
:102760008902E981FA818689282F30E0C901880F22
:10277000991F880F991F880F991F820F931FAC0113
:1027800040575D4F89819A819C012E5F3F4FCA015E
:10279000B9010E94431281E08B8302C08FEF8B83CB
:1027A0008B8127960FB6F894DEBF0FBECDBFCF91B9
:1027B000DF910895DF93CF9300D000D0CDB7DEB77F
:1027C0009C838B837E836D8320918A0230918B0260
:1027D0008B819C81820F931F9A83898380918702CA
:1027E0009091880202960E94FA12E0918702F0917D
:1027F000880289819A819383828320918A02309111
:102800008B0289819A818217930770F48091B602B6
:102810009091B70220918702309188022E5F3F4F3E
:10282000B9010E948E120DC08091B4029091B50240
:1028300020918702309188022E5F3F4FB9010E949C
:102840008E128D819E81009761F080918702909118
:1028500088029C01245F3F4F8D819E81B9010E94B7
:102860008E1226960FB6F894DEBF0FBECDBFCF9165
:10287000DF910895DF93CF930F920F92CDB7DEB71C
:102880003AC0F894E091BD02F091BE028681978132
:102890009A83898389819A810C960E94FA1278948E
:1028A00089819A8102960E94FA12E981FA819689B9
:1028B00080918902891728F4E981FA8186898093B9
:1028C0008902E981FA818689282F30E0C901880FC1
:1028D000991F880F991F880F991F820F931FAC01B2
:1028E00040575D4F89819A819C012E5F3F4FCA01FD
:1028F000B9010E9443128091B802882309F0C1CF28
:102900000F900F90CF91DF910895DF93CF9300D078
:102910000F92CDB7DEB70E94760720918C023091DE
:102920008D02821B930B90938F0280938E0285C041
:1029300080918A0290918B02019690938B028093F2
:102940008A0280918E0290918F02019790938F025C
:1029500080938E0280918A0290918B02009709F0F9
:1029600064C08091B4029091B5029A83898380916A
:10297000B6029091B7029093B5028093B402898118
:102980009A819093B7028093B6024FC0E091B4024F
:10299000F091B5020580F681E02D868197819C83B8
:1029A0008B83EB81FC812281338180918A0290911B
:1029B0008B028217930708F440C0F8948B819C81A6
:1029C00002960E94FA12EB81FC8184899589009716
:1029D00029F08B819C810C960E94FA127894EB81ED
:1029E000FC81968980918902891728F4EB81FC810A
:1029F000868980938902EB81FC818689282F30E0CB
:102A0000C901880F991F880F991F880F991F820F7E
:102A1000931FAC0140575D4F8B819C819C012E5FC1
:102A20003F4FCA01B9010E944312E091B402F091F4
:102A3000B5028081882309F0A9CF80918E02909100
:102A40008F02009709F074CF80918A0290918B02D7
:102A500090938D0280938C020F900F900F900F90A7
:102A6000CF91DF910895DF93CF930F920F92CDB75F
:102A7000DEB70E943A140E9485140AC08091890230
:102A8000882309F466C0809189028150809389026D
:102A900080918902282F30E0C901880F991F880F83
:102AA000991F880F991F820F931FFC01E057FD4F5C
:102AB0008081882319F380918902282F30E0C90191
:102AC000880F991F880F991F880F991F820F931FD6
:102AD00080579D4F9A838983E981FA810180F28131
:102AE000E02D82819381E981FA8192838183E9815A
:102AF000FA812181328189819A81039628173907C9
:102B000059F4E981FA810180F281E02D828193817B
:102B1000E981FA8192838183E981FA810180F281DE
:102B2000E02D868197819093880280938702E091BF
:102B30008702F091880240815181809187029091B3
:102B40008802E0918702F09188022789622FFA01BA
:102B500019950F900F90CF91DF910895DF93CF9348
:102B60000F92CDB7DEB7198213C08981282F30E0CC
:102B7000C901880F991F880F991F880F991F820F0D
:102B8000931F80579D4F0E94071289818F5F898311
:102B90008981823050F382EA92E00E9407128BEA28
:102BA00092E00E94071288EB92E00E94071282EAEC
:102BB00092E09093B5028093B4028BEA92E09093F6
:102BC000B7028093B6020F90CF91DF910895DF9303
:102BD000CF9300D00F920F92CDB7DEB79D838C8339
:102BE000EC81FD810580F681E02D868197819B83B4
:102BF0008A838A819B810C960E94FA128A819B812A
:102C00009C01245F3F4F88EB92E0B9010E94431280
:102C1000EA81FB819689E0918702F091880286899A
:102C2000981718F081E0898301C0198289810F907B
:102C30000F900F900F900F90CF91DF910895DF9339
:102C4000CF9300D00F92CDB7DEB79C838B831A82CF
:102C500019820E94E0068091C1029091C2022B81EC
:102C60003C81820F931F28E18030920718F5209154
:102C7000C1023091C2028B819C81280F391F809143
:102C8000C1029091C20282179307A0F48091C10201
:102C90009091C2028D539D4F9A8389832091C102E6
:102CA0003091C2028B819C81820F931F9093C2024C
:102CB0008093C1020E94EC0689819A810F900F9047
:102CC0000F900F90CF91DF910895DF93CF930F92E4
:102CD0000F92CDB7DEB79A8389830F900F90CF9173
:102CE000DF910895DF93CF93CDB7DEB71092C20284
:102CF0001092C102CF91DF910895DF93CF93CDB7AA
:102D0000DEB72091C1023091C20280E098E1821BBF
:102D1000930BCF91DF910895DF93CF93CDB7DEB7BB
:102D200028970FB6F894DEBF0FBECDBF9C838B8370
:102D30007E836D8358874F83EB81FC8181E18083A3
:102D40008B819C8101979C838B83EB81FC8182E248
:102D500080838B819C8101979C838B83EB81FC8199
:102D600083E380838B819C8101979C838B838D81FE
:102D70009E819A8389838981EB81FC8180838B8109
:102D80009C8101979C838B8389819A81892F9927C4
:102D90009A8389838981EB81FC8180838B819C81EB
:102DA00001979C838B83EB81FC8110828B819C81BA
:102DB00001979C838B83EB81FC8110828B819C81AA
:102DC00001979C838B83EB81FC8180E880838B81DE
:102DD0009C8101979C838B83EB81FC8110828B818A
:102DE0009C8101979C838B83EB81FC8110828B817A
:102DF0009C8101979C838B83EB81FC8110828B816A
:102E00009C8101979C838B83EB81FC8182E0808392
:102E10008B819C8101979C838B83EB81FC8183E078
:102E200080838B819C8101979C838B83EB81FC81C8
:102E300084E080838B819C8101979C838B83EB81D1
:102E4000FC8185E080838B819C8101979C838B83AF
:102E5000EB81FC8186E080838B819C8101979C8340
:102E60008B83EB81FC8187E080838B819C81019740
:102E70009C838B83EB81FC8188E080838B819C81A8
:102E800001979C838B83EB81FC8189E080838B811C
:102E90009C8101979C838B83EB81FC8180E1808303
:102EA0008B819C8101979C838B83EB81FC8181E1E9
:102EB00080838B819C8101979C838B83EB81FC8138
:102EC00082E180838B819C8101979C838B83EB8142
:102ED000FC8183E180838B819C8101979C838B8320
:102EE000EB81FC8184E180838B819C8101979C83B1
:102EF0008B83EB81FC8185E180838B819C810197B1
:102F00009C838B83EB81FC8186E180838B819C8118
:102F100001979C838B83EB81FC8187E180838B818C
:102F20009C8101979C838B83EB81FC8188E180836A
:102F30008B819C8101979C838B83EB81FC8189E150
:102F400080838B819C8101979C838B83EB81FC81A7
:102F500080E280838B819C8101979C838B83EB81B2
:102F6000FC8181E280838B819C8101979C838B8390
:102F7000EB81FC8182E280838B819C8101979C8321
:102F80008B83EB81FC8183E280838B819C81019721
:102F90009C838B838F8198859A8389838981EB8138
:102FA000FC8180838B819C8101979C838B838981A9
:102FB0009A81892F99279A8389838981EB81FC8162
:102FC00080838B819C8101979C838B83EB81FC8127
:102FD00086E280838B819C8101979C838B83EB812C
:102FE000FC8187E280838B819C8101979C838B830A
:102FF000EB81FC8188E280838B819C8101979C839B
:103000008B83EB81FC8189E280838B819C8101979A
:103010009C838B83EB81FC8180E380838B819C810B
:1030200001979C838B83EB81FC8181E380838B817F
:103030009C8101979C838B838B819C8128960FB602
:10304000F894DEBF0FBECDBFCF91DF910895DF931F
:10305000CF93CDB7DEB70E942B19A0912E02B0916D
:103060002F02CD91CDBFDD91DEBFFF91EF91DF91BA
:10307000CF91BF91AF919F918F917F916F915F9110
:103080004F913F912F911F910F91FF90EF90DF9003
:10309000CF90BF90AF909F908F907F906F905F90F8
:1030A0004F903F902F901F900F900CBE0F900BBE33
:1030B0000F900FBE0F90089581E0CF91DF9108959A
:1030C000DF93CF93CDB7DEB7CF91DF9108950F9205
:1030D0000FB6F8940F920BB60F920CB60F921F9288
:1030E00011242F923F924F925F926F927F928F9214
:1030F0009F92AF92BF92CF92DF92EF92FF920F9387
:103100001F932F933F934F935F936F937F938F936F
:103110009F93AF93BF93CF93DF93EF93FF93A091D0
:103120002E02B0912F020DB60D920EB60D920E9496
:103130007F08A0912E02B0912F02CD91CDBFDD91DD
:10314000DEBFFF91EF91DF91CF91BF91AF919F9142
:103150008F917F916F915F914F913F912F911F912F
:103160000F91FF90EF90DF90CF90BF90AF909F9026
:103170008F907F906F905F904F903F902F901F9017
:103180000F900CBE0F900BBE0F900FBE0F900895C6
:103190000F920FB6F8940F920BB60F920CB60F92D7
:1031A0001F9211242F923F924F925F926F927F92C3
:1031B0008F929F92AF92BF92CF92DF92EF92FF9247
:1031C0000F931F932F933F934F935F936F937F932F
:1031D0008F939F93AF93BF93CF93DF93EF93FF931F
:1031E000A0912E02B0912F020DB60D920EB60D9247
:1031F0000E94AB070E947F08A0912E02B0912F027F
:10320000CD91CDBFDD91DEBFFF91EF91DF91CF91E9
:10321000BF91AF919F918F917F916F915F914F91EE
:103220003F912F911F910F91FF90EF90DF90CF90E2
:10323000BF90AF909F908F907F906F905F904F90D6
:103240003F902F901F900F900CBE0F900BBE0F90D1
:103250000FBE0F900895DF93CF9300D000D0CDB76D
:10326000DEB780E09DE7A0E0B0E08B839C83AD8378
:10327000BE838B819C81AD81BE81689415F8B69523
:10328000A795979587951694D1F78B839C83AD83EB
:10329000BE838B819C81AD81BE810197A109B1095B
:1032A0008B839C83AD83BE838B8189838B819C813F
:1032B000AD81BE81892F9A2FAB2FBB278B839C8337
:1032C000AD83BE838B818A83E9E9F0E08A818083C4
:1032D000E8E9F0E0898180838BE08983E1E9F0E02F
:1032E00089818083E1E7F0E0808189838981826040
:1032F0008983E1E7F0E08981808326960FB6F89410
:10330000DEBF0FBECDBFCF91DF9108950E94C818D8
:103310001895CF93DF9300D000D0CDB7DEB79A8356
:1033200089834B835C836D837E8340E061E080E42E
:103330000E94530D9093D51A8093D41A40E061E017
:1033400088E00E94530D9093D11A8093D01A85EC97
:1033500090E0FC01108284EC90E028E0FC012083E6
:1033600081EC90E028E1FC01208382EC90E026E0F3
:10337000FC01208380EC90E020EC30E0F90120811A
:103380002D7FFC01208326960FB6F894DEBF0FBE7A
:10339000CDBFDF91CF910895CF93DF931F92CDB72B
:1033A000DEB78983000080EC90E0FC018081882FEB
:1033B00090E0807299270097B1F386EC90E0298124
:1033C000FC0120830F90DF91CF910895CF93DF937D
:1033D0001F92CDB7DEB78983000080EC90E0FC013E
:1033E0008081882F90E0807299270097B1F386EC56
:1033F00090E02981FC0120830F90DF91CF91089507
:10340000CF93DF93CDB7DEB7000080ED90E0FC01F5
:1034100080818823D4F786ED90E0FC018081DF91E4
:10342000CF9108951F920F9200905F000F92112488
:1034300000905B000F928F939F93EF93FF93CF9336
:10344000DF931F92CDB7DEB78EEC90E0FC01808158
:1034500089830F90DF91CF91FF91EF919F918F9191
:103460000F9000925B000F9000925F000F901F90F2
:103470001895CF93DF931F92CDB7DEB789838091E4
:10348000D41A9091D51A20E04FEF5FEFBE016F5F25
:103490007F4F0E94FD0D0F90DF91CF910895CF9344
:1034A000DF931F921F92CDB7DEB79A8389830BC03B
:1034B00089819A81FC0180810E94391A89819A81CF
:1034C00001969A83898389819A81FC01808188236E
:1034D00079F70F900F90DF91CF910895CF93DF93FD
:1034E00000D0CDB7DEB79B838A838091D41A9091A8
:1034F000D51A20E04FEF5FEFBE016F5F7F4F0E9454
:10350000EC0E000088EC90E0FC018081882F90E0B8
:10351000807299270097B1F38EEC90E02981FC012D
:103520002083E3CFCF93DF931F92CDB7DEB789839C
:103530008091D21A9091D31A20E04FEF5FEFBE0135
:103540006F5F7F4F0E94FD0D0F90DF91CF91089527
:10355000CF93DF931F921F92CDB7DEB79A838983F3
:103560000BC089819A81FC0180810E94921A898115
:103570009A8101969A83898389819A81FC0180814D
:10358000882379F70F900F90DF91CF910895CF9313
:10359000DF9300D0CDB7DEB79B838A838091D21AA8
:1035A0009091D31A20E04FEF5FEFBE016F5F7F4F26
:1035B0000E94EC0E000080EC90E0FC018081882FDE
:1035C00090E0807299270097B1F386EC90E0298112
:1035D000FC012083E3CFCF93DF931F92CDB7DEB7FB
:1035E0008091D01A9091D11A20E041E050E0BE01C4
:1035F0006F5F7F4F0E94EC0E813011F4898101C012
:103600008FEF0F90DF91CF910895CF93DF9300D08C
:103610001F92CDB7DEB79C838B831A82198205C0B7
:1036200089819A8101969A83898329813A818B8144
:103630009C8128173907A4F30F900F900F900F90DB
:10364000DF91CF910895CF93DF93CDB7DEB780E8B8
:103650000E94CC19DF91CF910895CF93DF93CDB71E
:10366000DEB780E00E94CC19DF91CF910895CF930F
:10367000DF93CDB7DEB72D970FB6F894DEBF0FBE40
:10368000CDBF9B878A877D876C871A8219821C82AF
:103690001B8283E090E098878F836DC02EC082E309
:1036A00090E09E838D8310C08D819E8101979E83C3
:1036B0008D838D819E81009719F48FEF9FEF65C0F8
:1036C00081E090E00E94090580EC90E0FC0180819F
:1036D000882354F786EC90E0FC01808189878981FA
:1036E0009A812C853D85820F931F2985FC012083BB
:1036F00089819A8101969A83898329813A818A8571
:103700009B85281739075CF282E390E09E838D83C6
:1037100010C08D819E8101979E838D838D819E81B6
:10372000009719F48FEF9FEF30C081E090E00E9486
:10373000090580EC90E0FC018081882354F786EC39
:1037400090E0FC01808189872A858C859D85622F88
:103750000E940E1D982F8985981741F00E942D1BFD
:103760008B819C8101969C838B8305C00E94231BC7
:1037700080E090E00AC02B813C818F8198852817DA
:1037800039070CF48BCF8FEF9FEF2D960FB6F8947F
:10379000DEBF0FBECDBFDF91CF910895CF93DF93F2
:1037A000CDB7DEB7CC55D1090FB6F894DEBF0FBE4A
:1037B000CDBF9E01255A3F4FF9019183808384E25A
:1037C00090E02FEFFC01208319828EE190E09B8333
:1037D0008A832DC012C08A819B8101979B838A8333
:1037E0008A819B81009729F419828EE190E09B8366
:1037F0008A8381E090E00E94090580EC90E0FC0162
:103800008081882344F786EC90E0FC0180818C83E2
:103810008981992787FD90959E012A5F3F4F820FEE
:10382000931F2C81FC01208389818F5F898389818B
:10383000843084F2CE01069663E00E940E1D982F1C
:103840008985981721F00E942D1B198229C00E949A
:10385000231B19828E818E8B8F818F8B88858D8320
:103860008D81882381F08D81882F90E09E012A5ED2
:103870003F4F2D5F3F4FB9010E94371B8F3FFFEF36
:103880009F0709F40DC09E01275C3F4FCE0146966D
:10389000B9010E94E51ECE01C9960E94511C94CF29
:1038A00093CFCF93DF93CDB7DEB728970FB6F894B9
:1038B000DEBF0FBECDBF98878F8382E390E09C83ED
:1038C0008B838F819885FC0180810E94CC1981E0D7
:1038D00090E00E9409058F819885FC0181810E94FA
:1038E000CC1981E090E00E9409058F819885FC0148
:1038F00080818D838F819885FC0181818E83CE01AB
:10390000059662E00E940E1D0E94CC190E94E41CE4
:10391000992787FD9095009759F081309105A9F07E
:103920008F3FFFEF9F0709F0CCCF8FEF9FEF43C092
:103930008B819C8101979C838B838B819C810097D9
:1039400019F48FEF9FEF37C0BCCF00001A821982A5
:1039500014C02F81388589819A81820F931F029626
:10396000FC0180810E94CC1981E090E00E94090551
:1039700089819A8101969A8389838F819885FC0138
:103980008181282F332727FD309589819A818217DD
:103990009307FCF28F819885FC018181282F8F810C
:1039A00098850296622F0E940E1D0E94CC190E94DB
:1039B000E41C80E090E028960FB6F894DEBF0FBEBE
:1039C000CDBFDF91CF910895CF93DF931F921F92C8
:1039D000CDB7DEB788E893E19A8389830BC08981EC
:1039E0009A8101979A83898389819A81009711F43A
:1039F0008FEF0FC080ED90E0FC01808188237CF781
:103A000086ED90E0FC018081803811F481E001C0F6
:103A100080E00F900F90DF91CF910895CF93DF93C7
:103A200000D000D0CDB7DEB79D838C836E83198222
:103A30001B821A8211C08C819D819C012F5F3F4F98
:103A40003D832C83FC0180819981890F89838A8140
:103A50009B8101969B838A838E81282F30E08A8107
:103A60009B81821793073CF3898126960FB6F894C1
:103A7000DEBF0FBECDBFDF91CF910895CF93DF930F
:103A80001F921F92CDB7DEB79A83898381E00F9092
:103A90000F90DF91CF910895CF93DF93CDB7DEB72D
:103AA00027970FB6F894DEBF0FBECDBF89837B8307
:103AB0006A835D834C833F832E838981992787FDA9
:103AC00090958230910581F083309105C1F081306D
:103AD000910501F58E819F810E94C6218C819D8177
:103AE0002CE0FC01208316C08A819B81FC0120818F
:103AF0008E819F81BC01822F0E94F1210BC08A819F
:103B00009B81FC0120818E819F81BC01822F0E94BC
:103B10001C22000081E027960FB6F894DEBF0FBE8E
:103B2000CDBFDF91CF910895CF93DF9300D01F9247
:103B30001F92CDB7DEB789837B836A835D834C8315
:103B40008981992787FD9095009721F08130910513
:103B500031F013C08C819D810E94C4220EC08C81E3
:103B60009D81FC0111828A819B81FC0180819927C2
:103B700087FD90950E94D622000081E00F900F9063
:103B80000F900F900F90DF91CF910895CF93DF9317
:103B900000D01F921F92CDB7DEB789837B836A83E3
:103BA0005D834C838981992787FD909582309105AB
:103BB000F9F08330910534F4009759F08130910584
:103BC00091F04CC083309105C1F08430910591F1A2
:103BD00045C08A819B81FC018081992787FD909552
:103BE0000E94E7223BC08C819D810E94F22236C058
:103BF0008C819D810E94042331C08A819B81029621
:103C0000FC018081482F552747FD50958A819B8173
:103C10000196FC018081282F332727FD30958A816A
:103C20009B81FC018081992787FD9095B9010E94B5
:103C3000162314C08A819B810196FC018081282F64
:103C4000332727FD30958A819B81FC01808199274C
:103C500087FD9095B9010E942523000081E00F9017
:103C60000F900F900F900F90DF91CF910895CF9309
:103C7000DF9300D01F921F92CDB7DEB789837B837D
:103C80006A835D834C838C819D81FC0111828981D3
:103C9000992787FD9095009721F08130910559F083
:103CA0000FC08A819B81FC018081992787FD9095B7
:103CB0000E945A2005C08C819D810E9476200000C0
:103CC0000F900F900F900F900F90DF91CF9108956C
:103CD000CF93DF9300D01F921F92CDB7DEB78983B9
:103CE0007B836A835D834C838981992787FD9095C7
:103CF000009721F08130910559F00FC08A819B8196
:103D0000FC018081992787FD90950E94861F05C040
:103D10008C819D810E94911F00000F900F900F9049
:103D20000F900F90DF91CF910895CF93DF9300D044
:103D30001F921F92CDB7DEB789837B836A835D8331
:103D40004C838981992787FD9095009721F08130D8
:103D5000910531F00AC08C819D810E94621F05C0CF
:103D60008C819D810E94741F00000F900F900F9016
:103D70000F900F90DF91CF910895CF93DF9300D0F4
:103D80001F921F92CDB7DEB789837B836A835D83E1
:103D90004C838C819D81FC0111828981992787FD4B
:103DA0009095009751F48A819B81FC01808199272D
:103DB00087FD90950E94882000000F900F900F9033
:103DC0000F900F90DF91CF910895CF93DF9300D0A4
:103DD0001F92CDB7DEB79A8389837C836B838981F9
:103DE0009A81DC0111962C918B819C81FC012083AE
:103DF00089819A81DC018C91992787FD9095AA276A
:103E000097FDA095BA2F41E050E027E030E0841BF9
:103E1000950B2817390708F44DC08E589F4FFC01A9
:103E20000C9478258B819C819C012E5F3F4F8B8168
:103E30009C81AC014F5F5F4F89819A8103966981B4
:103E40007A81DB011196EC91BC018E2F0E944C1DF2
:103E500031C089819A81039629813A81D9011196CD
:103E6000EC912B813C81A901BC018E2F0E94941DF5
:103E700021C089819A81039629813A81D9011196BD
:103E8000EC912B813C81A901BC018E2F0E94371E31
:103E900011C089819A81039629813A81D9011196AD
:103EA000EC912B813C81A901BC018E2F0E94BD1E8B
:103EB00001C0000081E00F900F900F900F90DF91F4
:103EC000CF910895CF93DF931F921F92CDB7DEB7A6
:103ED0009A83898389819A81FC01108281E00F9005
:103EE0000F90DF91CF910895CF93DF931F921F9290
:103EF000CDB7DEB79A83898389819A81FC011082CC
:103F000081E00F900F90DF91CF910895CF93DF93D1
:103F10001F92CDB7DEB7898381E00F90DF91CF91FB
:103F20000895CF93DF931F921F92CDB7DEB79A8388
:103F3000898389819A81FC01108281E00F900F9022
:103F4000DF91CF910895CF93DF93CDB7DEB782E2B3
:103F500090E022E230E0F90120812D7FFC012083F6
:103F60000DC082E290E022E230E0F90120812D7F55
:103F7000FC01208381E090E00E94090582E290E04C
:103F8000FC018081882F90E082709927009749F783
:103F900082E290E022E230E0F90120812160FC0120
:103FA00020838BE091E02BE031E0F90120812F7C30
:103FB000FC012083DF91CF910895CF93DF93CDB79C
:103FC000DEB782E290E022E230E0F90120812E7F2C
:103FD000FC0120830DC082E290E022E230E0F90192
:103FE00020812E7FFC01208381E090E00E94090562
:103FF00082E290E0FC018081882F90E08170992717
:10400000009749F782E290E022E230E0F901208156
:104010002260FC0120838BE091E02BE031E0F9018C
:1040200020812063FC012083DF91CF910895CF93FD
:10403000DF93CDB7DEB782E290E022E230E0F90113
:1040400020812E7FFC01208382E290E022E230E09A
:10405000F90120812D7FFC01208316C082E290E0CF
:1040600022E230E0F90120812E7FFC01208382E2F0
:1040700090E022E230E0F90120812D7FFC012083D5
:1040800081E090E00E94090582E290E0FC018081DD
:10409000882F90E083709927009701F78BE091E0DB
:1040A0002BE031E0F90120812F7CFC012083DF919E
:1040B000CF910895CF93DF931F92CDB7DEB7898359
:1040C0008981882319F40E9417200BC089818130CF
:1040D00019F40E94A31F05C089818F3F11F40E942B
:1040E000DD1F81E00F90DF91CF910895CF93DF9393
:1040F0001F921F92CDB7DEB79A83898389819A81F7
:10410000FC01108281E00F900F90DF91CF91089514
:10411000CF93DF931F92CDB7DEB78983898181303A
:1041200051F485E290E025E230E0F9012081206839
:10413000FC01208309C085E290E025E230E0F9012E
:1041400020812F77FC01208381E00F90DF91CF91B8
:104150000895CF93DF9300D0CDB7DEB79A838983DC
:104160006B8389819A818A52954E2B81FC01208331
:104170000F900F900F90DF91CF910895CF93DF9321
:104180001F921F92CDB7DEB79A83898389818E5F94
:104190000F900F90DF91CF910895CF93DF93CDB71C
:1041A000DEB786E490E0FC018081DF91CF91089535
:1041B0001F920F9200905F000F92112400905B00FD
:1041C0000F922F933F934F935F936F937F938F93B0
:1041D0009F93AF93BF93EF93FF93CF93DF9300D061
:1041E000CDB7DEB7198286E091E0FC018081882F8F
:1041F00090E02091EA1A222F30E0022E02C095951D
:1042000087950A94E2F781709927009749F00E94F8
:10421000CD208A838EE290E02FEFFC0120831DC029
:104220000E94CD208B839B818A81891738F49B81E2
:104230008A81F92FF81B8F2F8093C31A8EE290E0AA
:10424000FC0110828091DC1A9091DD1A20E040E0A0
:1042500050E060E070E00E949B0E0F900F900F9076
:10426000DF91CF91FF91EF91BF91AF919F918F918E
:104270007F916F915F914F913F912F910F9000929D
:104280005B000F9000925F000F901F901895CF93E6
:10429000DF93CDB7DEB78DE790E0FC01108287E0B9
:1042A00091E0FC01108287E290E0FC01108288E23C
:1042B00090E0FC0110828DE690E02FEFFC0120835E
:1042C00088E690E027E0FC01208384E490E0FC0194
:1042D000108285E490E025E0FC012083DF91CF91FE
:1042E0000895CF93DF9300D01F92CDB7DEB79C83A4
:1042F0008B830E94472143E060E081E00E94530DE0
:104300009093DD1A8093DC1A8091DC1A9091DD1A6B
:10431000009759F08091DC1A9091DD1A20E040E07E
:1043200050E060E070E00E94FD0D1092EA1A1A82DF
:10433000198226C089818093EA1A88E290E021E000
:1043400030E0098002C0220F331F0A94E2F7FC011B
:1043500020838091DC1A9091DD1A20E04FEF5FEF0F
:1043600060E070E00E94EC0E2091C31A89819A816E
:10437000622F0E94A92089819A8101969A8389835C
:1043800089819A8182309105ACF2D1CFCF93DF93AE
:1043900000D01F92CDB7DEB79C838B831A8219821F
:1043A00014C089819A81880F991F2B813C81820FCB
:1043B000931F29813A812F5F3F4FFC013183208376
:1043C00089819A8101969A83898389819A8186302D
:1043D000910538F30F900F900F900F90DF91CF91D0
:1043E00008950F931F93CF93DF9300D0CDB7DEB71F
:1043F00089837B836A8389818630B4F48981992794
:1044000087FD9095880F991F2A813B818901080FAC
:10441000191F8981992787FD90950E94BE20882FBA
:1044200090E0F801918380830F900F900F90DF91BF
:10443000CF911F910F9108950F931F93CF93DF9307
:1044400000D0CDB7DEB789837B836A8389819927C2
:1044500087FD90958130910501F182309105B9F188
:10446000009709F04EC080E090E00E94BE20282F07
:1044700030E08A819B81FC01318320838A819B818A
:104480008C010E5F1F4F81E090E00E94BE20882FBC
:1044900090E0F8019183808334C082E090E00E9434
:1044A000BE20282F30E08A819B81FC01318320834C
:1044B0008A819B818C010E5F1F4F83E090E00E94F8
:1044C000BE20882F90E0F801918380831AC084E099
:1044D00090E00E94BE20282F30E08A819B81FC0161
:1044E000318320838A819B818C010E5F1F4F85E081
:1044F00090E00E94BE20882F90E0F8019183808395
:1045000000000F900F900F90DF91CF911F910F91AE
:104510000895CF93DF93CDB7DEB78FE090E40E948C
:10452000E923DF91CF910895CF93DF9300D01F92BD
:10453000CDB7DEB79C838B831A8219828B819C81D5
:1045400099279A83898389819A810E94E9230F9010
:104550000F900F900F90DF91CF910895CF93DF933D
:10456000CDB7DEB786E090E00E94A323DF91CF9124
:104570000895CF93DF93CDB7DEB78AE090E00E9435
:10458000A323DF91CF910895CF93DF931F921F92C2
:10459000CDB7DEB79A83898389819A81FC01108225
:1045A00081E00F900F90DF91CF910895CF93DF932B
:1045B0001F92CDB7DEB789838981992787FD9095B2
:1045C0000E94942281E00F90DF91CF910895CF93C4
:1045D000DF931F92CDB7DEB7898381E00F90DF9123
:1045E000CF910895CF93DF931F921F92CDB7DEB77F
:1045F0009A83898389819A81FC01108281E00F90DE
:104600000F90DF91CF910895CF93DF931F921F9268
:10461000CDB7DEB79A83898389819A81FC011082A4
:1046200081E00F900F90DF91CF910895CF93DF93AA
:1046300000D0CDB7DEB789836A834B8381E00F90CA
:104640000F900F90DF91CF910895CF93DF931F923A
:104650001F92CDB7DEB789836A8381E00F900F90F8
:10466000DF91CF910895CF93DF93CDB7DEB78CE480
:1046700090E023E5FC01208384E290E024E230E036
:10468000F9012081622F40E050E021E030E002C0DB
:10469000220F331F4A95E2F7722F41E050E021E0EC
:1046A00030E002C0220F331F4A95E2F7722B42E03E
:1046B00050E021E030E002C0220F331F4A95E2F7BC
:1046C000272B262BFC01208384E290E024E230E0BB
:1046D000F9012081622F43E050E021E030E002C088
:1046E000220F331F4A95E2F720952623FC012083F1
:1046F00085E290E025E230E0F9012081622F40E080
:1047000050E021E030E002C0220F331F4A95E2F76B
:10471000262BFC01208385E290E025E230E0F901C0
:104720002081622F41E050E021E030E0042E02C001
:10473000220F331F0A94E2F720952623FC012083E1
:10474000DF91CF910895CF93DF931F92CDB7DEB75E
:10475000898385E290E025E230E0F9012081622F33
:1047600040E050E021E030E002C0220F331F4A95C4
:10477000E2F720952623FC01208381E090E00E944F
:1047800009058EE490E02981FC01208300008DE47E
:1047900090E0FC0180818823D4F781E090E00E94C2
:1047A000090585E290E025E230E0F9012081622FE1
:1047B00040E050E021E030E0042E02C0220F331F21
:1047C0000A94E2F7262BFC0120830F90DF91CF9112
:1047D0000895CF93DF931F921F92CDB7DEB79A83D0
:1047E000898385E290E025E230E0F9012081622FA3
:1047F00040E050E021E030E002C0220F331F4A9534
:10480000E2F720952623FC01208382E090E00E94BD
:1048100009058EE490E029813A81232F3327FC019A
:10482000208300008DE490E0FC0180818823D4F790
:104830008EE490E02981FC01208300008DE490E06B
:10484000FC0180818823D4F782E090E00E94090572
:1048500085E290E025E230E0F9012081622F40E01E
:1048600050E021E030E0042E02C0220F331F0A94F2
:10487000E2F7262BFC0120830F900F90DF91CF9160
:104880000895CF93DF93CDB7DEB78091C41A90918E
:10489000C51ADF91CF910895CF93DF9300D01F9277
:1048A000CDB7DEB79C838B831A82198218C08981A9
:1048B0009A810196880F991F8A53954EFC01208199
:1048C000318189819A81880F991F8A53954EFC0105
:1048D0003183208389819A8101969A838983898192
:1048E0009A81833091051CF38B819C819093CD1A22
:1048F0008093CC1A8B819C819093C51A8093C41AA3
:104900008B819C819093C51A8093C41A2091C61AFA
:104910003091C71A8091C81A9091C91A280F391F6F
:104920008091CA1A9091CB1A280F391F8091CC1A06
:104930009091CD1A820F931F9595879595958795A0
:104940009093C51A8093C41A0F900F900F900F90F8
:10495000DF91CF910895CF93DF93CDB7DEB78AE78C
:1049600090E020E8FC0120838CE790E021E4FC014A
:1049700020838BE790E028E0FC012083DF91CF913A
:104980000895CF93DF93CDB7DEB78AE790E0FC01BF
:104990008081882F90E080749927009791F48AE7AE
:1049A00090E02AE730E0F90120812860FC012083B3
:1049B0008AE790E02AE730E0F90120812064FC01D9
:1049C0002083DF91CF9108951F920F9200905F0096
:1049D0000F92112400905B000F922F933F934F93FF
:1049E0005F936F937F938F939F93AF93BF93EF9357
:1049F000FF93CF93DF931F921F92CDB7DEB788E767
:104A000090E0FC018081882F90E09A83898389E778
:104A100090E0FC018081882F90E0982F88272981E1
:104A20003A81822B932B9A83898389819A810E9470
:104A30004C248AE790E02AE730E0F9012081277FC3
:104A4000FC0120838091EB1A9091EC1A20E040E069
:104A500050E060E070E00E949B0E0F900F90DF919D
:104A6000CF91FF91EF91BF91AF919F918F917F91E6
:104A70006F915F914F913F912F910F9000925B004A
:104A80000F9000925F000F901F901895CF93DF93C7
:104A90001F921F92CDB7DEB79A8389830E94AB2401
:104AA00043E060E081E00E94530D9093EC1A809304
:104AB000EB1A8091EB1A9091EC1A009759F08091C3
:104AC000EB1A9091EC1A20E040E050E060E070E0DA
:104AD0000E94FD0D0E94C1248091EB1A9091EC1A66
:104AE00020E04FEF5FEF60E070E00E94EC0EF2CF4D
:104AF000EE0FFF1F0590F491E02D1994FB01DC01EE
:104B000002C001900D9241505040D8F70895DC0149
:104B100001C06D9341505040E0F70895FB01DC0166
:104B20004150504048F001900D920020C9F701C05B
:104B30001D9241505040E0F70895FB019F01E89419
:104B40004230C4F04532B4F44A3029F497FB1EF4E5
:104B5000909581959F4F642F77270E94CE25805D89
:104B60008A330CF0895D8193CB010097A1F716F48D
:104B70005DE251931082C9010C94BE25DC01FC0159
:104B8000672F71917723E1F7329704C07C916D9381
:104B900070836291AE17BF07C8F30895AA1BBB1BB1
:104BA00051E107C0AA1FBB1FA617B70710F0A61B2D
:104BB000B70B881F991F5A95A9F780959095BC014E
:084BC000CD010895F894FFCF28
:104BC800FFFF49444C450054300054310054320032
:104BD8005433003031323334353637383941424373
:0C4BE800444546020003000100000000EC
:00000001FF
