:100000000C9490000C94B1000C94B1000C94B100CD
:100010000C94B1000C94B1000C94B1000C94B1009C
:100020000C94B1000C94B1000C94B1000C94AE216E
:100030000C94B1000C94B1000C94B1000C94B1007C
:100040000C94B1000C94B1000C94B1000C94B1006C
:100050000C94B1000C94B1000C94B1000C94B1005C
:100060000C94B1000C94B1000C94B1000C94B1004C
:100070000C94B1000C94AF250C94B1000C94B10019
:100080000C94691A0C94B1000C94B1000C94B1005A
:100090000C94F51A0C94B1000C94B1000C94B100BE
:1000A0000C94B1000C94B1000C94B1000C94B1000C
:1000B0000C94B1000C94B1000C94B1000C94B100FC
:1000C0000C94B1000C94B1000C9405020C94B10096
:1000D0000C94B1000C94B1000C94B1000C94B100DC
:1000E0000C94B100F51F0C203C201C203C203C202F
:1000F0002C203C200C94F51F0C943C200C940C20DC
:100100000C94170A0C941D220C94B11C0C942C20F6
:100110000C949B020C943C260C941C200C945D22A5
:1001200011241FBECFEFD1E2DEBFCDBF00E00CBF78
:1001300012E0A0E0B2E0ECEFFFE400E00BBF02C091
:1001400007900D92A033B107D9F71BE1A0E3B2E00D
:1001500001C01D92A337B107E1F70E94CB000C94B8
:10016000FC270C940000CF93DF93CDB7DEB78091CE
:1001700030029091310201969093310280933002C7
:10018000DF91CF910895CF93DF93CDB7DEB7000015
:10019000DF91CF910895AF92BF92CF92DF92EF920D
:1001A000FF920F93CF93DF9300D000D0CDB7DEB78F
:1001B0008FE38D838EEF8E83CE0105969A8389839C
:1001C000CE01059601969C838B8381E290E027EF18
:1001D000FC0120838AE290E02FEFFC0120838DE276
:1001E00090E02FEFFC01208384E290E02FEFFC01F0
:1001F000208387E091E0FC0110828BE290E0FC011B
:1002000010828EE290E0FC01108288E091E022E012
:10021000FC0120830E9453038B819C81A12CB12C73
:10022000C12CD12CE12CF12C01E09C014DE354E0D8
:1002300066E072E08BE992E00E9463038B819C810F
:10024000A12CB12CC12CD12CE12CF12C01E09C0172
:100250004DE354E069E072E08DE592E20E946303B1
:100260008B819C81A12CB12CC12CD12CE12CF12CA7
:1002700001E09C014DE354E06CE072E081EB9CE115
:100280000E9463038B819C81A12CB12CC12CD12CA9
:10029000E12CF12C01E09C014DE354E06FE072E0B1
:1002A0008CE396E20E9463030E94620680E090E085
:1002B00026960FB6F894DEBF0FBECDBFDF91CF916B
:1002C0000F91FF90EF90DF90CF90BF90AF90089587
:1002D000CF93DF93CDB7DEB762970FB6F894DEBF4A
:1002E0000FBECDBF9A8B898B20E1E2E1F2E0CE0117
:1002F0000196DC0101900D922A95E1F789899A898E
:10030000892F992782958F709E012F5F3F4F820F13
:10031000931FFC0180810E94AF1A89899A898827DE
:100320009F70892F990F990B9E012F5F3F4F820F6E
:10033000931FFC0180810E94AF1A89899A89807F6E
:1003400099279595879595958795959587959595F1
:1003500087959E012F5F3F4F820F931FFC01808185
:100360000E94AF1A89899A898F7099279E012F5F01
:100370003F4F820F931FFC0180810E94AF1A62964B
:100380000FB6F894DEBF0FBECDBFDF91CF910895B9
:10039000CF93DF93CDB7DEB72D970FB6F894DEBFBE
:1003A0000FBECDBF8D87CE0103964AE050E060E0DE
:1003B00070E00E94A1278D85882F90E09E012D5F1F
:1003C0003F4F4AE050E0B9010E94B727CE010396A3
:1003D0009A8389830BC089819A81FC0180810E9464
:1003E0001C1B89819A8101969A83898389819A81CC
:1003F000FC018081882379F72D960FB6F894DEBF33
:100400000FBECDBFDF91CF9108951F920F92009044
:100410005F000F92112400905B000F922F933F9387
:100420008F939F93EF93FF93CF93DF93CDB7DEB777
:1004300085E290E025E230E0F90120812095FC0181
:10044000208384E990E0FC01108285E990E0FC01C2
:100450001082DF91CF91FF91EF919F918F913F910A
:100460002F910F9000925B000F9000925F000F9011
:100470001F901895CF93DF93CDB7DEB786E490E059
:10048000FC018081882F90E0DF91CF9108950F9338
:100490001F93CF93DF93CDB7DEB72C970FB6F894A9
:1004A000DEBF0FBECDBF9C838B837E836D83588759
:1004B0004F833A8729871C870B872B853C858D8145
:1004C0009E81281739071CF489859A8529C02B85B8
:1004D0003C858B819C81821793071CF48F819885C2
:1004E0001FC08B859C8599230CF403969595879561
:1004F000959587958C5891099A83898329813A81AA
:100500008F819885821793074CF029853A858981D8
:100510009A818217930724F4C90102C08F819885BC
:100520002C960FB6F894DEBF0FBECDBFDF91CF91F2
:100530001F910F910895CF93DF93CDB7DEB76797E3
:100540000FB6F894DEBF0FBECDBF9F8B8E8B81E0C0
:1005500090E09A8389838CE193E09C838B8380EE87
:1005600090E09E838D8388E190E098878F8380E47C
:1005700090E09A87898780E091E09C878B8780E470
:1005800091E09E878D8780E691E0988B8F8782EC43
:1005900091E09A8B898B81E68B8B82E290E024E05C
:1005A000FC01208340E054E264EF70E080E895E2D3
:1005B0000E946C1A0E94E3230E94242380E090E0B2
:1005C0000E948D219D8B8C8B8C899D890E94680156
:1005D00080E20E94AF1A81E090E00E948D219D8B05
:1005E0008C8B8C899D890E94680180E20E94AF1AE1
:1005F00082E090E00E948D219D8B8C8B8C899D895F
:100600000E9468018AE00E94AF1A8DE00E94AF1A32
:1006100085E090E00E94D004D1CFCF93DF931F926A
:100620001F92CDB7DEB79A8389838AE091E020EFED
:10063000FC0120838BE091E020ECFC0120838CE224
:1006400091E00E94D004FBCFCF93DF9300D01F92A4
:10065000CDB7DEB79C838B830E94E3231A82198275
:100660000E94242381E090E00E942F2384EF91E0F8
:100670000E94D00480E490E00E942F2384EF91E058
:100680000E94D0048FE790E00E942F2384EF91E036
:100690000E94D00480E490E00E942F2384EF91E038
:1006A0000E94D004DFCFCF93DF93CDB7DEB784E2D3
:1006B00090E02FEFFC01208385E290E0FC011082A6
:1006C000DF91CF910895AF92BF92CF92DF92EF92D8
:1006D000FF920F931F93CF93DF93CDB7DEB764974D
:1006E0000FB6F894DEBF0FBECDBF9F838E83798790
:1006F00068875B874A873D872C870E87F88AEF8655
:10070000DA8AC98ABC8AAB8A29893A898A859B8513
:10071000B9010E94190B9B838A838A819B81009770
:1007200009F49FC08A819B81FC012789308D8A85CD
:100730009B850197820F931F9D838C834A855B85E0
:100740002B893C89688579858A819B818A014E85C0
:100750000E94290A4C855D852E813F818C819D8177
:10076000B9010E9441179C018A819B81FC01318360
:1007700020838F859889009739F08F8598892A8101
:100780003B81FC01318320830FB6F8940F92809156
:1007900080028F5F809380028091320290913302B9
:1007A000009769F48A819B8190933302809332028F
:1007B000809180028130B1F40E948A0A13C0809136
:1007C0008502882379F48091320290913302FC01F2
:1007D00096898E85891730F08A819B8190933302A8
:1007E000809332028A819B81FC01968980918302E9
:1007F000891730F48A819B81FC018689809383026A
:1008000080918A028F5F80938A028A819B81FC019A
:10081000968980918402891730F48A819B81FC013A
:100820008689809384028A819B81AC014E5F5F4FF1
:100830008A819B81FC018689282F30E0C901880FBD
:10084000991F880F991F880F991F820F931F8C5C27
:100850009D4FBA010E94B31281E089830F900FBEB1
:1008600002C08FEF89838981813079F4809185027C
:10087000882359F08091320290913302FC019689CD
:100880008E85981710F40E944519898164960FB6D9
:10089000F894DEBF0FBECDBFDF91CF911F910F91B6
:1008A000FF90EF90DF90CF90BF90AF900895CF93DF
:1008B000DF93CDB7DEB728970FB6F894DEBF0FBE33
:1008C000CDBF9E838D8378876F8319820E94A40693
:1008D0008D819E81FC01208131818F819885820FDD
:1008E000931F9B838A838D819E81FC0120813181AE
:1008F000809181029091820282179307B0F48D81DA
:100900009E81FC01208131818A819B81821793071E
:1009100008F580918102909182022A813B818217A1
:100920009307C0F481E0898315C08D819E81FC010D
:10093000208131818A819B818217930748F08091C1
:100940008102909182022A813B818217930710F4E1
:1009500081E089838D819E812A813B81FC013183E5
:1009600020838981882359F080913202909133024B
:1009700002960E9483138A819B810E94CE0A0E9464
:10098000B0068C838C81882311F40E944519289627
:100990000FB6F894DEBF0FBECDBFDF91CF910895A3
:1009A000CF93DF9300D01F921F92CDB7DEB79D8308
:1009B0008C8319828C819D810097D1F00E94A406BE
:1009C00020918102309182028C819D81820F931F40
:1009D0009B838A83809132029091330202960E9417
:1009E00083138A819B810E94CE0A0E94B00689836C
:1009F0008981882311F40E9445190F900F900F9060
:100A00000F900F90DF91CF910895CF93DF9300D097
:100A10001F92CDB7DEB79C838B830FB6F8940F92ED
:100A200080913202909133022B813C812817390743
:100A300011F41C821B828B819C81009729F4809188
:100A400032029091330202C08B819C819A83898308
:100A500089819A8102960E94831389819A81FC017F
:100A600084899589009729F089819A810C960E9442
:100A7000831389819A810296BC0187E792E00E94E4
:100A8000B3120F900FBE8B819C810097A1F48091CF
:100A90008502882319F00E9445190DC090917702B4
:100AA00080918002981729F410923302109232023A
:100AB00002C00E9446080F900F900F900F90DF9198
:100AC000CF910895CF93DF9300D01F921F92CDB79F
:100AD000DEB79D838C8319828C819D819B838A8361
:100AE0008A819B81FC0182859385F2E087379F078D
:100AF00091F48A819B81FC0184899589F2E08E368C
:100B00009F0749F08A819B81FC0184899589009720
:100B100011F481E0898389810F900F900F900F90DD
:100B20000F90DF91CF910895CF93DF9300D01F9264
:100B3000CDB7DEB79C838B838B819C819A8389831D
:100B400089819A81009709F44FC080913202909177
:100B5000330229813A812817390709F445C00FB6B5
:100B6000F8940F9289819A810E9462058130D1F5B3
:100B700089819A8102960E94831389819A81FC015E
:100B8000968980918402891730F489819A81FC01C9
:100B900086898093840289819A81AC014E5F5F4F80
:100BA00089819A81FC018689282F30E0C901880F4C
:100BB000991F880F991F880F991F820F931F8C5CB4
:100BC0009D4FBA010E94B31289819A81FC01268946
:100BD0008091320290913302FC018689281710F02F
:100BE0000E9445190F900FBE0F900F900F900F901D
:100BF000DF91CF910895CF93DF9300D000D0CDB790
:100C0000DEB79E838D8319828D819E819B838A832B
:100C10001C828A819B810E946205813009F048C054
:100C2000809186028823E1F58A819B81FC012689D7
:100C30008091320290913302FC01968981E029175C
:100C400008F480E089838A819B8102960E94831345
:100C50008A819B81FC01968980918402891730F4F6
:100C60008A819B81FC018689809384028A819B8191
:100C7000AC014E5F5F4F8A819B81FC018689282FE2
:100C800030E0C901880F991F880F991F880F991F9D
:100C9000820F931F8C5C9D4FBA010E94B31208C053
:100CA0008A819B810C96BC018EE692E00E94B31271
:100CB000898126960FB6F894DEBF0FBECDBFDF91B7
:100CC000CF910895AF92BF92CF92DF92EF92FF92B1
:100CD0000F93CF93DF931F92CDB7DEB7A12CB12C2A
:100CE000C12CD12CE12CF12C00E020E030E045E5D6
:100CF00050E062E272E087E19AE00E946303898338
:100D00008981813051F4F89481E0809385021092BA
:100D10008202109281020E9405190F90DF91CF91FB
:100D20000F91FF90EF90DF90CF90BF90AF9008951C
:100D3000CF93DF93CDB7DEB7F894109285020E946F
:100D40003E19DF91CF910895CF93DF93CDB7DEB7F2
:100D5000809186028F5F80938602DF91CF91089504
:100D60000F931F93CF93DF931F921F92CDB7DEB7E0
:100D700019820FB6F8940F92809186028150809369
:100D8000860280918602882309F064C080918002E7
:100D9000882309F45FC01A823AC08091730290914F
:100DA0007402FC0106811781C8010C960E9483130E
:100DB000C80102960E948313F801968980918402EB
:100DC000891720F4F801868980938402A8014E5F78
:100DD0005F4FF8018689282F30E0C901880F991FDD
:100DE000880F991F880F991F820F931F8C5C9D4F4E
:100DF000BA010E94B312F8012689809132029091C3
:100E00003302FC018689281710F081E08A838091E3
:100E10006E02882311F680918702882371F007C043
:100E20000E94690780918702815080938702809198
:100E300087028823A9F781E08A838A81813021F0A3
:100E400080918802813031F481E089831092880298
:100E50000E9445190F900FBE89810F900F90DF916E
:100E6000CF911F910F910895CF93DF931F921F92FF
:100E7000CDB7DEB70FB6F8940F92809181029091B2
:100E800082029A8389830F900FBE89819A810F9085
:100E90000F90DF91CF910895CF93DF9300D0CDB71E
:100EA000DEB7198280918102909182029B838A83AE
:100EB0008A819B810F900F900F90DF91CF910895C1
:100EC000CF93DF93CDB7DEB780918002DF91CF91D2
:100ED0000895CF93DF9300D000D0CDB7DEB78091D7
:100EE0008602882309F0C4C0809181029091820219
:100EF0000196909382028093810280918102909169
:100F000082020097E9F580916A0290916B029A83C0
:100F1000898380916C0290916D0290936B02809313
:100F20006A0289819A8190936D0280936C0280910C
:100F300089028F5F8093890280916A0290916B028F
:100F4000FC018081882339F48FEF9FEF9093010299
:100F50008093000215C080916A0290916B02FC019F
:100F600085819681FC01868197819C838B838B810F
:100F70009C81FC0182819381909301028093000205
:100F800020918102309182028091000290910102B1
:100F90002817390708F46BC080916A0290916B02A0
:100FA000FC018081882339F48FEF9FEF9093010239
:100FB000809300025CC080916A0290916B02FC01F8
:100FC00085819681FC01868197819C838B838B81AF
:100FD0009C81FC01828193819E838D83209181027B
:100FE000309182028D819E812817390738F48D81D6
:100FF0009E81909301028093000239C08B819C8175
:1010000002960E9483138B819C81FC0184899589BF
:10101000009729F08B819C810C960E9483138B8111
:101020009C81FC01968980918402891730F48B8120
:101030009C81FC018689809384028B819C81AC0118
:101040004E5F5F4F8B819C81FC018689282F30E0A9
:10105000C901880F991F880F991F880F991F820F48
:10106000931F8C5C9D4FBA010E94B31295CF05C0AF
:10107000809187028F5F8093870226960FB6F8943F
:10108000DEBF0FBECDBFDF91CF910895CF93DF9329
:101090001F921F92CDB7DEB780918602882321F080
:1010A00081E0809388027AC080913202909133026D
:1010B000FC01208131818091320290913302FC0148
:1010C0008789908D8217930770F0809132029091FA
:1010D00033029C01275E3F4F809132029091330290
:1010E000B9010E94C30005C08091840281508093A1
:1010F000840280918402282F30E0C901880F991F53
:10110000880F991F880F991F820F931F8C5C9D4F2A
:10111000FC018081882341F380918402282F30E0F4
:10112000C901880F991F880F991F880F991F820F77
:10113000931F8C5C9D4F9A83898389819A81FC01DE
:1011400081819281FC012281338189819A81FC0114
:101150003283218389819A81FC01218132818981B5
:101160009A8103962817390769F489819A81FC01CD
:1011700081819281FC012281338189819A81FC01E4
:101180003283218389819A81FC0181819281FC01D2
:101190008681978190933302809332020F900F9053
:1011A000DF91CF910895CF93DF9300D000D0CDB7DA
:1011B000DEB79C838B837E836D8380913202909116
:1011C00033029C01245F3F4F8B819C81B9010E94B7
:1011D0000A13809132029091330202960E94831387
:1011E0008D819E818F3F2FEF920759F480913202BB
:1011F000909133020296BC0187E792E00E94B312FD
:101200000EC020918102309182028D819E81820FD9
:10121000931F9A83898389819A810E94CE0A269698
:101220000FB6F894DEBF0FBECDBFDF91CF9108950A
:10123000CF93DF9300D01F921F92CDB7DEB79D836F
:101240008C838C819D81FC0185819681FC01868146
:1012500097819B838A838A819B810C960E9483134A
:1012600080918602882369F58A819B8102960E947B
:1012700083138A819B81FC0196898091840289175E
:1012800030F48A819B81FC018689809384028A8163
:101290009B81AC014E5F5F4F8A819B81FC018689F7
:1012A000282F30E0C901880F991F880F991F880FD8
:1012B000991F820F931F8C5C9D4FBA010E94B3123D
:1012C00008C08A819B810C96BC018EE692E00E9448
:1012D000B3128A819B81FC01268980913202909110
:1012E0003302FC018689281718F081E0898301C048
:1012F000198289810F900F900F900F900F90DF91BE
:10130000CF910895CF93DF931F921F92CDB7DEB791
:101310009A8389832091890289819A81FC012083A3
:10132000209181023091820289819A81FC0132836D
:1013300021830F900F90DF91CF910895CF93DF938A
:1013400000D01F921F92CDB7DEB79B838A837D8327
:101350006C830FB6F8940F928C819D81FC01808183
:1013600091818F3FFFEF9F0711F419824BC08A8153
:101370009B81FC01908180918902981779F08A8184
:101380009B81FC01218132818091810290918202B6
:101390008217930718F081E0898334C0209181027D
:1013A000309182028A819B81FC0181819281281B7C
:1013B000390B8C819D81FC0180819181281739072F
:1013C000F8F48C819D81FC01208131818A819B818F
:1013D000FC01418152818091810290918202BA0187
:1013E000681B790BCB01280F391F8C819D81FC0173
:1013F000318320838A819B810E948209198202C0E5
:1014000081E089830F900FBE89810F900F900F901C
:101410000F900F90DF91CF910895CF93DF93CDB7C9
:10142000DEB781E080938802DF91CF910895CF935A
:10143000DF931F921F92CDB7DEB79A8389830E94F4
:10144000C70A80913402823018F00E944519F7CF04
:10145000F6CF0F931F93CF93DF93CDB7DEB72997C6
:101460000FB6F894DEBF0FBECDBF9A8389837C830D
:101470006B834D833F832E831987088789819A81E7
:1014800049962B813C8140E150E0B9010E94A82798
:1014900089819A81FC0110A68D81843010F083E04F
:1014A0008D8389819A812D81FC01268B89819A8186
:1014B0002D81FC0121A789819A8102960E94A112A7
:1014C00089819A810C960E94A11289819A81298131
:1014D0003A81FC01318720878D81882F90E024E0BC
:1014E00030E0281B390B89819A81FC0135872487DC
:1014F00089819A8129813A81FC01338B228B29963B
:101500000FB6F894DEBF0FBECDBFDF91CF911F9114
:101510000F910895CF93DF931F92CDB7DEB7198255
:1015200013C08981282F30E0C901880F991F880FC7
:10153000991F880F991F820F931F8C5C9D4F0E94EB
:101540006B1289818F5F89838981843050F388E5AC
:1015500092E00E946B1281E692E00E946B128EE68E
:1015600092E00E946B1287E792E00E946B1288E57E
:1015700092E090936B0280936A0281E692E09093EE
:101580006D0280936C020F90DF91CF910895CF93FD
:10159000DF93CDB7DEB7DF91CF910895CF93DF937F
:1015A0001F921F92CDB7DEB79A8389838091320252
:1015B0009091330229813A81FC0133832283809107
:1015C00081029091820229813A812817390778F4A3
:1015D00080913202909133029C012E5F3F4F8091A7
:1015E0006C0290916D02B9010E940A131DC0809196
:1015F0003202909133029C012E5F3F4F80916A022C
:1016000090916B02B9010E940A138091000290919F
:10161000010229813A812817390730F489819A819A
:1016200090930102809300020F900F90DF91CF9171
:101630000895CF93DF9300D000D0CDB7DEB79C8361
:101640008B837E836D838AE290E00E94D2169A8318
:10165000898389819A81009751F18D819E810097BC
:1016600029F48B819C810E94D21602C08D819E81BB
:1016700029813A81F901908F878B89819A81FC01B8
:101680008789908D009739F489819A810E94181773
:101690001A8219820CC089819A81FC018789908DF8
:1016A0002B813C81A90165EA70E00E94A127898114
:1016B0009A8126960FB6F894DEBF0FBECDBFDF919C
:1016C000CF9108950F931F93CF93DF931F921F9293
:1016D000CDB7DEB79A83898300E010E009C0898125
:1016E0009A8101969A838983C8018C010F5F1F4FED
:1016F00089819A81FC018081853A89F3C8010F9024
:101700000F90DF91CF911F910F910895CF93DF93A9
:10171000CDB7DEB727970FB6F894DEBF0FBECDBFAB
:101720009F838E838E819F81009729F4809132025E
:101730009091330202C08E819F819A83898389812F
:101740009A81FC018789908D9C838B838B819C81FE
:101750000E94620B8D838D8127960FB6F894DEBFB1
:101760000FBECDBFDF91CF910895CF93DF931F922E
:101770001F92CDB7DEB780913202909133029A83E7
:10178000898389819A810F900F90DF91CF9108957D
:10179000CF93DF9300D01F92CDB7DEB79C838B83AE
:1017A0008B819C819A8389838B819C81009709F42A
:1017B00078C089819A81FC012689809132029091BA
:1017C0003302FC018689281708F06BC08091320231
:1017D00090913302FC018689882F90E024E030E06C
:1017E000281B390B89819A81FC01358724878981DF
:1017F0009A81FC014285538589819A81FC01868901
:10180000282F30E0C901880F991F880F991F880F72
:10181000991F820F931F8C5C9D4F48175907B9F58C
:1018200089819A8102960E9483138091320290915D
:101830003302FC01268989819A81FC01268B8981EA
:101840009A81FC01968980918402891730F48981FC
:101850009A81FC0186898093840289819A81AC01F6
:101860004E5F5F4F89819A81FC018689282F30E085
:10187000C901880F991F880F991F880F991F820F20
:10188000931F8C5C9D4FBA010E94B3120AC08091D5
:10189000320290913302FC01268989819A81FC01F0
:1018A000268B0F900F900F900F90DF91CF9108959E
:1018B000CF93DF9300D01F92CDB7DEB79C838B838D
:1018C0008B819C819A8389838B819C81009709F409
:1018D0004EC089819A81FC01268989819A81FC0107
:1018E00081A5281709F443C089819A8102960E9434
:1018F000831389819A81FC0121A589819A81FC0148
:10190000268B89819A81FC018689882F90E024E0CA
:1019100030E0281B390B89819A81FC0135872487A7
:1019200089819A81FC01968980918402891730F41B
:1019300089819A81FC0186898093840289819A81B8
:10194000AC014E5F5F4F89819A81FC018689282F07
:1019500030E0C901880F991F880F991F880F991FC0
:10196000820F931F8C5C9D4FBA010E94B3120F909F
:101970000F900F900F90DF91CF910895CF93DF9349
:1019800000D0CDB7DEB79A8389836B830FB6F89406
:101990000F9289819A81FC012081318189819A810C
:1019A000FC01838D682F70E089819A81FC01848D10
:1019B000482F50E0649FC001659F900D749F900D6B
:1019C0001124280F391F89819A81FC0133832283D6
:1019D00089819A81FC01128E89819A81FC01208182
:1019E000318189819A81FC013583248389819A819F
:1019F000FC012081318189819A81FC01838D882FAE
:101A000090E0BC016150710989819A81FC01848D4B
:101A1000482F50E0649FC001659F900D749F900D0A
:101A20001124280F391F89819A81FC01378326836D
:101A300089819A812FEFFC01258F89819A812FEF6F
:101A4000FC01268F8B81882381F489819A81FC0196
:101A500080858823A1F089819A8108960E941809BF
:101A6000813069F40E9445190AC089819A810896DB
:101A70000E946B1289819A8141960E946B120F908D
:101A80000FBE81E00F900F900F90DF91CF910895DE
:101A9000CF93DF93CDB7DEB729970FB6F894DEBFAB
:101AA0000FBECDBF8F83688749871A8219828F81C5
:101AB000882309F443C08FE190E00E94D2169C83F2
:101AC0008B838B819C810097C9F18F81482F50E0D7
:101AD0008885282F30E0429FC001439F900D529F80
:101AE000900D112401969E838D838D819E810E948D
:101AF000D2169C018B819C81FC01318320838B81D8
:101B00009C81FC01808191810097A1F08B819C8157
:101B10002F81FC01238F8B819C812885FC01248FE0
:101B20008B819C8161E00E94BE0C8B819C819A8399
:101B3000898304C08B819C810E94181789819A81B6
:101B400029960FB6F894DEBF0FBECDBFDF91CF91BF
:101B50000895CF93DF9300D0CDB7DEB78B838FE1AD
:101B600090E00E94D2169A83898389819A81009796
:101B7000F1F189819A81FC011382128289819A8113
:101B8000FC011182108289819A81FC0115821482E4
:101B900089819A81FC011782168289819A81FC01D0
:101BA000128E89819A8121E0FC01238F89819A819B
:101BB000FC01148E89819A812FEFFC01258F898188
:101BC0009A812FEFFC01268F89819A8108960E94C5
:101BD0006B1289819A8141960E946B1289819A8148
:101BE00020E040E050E060E070E00E94FF0D89815D
:101BF0009A810F900F900F90DF91CF910895CF931E
:101C0000DF93CDB7DEB72B970FB6F894DEBF0FBECC
:101C1000CDBF9E838D8378876F835A8749872B87B3
:101C200019820FB6F8940F928D819E81FC01228D4E
:101C30008D819E81FC01838D2817D8F42F813885F2
:101C40008D819E814B85B9010E9489108D819E8175
:101C5000FC018189882349F08D819E8141960E94F3
:101C60001809813011F40E9445190F900FBE81E0D0
:101C700061C089859A85009721F40F900FBE80E09E
:101C800059C08981882331F4CE0102960E948209CD
:101C900081E089830F900FBE0E94A4060FB6F894CE
:101CA0000F928D819E81FC01858D8F3F21F48D8166
:101CB0009E81FC01158E8D819E81FC01868D8F3F5A
:101CC00021F48D819E81FC01168E0F900FBE9E0126
:101CD000275F3F4FCE010296B9010E949E098823DB
:101CE00001F58D819E810E943012882399F029850B
:101CF0003A858D819E810896B9010E94D3088D8115
:101D00009E810E9498110E94B006882391F40E943F
:101D100045190FC08D819E810E9498110E94B006C6
:101D200080CF8D819E810E9498110E94B00680E034
:101D300001C077CF2B960FB6F894DEBF0FBECDBF94
:101D4000DF91CF910895CF93DF93CDB7DEB7299779
:101D50000FB6F894DEBF0FBECDBF9C838B837E830E
:101D60006D8358874F8329871A828B819C81FC0160
:101D7000228D8B819C81FC01838D281790F52D810C
:101D80003E818B819C814985B9010E9489108B819C
:101D90009C81FC01868D8F3FB9F48B819C81FC0175
:101DA00081898823D9F08B819C8141960E941809F2
:101DB0008823A1F08F819885009781F08F81988585
:101DC00021E0FC0120830AC08B819C81FC01868D6F
:101DD00021E0280F8B819C81FC01268F81E0898383
:101DE00001C01982898129960FB6F894DEBF0FBE13
:101DF000CDBFDF91CF910895CF93DF93CDB7DEB7FD
:101E00002D970FB6F894DEBF0FBECDBF98878F8396
:101E10007A8769875C874B872D8719820FB6F8947C
:101E20000F928F819885FC01828D882309F454C01C
:101E30008F819885FC01868197819B838A83298580
:101E40003A858F819885B9010E9447118D85882335
:101E500049F58F819885FC01828D2FEF280F8F81A6
:101E60009885FC01228F8F819885FC01808191816A
:101E7000009741F40E94B50B9C018F819885FC016D
:101E8000338322838F819885FC018085882301F12B
:101E90008F81988508960E9418098130C9F40E94A4
:101EA000451916C08F8198852A813B81FC013783B3
:101EB00026838F819885FC018189882349F08F8151
:101EC000988541960E941809882311F00E944519AF
:101ED0000F900FBE81E074C08B859C85009721F424
:101EE0000F900FBE80E06CC08981882331F4CE0151
:101EF00004960E94820981E089830F900FBE0E94A0
:101F0000A4060FB6F8940F928F819885FC01858DF9
:101F10008F3F21F48F819885FC01158E8F819885E4
:101F2000FC01868D8F3F21F48F819885FC01168EF0
:101F30000F900FBE9E01255F3F4FCE010496B90161
:101F40000E949E09882399F58F8198850E94FD1132
:101F5000882331F18F819885FC01808191810097E0
:101F600061F40FB6F8940F928F819885FC018281FD
:101F700093810E94C80B0F900FBE2B853C858F81EB
:101F800098854196B9010E94D3088F8198850E9457
:101F900098110E94B006882391F40E9445190FC041
:101FA0008F8198850E9498110E94B00637CF8F814B
:101FB00098850E9498110E94B00680E001C02ECF43
:101FC0002D960FB6F894DEBF0FBECDBFDF91CF9137
:101FD0000895CF93DF93CDB7DEB728970FB6F89467
:101FE000DEBF0FBECDBF9C838B837E836D835887FE
:101FF0004F831A828B819C81FC01828D8823D9F1C9
:102000002D813E818B819C81B9010E9447118B817A
:102010009C81FC01828D2FEF280F8B819C81FC011C
:10202000228F8B819C81FC01858D8F3FB9F48B8140
:102030009C81FC0180858823D9F08B819C81089646
:102040000E9418098823A1F08F819885009781F05C
:102050008F81988521E0FC0120830AC08B819C81BF
:10206000FC01858D21E0280F8B819C81FC01258F4F
:1020700081E0898301C01982898128960FB6F8947E
:10208000DEBF0FBECDBFDF91CF910895CF93DF9319
:1020900000D0CDB7DEB79B838A830FB6F8940F923A
:1020A0008A819B81FC01828D89830F900FBE89817B
:1020B0000F900F900F90DF91CF910895CF93DF9302
:1020C00000D0CDB7DEB79B838A838A819B81FC01D8
:1020D000828D898389810F900F900F90DF91CF912E
:1020E0000895CF93DF931F921F92CDB7DEB79A83E7
:1020F000898389819A81FC01808191810E941817CE
:1021000089819A810E9418170F900F90DF91CF91CB
:102110000895CF93DF9300D01F921F92CDB7DEB703
:102120009A8389837C836B834D8389819A81FC01A7
:10213000848D8823A9F489819A81FC018081918111
:10214000009709F092C089819A81FC018281938174
:102150000E94580C89819A81FC011382128285C0E9
:102160008D818823D9F589819A81FC01848D482F3E
:1021700050E089819A81FC01848195812B813C8189
:10218000B9010E94982789819A81FC0124813581B7
:1021900089819A81FC01848D882F90E0280F391F56
:1021A00089819A81FC013583248389819A81FC018C
:1021B0002481358189819A81FC018281938128174C
:1021C000390708F452C089819A81FC01208131814C
:1021D00089819A81FC013583248347C089819A8152
:1021E000FC01848D482F50E089819A81FC01868111
:1021F00097812B813C81B9010E94982789819A811E
:10220000FC012681378189819A81FC01848D882F88
:1022100090E0919581959109280F391F89819A81C4
:10222000FC013783268389819A81FC0126813781CD
:1022300089819A81FC018081918128173907A8F44E
:1022400089819A81FC012281338189819A81FC01F3
:10225000848D882F90E0919581959109280F391FE1
:1022600089819A81FC013783268389819A81FC01C7
:10227000828D21E0280F89819A81FC01228F0F90A5
:102280000F900F900F900F90DF91CF910895CF9303
:10229000DF9300D01F92CDB7DEB79A8389837C830A
:1022A0006B8389819A81FC01808191810097C9F1BA
:1022B00089819A81FC012681378189819A81FC017B
:1022C000848D882F90E0280F391F89819A81FC0125
:1022D0003783268389819A81FC0126813781898110
:1022E0009A81FC01828193812817390750F08981F6
:1022F0009A81FC012081318189819A81FC01378397
:10230000268389819A81FC01848D482F50E0898140
:102310009A81FC01268137818B819C81B9010E94C1
:1023200098270F900F900F900F90DF91CF91089505
:10233000CF93DF931F921F92CDB7DEB79A83898325
:102340000FB6F8940F921BC089819A81FC01818994
:102350008823A1F089819A8141960E9418098823D7
:1023600011F00E940D0A89819A81FC01868D2FEF60
:10237000280F89819A81FC01268F01C006C08981BE
:102380009A81FC01868D1816FCF289819A812FEFC3
:10239000FC01268F0F900FBE0FB6F8940F921BC052
:1023A00089819A81FC0180858823A1F089819A81A5
:1023B00008960E941809882311F00E940D0A89814D
:1023C0009A81FC01858D2FEF280F89819A81FC016C
:1023D000258F01C006C089819A81FC01858D181660
:1023E000FCF289819A812FEFFC01258F0F900FBE9F
:1023F0000F900F90DF91CF910895CF93DF9300D08E
:10240000CDB7DEB79B838A830FB6F8940F928A818B
:102410009B81FC01928D81E0992309F080E0898302
:102420000F900FBE89810F900F900F90DF91CF9189
:102430000895CF93DF9300D0CDB7DEB79B838A8317
:102440008A819B81FC01928D81E0992309F080E0D3
:10245000898389810F900F900F90DF91CF9108951C
:10246000CF93DF9300D0CDB7DEB79B838A830FB6BF
:10247000F8940F928A819B81FC01228D8A819B8135
:10248000FC01938D81E0291709F080E089830F908A
:102490000FBE89810F900F900F90DF91CF9108951B
:1024A000CF93DF9300D0CDB7DEB79B838A838A8139
:1024B0009B81FC01228D8A819B81FC01938D81E0AF
:1024C000291709F080E0898389810F900F900F9080
:1024D000DF91CF910895CF93DF931F921F92CDB7D5
:1024E000DEB79A83898389819A819C012D5F3F4F52
:1024F00089819A81FC013283218389819A812FEF1E
:102500003FEFFC013483238389819A819C012D5FF5
:102510003F4F89819A81FC013683258389819A8185
:102520009C012D5F3F4F89819A81FC013087278371
:1025300089819A81FC0110820F900F90DF91CF91D9
:102540000895CF93DF931F921F92CDB7DEB79A8382
:10255000898389819A81FC01118610860F900F90E2
:10256000DF91CF910895CF93DF9300D000D0CDB706
:10257000DEB79C838B837E836D838B819C81FC0182
:10258000818192819A83898389819A81FC01228148
:1025900033818D819E81FC01338322838B819C81D9
:1025A000FC01218132818D819E81FC013583248350
:1025B00089819A81FC01828193812D813E81FC0178
:1025C0003583248389819A812D813E81FC01338367
:1025D00022838B819C812D813E81FC01328321836A
:1025E0008D819E812B813C81FC01318720878B81ED
:1025F0009C81FC01808121E0280F8B819C81FC0162
:10260000208326960FB6F894DEBF0FBECDBFDF91B4
:10261000CF910895CF93DF93CDB7DEB728970FB64C
:10262000F894DEBF0FBECDBF9E838D8378876F8306
:102630008F819885FC01808191819C838B838B8124
:102640009C818F3FFFEF9F0741F48D819E81FC01AC
:10265000878190859A8389831AC08D819E81039694
:102660009A83898307C089819A81FC018281938141
:102670009A83898389819A81FC0182819381FC01FB
:10268000208131818B819C818217930760F789813A
:102690009A81FC01228133818F819885FC013383EB
:1026A00022838F819885FC01828193812F813885D7
:1026B000FC01358324838F81988529813A81FC012F
:1026C0003583248389819A812F813885FC01338366
:1026D00022838F8198852D813E81FC01318720875F
:1026E0008D819E81FC01808121E0280F8D819E815A
:1026F000FC01208328960FB6F894DEBF0FBECDBF35
:10270000DF91CF910895CF93DF9300D01F92CDB783
:10271000DEB79C838B838B819C81FC0182819381BA
:102720002B813C81F90124813581FC01358324838F
:102730008B819C81FC01848195812B813C81F901F5
:1027400022813381FC01338322838B819C81FC01B4
:10275000808591859A83898389819A81FC01218171
:1027600032818B819C812817390751F48B819C81A0
:10277000FC012481358189819A81FC013283218386
:102780008B819C81FC011186108689819A81FC01D4
:1027900080812FEF280F89819A81FC012083898114
:1027A0009A81FC0180810F900F900F900F90DF9124
:1027B000CF910895CF93DF93CDB7DEB727970FB6AC
:1027C000F894DEBF0FBECDBF9D838C836E834F8395
:1027D0008AE190E00E94D2169B838A838A819B8142
:1027E000009709F477C080918B0290918C0200973A
:1027F00041F48A819B8190938C0280938B020E948A
:1028000060168E81823010F081E08E838A819B81F8
:10281000FC01118E108E8A819B812E81FC01268BFA
:102820008A819B812F81FC01278B8A819B812C814E
:102830003D81FC01318320838A819B8102960E9425
:10284000A1128A819B810C960E94A1128A819B8190
:102850002A813B81FC01318720878A819B812A81E3
:102860003B81FC01338B228B8E81882F90E024E00A
:1028700030E0281B390B8A819B81FC013587248736
:102880008A819B81FC0196898091BE02891730F470
:102890008A819B81FC0186898093BE028A819B810B
:1028A000AC014E5F5F4F8A819B81FC018689282F96
:1028B00030E0C901880F991F880F991F880F991F51
:1028C000820F931F83579D4FBA010E94B31281E07C
:1028D000898302C08FEF8983898127960FB6F89488
:1028E000DEBF0FBECDBFDF91CF910895CF93DF93B1
:1028F00000D000D0CDB7DEB79C838B837E836D8301
:102900002091BF023091C0028B819C81820F931F66
:102910009A83898380918B0290918C0202960E9407
:10292000831380918B0290918C0229813A81FC0162
:10293000338322838091BF029091C00229813A8122
:102940002817390778F480918B0290918C029C01B2
:102950002E5F3F4F8091B3029091B402B9010E9463
:102960000A130EC080918B0290918C029C012E5F05
:102970003F4F8091B1029091B202B9010E940A13B7
:102980008D819E81009761F080918B0290918C02E5
:102990009C01245F3F4F8D819E81B9010E940A13E3
:1029A00026960FB6F894DEBF0FBECDBFDF91CF9154
:1029B0000895CF93DF931F921F92CDB7DEB73CC02F
:1029C000F8948091BA029091BB02FC0186819781B4
:1029D0009A83898389819A810C960E9483137894C3
:1029E00089819A8102960E94831389819A81FC01D0
:1029F00096898091BE02891730F489819A81FC0101
:102A000086898093BE0289819A81AC014E5F5F4FB7
:102A100089819A81FC018689282F30E0C901880FBD
:102A2000991F880F991F880F991F820F931F835733
:102A30009D4FBA010E94B3128091B502882309F01C
:102A4000BFCF0F900F90DF91CF910895CF93DF9379
:102A500000D01F92CDB7DEB70E9434079C01809151
:102A6000C1029091C202A901481B590BCA0190935F
:102A7000C4028093C3028AC08091BF029091C002B9
:102A800001969093C0028093BF028091C3029091FF
:102A9000C40201979093C4028093C3028091BF0245
:102AA0009091C0020097A9F48091B1029091B20276
:102AB0009A8389838091B3029091B4029093B20279
:102AC0008093B10289819A819093B4028093B3027A
:102AD00054C053C08091B1029091B202FC01858133
:102AE0009681FC01868197819C838B838B819C815D
:102AF000FC01228133818091BF029091C002821734
:102B0000930708F443C0F8948B819C8102960E943D
:102B100083138B819C81FC0184899589009729F01E
:102B20008B819C810C960E94831378948B819C816D
:102B3000FC0196898091BE02891730F48B819C81BB
:102B4000FC0186898093BE028B819C81AC014E5F23
:102B50005F4F8B819C81FC018689282F30E0C90161
:102B6000880F991F880F991F880F991F820F931F35
:102B700083579D4FBA010E94B3128091B102909188
:102B8000B202FC018081882309F0A4CF8091C302A6
:102B90009091C402009709F06FCF8091BF0290918D
:102BA000C0029093C2028093C1020F900F900F90C9
:102BB0000F90DF91CF910895CF93DF931F921F92D3
:102BC000CDB7DEB70E94D9140E9426150AC08091A5
:102BD000BE02882309F46FC08091BE0281508093A9
:102BE000BE028091BE02282F30E0C901880F991FD4
:102BF000880F991F880F991F820F931F83579D4F2E
:102C0000FC018081882319F38091BE02282F30E0D7
:102C1000C901880F991F880F991F880F991F820F6C
:102C2000931F83579D4F9A83898389819A81FC01E1
:102C300081819281FC012281338189819A81FC0109
:102C40003283218389819A81FC01218132818981AA
:102C50009A8103962817390769F489819A81FC01C2
:102C600081819281FC012281338189819A81FC01D9
:102C70003283218389819A81FC0181819281FC01C7
:102C80008681978190938C0280938B0280918B0236
:102C900090918C02FC012081318180918B02909176
:102CA0008C02FC01478980918B0290918C02642FE9
:102CB000F901199500000F900F90DF91CF910895C1
:102CC000CF93DF931F92CDB7DEB7198213C08981EE
:102CD000282F30E0C901880F991F880F991F880F8E
:102CE000991F820F931F83579D4F0E946B128981FA
:102CF0008F5F89838981823050F38FE992E00E944F
:102D00006B1288EA92E00E946B1285EB92E00E94BF
:102D10006B128FE992E09093B2028093B10288EA3D
:102D200092E09093B4028093B3020F90DF91CF9121
:102D30000895CF93DF9300D01F921F92CDB7DEB7D7
:102D40009D838C838C819D81FC0185819681FC0112
:102D5000868197819B838A838A819B810C960E94BE
:102D600083138A819B810C96BC0185EB92E00E94C3
:102D7000B3128A819B81FC01268980918B029091FC
:102D80008C02FC018689281718F081E0898301C034
:102D9000198289810F900F900F900F900F90DF9103
:102DA000CF910895CF93DF9300D01F92CDB7DEB7B8
:102DB0009C838B831A8219820E94A4062091C51AD3
:102DC0003091C61A8B819C81820F931F811528E157
:102DD000920718F52091C51A3091C61A8B819C81F3
:102DE000280F391F8091C51A9091C61A8217930730
:102DF000A0F48091C51A9091C61A8B539D4F9A8367
:102E000089832091C51A3091C61A8B819C81820FCB
:102E1000931F9093C61A8093C51A0E94B0068981A9
:102E20009A810F900F900F900F90DF91CF9108959E
:102E3000CF93DF931F921F92CDB7DEB79A8389831A
:102E40000F900F90DF91CF910895CF93DF93CDB77F
:102E5000DEB71092C61A1092C51ADF91CF9108956D
:102E6000CF93DF93CDB7DEB78091C51A9091C61A84
:102E700020E038E1A901481B590BCA01DF91CF912D
:102E80000895CF93DF93CDB7DEB728970FB6F894A8
:102E9000DEBF0FBECDBF9C838B837E836D8358873F
:102EA0004F838B819C8121E1FC0120838B819C815C
:102EB00001979C838B838B819C8122E2FC01208380
:102EC0008B819C8101979C838B838B819C8123E3E5
:102ED000FC0120838B819C8101979C838B838D8156
:102EE0009E819A83898329818B819C81FC01208327
:102EF0008B819C8101979C838B8389819A81892F07
:102F000099279A83898329818B819C81FC01208365
:102F10008B819C8101979C838B838B819C81FC019D
:102F200010828B819C8101979C838B838B819C81F8
:102F3000FC0110828B819C8101979C838B838B8108
:102F40009C8120E8FC0120838B819C8101979C83DC
:102F50008B838B819C81FC0110828B819C810197EA
:102F60009C838B838B819C81FC0110828B819C8153
:102F700001979C838B838B819C81FC0110828B81C8
:102F80009C8101979C838B838B819C8122E0FC0137
:102F900020838B819C8101979C838B838B819C8177
:102FA00023E0FC0120838B819C8101979C838B8390
:102FB0008B819C8124E0FC0120838B819C81019783
:102FC0009C838B838B819C8125E0FC0120838B81FA
:102FD0009C8101979C838B838B819C8126E0FC01E3
:102FE00020838B819C8101979C838B838B819C8127
:102FF00027E0FC0120838B819C8101979C838B833C
:103000008B819C8128E0FC0120838B819C8101972E
:103010009C838B838B819C8129E0FC0120838B81A5
:103020009C8101979C838B838B819C8120E1FC0197
:1030300020838B819C8101979C838B838B819C81D6
:1030400021E1FC0120838B819C8101979C838B83F0
:103050008B819C8122E1FC0120838B819C810197E3
:103060009C838B838B819C8123E1FC0120838B815A
:103070009C8101979C838B838B819C8124E1FC0143
:1030800020838B819C8101979C838B838B819C8186
:1030900025E1FC0120838B819C8101979C838B839C
:1030A0008B819C8126E1FC0120838B819C8101978F
:1030B0009C838B838B819C8127E1FC0120838B8106
:1030C0009C8101979C838B838B819C8128E1FC01EF
:1030D00020838B819C8101979C838B838B819C8136
:1030E00029E1FC0120838B819C8101979C838B8348
:1030F0008B819C8120E2FC0120838B819C81019744
:103100009C838B838B819C8121E2FC0120838B81BA
:103110009C8101979C838B838B819C8122E2FC01A3
:1031200020838B819C8101979C838B838B819C81E5
:1031300023E2FC0120838B819C8101979C838B83FC
:103140008F8198859A83898329818B819C81FC0159
:1031500020838B819C8101979C838B8389819A81B9
:10316000892F99279A83898329818B819C81FC01EE
:1031700020838B819C8101979C838B838B819C8195
:1031800026E2FC0120838B819C8101979C838B83A9
:103190008B819C8127E2FC0120838B819C8101979C
:1031A0009C838B838B819C8128E2FC0120838B8113
:1031B0009C8101979C838B838B819C8129E2FC01FC
:1031C00020838B819C8101979C838B838B819C8145
:1031D00020E3FC0120838B819C8101979C838B835E
:1031E0008B819C8121E3FC0120838B819C81019751
:1031F0009C838B838B819C8128960FB6F894DEBFCD
:103200000FBECDBFDF91CF910895CF93DF93CDB7A0
:10321000DEB70E94091AA0913202B0913302CD911B
:10322000CDBFDD91DEBFFF91EF91DF91CF91BF91D7
:10323000AF919F918F917F916F915F914F913F914E
:103240002F911F910F91FF90EF90DF90CF90BF9043
:10325000AF909F908F907F906F905F904F903F9036
:103260002F901F900F900CBE0F900BBE0F900FBEB3
:103270000F90089581E0DF91CF910895CF93DF9370
:10328000CDB7DEB7DF91CF9108950F920FB6F894C6
:103290000F920BB60F920CB60F921F9211242F9221
:1032A0003F924F925F926F927F928F929F92AF92D6
:1032B000BF92CF92DF92EF92FF920F931F932F93C3
:1032C0003F934F935F936F937F938F939F93AF93AE
:1032D000BF93CF93DF93EF93FF93A0913202B0910E
:1032E00033020DB60D920EB60D920E944608A091C3
:1032F0003202B0913302CD91CDBFDD91DEBFFF919F
:10330000EF91DF91CF91BF91AF919F918F917F917D
:103310006F915F914F913F912F911F910F91FF906E
:10332000EF90DF90CF90BF90AF909F908F907F9065
:103330006F905F904F903F902F901F900F900CBE1A
:103340000F900BBE0F900FBE0F9008950F920FB607
:10335000F8940F920BB60F920CB60F921F92112495
:103360002F923F924F925F926F927F928F929F9295
:10337000AF92BF92CF92DF92EF92FF920F931F9383
:103380002F933F934F935F936F937F938F939F936D
:10339000AF93BF93CF93DF93EF93FF93A09132024C
:1033A000B09133020DB60D920EB60D920E946907D0
:1033B0000E944608A0913202B0913302CD91CDBF58
:1033C000DD91DEBFFF91EF91DF91CF91BF91AF9182
:1033D0009F918F917F916F915F914F913F912F912D
:1033E0001F910F91FF90EF90DF90CF90BF90AF9023
:1033F0009F908F907F906F905F904F903F902F9015
:103400001F900F900CBE0F900BBE0F900FBE0F9031
:103410000895CF93DF9300D000D0CDB7DEB780E022
:103420009DE7A0E0B0E089839A83AB83BC83898168
:103430009A81AB81BC81689415F8B695A79597954C
:1034400087951694D1F789839A83AB83BC8389814E
:103450009A81AB81BC810197A109B10989839A83C3
:10346000AB83BC8389818D8389819A81AB81BC8147
:10347000892F9A2FAB2FBB2789839A83AB83BC8379
:1034800089818E8389E990E02E81FC01208388E97F
:1034900090E02D81FC0120838BE08D8381E990E019
:1034A0002D81FC01208381E790E0FC0180818D83E8
:1034B0008D8182608D8381E790E02D81FC012083E6
:1034C00026960FB6F894DEBF0FBECDBFDF91CF9129
:1034D00008950E94A6191895CF93DF9300D000D0CD
:1034E000CDB7DEB79A8389834B835C836D837E83FC
:1034F00040E061E080E40E94480D9093641B80935B
:10350000631B40E061E088E00E94480D9093601BDF
:1035100080935F1B85EC90E0FC01108284EC90E0CE
:1035200028E0FC01208381EC90E028E1FC0120836D
:1035300082EC90E026E0FC01208380EC90E020EC1F
:1035400030E0F90120812D7FFC01208326960FB603
:10355000F894DEBF0FBECDBFDF91CF910895CF931A
:10356000DF931F92CDB7DEB78983000080EC90E037
:10357000FC018081882F90E0807299270097B1F339
:1035800086EC90E02981FC0120830F90DF91CF91A0
:103590000895CF93DF931F92CDB7DEB789830000E4
:1035A00080EC90E0FC018081882F90E08072992768
:1035B0000097B1F386EC90E02981FC0120830F9005
:1035C000DF91CF910895CF93DF93CDB7DEB70000A1
:1035D00080ED90E0FC0180818823D4F786ED90E0B7
:1035E000FC018081DF91CF9108951F920F9200908E
:1035F0005F000F92112400905B000F928F939F93B6
:10360000EF93FF93CF93DF931F92CDB7DEB78EEC8E
:1036100090E0FC01808189830F90DF91CF91FF9131
:10362000EF919F918F910F9000925B000F9000920D
:103630005F000F901F901895CF93DF931F92CDB727
:10364000DEB789838091631B9091641B20E04FEF6C
:103650005FEFBE016F5F7F4F0E94FF0D0F90DF9104
:10366000CF910895CF93DF931F921F92CDB7DEB70E
:103670009A8389830BC089819A81FC0180810E9491
:103680001C1B89819A8101969A83898389819A81F9
:10369000FC018081882379F70F900F90DF91CF9103
:1036A0000895CF93DF9300D0CDB7DEB79B838A8395
:1036B0008091631B9091641B20E04FEF5FEFBE0190
:1036C0006F5F7F4F0E94FC0E000088EC90E0FC01D1
:1036D0008081882F90E0807299270097B1F38EEC5B
:1036E00090E02981FC012083E3CFCF93DF931F92E9
:1036F000CDB7DEB789838091611B9091621B20E07A
:103700004FEF5FEFBE016F5F7F4F0E94FF0D0F9085
:10371000DF91CF910895CF93DF931F921F92CDB782
:10372000DEB79A8389830BC089819A81FC018081ED
:103730000E94751B89819A8101969A838983898168
:103740009A81FC018081882379F70F900F90DF9197
:10375000CF910895CF93DF9300D0CDB7DEB79B8391
:103760008A838091611B9091621B20E04FEF5FEF95
:10377000BE016F5F7F4F0E94FC0E000080EC90E066
:10378000FC018081882F90E0807299270097B1F327
:1037900086EC90E02981FC012083E3CFCF93DF9377
:1037A0001F92CDB7DEB780915F1B9091601B20E028
:1037B00041E050E0BE016F5F7F4F0E94FC0E813000
:1037C00011F4898101C08FEF0F90DF91CF9108959F
:1037D000CF93DF9300D01F92CDB7DEB79C838B834E
:1037E0001A82198205C089819A8101969A838983F8
:1037F00029813A818B819C8128173907A4F30F9086
:103800000F900F900F90DF91CF910895CF93DF939A
:10381000CDB7DEB780E80E94AF1ADF91CF9108954F
:10382000CF93DF93CDB7DEB780E00E94AF1ADF9170
:10383000CF910895CF93DF93CDB7DEB72D970FB615
:10384000F894DEBF0FBECDBF9B878A877D876C87CC
:103850001A8219821C821B8283E090E098878F83F2
:103860006DC02EC082E390E09E838D8310C08D8159
:103870009E8101979E838D838D819E81009719F48F
:103880008FEF9FEF65C081E090E00E94D00480EC54
:1038900090E0FC018081882354F786EC90E0FC01E5
:1038A0008081898789819A812C853D85820F931F2C
:1038B0002985FC01208389819A8101969A838983D5
:1038C00029813A818A859B85281739075CF282E332
:1038D00090E09E838D8310C08D819E8101979E8391
:1038E0008D838D819E81009719F48FEF9FEF30C0FB
:1038F00081E090E00E94D00480EC90E0FC018081A7
:10390000882354F786EC90E0FC01808189872A8522
:103910008C859D85622F0E94F11D982F89859817AF
:1039200041F00E94101C8B819C8101969C838B83AB
:1039300005C00E94061C80E090E00AC02B813C81FB
:103940008F819885281739070CF48BCF8FEF9FEF65
:103950002D960FB6F894DEBF0FBECDBFDF91CF918D
:103960000895CF93DF93CDB7DEB7CC55D1090FB60D
:10397000F894DEBF0FBECDBF9E01255A3F4FF9011F
:103980009183808384E290E02FEFFC0120831982F1
:103990008EE190E09B838A832DC012C08A819B8137
:1039A00001979B838A838A819B81009729F41982DE
:1039B0008EE190E09B838A8381E090E00E94D004B6
:1039C00080EC90E0FC018081882344F786EC90E055
:1039D000FC0180818C838981992787FD90959E01C8
:1039E0002A5F3F4F820F931F2C81FC012083898126
:1039F0008F5F89838981843084F2CE01069663E0EB
:103A00000E94F11D982F8985981721F00E94101CA3
:103A1000198229C00E94061C19828E818E8B8F818B
:103A20008F8B88858D838D81882381F08D81882F70
:103A300090E09E012A5E3F4F2D5F3F4FB9010E94EB
:103A40001A1C8F3FFFEF9F0709F40DC09E01275CF2
:103A50003F4FCE014696B9010E94C81FCE01C996BC
:103A60000E94341D94CF93CFCF93DF93CDB7DEB7B1
:103A700028970FB6F894DEBF0FBECDBF98878F830F
:103A800082E390E09C838B838F819885FC01808109
:103A90000E94AF1A81E090E00E94D0048F81988547
:103AA000FC0181810E94AF1A81E090E00E94D00465
:103AB0008F819885FC0180818D838F819885FC01A1
:103AC00081818E83CE01059662E00E94F11D0E94E5
:103AD000AF1A0E94C71D992787FD9095009759F04E
:103AE00081309105A9F08F3FFFEF9F0709F0CCCF00
:103AF0008FEF9FEF43C08B819C8101979C838B83C9
:103B00008B819C81009719F48FEF9FEF37C0BCCF5A
:103B100000001A82198214C02F81388589819A8108
:103B2000820F931F0296FC0180810E94AF1A81E0F0
:103B300090E00E94D00489819A8101969A838983BA
:103B40008F819885FC018181282F332727FD3095AF
:103B500089819A8182179307FCF28F819885FC01F5
:103B60008181282F8F8198850296622F0E94F11DF6
:103B70000E94AF1A0E94C71D80E090E028960FB601
:103B8000F894DEBF0FBECDBFDF91CF910895CF93E4
:103B9000DF931F921F92CDB7DEB788E893E19A8337
:103BA00089830BC089819A8101979A83898389814E
:103BB0009A81009711F48FEF0FC080ED90E0FC0127
:103BC000808188237CF786ED90E0FC01808180383D
:103BD00011F481E001C080E00F900F90DF91CF9150
:103BE0000895CF93DF9300D000D0CDB7DEB79D838B
:103BF0008C836E8319821B821A8211C08C819D81F5
:103C00009C012F5F3F4F3D832C83FC018081998174
:103C1000890F89838A819B8101969B838A838E8108
:103C2000282F30E08A819B81821793073CF389819A
:103C300026960FB6F894DEBF0FBECDBFDF91CF91B1
:103C40000895CF93DF931F921F92CDB7DEB79A836B
:103C5000898381E00F900F90DF91CF910895CF93EA
:103C6000DF93CDB7DEB727970FB6F894DEBF0FBE50
:103C7000CDBF89837B836A835D834C833F832E839F
:103C80008981992787FD90958230910581F0833055
:103C90009105C1F08130910501F58E819F810E94CF
:103CA0006C228C819D812CE0FC01208316C08A81CE
:103CB0009B81FC0120818E819F81BC01822F0E940B
:103CC00097220BC08A819B81FC0120818E819F817C
:103CD000BC01822F0E94C022000081E027960FB60F
:103CE000F894DEBF0FBECDBFDF91CF910895CF9383
:103CF000DF9300D01F921F92CDB7DEB789837B83FD
:103D00006A835D834C838981992787FD909500970D
:103D100021F08130910531F013C08C819D810E948A
:103D20005F230EC08C819D81FC0111828A819B8161
:103D3000FC018081992787FD90950E9471230000E6
:103D400081E00F900F900F900F900F90DF91CF9127
:103D50000895CF93DF9300D01F921F92CDB7DEB7A7
:103D600089837B836A835D834C838981992787FD5F
:103D7000909582309105F9F08330910534F40097E5
:103D800059F08130910591F04CC083309105C1F01C
:103D90008430910591F145C08A819B81FC0180812D
:103DA000992787FD90950E9497233BC08C819D8128
:103DB0000E94A22336C08C819D810E94B42331C011
:103DC0008A819B810296FC018081482F552747FDFF
:103DD00050958A819B810196FC018081282F332791
:103DE00027FD30958A819B81FC018081992787FD81
:103DF0009095B9010E94C62314C08A819B810196C7
:103E0000FC018081282F332727FD30958A819B81F3
:103E1000FC018081992787FD9095B9010E94D523E7
:103E2000000081E00F900F900F900F900F90DF91A6
:103E3000CF910895CF93DF9300D01F921F92CDB7FB
:103E4000DEB789837B836A835D834C838C819D810C
:103E5000FC0111828981992787FD9095009721F0B7
:103E60008130910559F00FC08A819B81FC018081CE
:103E7000992787FD90950E94222105C08C819D8104
:103E80000E943E2100000F900F900F900F900F9016
:103E9000DF91CF910895CF93DF9300D01F921F92AF
:103EA000CDB7DEB789837B836A835D834C83898149
:103EB000992787FD9095009721F08130910559F061
:103EC0000FC08A819B81FC018081992787FD909595
:103ED0000E94692005C08C819D810E947420000091
:103EE0000F900F900F900F900F90DF91CF9108954A
:103EF000CF93DF9300D01F921F92CDB7DEB7898397
:103F00007B836A835D834C838981992787FD9095A4
:103F1000009721F08130910531F00AC08C819D819C
:103F20000E94452005C08C819D810E945720000081
:103F30000F900F900F900F900F90DF91CF910895F9
:103F4000CF93DF9300D01F921F92CDB7DEB7898346
:103F50007B836A835D834C838C819D81FC0111820C
:103F60008981992787FD9095009751F48A819B81DB
:103F7000FC018081992787FD90950E9450210000C7
:103F80000F900F900F900F900F90DF91CF910895A9
:103F9000CF93DF9300D01F92CDB7DEB79A8389838A
:103FA0007C836B8389819A81DC0111962C918B81B2
:103FB0009C81FC01208389819A81DC018C91992765
:103FC00087FD9095AA2797FDA095BA2F41E050E074
:103FD00027E030E0841B950B2817390708F44DC003
:103FE0008E589F4FFC010C9492278B819C819C01E1
:103FF0002E5F3F4F8B819C81AC014F5F5F4F89816A
:104000009A81039669817A81DB011196EC91BC015A
:104010008E2F0E942F1E31C089819A81039629819B
:104020003A81D9011196EC912B813C81A901BC0107
:104030008E2F0E94771E21C089819A810396298143
:104040003A81D9011196EC912B813C81A901BC01E7
:104050008E2F0E941A1F11C089819A81039629818F
:104060003A81D9011196EC912B813C81A901BC01C7
:104070008E2F0E94A01F01C0000081E00F900F90C2
:104080000F900F90DF91CF910895CF93DF931F9200
:104090001F92CDB7DEB79A83898389819A81FC010B
:1040A000108281E00F900F90DF91CF910895CF9310
:1040B000DF931F921F92CDB7DEB79A8389838981E0
:1040C0009A81FC01108281E00F900F90DF91CF91D7
:1040D0000895CF93DF931F92CDB7DEB7898381E038
:1040E0000F90DF91CF910895CF93DF931F921F928E
:1040F000CDB7DEB79A83898389819A81FC011082CA
:1041000081E00F900F90DF91CF910895CF93DF93CF
:10411000CDB7DEB782E290E022E230E0F901208103
:104120002D7FFC0120830DC082E290E022E230E08E
:10413000F90120812D7FFC01208381E090E00E9425
:10414000D00482E290E0FC018081882F90E08270B0
:104150009927009749F782E290E022E230E0F901E6
:1041600020812160FC012083DF91CF910895CF93BE
:10417000DF93CDB7DEB782E290E022E230E0F901D2
:1041800020812E7FFC0120830DC082E290E022E29C
:1041900030E0F90120812E7FFC01208381E090E056
:1041A0000E94D00482E290E0FC018081882F90E0A0
:1041B00081709927009749F782E290E022E230E08F
:1041C000F90120812260FC012083DF91CF910895C5
:1041D000CF93DF93CDB7DEB782E290E022E230E00A
:1041E000F90120812E7FFC01208382E290E022E20F
:1041F00030E0F90120812D7FFC01208316C082E28E
:1042000090E022E230E0F90120812E7FFC01208342
:1042100082E290E022E230E0F90120812D7FFC0172
:10422000208381E090E00E94D00482E290E0FC01D3
:104230008081882F90E083709927009701F7DF91A4
:10424000CF910895CF93DF931F92CDB7DEB78983C7
:104250008981882319F40E94E8200BC0898181306C
:1042600019F40E94862005C089818F3F11F40E94B5
:10427000B72081E00F90DF91CF910895CF93DF9326
:104280001F921F92CDB7DEB79A83898389819A8165
:10429000FC01108281E00F900F90DF91CF91089583
:1042A000CF93DF931F92CDB7DEB7898389818130A9
:1042B00051F485E290E025E230E0F90120812068A8
:1042C000FC01208309C085E290E025E230E0F9019D
:1042D00020812F77FC01208381E00F90DF91CF9127
:1042E0000895CF93DF9300D01F92CDB7DEB79A83A6
:1042F00089837C836B8389819A81880F991F895375
:10430000954E2B813C81FC01318320830F900F90CF
:104310000F900F90DF91CF910895CF93DF931F926D
:104320001F92CDB7DEB79A83898389819A81880FDE
:10433000991F8953954EFC01808191810F900F90B8
:10434000DF91CF910895CF93DF93CDB7DEB786E4A9
:1043500090E0FC018081DF91CF9108951F920F9230
:1043600000905F000F92112400905B000F922F933A
:104370003F934F935F936F937F938F939F93AF93ED
:10438000BF93EF93FF93CF93DF9300D0CDB7DEB70A
:10439000198286E091E0FC018081882F90E02091D5
:1043A000D51A222F30E0022E02C0959587950A94E7
:1043B000E2F781709927009749F00E94A3218A8330
:1043C0008EE290E02FEFFC0120831DC00E94A3210C
:1043D0008B839B818A81891738F49B818A81F92F8D
:1043E000F81B8F2F8093D61A8EE290E0FC0110828A
:1043F0008091651B9091661B20E040E050E060E0FA
:1044000070E00E94A30E0F900F900F90DF91CF915C
:10441000FF91EF91BF91AF919F918F917F916F919C
:104420005F914F913F912F910F9000925B000F9001
:1044300000925F000F901F901895CF93DF9300D0EC
:104440001F92CDB7DEB79A8389837C836B838B8180
:104450009C81FC018081918129813A81B9010E946E
:1044600071210F900F900F900F90DF91CF910895D1
:10447000CF93DF93CDB7DEB723ED3AE14DE152E2C2
:1044800060E070E080E090E00E94D02622E032E020
:104490004DE152E260E070E08CE090E00E94D026B6
:1044A00024E032E04DE152E260E070E08FE090E025
:1044B0000E94D026DF91CF910895CF93DF931F9272
:1044C0001F92CDB7DEB79A8389830E9438228CE28F
:1044D00091E00E94D004FBCFCF93DF9300D01F92D6
:1044E000CDB7DEB79C838B831A82198214C0898171
:1044F0009A81880F991F2B813C81820F931F2981FC
:104500003A812F5F3F4FFC013183208389819A815B
:1045100001969A83898389819A818630910538F33F
:104520000F900F900F900F90DF91CF9108950F9300
:104530001F93CF93DF9300D0CDB7DEB789837B8302
:104540006A8389818630A4F48981992787FD9095B3
:10455000880F991F2A813B818901080F191F8981C2
:10456000992787FD90950E948D21F8019183808382
:104570000F900F900F90DF91CF911F910F910895A1
:104580000F931F93CF93DF9300D0CDB7DEB789830E
:104590007B836A838981992787FD90958130910576
:1045A000E9F08230910589F1009709F045C080E07B
:1045B00090E00E948D219C018A819B81FC013183C6
:1045C00020838A819B818C010E5F1F4F81E090E0E8
:1045D0000E948D21F801918380832EC082E090E0BB
:1045E0000E948D219C018A819B81FC013183208363
:1045F0008A819B818C010E5F1F4F83E090E00E94B7
:104600008D21F8019183808317C084E090E00E949F
:104610008D219C018A819B81FC01318320838A81C9
:104620009B818C010E5F1F4F85E090E00E948D21E1
:10463000F8019183808300000F900F900F90DF911D
:10464000CF911F910F910895CF93DF93CDB7DEB730
:104650008FE090E40E949924DF91CF910895CF9349
:10466000DF9300D01F92CDB7DEB79C838B831A8275
:1046700019828B819C8199279A83898389819A8168
:104680000E9499240F900F900F900F90DF91CF917F
:104690000895CF93DF93CDB7DEB786E090E00E9418
:1046A0005324DF91CF910895CF93DF93CDB7DEB739
:1046B0008AE090E00E945324DF91CF910895CF9338
:1046C000DF931F921F92CDB7DEB79A8389838981CA
:1046D0009A81FC01108281E00F900F90DF91CF91C1
:1046E0000895CF93DF931F92CDB7DEB78983898179
:1046F000882351F482E290E022E230E0F901208147
:104700002B7FFC01208309C082E290E022E230E0AE
:10471000F90120812460FC0120838981882F90E0A9
:104720000E942F2381E00F90DF91CF910895CF93C6
:10473000DF931F92CDB7DEB7898381E00F90DF91C1
:10474000CF910895CF93DF931F921F92CDB7DEB71D
:104750009A83898389819A81FC01108281E00F907C
:104760000F90DF91CF910895CF93DF931F921F9207
:10477000CDB7DEB79A83898389819A81FC01108243
:1047800081E00F900F90DF91CF910895CF93DF9349
:1047900000D0CDB7DEB789836A834B8381E00F9069
:1047A0000F900F90DF91CF910895CF93DF931F92D9
:1047B0001F92CDB7DEB789836A8381E00F900F9097
:1047C000DF91CF910895CF93DF93CDB7DEB78CE41F
:1047D00090E023E5FC01208384E290E024E230E0D5
:1047E000F9012081622F40E050E021E030E002C07A
:1047F000220F331F4A95E2F7722F41E050E021E08B
:1048000030E002C0220F331F4A95E2F7722B42E0DC
:1048100050E021E030E002C0220F331F4A95E2F75A
:10482000272B262BFC01208384E290E024E230E059
:10483000F9012081622F43E050E021E030E002C026
:10484000220F331F4A95E2F720952623FC0120838F
:1048500085E290E025E230E0F9012081622F40E01E
:1048600050E021E030E002C0220F331F4A95E2F70A
:10487000262BFC01208385E290E025E230E0F9015F
:104880002081622F41E050E021E030E0042E02C0A0
:10489000220F331F0A94E2F720952623FC01208380
:1048A000DF91CF910895CF93DF931F92CDB7DEB7FD
:1048B000898385E290E025E230E0F9012081622FD2
:1048C00040E050E021E030E002C0220F331F4A9563
:1048D000E2F720952623FC01208381E090E00E94EE
:1048E000D0048EE490E02981FC01208300008DE457
:1048F00090E0FC0180818823D4F781E090E00E9461
:10490000D00485E290E025E230E0F9012081622FB9
:1049100040E050E021E030E0042E02C0220F331FBF
:104920000A94E2F7262BFC0120830F90DF91CF91B0
:104930000895CF93DF931F921F92CDB7DEB79A836E
:10494000898385E290E025E230E0F9012081622F41
:1049500040E050E021E030E002C0220F331F4A95D2
:10496000E2F720952623FC01208382E090E00E945C
:10497000D0048EE490E029813A81232F3327FC0173
:10498000208300008DE490E0FC0180818823D4F72F
:104990008EE490E02981FC01208300008DE490E00A
:1049A000FC0180818823D4F782E090E00E94D0044B
:1049B00085E290E025E230E0F9012081622F40E0BD
:1049C00050E021E030E0042E02C0220F331F0A9491
:1049D000E2F7262BFC0120830F900F90DF91CF91FF
:1049E0000895CF93DF93CDB7DEB78AE790E020E854
:1049F000FC0120838CE790E021E4FC0120838BE71D
:104A000090E028E0FC012083DF91CF910895CF93BF
:104A1000DF931F921F92CDB7DEB79A8389838AE70F
:104A200090E0FC018081882F90E0807499270097A6
:104A300009F090C08AE790E02AE730E0F901208190
:104A4000287FFC01208389819A81FC0182819381E6
:104A50008370992781309105A1F0823091051CF473
:104A6000009729F022C082309105A9F01EC08AE784
:104A700090E02AE730E0F90120812760FC012083E3
:104A800014C08AE790E02AE730E0F9012081256030
:104A9000FC0120830AC08AE790E02AE730E0F901B0
:104AA00020812360FC01208300008CE790E02CE74C
:104AB00030E0F9012081207FFC01208389819A81E7
:104AC000FC018081918188309105CCF48BE790E0E6
:104AD0002BE730E0F9012081277FFC0120838CE760
:104AE00090E02CE730E0F9012081422F29813A81C2
:104AF000F90120813181242BFC01208319C08BE72F
:104B000090E02BE730E0F90120812860FC01208350
:104B10008CE790E02CE730E0F9012081422F2981D9
:104B20003A81F901208131812850242BFC01208316
:104B30008AE790E02AE730E0F90120812860FC0153
:104B400020838AE790E02AE730E0F90120812064A1
:104B5000FC0120830F900F90DF91CF9108951F9259
:104B60000F9200905F000F92112400905B000F9253
:104B70002F933F934F935F936F937F938F939F9365
:104B8000AF93BF93EF93FF93CF93DF9300D000D009
:104B9000CDB7DEB788E790E0FC018081882F90E0F8
:104BA0009A83898389E790E0FC018081882F90E0D7
:104BB000982F882729813A81822B932B9A83898386
:104BC0008091591B90915A1B880F991F880F991F2C
:104BD000880F991F8152954EFC01808191819C83A1
:104BE0008B838091591B90915A1B880F991F880FB6
:104BF000991F880F991F8352954EFC0180819181E6
:104C00009E838D834D815E8189819A812B813C8138
:104C1000BA01F90119958AE790E02AE730E0F90135
:104C20002081277FFC0120838091D71A9091D81A88
:104C300020E040E050E060E070E00E94A30E269685
:104C40000FB6F894DEBF0FBECDBFDF91CF91FF91BD
:104C5000EF91BF91AF919F918F917F916F915F91F4
:104C60004F913F912F910F9000925B000F90009217
:104C70005F000F901F901895CF93DF9300D01F9285
:104C8000CDB7DEB79C838B831A82198214C08981C9
:104C90009A81880F991F880F991F880F991F875233
:104CA000954E2FEF3FEFFC013183208389819A815C
:104CB00001969A83898389819A81803191053CF399
:104CC0000E94F12443E060E081E00E94480D90934F
:104CD000D81A8093D71A8091D71A9091D81A009732
:104CE00059F08091D71A9091D81A20E040E050E016
:104CF00060E070E00E94FF0D81E090E090935C1B0B
:104D000080935B1B04C08AE090E00E94D0048091F5
:104D1000D91A9091DA1A8F3FFFEF9F07A1F3809184
:104D2000591B90915A1B880F991F880F991F880F44
:104D3000991F8752954E0E9407258091591B90918B
:104D40005A1B019690935A1B8093591B8091591BB3
:104D500090915A1B803191059CF48091591B909140
:104D60005A1B880F991F880F991F880F991F875208
:104D7000954EFC01808191818F3FFFEF9F0721F4C9
:104D800010925A1B1092591B8091D71A9091D81AE1
:104D900020E04FEF5FEF60E070E00E94FC0EBFCFBD
:104DA000CF93DF93CDB7DEB72A970FB6F894DEBF67
:104DB0000FBECDBF9C838B837E836D8358874F83CB
:104DC0003A87298704C083E090E00E94D004809154
:104DD0005B1B90915C1B0097B1F31A82198205C08E
:104DE00089819A8101969A83898389819A81803108
:104DF00091058CF489819A81880F991F880F991FDA
:104E0000880F991F8752954EFC01808191818F3FB9
:104E1000FFEF9F0729F78B819C8188309105A4F4CF
:104E20008EE790E02EE730E0F9012081422F21E06B
:104E300030E00B8002C0220F331F0A94E2F7209566
:104E40002423FC01208318C08DE790E02DE730E09B
:104E5000F9012081622F2B813C81A9014850510921
:104E600021E030E0042E02C0220F331F0A94E2F743
:104E700020952623FC01208389819A81880F991F20
:104E8000880F991F880F991F8752954EFC018081CA
:104E900091818F3FFFEF9F07E1F589819A81880F0C
:104EA000991F880F991F880F991F8752954E2B8144
:104EB0003C81FC013183208389819A81880F991F6D
:104EC000880F991F880F991F8552954E2D813E811D
:104ED000FC013183208389819A81880F991F880F73
:104EE000991F880F991F8152954E2F813885FC019B
:104EF0003183208389819A81880F991F880F991F98
:104F0000880F991F8352954E29853A85FC0131837C
:104F100020832A960FB6F894DEBF0FBECDBFDF9177
:104F2000CF910895EE0FFF1F0590F491E02D199495
:104F3000FB01DC0102C001900D9241505040D8F7B6
:104F40000895DC0101C06D9341505040E0F7089591
:104F5000FB01DC014150504048F001900D920020CF
:104F6000C9F701C01D9241505040E0F70895FB0180
:104F70009F01E8944230C4F04532B4F44A3029F439
:104F800097FB1EF4909581959F4F642F77270E9481
:104F9000E827805D8A330CF0895D8193CB0100970F
:104FA000A1F716F45DE251931082C9010C94D82741
:104FB000DC01FC01672F71917723E1F7329704C080
:104FC0007C916D9370836291AE17BF07C8F308950B
:104FD000AA1BBB1B51E107C0AA1FBB1FA617B7071F
:104FE00010F0A61BB70B881F991F5A95A9F780953B
:0C4FF0009095BC01CD010895F894FFCF0E
:104FFC00FFFF01000200543000545300543300549E
:10500C003500303132333435363738394142434448
:10501C00454649444C4500020003000100000000D5
:00000001FF
