:100000000C9494000C94B5000C94B5000C94B500BD
:100010000C94B5000C94B5000C94B5000C94B5008C
:100020000C94B5000C94B5000C94B5000C94A02170
:100030000C94B5000C94B5000C94B5000C94B5006C
:100040000C94B5000C94B5000C94B5000C94B5005C
:100050000C94B5000C94B5000C94B5000C94B5004C
:100060000C94B5000C94B5000C94B5000C94B5003C
:100070000C94B5000C94A4260C94B5000C94B50017
:100080000C945B1A0C94B5000C94B5000C94B5005C
:100090000C94E71A0C94B5000C94B5000C94B500C0
:1000A0000C94B5000C94B5000C94B5000C94B500FC
:1000B0000C94B5000C94B5000C94B5000C94B500EC
:1000C0000C94B5000C94B5000C941B020C94B50074
:1000D0000C94B5000C94B5000C94B5000C94B500CC
:1000E0000C94B500E71FFE1F2E200E202E202E2080
:1000F0001E202E200C94E71F0C9489230C942E2094
:100100000C94FE1F0C94090A0C94B1020C947624F2
:100110000C940F220C94A31C0C941E200C943127D9
:100120000C940E200C944F2211241FBECFEFD1E26D
:10013000DEBFCDBF00E00CBF12E0A0E0B2E0E6EE13
:10014000F1E500E00BBF02C007900D92A233B107AA
:10015000D9F71BE1A2E3B2E001C01D92A937B107B4
:10016000E1F70E94CF000C94F1280C940000CF938B
:10017000DF93CDB7DEB780913202909133020196C2
:100180009093330280933202DF91CF910895CF9301
:10019000DF93CDB7DEB70000DF91CF910895AF9226
:1001A000BF92CF92DF92EF92FF920F93CF93DF93A4
:1001B00000D000D0CDB7DEB78FE38D838EEF8E8376
:1001C000CE0105969A838983CE01059601969C837C
:1001D0008B8381E290E027EFFC0120838AE290E0AC
:1001E0002FEFFC0120838DE290E02FEFFC012083B4
:1001F00084E290E02FEFFC01208387E091E0FC0196
:1002000010828BE290E0FC0110828EE290E0FC0113
:10021000108288E091E022E0FC0120830E944503E7
:100220008B819C81A12CB12CC12CD12CE12CF12CE7
:1002300001E09C014DE354E066E072E081EB92E066
:100240000E9455038B819C81A12CB12CC12CD12CF7
:10025000E12CF12C01E09C014DE354E069E072E0F7
:1002600086E794E20E9455038B819C81A12CB12CDE
:10027000C12CD12CE12CF12C01E09C014DE354E088
:100280006CE072E08FE492E20E9455038B819C81C6
:10029000A12CB12CC12CD12CE12CF12C01E09C0122
:1002A0004DE354E06FE072E083EA9CE10E94550365
:1002B0008B819C81A12CB12CC12CD12CE12CF12C57
:1002C00001E09C014DE354E062E172E081E397E2DA
:1002D0000E9455030E94540680E090E026960FB6D7
:1002E000F894DEBF0FBECDBFDF91CF910F91FF908D
:1002F000EF90DF90CF90BF90AF900895CF93DF93B2
:10030000CDB7DEB762970FB6F894DEBF0FBECDBF94
:100310009A8B898B20E1E5E1F2E0CE010196DC01C8
:1003200001900D922A95E1F789899A89892F992759
:1003300082958F709E012F5F3F4F820F931FFC01AC
:1003400080810E94A11A89899A8988279F70892FA4
:10035000990F990B9E012F5F3F4F820F931FFC0156
:1003600080810E94A11A89899A89807F9927959511
:1003700087959595879595958795959587959E01F0
:100380002F5F3F4F820F931FFC0180810E94A11AB3
:1003900089899A898F7099279E012F5F3F4F820F1D
:1003A000931FFC0180810E94A11A62960FB6F894F7
:1003B000DEBF0FBECDBFDF91CF910895CF93DF9306
:1003C000CDB7DEB72D970FB6F894DEBF0FBECDBF09
:1003D0008D87CE0103964AE050E060E070E00E9415
:1003E00096288D85882F90E09E012D5F3F4F4AE033
:1003F00050E0B9010E94AC28CE0103969A8389830C
:100400000BC089819A81FC0180810E940E1B898129
:100410009A8101969A83898389819A81FC018081DE
:10042000882379F72D960FB6F894DEBF0FBECDBFA7
:10043000DF91CF9108951F920F9200905F000F926D
:10044000112400905B000F922F933F938F939F9303
:10045000EF93FF93CF93DF93CDB7DEB785E290E0C4
:1004600025E230E0F90120812095FC01208384E918
:1004700090E0FC01108285E990E0FC011082DF91A0
:10048000CF91FF91EF919F918F913F912F910F907D
:1004900000925B000F9000925F000F901F901895E4
:1004A000CF93DF93CDB7DEB786E490E0FC01808187
:1004B000882F90E0DF91CF9108950F931F93CF93F2
:1004C000DF93CDB7DEB72C970FB6F894DEBF0FBE23
:1004D000CDBF9C838B837E836D8358874F833A8700
:1004E00029871C870B872B853C858D819E8128174A
:1004F00039071CF489859A8529C02B853C858B8119
:100500009C81821793071CF48F8198851FC08B856F
:100510009C8599230CF403969595879595958795D9
:100520008C5891099A83898329813A818F81988592
:10053000821793074CF029853A8589819A81821721
:10054000930724F4C90102C08F8198852C960FB6B9
:10055000F894DEBF0FBECDBFDF91CF911F910F91F9
:100560000895CF93DF93CDB7DEB765970FB6F894B4
:10057000DEBF0FBECDBF9D8B8C8B81E090E09A8358
:1005800089838CE193E09C838B8380EE90E09E8353
:100590008D8388E190E098878F8380E490E09A874C
:1005A000898780E091E09C878B8780E491E09E873B
:1005B0008D8780E691E0988B8F8782EC91E09A8B13
:1005C000898B81E68B8B82E290E024E0FC01208322
:1005D00040E054E264EF70E080E895E20E945E1A29
:1005E0000E94A0230E94D8240E94162380EB90E052
:1005F0000E94B52388EC90E00E94C204FBCFCF9309
:10060000DF931F921F92CDB7DEB79A8389838AE06A
:1006100091E020EFFC0120838BE091E020ECFC01D5
:1006200020838CE291E00E94C204FBCFCF93DF9342
:1006300000D01F92CDB7DEB79C838B830E94D82455
:100640001A8219820E94162381E090E00E942123E1
:1006500084EF91E00E94C20480E490E00E94212394
:1006600084EF91E00E94C2048FE790E00E94212372
:1006700084EF91E00E94C20480E490E00E94212374
:1006800084EF91E00E94C204DFCFCF93DF93CDB718
:10069000DEB784E290E02FEFFC01208385E290E05A
:1006A000FC011082DF91CF910895AF92BF92CF925B
:1006B000DF92EF92FF920F931F93CF93DF93CDB70B
:1006C000DEB764970FB6F894DEBF0FBECDBF9F8331
:1006D0008E83798768875B874A873D872C870E875B
:1006E000F88AEF86DA8AC98ABC8AAB8A29893A896C
:1006F0008A859B85B9010E940B0B9B838A838A8123
:100700009B81009709F49FC08A819B81FC01278906
:10071000308D8A859B850197820F931F9D838C83E3
:100720004A855B852B893C89688579858A819B818F
:100730008A014E850E941B0A4C855D852E813F8172
:100740008C819D81B9010E9433179C018A819B8114
:10075000FC01318320838F859889009739F08F853C
:1007600098892A813B81FC01318320830FB6F8945C
:100770000F92809182028F5F809382028091340277
:1007800090913502009769F48A819B81909335029C
:1007900080933402809182028130B1F40E947C0AFD
:1007A00013C080918702882379F48091340290915C
:1007B0003502FC0196898E85891730F08A819B81EC
:1007C00090933502809334028A819B81FC01968943
:1007D00080918502891730F48A819B81FC0186898A
:1007E0008093850280918C028F5F80938C028A8136
:1007F0009B81FC01968980918602891730F48A8159
:100800009B81FC018689809386028A819B81AC0151
:100810004E5F5F4F8A819B81FC018689282F30E0E3
:10082000C901880F991F880F991F880F991F820F80
:10083000931F8A5C9D4FBA010E94A51281E08983B3
:100840000F900FBE02C08FEF89838981813079F4C8
:1008500080918702882359F080913402909135026B
:10086000FC0196898E85981710F40E9437198981AA
:1008700064960FB6F894DEBF0FBECDBFDF91CF9167
:100880001F910F91FF90EF90DF90CF90BF90AF90AE
:100890000895CF93DF93CDB7DEB728970FB6F894BE
:1008A000DEBF0FBECDBF9E838D8378876F83198295
:1008B0000E9496068D819E81FC01208131818F816D
:1008C0009885820F931F9B838A838D819E81FC0173
:1008D0002081318180918302909184028217930755
:1008E000B0F48D819E81FC01208131818A819B81C0
:1008F0008217930708F580918302909184022A81E0
:100900003B8182179307C0F481E0898315C08D81F4
:100910009E81FC01208131818A819B81821793070E
:1009200048F080918302909184022A813B81821752
:10093000930710F481E089838D819E812A813B8118
:10094000FC01318320838981882359F0809134020E
:100950009091350202960E9475138A819B810E94B4
:10096000C00A0E94A2068C838C81882311F40E9405
:10097000371928960FB6F894DEBF0FBECDBFDF91B2
:10098000CF910895CF93DF9300D01F921F92CDB7E0
:10099000DEB79D838C8319828C819D810097D1F075
:1009A0000E94960620918302309184028C819D8161
:1009B000820F931F9B838A8380913402909135022A
:1009C00002960E9475138A819B810E94C00A0E9430
:1009D000A20689838981882311F40E9437190F9018
:1009E0000F900F900F900F90DF91CF910895CF93BC
:1009F000DF9300D01F92CDB7DEB79C838B830FB6F9
:100A0000F8940F9280913402909135022B813C81B1
:100A10002817390711F41C821B828B819C81009757
:100A200029F4809134029091350202C08B819C811F
:100A30009A83898389819A8102960E94751389819C
:100A40009A81FC0184899589009729F089819A818E
:100A50000C960E94751389819A810296BC0189E7E0
:100A600092E00E94A5120F900FBE8B819C8100978F
:100A7000A1F480918702882319F00E9437190DC0D4
:100A80009091790280918202981729F41092350290
:100A90001092340202C00E9438080F900F900F90FD
:100AA0000F90DF91CF910895CF93DF9300D01F92E5
:100AB0001F92CDB7DEB79D838C8319828C819D8177
:100AC0009B838A838A819B81FC0182859385F2E0E6
:100AD00089379F0791F48A819B81FC0184899589DC
:100AE000F2E080379F0749F08A819B81FC0184896D
:100AF0009589009711F481E0898389810F900F9087
:100B00000F900F900F90DF91CF910895CF93DF93C7
:100B100000D01F92CDB7DEB79C838B838B819C81E5
:100B20009A83898389819A81009709F44FC08091C3
:100B300034029091350229813A812817390709F446
:100B400045C00FB6F8940F9289819A810E9454058E
:100B50008130D1F589819A8102960E94751389812D
:100B60009A81FC01968980918602891730F48981E7
:100B70009A81FC0186898093860289819A81AC01E1
:100B80004E5F5F4F89819A81FC018689282F30E072
:100B9000C901880F991F880F991F880F991F820F0D
:100BA000931F8A5C9D4FBA010E94A51289819A8188
:100BB000FC0126898091340290913502FC018689DE
:100BC000281710F00E9437190F900FBE0F900F904A
:100BD0000F900F90DF91CF910895CF93DF9300D0C6
:100BE00000D0CDB7DEB79E838D8319828D819E8123
:100BF0009B838A831C828A819B810E945405813059
:100C000009F048C0809188028823E1F58A819B81A0
:100C1000FC0126898091340290913502FC0196896D
:100C200081E0291708F480E089838A819B810296FC
:100C30000E9475138A819B81FC01968980918602AE
:100C4000891730F48A819B81FC0186898093860212
:100C50008A819B81AC014E5F5F4F8A819B81FC0141
:100C60008689282F30E0C901880F991F880F991FA6
:100C7000880F991F820F931F8A5C9D4FBA010E94B3
:100C8000A51208C08A819B810C96BC0180E792E086
:100C90000E94A512898126960FB6F894DEBF0FBE7A
:100CA000CDBFDF91CF910895AF92BF92CF92DF92E7
:100CB000EF92FF920F93CF93DF931F92CDB7DEB7E2
:100CC000A12CB12CC12CD12CE12CF12C00E020E086
:100CD00030E045E550E065E272E089E09AE00E948C
:100CE000550389838981813051F4F89481E08093A0
:100CF000870210928402109283020E94F7180F90CC
:100D0000DF91CF910F91FF90EF90DF90CF90BF9048
:100D1000AF900895CF93DF93CDB7DEB7F8941092DC
:100D200087020E943019DF91CF910895CF93DF930E
:100D3000CDB7DEB7809188028F5F80938802DF9104
:100D4000CF9108950F931F93CF93DF931F921F921C
:100D5000CDB7DEB719820FB6F8940F928091880252
:100D600081508093880280918802882309F064C0B2
:100D700080918202882309F45FC01A823AC0809170
:100D8000750290917602FC0106811781C8010C96CC
:100D90000E947513C80102960E947513F801968986
:100DA00080918602891720F4F80186898093860253
:100DB000A8014E5F5F4FF8018689282F30E0C901F6
:100DC000880F991F880F991F880F991F820F931FF3
:100DD0008A5C9D4FBA010E94A512F8012689809174
:100DE000340290913502FC018689281710F081E0C9
:100DF0008A8380917002882311F68091890288236A
:100E000071F007C00E945B07809189028150809336
:100E10008902809189028823A9F781E08A838A81E7
:100E2000813021F080918A02813031F481E0898320
:100E300010928A020E9437190F900FBE89810F907D
:100E40000F90DF91CF911F910F910895CF93DF9372
:100E50001F921F92CDB7DEB70FB6F8940F92809114
:100E60008302909184029A8389830F900FBE8981B7
:100E70009A810F900F90DF91CF910895CF93DF93D8
:100E800000D0CDB7DEB719828091830290918402A1
:100E90009B838A838A819B810F900F900F90DF91B3
:100EA000CF910895CF93DF93CDB7DEB780918202C3
:100EB000DF91CF910895CF93DF9300D000D0CDB7CD
:100EC000DEB780918802882309F0C4C08091830234
:100ED0009091840201969093840280938302809182
:100EE0008302909184020097E9F580916C029091C1
:100EF0006D029A83898380916E0290916F02909324
:100F00006D0280936C0289819A8190936F02809325
:100F10006E0280918B028F5F80938B0280916C02B6
:100F200090916D02FC018081882339F48FEF9FEF4F
:100F3000909301028093000215C080916C02909101
:100F40006D02FC0185819681FC01868197819C83DD
:100F50008B838B819C81FC01828193819093010220
:100F600080930002209183023091840280910002DC
:100F7000909101022817390708F46BC080916C0228
:100F800090916D02FC018081882339F48FEF9FEFEF
:100F900090930102809300025CC080916C0290915A
:100FA0006D02FC0185819681FC01868197819C837D
:100FB0008B838B819C81FC01828193819E838D83B5
:100FC00020918302309184028D819E8128173907F8
:100FD00038F48D819E81909301028093000239C084
:100FE0008B819C8102960E9475138B819C81FC01F0
:100FF00084899589009729F08B819C810C960E94A9
:1010000075138B819C81FC019689809186028917DA
:1010100030F48B819C81FC018689809386028B81D0
:101020009C81AC014E5F5F4F8B819C81FC01868966
:10103000282F30E0C901880F991F880F991F880F4A
:10104000991F820F931F8A5C9D4FBA010E94A512BF
:1010500095CF05C0809189028F5F80938902269683
:101060000FB6F894DEBF0FBECDBFDF91CF910895CC
:10107000CF93DF931F921F92CDB7DEB78091880286
:10108000882321F081E080938A027AC08091340223
:1010900090913502FC012081318180913402909140
:1010A0003502FC018789908D8217930770F080913B
:1010B0003402909135029C01275E3F4F80913402AB
:1010C00090913502B9010E94C70005C08091860247
:1010D00081508093860280918602282F30E0C901DA
:1010E000880F991F880F991F880F991F820F931FD0
:1010F0008A5C9D4FFC018081882341F380918602A8
:10110000282F30E0C901880F991F880F991F880F79
:10111000991F820F931F8A5C9D4F9A8389838981CF
:101120009A81FC0181819281FC0122813381898134
:101130009A81FC013283218389819A81FC0121817A
:10114000328189819A8103962817390769F4898148
:101150009A81FC0181819281FC0122813381898104
:101160009A81FC013283218389819A81FC018181EA
:101170009281FC018681978190933502809334029D
:101180000F900F90DF91CF910895CF93DF9300D010
:1011900000D0CDB7DEB79C838B837E836D83809137
:1011A0003402909135029C01245F3F4F8B819C81DA
:1011B000B9010E94FC12809134029091350202968E
:1011C0000E9475138D819E818F3F2FEF920759F4F6
:1011D00080913402909135020296BC0189E792E039
:1011E0000E94A5120EC020918302309184028D814D
:1011F0009E81820F931F9A83898389819A810E949D
:10120000C00A26960FB6F894DEBF0FBECDBFDF91A1
:10121000CF910895CF93DF9300D01F921F92CDB747
:10122000DEB79D838C838C819D81FC0185819681B5
:10123000FC01868197819B838A838A819B810C969E
:101240000E94751380918802882369F58A819B81A9
:1012500002960E9475138A819B81FC019689809178
:101260008602891730F48A819B81FC0186898093EC
:1012700086028A819B81AC014E5F5F4F8A819B8190
:10128000FC018689282F30E0C901880F991F880F3B
:10129000991F880F991F820F931F8A5C9D4FBA0177
:1012A0000E94A51208C08A819B810C96BC0180E730
:1012B00092E00E94A5128A819B81FC01268980917F
:1012C000340290913502FC018689281718F081E0DC
:1012D000898301C0198289810F900F900F900F9020
:1012E0000F90DF91CF910895CF93DF931F921F92BC
:1012F000CDB7DEB79A83898320918B0289819A8149
:10130000FC012083209183023091840289819A819B
:10131000FC01328321830F900F90DF91CF910895CC
:10132000CF93DF9300D01F921F92CDB7DEB79B8380
:101330008A837D836C830FB6F8940F928C819D8194
:10134000FC01808191818F3FFFEF9F0711F419828B
:101350004BC08A819B81FC01908180918B02981700
:1013600079F08A819B81FC01218132818091830205
:10137000909184028217930718F081E0898334C02A
:1013800020918302309184028A819B81FC018181BA
:101390009281281B390B8C819D81FC018081918178
:1013A00028173907F8F48C819D81FC012081318157
:1013B0008A819B81FC0141815281809183029091BD
:1013C0008402BA01681B790BCB01280F391F8C816D
:1013D0009D81FC01318320838A819B810E94740955
:1013E000198202C081E089830F900FBE89810F901E
:1013F0000F900F900F900F90DF91CF910895CF93A2
:10140000DF93CDB7DEB781E080938A02DF91CF9181
:101410000895CF93DF931F921F92CDB7DEB79A83C3
:1014200089830E94B90A80913602823018F00E94A6
:101430003719F7CFF6CF0F931F93CF93DF93CDB725
:10144000DEB729970FB6F894DEBF0FBECDBF9A83E3
:1014500089837C836B834D833F832E831987088721
:1014600089819A8149962B813C8140E150E0B90104
:101470000E949D2889819A81FC0110A68D8184306B
:1014800010F083E08D8389819A812D81FC01268B68
:1014900089819A812D81FC0121A789819A810296F7
:1014A0000E94931289819A810C960E9493128981DD
:1014B0009A8129813A81FC01318720878D81882F8B
:1014C00090E024E030E0281B390B89819A81FC01EF
:1014D0003587248789819A8129813A81FC01338B60
:1014E000228B29960FB6F894DEBF0FBECDBFDF91D9
:1014F000CF911F910F910895CF93DF931F92CDB796
:10150000DEB7198213C08981282F30E0C901880F06
:10151000991F880F991F880F991F820F931F8A5C4C
:101520009D4F0E945D1289818F5F898389818430FC
:1015300050F38AE592E00E945D1283E692E00E94F9
:101540005D1280E792E00E945D1289E792E00E94BE
:101550005D128AE592E090936D0280936C0283E6BF
:1015600092E090936F0280936E020F90DF91CF9183
:101570000895CF93DF93CDB7DEB7DF91CF91089574
:10158000CF93DF931F921F92CDB7DEB79A838983E3
:10159000809134029091350229813A81FC01338394
:1015A0002283809183029091840229813A812817B5
:1015B000390778F480913402909135029C012E5FB6
:1015C0003F4F80916E0290916F02B9010E94FC1210
:1015D0001DC080913402909135029C012E5F3F4FD7
:1015E00080916C0290916D02B9010E94FC12809171
:1015F00000029091010229813A812817390730F4BD
:1016000089819A8190930102809300020F900F903C
:10161000DF91CF910895CF93DF9300D000D0CDB765
:10162000DEB79C838B837E836D838AE290E00E9489
:10163000C4169A83898389819A81009751F18D819B
:101640009E81009729F48B819C810E94C41602C060
:101650008D819E8129813A81F901908F878B8981C3
:101660009A81FC018789908D009739F489819A814C
:101670000E940A171A8219820CC089819A81FC0182
:101680008789908D2B813C81A90165EA70E00E94D9
:10169000962889819A8126960FB6F894DEBF0FBEF0
:1016A000CDBFDF91CF9108950F931F93CF93DF9319
:1016B0001F921F92CDB7DEB79A83898300E010E0B6
:1016C00009C089819A8101969A838983C8018C0116
:1016D0000F5F1F4F89819A81FC018081853A89F3D0
:1016E000C8010F900F90DF91CF911F910F91089536
:1016F000CF93DF93CDB7DEB727970FB6F894DEBF51
:101700000FBECDBF9F838E838E819F81009729F46A
:10171000809134029091350202C08E819F819A831C
:10172000898389819A81FC018789908D9C838B8331
:101730008B819C810E94540B8D838D8127960FB6DF
:10174000F894DEBF0FBECDBFDF91CF910895CF9348
:10175000DF931F921F92CDB7DEB780913402909134
:1017600035029A83898389819A810F900F90DF9146
:10177000CF910895CF93DF9300D01F92CDB7DEB7FE
:101780009C838B838B819C819A8389838B819C81B1
:10179000009709F478C089819A81FC01268980919B
:1017A000340290913502FC018689281708F06BC03D
:1017B0008091340290913502FC018689882F90E057
:1017C00024E030E0281B390B89819A81FC013587A0
:1017D000248789819A81FC014285538589819A8178
:1017E000FC018689282F30E0C901880F991F880FD6
:1017F000991F880F991F820F931F8A5C9D4F48176E
:101800005907B9F589819A8102960E9475138091D2
:10181000340290913502FC01268989819A81FC016C
:10182000268B89819A81FC0196898091860289178D
:1018300030F489819A81FC018689809386028981AE
:101840009A81AC014E5F5F4F89819A81FC01868944
:10185000282F30E0C901880F991F880F991F880F22
:10186000991F820F931F8A5C9D4FBA010E94A51297
:101870000AC08091340290913502FC012689898149
:101880009A81FC01268B0F900F900F900F90DF91A3
:10189000CF910895CF93DF9300D01F92CDB7DEB7DD
:1018A0009C838B838B819C819A8389838B819C8190
:1018B000009709F44EC089819A81FC0126898981AB
:1018C0009A81FC0181A5281709F443C089819A8176
:1018D00002960E94751389819A81FC0121A5898154
:1018E0009A81FC01268B89819A81FC018689882F47
:1018F00090E024E030E0281B390B89819A81FC01BB
:101900003587248789819A81FC0196898091860296
:10191000891730F489819A81FC0186898093860237
:1019200089819A81AC014E5F5F4F89819A81FC0168
:101930008689282F30E0C901880F991F880F991FC9
:10194000880F991F820F931F8A5C9D4FBA010E94D6
:10195000A5120F900F900F900F90DF91CF910895E7
:10196000CF93DF9300D0CDB7DEB79A8389836B83A3
:101970000FB6F8940F9289819A81FC012081318100
:1019800089819A81FC01838D682F70E089819A8119
:10199000FC01848D482F50E0649FC001659F900D2D
:1019A000749F900D1124280F391F89819A81FC01A1
:1019B0003383228389819A81FC01128E89819A81E5
:1019C000FC012081318189819A81FC013583248346
:1019D00089819A81FC012081318189819A81FC0170
:1019E000838D882F90E0BC016150710989819A81B3
:1019F000FC01848D482F50E0649FC001659F900DCD
:101A0000749F900D1124280F391F89819A81FC0140
:101A10003783268389819A812FEFFC01258F898165
:101A20009A812FEFFC01268F8B81882381F4898195
:101A30009A81FC0180858823A1F089819A8108968A
:101A40000E940A09813069F40E9437190AC089810D
:101A50009A8108960E945D1289819A8141960E941E
:101A60005D120F900FBE81E00F900F900F90DF91ED
:101A7000CF910895CF93DF93CDB7DEB729970FB6F7
:101A8000F894DEBF0FBECDBF8F83688749871A8267
:101A900019828F81882309F443C08FE190E00E946E
:101AA000C4169C838B838B819C810097C9F18F81A5
:101AB000482F50E08885282F30E0429FC001439F87
:101AC000900D529F900D112401969E838D838D81E0
:101AD0009E810E94C4169C018B819C81FC013183F4
:101AE00020838B819C81FC01808191810097A1F0F2
:101AF0008B819C812F81FC01238F8B819C81288588
:101B0000FC01248F8B819C8161E00E94B00C8B8151
:101B10009C819A83898304C08B819C810E940A17CF
:101B200089819A8129960FB6F894DEBF0FBECDBF8A
:101B3000DF91CF910895CF93DF9300D0CDB7DEB77B
:101B40008B838FE190E00E94C4169A8389838981F8
:101B50009A810097F1F189819A81FC0113821282A6
:101B600089819A81FC011182108289819A81FC010C
:101B70001582148289819A81FC01178216828981DB
:101B80009A81FC01128E89819A8121E0FC01238FC8
:101B900089819A81FC01148E89819A812FEFFC0141
:101BA000258F89819A812FEFFC01268F89819A8167
:101BB00008960E945D1289819A8141960E945D1269
:101BC00089819A8120E040E050E060E070E00E946E
:101BD000F10D89819A810F900F900F90DF91CF9135
:101BE0000895CF93DF93CDB7DEB72B970FB6F89458
:101BF000DEBF0FBECDBF9E838D8378876F835A87EC
:101C000049872B8719820FB6F8940F928D819E8198
:101C1000FC01228D8D819E81FC01838D2817D8F4D3
:101C20002F8138858D819E814B85B9010E947B1063
:101C30008D819E81FC018189882349F08D819E815F
:101C400041960E940A09813011F40E9437190F90C1
:101C50000FBE81E061C089859A85009721F40F90BD
:101C60000FBE80E059C08981882331F4CE010296ED
:101C70000E94740981E089830F900FBE0E9496062E
:101C80000FB6F8940F928D819E81FC01858D8F3F58
:101C900021F48D819E81FC01158E8D819E81FC0138
:101CA000868D8F3F21F48D819E81FC01168E0F90D1
:101CB0000FBE9E01275F3F4FCE010296B9010E94E1
:101CC0009009882301F58D819E810E94221288232C
:101CD00099F029853A858D819E810896B9010E94E7
:101CE000C5088D819E810E948A110E94A2068823C8
:101CF00091F40E9437190FC08D819E810E948A1134
:101D00000E94A20680CF8D819E810E948A110E942E
:101D1000A20680E001C077CF2B960FB6F894DEBF05
:101D20000FBECDBFDF91CF910895CF93DF93CDB795
:101D3000DEB729970FB6F894DEBF0FBECDBF9C83E8
:101D40008B837E836D8358874F8329871A828B818B
:101D50009C81FC01228D8B819C81FC01838D281745
:101D600090F52D813E818B819C814985B9010E942E
:101D70007B108B819C81FC01868D8F3FB9F48B8118
:101D80009C81FC0181898823D9F08B819C814196BB
:101D90000E940A098823A1F08F819885009781F01D
:101DA0008F81988521E0FC0120830AC08B819C8172
:101DB000FC01868D21E0280F8B819C81FC01268F00
:101DC00081E0898301C01982898129960FB6F89430
:101DD000DEBF0FBECDBFDF91CF910895CF93DF93CC
:101DE000CDB7DEB72D970FB6F894DEBF0FBECDBFCF
:101DF00098878F837A8769875C874B872D871982BD
:101E00000FB6F8940F928F819885FC01828D8823FC
:101E100009F454C08F819885FC01868197819B834A
:101E20008A8329853A858F819885B9010E94391165
:101E30008D85882349F58F819885FC01828D2FEF50
:101E4000280F8F819885FC01228F8F819885FC0156
:101E500080819181009741F40E94A70B9C018F81A2
:101E60009885FC01338322838F819885FC018085CE
:101E7000882301F18F81988508960E940A09813094
:101E8000C9F40E94371916C08F8198852A813B8139
:101E9000FC01378326838F819885FC018189882303
:101EA00049F08F81988541960E940A09882311F094
:101EB0000E9437190F900FBE81E074C08B859C85FE
:101EC000009721F40F900FBE80E06CC089818823B9
:101ED00031F4CE0104960E94740981E089830F9049
:101EE0000FBE0E9496060FB6F8940F928F819885C8
:101EF000FC01858D8F3F21F48F819885FC01158E23
:101F00008F819885FC01868D8F3F21F48F81988584
:101F1000FC01168E0F900FBE9E01255F3F4FCE0134
:101F20000496B9010E949009882399F58F819885BC
:101F30000E94EF11882331F18F819885FC01808107
:101F40009181009761F40FB6F8940F928F81988574
:101F5000FC01828193810E94BA0B0F900FBE2B85EA
:101F60003C858F8198854196B9010E94C5088F8173
:101F700098850E948A110E94A206882391F40E94EB
:101F800037190FC08F8198850E948A110E94A2067E
:101F900037CF8F8198850E948A110E94A20680E027
:101FA00001C02ECF2D960FB6F894DEBF0FBECDBF69
:101FB000DF91CF910895CF93DF93CDB7DEB7289708
:101FC0000FB6F894DEBF0FBECDBF9C838B837E839C
:101FD0006D8358874F831A828B819C81FC01828D8F
:101FE0008823D9F12D813E818B819C81B9010E948A
:101FF00039118B819C81FC01828D2FEF280F8B8101
:102000009C81FC01228F8B819C81FC01858D8F3FFF
:10201000B9F48B819C81FC0180858823D9F08B8168
:102020009C8108960E940A098823A1F08F819885D7
:10203000009781F08F81988521E0FC0120830AC000
:102040008B819C81FC01858D21E0280F8B819C81F7
:10205000FC01258F81E0898301C01982898128963E
:102060000FB6F894DEBF0FBECDBFDF91CF910895BC
:10207000CF93DF9300D0CDB7DEB79B838A830FB6B3
:10208000F8940F928A819B81FC01828D89830F9045
:102090000FBE89810F900F900F90DF91CF9108951F
:1020A000CF93DF9300D0CDB7DEB79B838A838A813D
:1020B0009B81FC01828D898389810F900F900F9005
:1020C000DF91CF910895CF93DF931F921F92CDB7E9
:1020D000DEB79A83898389819A81FC01808191810D
:1020E0000E940A1789819A810E940A170F900F9007
:1020F000DF91CF910895CF93DF9300D01F921F926D
:10210000CDB7DEB79A8389837C836B834D838981C6
:102110009A81FC01848D8823A9F489819A81FC012C
:1021200080819181009709F092C089819A81FC0198
:10213000828193810E944A0C89819A81FC011382D9
:10214000128285C08D818823D9F589819A81FC010D
:10215000848D482F50E089819A81FC01848195818A
:102160002B813C81B9010E948D2889819A81FC01D3
:102170002481358189819A81FC01848D882F90E0AA
:10218000280F391F89819A81FC0135832483898135
:102190009A81FC012481358189819A81FC018281A7
:1021A00093812817390708F452C089819A81FC016C
:1021B0002081318189819A81FC013583248347C044
:1021C00089819A81FC01848D482F50E089819A8110
:1021D000FC01868197812B813C81B9010E948D2869
:1021E00089819A81FC012681378189819A81FC014C
:1021F000848D882F90E0919581959109280F391F42
:1022000089819A81FC013783268389819A81FC0127
:102210002681378189819A81FC01808191812817EB
:102220003907A8F489819A81FC012281338189814F
:102230009A81FC01848D882F90E091958195910978
:10224000280F391F89819A81FC0137832683898170
:102250009A81FC01828D21E0280F89819A81FC01FD
:10226000228F0F900F900F900F900F90DF91CF91D2
:102270000895CF93DF9300D01F92CDB7DEB79A8336
:1022800089837C836B8389819A81FC018081918120
:102290000097C9F189819A81FC0126813781898162
:1022A0009A81FC01848D882F90E0280F391F898145
:1022B0009A81FC013783268389819A81FC012681DA
:1022C000378189819A81FC0182819381281739079E
:1022D00050F089819A81FC012081318189819A8124
:1022E000FC013783268389819A81FC01848D482FE4
:1022F00050E089819A81FC01268137818B819C8104
:10230000B9010E948D280F900F900F900F90DF91D0
:10231000CF910895CF93DF931F921F92CDB7DEB771
:102320009A8389830FB6F8940F921BC089819A8192
:10233000FC0181898823A1F089819A8141960E94BC
:102340000A09882311F00E94FF0989819A81FC0102
:10235000868D2FEF280F89819A81FC01268F01C07D
:1023600006C089819A81FC01868D1816FCF289814C
:102370009A812FEFFC01268F0F900FBE0FB6F894B5
:102380000F921BC089819A81FC0180858823A1F06E
:1023900089819A8108960E940A09882311F00E9477
:1023A000FF0989819A81FC01858D2FEF280F898192
:1023B0009A81FC01258F01C006C089819A81FC01A8
:1023C000858D1816FCF289819A812FEFFC01258FEB
:1023D0000F900FBE0F900F90DF91CF910895CF9384
:1023E000DF9300D0CDB7DEB79B838A830FB6F89416
:1023F0000F928A819B81FC01928D81E0992309F0E3
:1024000080E089830F900FBE89810F900F900F900D
:10241000DF91CF910895CF93DF9300D0CDB7DEB792
:102420009B838A838A819B81FC01928D81E0992321
:1024300009F080E0898389810F900F900F90DF91E0
:10244000CF910895CF93DF9300D0CDB7DEB79B83B4
:102450008A830FB6F8940F928A819B81FC01228DAA
:102460008A819B81FC01938D81E0291709F080E02E
:1024700089830F900FBE89810F900F900F90DF918D
:10248000CF910895CF93DF9300D0CDB7DEB79B8374
:102490008A838A819B81FC01228D8A819B81FC0138
:1024A000938D81E0291709F080E0898389810F905D
:1024B0000F900F90DF91CF910895CF93DF931F92EC
:1024C0001F92CDB7DEB79A83898389819A819C0157
:1024D0002D5F3F4F89819A81FC013283218389815D
:1024E0009A812FEF3FEFFC013483238389819A8106
:1024F0009C012D5F3F4F89819A81FC0136832583A2
:1025000089819A819C012D5F3F4F89819A81FC01CD
:102510003087278389819A81FC0110820F900F9068
:10252000DF91CF910895CF93DF931F921F92CDB784
:10253000DEB79A83898389819A81FC01118610868E
:102540000F900F90DF91CF910895CF93DF9300D03C
:1025500000D0CDB7DEB79C838B837E836D838B8168
:102560009C81FC01818192819A83898389819A81EE
:10257000FC01228133818D819E81FC013383228382
:102580008B819C81FC01218132818D819E81FC01A6
:102590003583248389819A81FC01828193812D81F5
:1025A0003E81FC013583248389819A812D813E817E
:1025B000FC01338322838B819C812D813E81FC0130
:1025C000328321838D819E812B813C81FC01318767
:1025D00020878B819C81FC01808121E0280F8B81E9
:1025E0009C81FC01208326960FB6F894DEBF0FBEB7
:1025F000CDBFDF91CF910895CF93DF93CDB7DEB7F5
:1026000028970FB6F894DEBF0FBECDBF9E838D8393
:1026100078876F838F819885FC01808191819C836D
:102620008B838B819C818F3FFFEF9F0741F48D81CE
:102630009E81FC01878190859A8389831AC08D8150
:102640009E8103969A83898307C089819A81FC01C0
:10265000828193819A83898389819A81FC01828115
:102660009381FC01208131818B819C8182179307AA
:1026700060F789819A81FC01228133818F8198855D
:10268000FC01338322838F819885FC0182819381B1
:102690002F813885FC01358324838F81988529819A
:1026A0003A81FC013583248389819A812F81388581
:1026B000FC01338322838F8198852D813E81FC012B
:1026C000318720878D819E81FC01808121E0280F48
:1026D0008D819E81FC01208328960FB6F894DEBF81
:1026E0000FBECDBFDF91CF910895CF93DF9300D080
:1026F0001F92CDB7DEB79C838B838B819C81FC01BD
:10270000828193812B813C81F90124813581FC01F7
:10271000358324838B819C81FC01848195812B816D
:102720003C81F90122813381FC01338322838B8137
:102730009C81FC01808591859A83898389819A8116
:10274000FC01218132818B819C812817390751F44A
:102750008B819C81FC012481358189819A81FC01D6
:10276000328321838B819C81FC01118610868981B3
:102770009A81FC0180812FEF280F89819A81FC01C9
:10278000208389819A81FC0180810F900F900F90A6
:102790000F90DF91CF910895CF93DF93CDB7DEB740
:1027A00027970FB6F894DEBF0FBECDBF9D838C83F5
:1027B0006E834F838AE190E00E94C4169B838A83D4
:1027C0008A819B81009709F477C080918D02909156
:1027D0008E02009741F48A819B8190938E028093B0
:1027E0008D020E9452168E81823010F081E08E831D
:1027F0008A819B81FC01118E108E8A819B812E81A2
:10280000FC01268B8A819B812F81FC01278B8A8189
:102810009B812C813D81FC01318320838A819B81B6
:1028200002960E9493128A819B810C960E949312B9
:102830008A819B812A813B81FC01318720878A81A3
:102840009B812A813B81FC01338B228B8E81882FD7
:1028500090E024E030E0281B390B8A819B81FC0149
:10286000358724878A819B81FC0196898091C002EB
:10287000891730F48A819B81FC0186898093C0028C
:102880008A819B81AC014E5F5F4F8A819B81FC01F5
:102890008689282F30E0C901880F991F880F991F5A
:1028A000880F991F820F931F81579D4FBA010E9475
:1028B000A51281E0898302C08FEF898389812796E1
:1028C0000FB6F894DEBF0FBECDBFDF91CF91089554
:1028D000CF93DF9300D000D0CDB7DEB79C838B833E
:1028E0007E836D832091C1023091C2028B819C81D5
:1028F000820F931F9A83898380918D0290918E021B
:1029000002960E94751380918D0290918E0229810A
:102910003A81FC01338322838091C1029091C202EB
:1029200029813A812817390778F480918D02909196
:102930008E029C012E5F3F4F8091B5029091B602AE
:10294000B9010E94FC120EC080918D0290918E02FE
:102950009C012E5F3F4F8091B3029091B402B90168
:102960000E94FC128D819E81009761F080918D0202
:1029700090918E029C01245F3F4F8D819E81B90111
:102980000E94FC1226960FB6F894DEBF0FBECDBF94
:10299000DF91CF910895CF93DF931F921F92CDB710
:1029A000DEB73CC0F8948091BC029091BD02FC015E
:1029B000868197819A83898389819A810C960E9466
:1029C0007513789489819A8102960E947513898182
:1029D0009A81FC0196898091C002891730F489811F
:1029E0009A81FC0186898093C00289819A81AC0119
:1029F0004E5F5F4F89819A81FC018689282F30E0E4
:102A0000C901880F991F880F991F880F991F820F7E
:102A1000931F81579D4FBA010E94A5128091B70262
:102A2000882309F0BFCF0F900F90DF91CF910895C9
:102A3000CF93DF9300D01F92CDB7DEB70E94260759
:102A40009C018091C3029091C402A901481B590BBB
:102A5000CA019093C6028093C5028AC08091C102C8
:102A60009091C20201969093C2028093C10280911C
:102A7000C5029091C60201979093C6028093C50249
:102A80008091C1029091C2020097A9F48091B30293
:102A90009091B4029A8389838091B5029091B60295
:102AA0009093B4028093B30289819A819093B60285
:102AB0008093B50254C053C08091B3029091B40288
:102AC000FC0185819681FC01868197819C838B83A3
:102AD0008B819C81FC01228133818091C102909184
:102AE000C2028217930708F443C0F8948B819C813B
:102AF00002960E9475138B819C81FC0184899589C3
:102B0000009729F08B819C810C960E947513789414
:102B10008B819C81FC0196898091C002891730F4D9
:102B20008B819C81FC0186898093C0028B819C8172
:102B3000AC014E5F5F4F8B819C81FC018689282F01
:102B400030E0C901880F991F880F991F880F991FBE
:102B5000820F931F81579D4FBA010E94A512809149
:102B6000B3029091B402FC018081882309F0A4CFC4
:102B70008091C5029091C602009709F06FCF8091B5
:102B8000C1029091C2029093C4028093C3020F903D
:102B90000F900F900F90DF91CF910895CF93DF9317
:102BA0001F921F92CDB7DEB70E94CB140E9418155A
:102BB0000AC08091C002882309F46FC08091C002CE
:102BC00081508093C0028091C002282F30E0C9015B
:102BD000880F991F880F991F880F991F820F931FC5
:102BE00081579D4FFC018081882319F38091C00299
:102BF000282F30E0C901880F991F880F991F880F6F
:102C0000991F820F931F81579D4F9A8389838981D2
:102C10009A81FC0181819281FC0122813381898129
:102C20009A81FC013283218389819A81FC0121816F
:102C3000328189819A8103962817390769F489813D
:102C40009A81FC0181819281FC01228133818981F9
:102C50009A81FC013283218389819A81FC018181DF
:102C60009281FC018681978190938E0280938D02E0
:102C700080918D0290918E02FC01208131818091A2
:102C80008D0290918E02FC01478980918D02909176
:102C90008E02642FF901199500000F900F90DF91BB
:102CA000CF910895CF93DF931F92CDB7DEB71982EE
:102CB00013C08981282F30E0C901880F991F880F20
:102CC000991F880F991F820F931F81579D4F0E9454
:102CD0005D1289818F5F89838981823050F381EA17
:102CE00092E00E945D128AEA92E00E945D1287EBF8
:102CF00092E00E945D1281EA92E09093B402809388
:102D0000B3028AEA92E09093B6028093B5020F90E4
:102D1000DF91CF910895CF93DF9300D01F921F9240
:102D2000CDB7DEB79D838C838C819D81FC0185812D
:102D30009681FC01868197819B838A838A819B810E
:102D40000C960E9475138A819B810C96BC0187EBBF
:102D500092E00E94A5128A819B81FC0126898091C4
:102D60008D0290918E02FC018689281718F081E06F
:102D7000898301C0198289810F900F900F900F9065
:102D80000F90DF91CF910895CF93DF9300D01F92E2
:102D9000CDB7DEB79C838B831A8219820E94960678
:102DA0002091C71A3091C81A8B819C81820F931F82
:102DB000811528E1920718F52091C71A3091C81A99
:102DC0008B819C81280F391F8091C71A9091C81A56
:102DD00082179307A0F48091C71A9091C81A89535B
:102DE0009D4F9A8389832091C71A3091C81A8B818D
:102DF0009C81820F931F9093C81A8093C71A0E94D8
:102E0000A20689819A810F900F900F900F90DF9109
:102E1000CF910895CF93DF931F921F92CDB7DEB766
:102E20009A8389830F900F90DF91CF910895CF936C
:102E3000DF93CDB7DEB71092C81A1092C71ADF9190
:102E4000CF910895CF93DF93CDB7DEB78091C71AA6
:102E50009091C81A20E038E1A901481B590BCA011A
:102E6000DF91CF910895CF93DF93CDB7DEB7289749
:102E70000FB6F894DEBF0FBECDBF9C838B837E83DD
:102E80006D8358874F838B819C8121E1FC012083D6
:102E90008B819C8101979C838B838B819C8122E217
:102EA000FC0120838B819C8101979C838B838B8188
:102EB0009C8123E3FC0120838B819C8101979C836F
:102EC0008B838D819E819A83898329818B819C81CB
:102ED000FC0120838B819C8101979C838B8389815A
:102EE0009A81892F99279A83898329818B819C8153
:102EF000FC0120838B819C8101979C838B838B8138
:102F00009C81FC0110828B819C8101979C838B8327
:102F10008B819C81FC0110828B819C8101979C8319
:102F20008B838B819C8120E8FC0120838B819C8199
:102F300001979C838B838B819C81FC0110828B8108
:102F40009C8101979C838B838B819C81FC011082E7
:102F50008B819C8101979C838B838B819C81FC015D
:102F600010828B819C8101979C838B838B819C81B8
:102F700022E0FC0120838B819C8101979C838B83C1
:102F80008B819C8123E0FC0120838B819C810197B4
:102F90009C838B838B819C8124E0FC0120838B812B
:102FA0009C8101979C838B838B819C8125E0FC0114
:102FB00020838B819C8101979C838B838B819C8157
:102FC00026E0FC0120838B819C8101979C838B836D
:102FD0008B819C8127E0FC0120838B819C81019760
:102FE0009C838B838B819C8128E0FC0120838B81D7
:102FF0009C8101979C838B838B819C8129E0FC01C0
:1030000020838B819C8101979C838B838B819C8106
:1030100020E1FC0120838B819C8101979C838B8321
:103020008B819C8121E1FC0120838B819C81019714
:103030009C838B838B819C8122E1FC0120838B818B
:103040009C8101979C838B838B819C8123E1FC0174
:1030500020838B819C8101979C838B838B819C81B6
:1030600024E1FC0120838B819C8101979C838B83CD
:103070008B819C8125E1FC0120838B819C810197C0
:103080009C838B838B819C8126E1FC0120838B8137
:103090009C8101979C838B838B819C8127E1FC0120
:1030A00020838B819C8101979C838B838B819C8166
:1030B00028E1FC0120838B819C8101979C838B8379
:1030C0008B819C8129E1FC0120838B819C8101976C
:1030D0009C838B838B819C8120E2FC0120838B81EC
:1030E0009C8101979C838B838B819C8121E2FC01D5
:1030F00020838B819C8101979C838B838B819C8116
:1031000022E2FC0120838B819C8101979C838B832D
:103110008B819C8123E2FC0120838B819C81019720
:103120009C838B838F8198859A83898329818B8166
:103130009C81FC0120838B819C8101979C838B83E4
:1031400089819A81892F99279A83898329818B8103
:103150009C81FC0120838B819C8101979C838B83C4
:103160008B819C8126E2FC0120838B819C810197CD
:103170009C838B838B819C8127E2FC0120838B8144
:103180009C8101979C838B838B819C8128E2FC012D
:1031900020838B819C8101979C838B838B819C8175
:1031A00029E2FC0120838B819C8101979C838B8386
:1031B0008B819C8120E3FC0120838B819C81019782
:1031C0009C838B838B819C8121E3FC0120838B81F9
:1031D0009C8101979C838B838B819C8128960FB661
:1031E000F894DEBF0FBECDBFDF91CF910895CF938E
:1031F000DF93CDB7DEB70E94FB19A0913402B091E6
:103200003502CD91CDBFDD91DEBFFF91EF91DF9112
:10321000CF91BF91AF919F918F917F916F915F916E
:103220004F913F912F911F910F91FF90EF90DF9061
:10323000CF90BF90AF909F908F907F906F905F9056
:103240004F903F902F901F900F900CBE0F900BBE91
:103250000F900FBE0F90089581E0DF91CF910895F8
:10326000CF93DF93CDB7DEB7DF91CF9108950F9263
:103270000FB6F8940F920BB60F920CB60F921F92E6
:1032800011242F923F924F925F926F927F928F9272
:103290009F92AF92BF92CF92DF92EF92FF920F93E5
:1032A0001F932F933F934F935F936F937F938F93CE
:1032B0009F93AF93BF93CF93DF93EF93FF93A0912F
:1032C0003402B09135020DB60D920EB60D920E94E9
:1032D0003808A0913402B0913502CD91CDBFDD9177
:1032E000DEBFFF91EF91DF91CF91BF91AF919F91A1
:1032F0008F917F916F915F914F913F912F911F918E
:103300000F91FF90EF90DF90CF90BF90AF909F9084
:103310008F907F906F905F904F903F902F901F9075
:103320000F900CBE0F900BBE0F900FBE0F90089524
:103330000F920FB6F8940F920BB60F920CB60F9235
:103340001F9211242F923F924F925F926F927F9221
:103350008F929F92AF92BF92CF92DF92EF92FF92A5
:103360000F931F932F933F934F935F936F937F938D
:103370008F939F93AF93BF93CF93DF93EF93FF937D
:10338000A0913402B09135020DB60D920EB60D9299
:103390000E945B070E943808A0913402B091350268
:1033A000CD91CDBFDD91DEBFFF91EF91DF91CF9148
:1033B000BF91AF919F918F917F916F915F914F914D
:1033C0003F912F911F910F91FF90EF90DF90CF9041
:1033D000BF90AF909F908F907F906F905F904F9035
:1033E0003F902F901F900F900CBE0F900BBE0F9030
:1033F0000FBE0F900895CF93DF9300D000D0CDB7CC
:10340000DEB780E09DE7A0E0B0E089839A83AB83DC
:10341000BC8389819A81AB81BC81689415F8B6958B
:10342000A795979587951694D1F789839A83AB834F
:10343000BC8389819A81AB81BC810197A109B109C3
:1034400089839A83AB83BC8389818D8389819A81A7
:10345000AB81BC81892F9A2FAB2FBB2789839A839D
:10346000AB83BC8389818E8389E990E02E81FC0146
:10347000208388E990E02D81FC0120838BE08D83FF
:1034800081E990E02D81FC01208381E790E0FC013F
:1034900080818D838D8182608D8381E790E02D8195
:1034A000FC01208326960FB6F894DEBF0FBECDBF79
:1034B000DF91CF9108950E9498191895CF93DF93CB
:1034C00000D000D0CDB7DEB79A8389834B835C836D
:1034D0006D837E8340E061E080E40E943A0D90932A
:1034E0006A1B8093691B40E061E088E00E943A0D0E
:1034F0009093661B8093651B85EC90E0FC01108225
:1035000084EC90E028E0FC01208381EC90E028E14D
:10351000FC01208382EC90E026E0FC01208380EC1B
:1035200090E020EC30E0F90120812D7FFC01208328
:1035300026960FB6F894DEBF0FBECDBFDF91CF91B8
:103540000895CF93DF931F92CDB7DEB78983000034
:1035500080EC90E0FC018081882F90E080729927B8
:103560000097B1F386EC90E02981FC0120830F9055
:10357000DF91CF910895CF93DF931F92CDB7DEB740
:103580008983000080EC90E0FC018081882F90E02E
:10359000807299270097B1F386EC90E02981FC01B5
:1035A00020830F90DF91CF910895CF93DF93CDB714
:1035B000DEB7000080ED90E0FC0180818823D4F725
:1035C00086ED90E0FC018081DF91CF9108951F92FC
:1035D0000F9200905F000F92112400905B000F92F9
:1035E0008F939F93EF93FF93CF93DF931F92CDB76A
:1035F000DEB78EEC90E0FC01808189830F90DF9133
:10360000CF91FF91EF919F918F910F9000925B006E
:103610000F9000925F000F901F901895CF93DF934B
:103620001F92CDB7DEB789838091691B90916A1B89
:1036300020E04FEF5FEFBE016F5F7F4F0E94F10D03
:103640000F90DF91CF910895CF93DF931F921F9238
:10365000CDB7DEB79A8389830BC089819A81FC013B
:1036600080810E940E1B89819A8101969A838983A9
:1036700089819A81FC018081882379F70F900F90CE
:10368000DF91CF910895CF93DF9300D0CDB7DEB710
:103690009B838A838091691B90916A1B20E04FEF86
:1036A0005FEFBE016F5F7F4F0E94EE0E000088EC5F
:1036B00090E0FC018081882F90E08072992700972C
:1036C000B1F38EEC90E02981FC012083E3CFCF930E
:1036D000DF931F92CDB7DEB789838091671B9091EE
:1036E000681B20E04FEF5FEFBE016F5F7F4F0E94CE
:1036F000F10D0F90DF91CF910895CF93DF931F923B
:103700001F92CDB7DEB79A8389830BC089819A81D6
:10371000FC0180810E94671B89819A8101969A83AE
:10372000898389819A81FC018081882379F70F90B0
:103730000F90DF91CF910895CF93DF9300D0CDB755
:10374000DEB79B838A838091671B9091681B20E082
:103750004FEF5FEFBE016F5F7F4F0E94EE0E0000E4
:1037600080EC90E0FC018081882F90E080729927A6
:103770000097B1F386EC90E02981FC012083E3CF30
:10378000CF93DF931F92CDB7DEB78091651B9091E9
:10379000661B20E041E050E0BE016F5F7F4F0E945A
:1037A000EE0E813011F4898101C08FEF0F90DF910F
:1037B000CF910895CF93DF9300D01F92CDB7DEB79E
:1037C0009C838B831A82198205C089819A81019614
:1037D0009A83898329813A818B819C8128173907B3
:1037E000A4F30F900F900F900F90DF91CF91089559
:1037F000CF93DF93CDB7DEB780E80E94A11ADF91A7
:10380000CF910895CF93DF93CDB7DEB780E00E94CC
:10381000A11ADF91CF910895CF93DF93CDB7DEB793
:103820002D970FB6F894DEBF0FBECDBF9B878A875A
:103830007D876C871A8219821C821B8283E090E04C
:1038400098878F836DC02EC082E390E09E838D8326
:1038500010C08D819E8101979E838D838D819E8175
:10386000009719F48FEF9FEF65C081E090E00E9410
:10387000C20480EC90E0FC018081882354F786EC40
:1038800090E0FC018081898789819A812C853D8522
:10389000820F931F2985FC01208389819A810196DB
:1038A0009A83898329813A818A859B8528173907DC
:1038B0005CF282E390E09E838D8310C08D819E81B7
:1038C00001979E838D838D819E81009719F48FEFE0
:1038D0009FEF30C081E090E00E94C20480EC90E055
:1038E000FC018081882354F786EC90E0FC01808104
:1038F00089872A858C859D85622F0E94E31D982FDC
:103900008985981741F00E94021C8B819C81019649
:103910009C838B8305C00E94F81B80E090E00AC066
:103920002B813C818F819885281739070CF48BCF28
:103930008FEF9FEF2D960FB6F894DEBF0FBECDBF71
:10394000DF91CF910895CF93DF93CDB7DEB7CC55FC
:10395000D1090FB6F894DEBF0FBECDBF9E01255A28
:103960003F4FF9019183808384E290E02FEFFC01C7
:10397000208319828EE190E09B838A832DC012C040
:103980008A819B8101979B838A838A819B8100978F
:1039900029F419828EE190E09B838A8381E090E094
:1039A0000E94C20480EC90E0FC018081882344F7EF
:1039B00086EC90E0FC0180818C838981992787FDCA
:1039C00090959E012A5F3F4F820F931F2C81FC012F
:1039D000208389818F5F89838981843084F2CE013D
:1039E000069663E00E94E31D982F8985981721F0C1
:1039F0000E94021C198229C00E94F81B19828E8124
:103A00008E8B8F818F8B88858D838D81882381F02C
:103A10008D81882F90E09E012A5E3F4F2D5F3F4FA2
:103A2000B9010E940C1C8F3FFFEF9F0709F40DC0E6
:103A30009E01275C3F4FCE014696B9010E94BA1FF6
:103A4000CE01C9960E94261D94CF93CFCF93DF93CA
:103A5000CDB7DEB728970FB6F894DEBF0FBECDBF47
:103A600098878F8382E390E09C838B838F819885F6
:103A7000FC0180810E94A11A81E090E00E94C204B2
:103A80008F819885FC0181810E94A11A81E090E0DC
:103A90000E94C2048F819885FC0180818D838F8173
:103AA0009885FC0181818E83CE01059662E00E949B
:103AB000E31D0E94A11A0E94B91D992787FD9095C8
:103AC000009759F081309105A9F08F3FFFEF9F07D4
:103AD00009F0CCCF8FEF9FEF43C08B819C81019782
:103AE0009C838B838B819C81009719F48FEF9FEFD0
:103AF00037C0BCCF00001A82198214C02F813885CC
:103B000089819A81820F931F0296FC0180810E9415
:103B1000A11A81E090E00E94C20489819A810196F5
:103B20009A8389838F819885FC018181282F33278F
:103B300027FD309589819A8182179307FCF28F8146
:103B40009885FC018181282F8F8198850296622FAC
:103B50000E94E31D0E94A11A0E94B91D80E090E01E
:103B600028960FB6F894DEBF0FBECDBFDF91CF9180
:103B70000895CF93DF931F921F92CDB7DEB788E8E9
:103B800093E19A8389830BC089819A8101979A83F3
:103B9000898389819A81009711F48FEF0FC080ED9E
:103BA00090E0FC01808188237CF786ED90E0FC01A9
:103BB0008081803811F481E001C080E00F900F9087
:103BC000DF91CF910895CF93DF9300D000D0CDB790
:103BD000DEB79D838C836E8319821B821A8211C08B
:103BE0008C819D819C012F5F3F4F3D832C83FC0185
:103BF00080819981890F89838A819B8101969B832A
:103C00008A838E81282F30E08A819B8182179307D7
:103C10003CF3898126960FB6F894DEBF0FBECDBF68
:103C2000DF91CF910895CF93DF931F921F92CDB76D
:103C3000DEB79A83898381E00F900F90DF91CF9157
:103C40000895CF93DF93CDB7DEB727970FB6F894DB
:103C5000DEBF0FBECDBF89837B836A835D834C83C8
:103C60003F832E838981992787FD90958230910526
:103C700081F083309105C1F08130910501F58E818D
:103C80009F810E945E228C819D812CE0FC0120831B
:103C900016C08A819B81FC0120818E819F81BC019D
:103CA000822F0E9489220BC08A819B81FC01208186
:103CB0008E819F81BC01822F0E94B222000081E090
:103CC00027960FB6F894DEBF0FBECDBFDF91CF9120
:103CD0000895CF93DF9300D01F921F92CDB7DEB728
:103CE00089837B836A835D834C838981992787FDE0
:103CF0009095009721F08130910531F013C08C81AF
:103D00009D810E9451230EC08C819D81FC011182F6
:103D10008A819B81FC018081992787FD90950E9473
:103D20006323000081E00F900F900F900F900F9091
:103D3000DF91CF910895CF93DF9300D01F921F9210
:103D4000CDB7DEB789837B836A835D834C838981AA
:103D5000992787FD909582309105F9F08330910580
:103D600034F4009759F08130910591F04CC08330C4
:103D70009105C1F08430910591F145C08A819B8104
:103D8000FC018081992787FD90950E9422243BC0E9
:103D90008C819D810E94352436C08C819D810E943A
:103DA000472431C08A819B810296FC018081482F83
:103DB000552747FD50958A819B810196FC018081A2
:103DC000282F332727FD30958A819B81FC01808134
:103DD000992787FD9095B9010E94592414C08A81C2
:103DE0009B810196FC018081282F332727FD309588
:103DF0008A819B81FC018081992787FD9095B9017B
:103E00000E946824000081E00F900F900F900F90A7
:103E10000F90DF91CF910895CF93DF9300D01F9241
:103E20001F92CDB7DEB789837B836A835D834C8322
:103E30008C819D81FC0111828981992787FD909554
:103E4000009721F08130910559F00FC08A819B8144
:103E5000FC018081992787FD90950E94142105C05F
:103E60008C819D810E94302100000F900F900F9057
:103E70000F900F90DF91CF910895CF93DF9300D0F3
:103E80001F921F92CDB7DEB789837B836A835D83E0
:103E90004C838981992787FD9095009721F0813087
:103EA000910559F00FC08A819B81FC01808199277F
:103EB00087FD90950E945B2005C08C819D810E94AA
:103EC000662000000F900F900F900F900F90DF91E1
:103ED000CF910895CF93DF9300D01F921F92CDB75B
:103EE000DEB789837B836A835D834C8389819927CD
:103EF00087FD9095009721F08130910531F00AC03F
:103F00008C819D810E94372005C08C819D810E94FB
:103F1000492000000F900F900F900F900F90DF91AD
:103F2000CF910895CF93DF9300D01F921F92CDB70A
:103F3000DEB789837B836A835D834C838C819D811B
:103F4000FC0111828981992787FD9095009751F492
:103F50008A819B81FC018081992787FD90950E9431
:103F6000422100000F900F900F900F900F90DF9163
:103F7000CF910895CF93DF9300D01F92CDB7DEB7D6
:103F80009A8389837C836B8389819A81DC01119672
:103F90002C918B819C81FC01208389819A81DC0199
:103FA0008C91992787FD9095AA2797FDA095BA2F08
:103FB00041E050E027E030E0841B950B28173907DB
:103FC00008F44DC08E589F4FFC010C9487288B81BC
:103FD0009C819C012E5F3F4F8B819C81AC014F5F88
:103FE0005F4F89819A81039669817A81DB011196FD
:103FF000EC91BC018E2F0E94211E31C089819A81D3
:10400000039629813A81D9011196EC912B813C814B
:10401000A901BC018E2F0E94691E21C089819A814D
:10402000039629813A81D9011196EC912B813C812B
:10403000A901BC018E2F0E940C1F11C089819A8199
:10404000039629813A81D9011196EC912B813C810B
:10405000A901BC018E2F0E94921F01C0000081E0C7
:104060000F900F900F900F90DF91CF910895CF9305
:10407000DF931F921F92CDB7DEB79A838983898120
:104080009A81FC01108281E00F900F90DF91CF9117
:104090000895CF93DF931F921F92CDB7DEB79A8317
:1040A000898389819A81FC01108281E00F900F90B1
:1040B000DF91CF910895CF93DF931F92CDB7DEB7F5
:1040C000898381E00F90DF91CF910895CF93DF93A3
:1040D0001F921F92CDB7DEB79A83898389819A8117
:1040E000FC01108281E00F900F90DF91CF91089535
:1040F000CF93DF93CDB7DEB782E290E022E230E0EB
:10410000F90120812D7FFC0120830DC082E290E027
:1041100022E230E0F90120812D7FFC01208381E043
:1041200090E00E94C20482E290E0FC018081882F2E
:1041300090E082709927009749F782E290E022E2AE
:1041400030E0F90120812160FC012083DF91CF91D3
:104150000895CF93DF93CDB7DEB782E290E022E2FD
:1041600030E0F90120812E7FFC0120830DC082E226
:1041700090E022E230E0F90120812E7FFC012083D3
:1041800081E090E00E94C20482E290E0FC01808124
:10419000882F90E081709927009749F782E290E09C
:1041A00022E230E0F90120812260FC012083DF91CE
:1041B000CF910895CF93DF93CDB7DEB782E290E041
:1041C00022E230E0F90120812E7FFC01208382E28F
:1041D00090E022E230E0F90120812D7FFC01208374
:1041E00016C082E290E022E230E0F90120812E7FC9
:1041F000FC01208382E290E022E230E0F90120819C
:104200002D7FFC01208381E090E00E94C20482E2C5
:1042100090E0FC018081882F90E0837099270097BF
:1042200001F7DF91CF910895CF93DF931F92CDB720
:10423000DEB789838981882319F40E94DA200BC0B4
:104240008981813019F40E94782005C089818F3FCF
:1042500011F40E94A92081E00F90DF91CF91089581
:10426000CF93DF931F921F92CDB7DEB79A838983D6
:1042700089819A81FC01108281E00F900F90DF917B
:10428000CF910895CF93DF931F92CDB7DEB7898387
:104290008981813051F485E290E025E230E0F90136
:1042A00020812068FC01208309C085E290E025E29E
:1042B00030E0F90120812F77FC01208381E00F900D
:1042C000DF91CF910895CF93DF9300D01F92CDB7A8
:1042D000DEB79A8389837C836B8389819A81880F77
:1042E000991F8753954E2B813C81FC01318320839C
:1042F0000F900F900F900F90DF91CF910895CF9373
:10430000DF931F921F92CDB7DEB79A83898389818D
:104310009A81880F991F8753954EFC018081918166
:104320000F900F90DF91CF910895CF93DF93CDB78A
:10433000DEB786E490E0FC018081DF91CF910895A3
:104340001F920F9200905F000F92112400905B006B
:104350000F922F933F934F935F936F937F938F931E
:104360009F93AF93BF93EF93FF93CF93DF9300D0CF
:10437000CDB7DEB7198286E091E0FC018081882FFD
:1043800090E02091D71A222F30E0022E02C095959E
:1043900087950A94E2F781709927009749F00E9467
:1043A00095218A838EE290E02FEFFC0120831DC0CF
:1043B0000E9495218B839B818A81891738F49B8188
:1043C0008A81F92FF81B8F2F8093D81A8EE290E004
:1043D000FC01108280916B1B90916C1B20E040E0EF
:1043E00050E060E070E00E94950E0F900F900F90EB
:1043F000DF91CF91FF91EF91BF91AF919F918F91FD
:104400007F916F915F914F913F912F910F9000920B
:104410005B000F9000925F000F901F901895CF9354
:10442000DF9300D01F92CDB7DEB79A8389837C8358
:104430006B838B819C81FC018081918129813A81F0
:10444000B9010E9463210F900F900F900F90DF91A0
:10445000CF910895CF93DF93CDB7DEB725ED3AE145
:104460004FE052E260E070E080E090E00E94C527FB
:1044700022E032E04FE052E260E070E08CE090E059
:104480000E94C52724E032E04FE052E260E070E095
:104490008FE090E00E94C527DF91CF910895CF93E0
:1044A000DF931F921F92CDB7DEB79A8389830E9454
:1044B0002A228CE291E00E94C204FBCFCF93DF93CB
:1044C00000D01F92CDB7DEB79C838B831A821982EE
:1044D00014C089819A81880F991F2B813C81820F9A
:1044E000931F29813A812F5F3F4FFC013183208345
:1044F00089819A8101969A83898389819A818630FC
:10450000910538F30F900F900F900F90DF91CF919E
:1045100008950F931F93CF93DF9300D0CDB7DEB7ED
:1045200089837B836A8389818630A4F48981992772
:1045300087FD9095880F991F2A813B818901080F7B
:10454000191F8981992787FD90950E947F21F80185
:10455000918380830F900F900F90DF91CF911F91E7
:104560000F9108950F931F93CF93DF9300D0CDB792
:10457000DEB789837B836A838981992787FD90953C
:1045800081309105E9F08230910589F1009709F0B9
:1045900045C080E090E00E947F219C018A819B8140
:1045A000FC01318320838A819B818C010E5F1F4F28
:1045B00081E090E00E947F21F801918380832EC0EA
:1045C00082E090E00E947F219C018A819B81FC0116
:1045D000318320838A819B818C010E5F1F4F83E092
:1045E00090E00E947F21F8019183808317C084E0CE
:1045F00090E00E947F219C018A819B81FC01318394
:1046000020838A819B818C010E5F1F4F85E090E0A3
:104610000E947F21F8019183808300000F900F900A
:104620000F90DF91CF911F910F910895CF93DF935A
:10463000CDB7DEB78FE090E40E948E25DF91CF9159
:104640000895CF93DF9300D01F92CDB7DEB79C8340
:104650008B831A8219828B819C8199279A83898303
:1046600089819A810E948E250F900F900F900F9054
:10467000DF91CF910895CF93DF93CDB7DEB786E07A
:1046800090E00E944825DF91CF910895CF93DF936A
:10469000CDB7DEB78AE090E00E944825DF91CF9148
:1046A0000895CF93DF931F921F92CDB7DEB79A8301
:1046B000898389819A81FC01108281E00F900F909B
:1046C000DF91CF910895CF93DF931F92CDB7DEB7DF
:1046D00089838981882351F482E290E022E230E0EC
:1046E000F90120812B7FFC01208309C082E290E048
:1046F00022E230E0F90120812460FC0120838981DD
:10470000882F90E00E94212381E00F90DF91CF91CC
:104710000895CF93DF9300D01F92CDB7DEB79A8371
:1047200089837C836B8389819A819093DC1A80933F
:10473000DB1A0F900F900F900F90DF91CF9108959B
:10474000CF93DF93CDB7DEB780E890E021E8FC019E
:10475000208381E890E021E0FC01208382E890E062
:10476000FC011082DF91CF910895CF93DF931F92C8
:104770001F92CDB7DEB79A83898389E890E02981BB
:104780003A81232F330F330BFC01208388E890E01C
:104790002981FC0120830F900F90DF91CF91089524
:1047A000CF93DF931F921F92CDB7DEB79A83898391
:1047B00089819A81009741F081309105C1F08F3F46
:1047C0002FEF920739F139C08BE091E02BE031E017
:1047D000F90120812B7FFC0120838BE091E02BE00D
:1047E00031E0F9012081277FFC01208326C08BE086
:1047F00091E02BE031E0F90120812B7FFC01208347
:104800008BE091E02BE031E0F90120812860FC0190
:10481000208313C08BE091E02BE031E0F90120818F
:10482000277FFC0120838BE091E02BE031E0F90150
:1048300020812460FC01208300000F900F90DF9105
:10484000CF910895CF93DF931F92CDB7DEB78983C1
:104850008981992787FD90959093DA1A8093D91AC8
:1048600081E00F90DF91CF910895CF93DF931F9256
:104870001F92CDB7DEB79A83898389819A81FC0123
:10488000108281E00F900F90DF91CF910895CF9328
:10489000DF931F921F92CDB7DEB79A8389838981F8
:1048A0009A81FC01108281E00F900F90DF91CF91EF
:1048B0000895CF93DF9300D0CDB7DEB789836A83A5
:1048C0004B8381E00F900F900F90DF91CF9108956F
:1048D000CF93DF931F921F92CDB7DEB789836A8390
:1048E00081E00F900F90DF91CF910895CF93DF93E8
:1048F00000D000D0CDB7DEB79E838D830E94A02369
:1049000020E030E049E853E260E070E082E090E0CF
:104910000E94C52781E090E09A83898380E890E037
:104920009093DA1A8093D91A2091D91A3091DA1A11
:104930008091DB1A9091DC1A9595879595958795CE
:10494000A901481B590B29813A81429FC001439F0D
:10495000900D529F900D11249C838B838B819C81A1
:10496000863F2FEF92072CF48FEF9FEF0E94D0230A
:1049700016C08B819C818B3091052CF081E090E0FA
:104980000E94D0230CC080E090E00E94D023809150
:10499000DB1A9091DC1A9093DA1A8093D91A8B81E2
:1049A0009C810E94B5238AE090E00E94C204BCCFA3
:1049B000CF93DF93CDB7DEB78CE490E023E5FC0125
:1049C000208384E290E024E230E0F9012081622F2C
:1049D00040E050E021E030E002C0220F331F4A9552
:1049E000E2F7722F41E050E021E030E002C0220FF8
:1049F000331F4A95E2F7722B42E050E021E030E0AD
:104A000002C0220F331F4A95E2F7272B262BFC0109
:104A1000208384E290E024E230E0F9012081622FDB
:104A200043E050E021E030E002C0220F331F4A95FE
:104A3000E2F720952623FC01208385E290E025E221
:104A400030E0F9012081622F40E050E021E030E0C9
:104A500002C0220F331F4A95E2F7262BFC01208368
:104A600085E290E025E230E0F9012081622F41E00B
:104A700050E021E030E0042E02C0220F331F0A94E0
:104A8000E2F720952623FC012083DF91CF91089542
:104A9000CF93DF931F92CDB7DEB7898385E290E095
:104AA00025E230E0F9012081622F40E050E021E072
:104AB00030E002C0220F331F4A95E2F720952623EB
:104AC000FC01208381E090E00E94C2048EE490E02B
:104AD0002981FC01208300008DE490E0FC018081AD
:104AE0008823D4F781E090E00E94C20485E290E040
:104AF00025E230E0F9012081622F40E050E021E022
:104B000030E0042E02C0220F331F0A94E2F7262B56
:104B1000FC0120830F90DF91CF910895CF93DF9315
:104B20001F921F92CDB7DEB79A83898385E290E00A
:104B300025E230E0F9012081622F40E050E021E0E1
:104B400030E002C0220F331F4A95E2F7209526235A
:104B5000FC01208382E090E00E94C2048EE490E099
:104B600029813A81232F3327FC01208300008DE423
:104B700090E0FC0180818823D4F78EE490E02981C5
:104B8000FC01208300008DE490E0FC0180818823FB
:104B9000D4F782E090E00E94C20485E290E025E232
:104BA00030E0F9012081622F40E050E021E030E068
:104BB000042E02C0220F331F0A94E2F7262BFC01B9
:104BC00020830F900F90DF91CF910895CF93DF93C3
:104BD000CDB7DEB78AE790E020E8FC0120838CE7C0
:104BE00090E021E4FC0120838BE790E028E0FC01C9
:104BF0002083DF91CF910895CF93DF931F921F926F
:104C0000CDB7DEB79A8389838AE790E0FC01808183
:104C1000882F90E080749927009709F090C08AE768
:104C200090E02AE730E0F9012081287FFC01208311
:104C300089819A81FC0182819381837099278130D7
:104C40009105A1F0823091051CF4009729F022C053
:104C500082309105A9F01EC08AE790E02AE730E093
:104C6000F90120812760FC01208314C08AE790E0CD
:104C70002AE730E0F90120812560FC0120830AC089
:104C80008AE790E02AE730E0F90120812360FC0107
:104C9000208300008CE790E02CE730E0F9012081D0
:104CA000207FFC01208389819A81FC018081918190
:104CB00088309105CCF48BE790E02BE730E0F901E8
:104CC0002081277FFC0120838CE790E02CE730E0F7
:104CD000F9012081422F29813A81F9012081318116
:104CE000242BFC01208319C08BE790E02BE730E0F8
:104CF000F90120812860FC0120838CE790E02CE7FB
:104D000030E0F9012081422F29813A81F901208187
:104D100031812850242BFC0120838AE790E02AE788
:104D200030E0F90120812860FC0120838AE790E0CF
:104D30002AE730E0F90120812064FC0120830F90F4
:104D40000F90DF91CF9108951F920F9200905F0016
:104D50000F92112400905B000F922F933F934F937B
:104D60005F936F937F938F939F93AF93BF93EF93D3
:104D7000FF93CF93DF9300D000D0CDB7DEB788E7A5
:104D800090E0FC018081882F90E09A83898389E7F5
:104D900090E0FC018081882F90E0982F882729815E
:104DA0003A81822B932B9A83898380915F1B909108
:104DB000601B880F991F880F991F880F991F8B51AF
:104DC000954EFC01808191819C838B8380915F1B38
:104DD0009091601B880F991F880F991F880F991F4A
:104DE0008D51954EFC01808191819E838D834D81F3
:104DF0005E8189819A812B813C81BA01F9011995E3
:104E00008AE790E02AE730E0F9012081277FFC0162
:104E100020838091DD1A9091DE1A20E040E050E07E
:104E200060E070E00E94950E26960FB6F894DEBF03
:104E30000FBECDBFDF91CF91FF91EF91BF91AF91A9
:104E40009F918F917F916F915F914F913F912F91A2
:104E50000F9000925B000F9000925F000F901F90E8
:104E60001895CF93DF9300D01F92CDB7DEB79C8308
:104E70008B831A82198214C089819A81880F991FA5
:104E8000880F991F880F991F8152954E2FEF3FEF82
:104E9000FC013183208389819A8101969A838983D9
:104EA00089819A81803191053CF30E94E62543E097
:104EB00060E081E00E943A0D9093DE1A8093DD1A43
:104EC0008091DD1A9091DE1A009759F08091DD1AD9
:104ED0009091DE1A20E040E050E060E070E00E9437
:104EE000F10D81E090E09093621B8093611B04C000
:104EF0008AE090E00E94C2048091DF1A9091E01A4B
:104F00008F3FFFEF9F07A1F380915F1B9091601B84
:104F1000880F991F880F991F880F991F8152954EEE
:104F20000E94FC2580915F1B9091601B01969093DD
:104F3000601B80935F1B80915F1B9091601B803191
:104F400091059CF480915F1B9091601B880F991FC5
:104F5000880F991F880F991F8152954EFC018081FF
:104F600091818F3FFFEF9F0721F41092601B1092F9
:104F70005F1B8091DD1A9091DE1A20E04FEF5FEF0A
:104F800060E070E00E94EE0EBFCFCF93DF93CDB70D
:104F9000DEB72A970FB6F894DEBF0FBECDBF9C8355
:104FA0008B837E836D8358874F833A87298704C01C
:104FB00083E090E00E94C2048091611B9091621B8B
:104FC0000097B1F31A82198205C089819A810196EE
:104FD0009A83898389819A81803191058CF48981B2
:104FE0009A81880F991F880F991F880F991F8152E6
:104FF000954EFC01808191818F3FFFEF9F0729F73C
:105000008B819C8188309105A4F48EE790E02EE797
:1050100030E0F9012081422F21E030E00B8002C016
:10502000220F331F0A94E2F720952423FC012083EA
:1050300018C08DE790E02DE730E0F9012081622F64
:105040002B813C81A9014850510921E030E0042E18
:1050500002C0220F331F0A94E2F720952623FC0199
:10506000208389819A81880F991F880F991F880F43
:10507000991F8152954EFC01808191818F3FFFEFF6
:105080009F07E1F589819A81880F991F880F991FE1
:10509000880F991F8152954E2B813C81FC013183F1
:1050A000208389819A81880F991F880F991F880F03
:1050B000991F8F51954E2D813E81FC0131832083B4
:1050C00089819A81880F991F880F991F880F991FCE
:1050D0008B51954E2F813885FC0131832083898146
:1050E0009A81880F991F880F991F880F991F8D51DA
:1050F000954E29853A85FC01318320832A960FB687
:10510000F894DEBF0FBECDBFDF91CF910895EE0FB3
:10511000FF1F0590F491E02D1994FB01DC0102C002
:1051200001900D9241505040D8F70895DC0101C024
:105130006D9341505040E0F70895FB01DC01415070
:10514000504048F001900D920020C9F701C01D9217
:1051500041505040E0F70895FB019F01E894423030
:10516000C4F04532B4F44A3029F497FB1EF490950C
:1051700081959F4F642F77270E94DD28805D8A33B9
:105180000CF0895D8193CB010097A1F716F45DE2E5
:1051900051931082C9010C94CD28DC01FC01672FCA
:1051A00071917723E1F7329704C07C916D937083FE
:1051B0006291AE17BF07C8F30895AA1BBB1B51E14C
:1051C00007C0AA1FBB1FA617B70710F0A61BB70B77
:1051D000881F991F5A95A9F780959095BC01CD011C
:0651E0000895F894FFCFD2
:1051E600FFFF0100020054300054340054530054B1
:1051F600330054350030313233343536373839419F
:10520600424344454649444C450002000300010020
:02521600000096
:00000001FF
